{
  "_format": "hh-sol-artifact-1",
  "contractName": "MarketplaceMaterial",
  "sourceName": "contracts/MarketplaceMaterial.sol",
  "abi": [
    {
      "inputs": [
        {
          "internalType": "address",
          "name": "_vaultBalanceAddress",
          "type": "address"
        },
        {
          "internalType": "address",
          "name": "_vaultMaterialAddress",
          "type": "address"
        },
        {
          "internalType": "uint256",
          "name": "_publicationFee",
          "type": "uint256"
        },
        {
          "internalType": "uint256",
          "name": "_ownerCutPerMillion",
          "type": "uint256"
        },
        {
          "internalType": "address",
          "name": "_owner",
          "type": "address"
        }
      ],
      "stateMutability": "nonpayable",
      "type": "constructor"
    },
    {
      "anonymous": false,
      "inputs": [
        {
          "indexed": false,
          "internalType": "uint256",
          "name": "newOwnerCutPerMillion",
          "type": "uint256"
        }
      ],
      "name": "ChangeOwnerCutPerMillionMaterial",
      "type": "event"
    },
    {
      "anonymous": false,
      "inputs": [
        {
          "indexed": false,
          "internalType": "uint256",
          "name": "newPublicationFeeInWei",
          "type": "uint256"
        }
      ],
      "name": "ChangePublicationFeeMaterial",
      "type": "event"
    },
    {
      "anonymous": false,
      "inputs": [],
      "name": "MarketplaceMaterialPaused",
      "type": "event"
    },
    {
      "anonymous": false,
      "inputs": [],
      "name": "MarketplaceMaterialUnpaused",
      "type": "event"
    },
    {
      "anonymous": false,
      "inputs": [
        {
          "indexed": false,
          "internalType": "bytes32",
          "name": "orderId",
          "type": "bytes32"
        },
        {
          "indexed": true,
          "internalType": "address",
          "name": "seller",
          "type": "address"
        },
        {
          "indexed": false,
          "internalType": "uint256",
          "name": "materialId",
          "type": "uint256"
        },
        {
          "indexed": false,
          "internalType": "uint256",
          "name": "materialAmount",
          "type": "uint256"
        }
      ],
      "name": "OrderCancelledMaterial",
      "type": "event"
    },
    {
      "anonymous": false,
      "inputs": [
        {
          "indexed": false,
          "internalType": "bytes32",
          "name": "orderId",
          "type": "bytes32"
        },
        {
          "indexed": true,
          "internalType": "address",
          "name": "seller",
          "type": "address"
        },
        {
          "indexed": false,
          "internalType": "uint256",
          "name": "materialId",
          "type": "uint256"
        },
        {
          "indexed": false,
          "internalType": "uint256",
          "name": "materialAmount",
          "type": "uint256"
        },
        {
          "indexed": false,
          "internalType": "uint256",
          "name": "nakaAmountTomaterial",
          "type": "uint256"
        }
      ],
      "name": "OrderCreatedMaterial",
      "type": "event"
    },
    {
      "anonymous": false,
      "inputs": [
        {
          "indexed": false,
          "internalType": "bytes32",
          "name": "orderId",
          "type": "bytes32"
        },
        {
          "indexed": true,
          "internalType": "address",
          "name": "seller",
          "type": "address"
        },
        {
          "indexed": false,
          "internalType": "uint256",
          "name": "materialId",
          "type": "uint256"
        },
        {
          "indexed": false,
          "internalType": "uint256",
          "name": "materialAmount",
          "type": "uint256"
        },
        {
          "indexed": false,
          "internalType": "uint256",
          "name": "nakaAmount",
          "type": "uint256"
        }
      ],
      "name": "OrderDetailMaterial",
      "type": "event"
    },
    {
      "anonymous": false,
      "inputs": [
        {
          "indexed": false,
          "internalType": "bytes32",
          "name": "orderId",
          "type": "bytes32"
        },
        {
          "indexed": true,
          "internalType": "address",
          "name": "buyer",
          "type": "address"
        },
        {
          "indexed": true,
          "internalType": "address",
          "name": "seller",
          "type": "address"
        },
        {
          "indexed": false,
          "internalType": "uint256",
          "name": "materialId",
          "type": "uint256"
        },
        {
          "indexed": false,
          "internalType": "uint256",
          "name": "materialAmount",
          "type": "uint256"
        },
        {
          "indexed": false,
          "internalType": "uint256",
          "name": "buyItemAmount",
          "type": "uint256"
        },
        {
          "indexed": false,
          "internalType": "uint256",
          "name": "totalPriceNaka",
          "type": "uint256"
        },
        {
          "indexed": false,
          "internalType": "uint256",
          "name": "ownerCutPerMillion",
          "type": "uint256"
        }
      ],
      "name": "OrderExecutedMaterial",
      "type": "event"
    },
    {
      "anonymous": false,
      "inputs": [
        {
          "indexed": true,
          "internalType": "address",
          "name": "previousOwner",
          "type": "address"
        },
        {
          "indexed": true,
          "internalType": "address",
          "name": "newOwner",
          "type": "address"
        }
      ],
      "name": "OwnershipTransferred",
      "type": "event"
    },
    {
      "anonymous": false,
      "inputs": [
        {
          "indexed": true,
          "internalType": "bytes32",
          "name": "role",
          "type": "bytes32"
        },
        {
          "indexed": true,
          "internalType": "bytes32",
          "name": "previousAdminRole",
          "type": "bytes32"
        },
        {
          "indexed": true,
          "internalType": "bytes32",
          "name": "newAdminRole",
          "type": "bytes32"
        }
      ],
      "name": "RoleAdminChanged",
      "type": "event"
    },
    {
      "anonymous": false,
      "inputs": [
        {
          "indexed": true,
          "internalType": "bytes32",
          "name": "role",
          "type": "bytes32"
        },
        {
          "indexed": true,
          "internalType": "address",
          "name": "account",
          "type": "address"
        },
        {
          "indexed": true,
          "internalType": "address",
          "name": "sender",
          "type": "address"
        }
      ],
      "name": "RoleGranted",
      "type": "event"
    },
    {
      "anonymous": false,
      "inputs": [
        {
          "indexed": true,
          "internalType": "bytes32",
          "name": "role",
          "type": "bytes32"
        },
        {
          "indexed": true,
          "internalType": "address",
          "name": "account",
          "type": "address"
        },
        {
          "indexed": true,
          "internalType": "address",
          "name": "sender",
          "type": "address"
        }
      ],
      "name": "RoleRevoked",
      "type": "event"
    },
    {
      "anonymous": false,
      "inputs": [
        {
          "indexed": true,
          "internalType": "address",
          "name": "vaultAddress",
          "type": "address"
        }
      ],
      "name": "SetVaultBalanceAddressMaterial",
      "type": "event"
    },
    {
      "anonymous": false,
      "inputs": [
        {
          "indexed": true,
          "internalType": "address",
          "name": "vaultAddress",
          "type": "address"
        }
      ],
      "name": "SetVaultMaterialAddressMaterial",
      "type": "event"
    },
    {
      "inputs": [],
      "name": "DEFAULT_ADMIN_ROLE",
      "outputs": [
        {
          "internalType": "bytes32",
          "name": "",
          "type": "bytes32"
        }
      ],
      "stateMutability": "view",
      "type": "function"
    },
    {
      "inputs": [],
      "name": "VAULT_ADMIN",
      "outputs": [
        {
          "internalType": "bytes32",
          "name": "",
          "type": "bytes32"
        }
      ],
      "stateMutability": "view",
      "type": "function"
    },
    {
      "inputs": [],
      "name": "_Owner",
      "outputs": [
        {
          "internalType": "address",
          "name": "",
          "type": "address"
        }
      ],
      "stateMutability": "view",
      "type": "function"
    },
    {
      "inputs": [
        {
          "internalType": "address",
          "name": "_sellerAccount",
          "type": "address"
        },
        {
          "internalType": "bytes32",
          "name": "_orderId",
          "type": "bytes32"
        }
      ],
      "name": "cancelOrderMaterial",
      "outputs": [
        {
          "components": [
            {
              "internalType": "bytes32",
              "name": "id",
              "type": "bytes32"
            },
            {
              "internalType": "address",
              "name": "seller",
              "type": "address"
            },
            {
              "internalType": "uint256",
              "name": "materialId",
              "type": "uint256"
            },
            {
              "internalType": "uint256",
              "name": "materialAmount",
              "type": "uint256"
            },
            {
              "internalType": "uint256",
              "name": "price",
              "type": "uint256"
            }
          ],
          "internalType": "struct MarketplaceMaterial.Order",
          "name": "",
          "type": "tuple"
        }
      ],
      "stateMutability": "nonpayable",
      "type": "function"
    },
    {
      "inputs": [
        {
          "internalType": "uint256",
          "name": "_materialId",
          "type": "uint256"
        },
        {
          "internalType": "uint256",
          "name": "_materialAmount",
          "type": "uint256"
        },
        {
          "internalType": "uint256",
          "name": "_nakaAmount",
          "type": "uint256"
        }
      ],
      "name": "createOrderMaterial",
      "outputs": [
        {
          "components": [
            {
              "internalType": "bytes32",
              "name": "id",
              "type": "bytes32"
            },
            {
              "internalType": "address",
              "name": "seller",
              "type": "address"
            },
            {
              "internalType": "uint256",
              "name": "materialId",
              "type": "uint256"
            },
            {
              "internalType": "uint256",
              "name": "materialAmount",
              "type": "uint256"
            },
            {
              "internalType": "uint256",
              "name": "price",
              "type": "uint256"
            }
          ],
          "internalType": "struct MarketplaceMaterial.Order",
          "name": "",
          "type": "tuple"
        }
      ],
      "stateMutability": "nonpayable",
      "type": "function"
    },
    {
      "inputs": [
        {
          "internalType": "address",
          "name": "_sellerAccount",
          "type": "address"
        },
        {
          "internalType": "bytes32",
          "name": "_orderId",
          "type": "bytes32"
        },
        {
          "internalType": "uint256",
          "name": "_materialAmount",
          "type": "uint256"
        }
      ],
      "name": "executeOrderMaterial",
      "outputs": [
        {
          "components": [
            {
              "internalType": "bytes32",
              "name": "id",
              "type": "bytes32"
            },
            {
              "internalType": "address",
              "name": "seller",
              "type": "address"
            },
            {
              "internalType": "uint256",
              "name": "materialId",
              "type": "uint256"
            },
            {
              "internalType": "uint256",
              "name": "materialAmount",
              "type": "uint256"
            },
            {
              "internalType": "uint256",
              "name": "price",
              "type": "uint256"
            }
          ],
          "internalType": "struct MarketplaceMaterial.Order",
          "name": "",
          "type": "tuple"
        }
      ],
      "stateMutability": "nonpayable",
      "type": "function"
    },
    {
      "inputs": [
        {
          "internalType": "address",
          "name": "_sellerAccount",
          "type": "address"
        },
        {
          "internalType": "bytes32",
          "name": "_orderId",
          "type": "bytes32"
        }
      ],
      "name": "getOrderInfoMaterial",
      "outputs": [
        {
          "components": [
            {
              "internalType": "bytes32",
              "name": "id",
              "type": "bytes32"
            },
            {
              "internalType": "address",
              "name": "seller",
              "type": "address"
            },
            {
              "internalType": "uint256",
              "name": "materialId",
              "type": "uint256"
            },
            {
              "internalType": "uint256",
              "name": "materialAmount",
              "type": "uint256"
            },
            {
              "internalType": "uint256",
              "name": "price",
              "type": "uint256"
            }
          ],
          "internalType": "struct MarketplaceMaterial.Order",
          "name": "",
          "type": "tuple"
        }
      ],
      "stateMutability": "nonpayable",
      "type": "function"
    },
    {
      "inputs": [],
      "name": "getOwnerCutPerMillion",
      "outputs": [
        {
          "internalType": "uint256",
          "name": "",
          "type": "uint256"
        }
      ],
      "stateMutability": "view",
      "type": "function"
    },
    {
      "inputs": [],
      "name": "getPublicationFee",
      "outputs": [
        {
          "internalType": "uint256",
          "name": "",
          "type": "uint256"
        }
      ],
      "stateMutability": "view",
      "type": "function"
    },
    {
      "inputs": [
        {
          "internalType": "bytes32",
          "name": "role",
          "type": "bytes32"
        }
      ],
      "name": "getRoleAdmin",
      "outputs": [
        {
          "internalType": "bytes32",
          "name": "",
          "type": "bytes32"
        }
      ],
      "stateMutability": "view",
      "type": "function"
    },
    {
      "inputs": [
        {
          "internalType": "bytes32",
          "name": "role",
          "type": "bytes32"
        },
        {
          "internalType": "address",
          "name": "account",
          "type": "address"
        }
      ],
      "name": "grantRole",
      "outputs": [],
      "stateMutability": "nonpayable",
      "type": "function"
    },
    {
      "inputs": [
        {
          "internalType": "bytes32",
          "name": "role",
          "type": "bytes32"
        },
        {
          "internalType": "address",
          "name": "account",
          "type": "address"
        }
      ],
      "name": "hasRole",
      "outputs": [
        {
          "internalType": "bool",
          "name": "",
          "type": "bool"
        }
      ],
      "stateMutability": "view",
      "type": "function"
    },
    {
      "inputs": [
        {
          "internalType": "bytes32",
          "name": "_role",
          "type": "bytes32"
        },
        {
          "internalType": "address[]",
          "name": "_workerAddress",
          "type": "address[]"
        }
      ],
      "name": "multiGrantRole",
      "outputs": [],
      "stateMutability": "nonpayable",
      "type": "function"
    },
    {
      "inputs": [
        {
          "internalType": "address",
          "name": "",
          "type": "address"
        },
        {
          "internalType": "bytes32",
          "name": "",
          "type": "bytes32"
        }
      ],
      "name": "orderByOrderId",
      "outputs": [
        {
          "internalType": "bytes32",
          "name": "id",
          "type": "bytes32"
        },
        {
          "internalType": "address",
          "name": "seller",
          "type": "address"
        },
        {
          "internalType": "uint256",
          "name": "materialId",
          "type": "uint256"
        },
        {
          "internalType": "uint256",
          "name": "materialAmount",
          "type": "uint256"
        },
        {
          "internalType": "uint256",
          "name": "price",
          "type": "uint256"
        }
      ],
      "stateMutability": "view",
      "type": "function"
    },
    {
      "inputs": [],
      "name": "owner",
      "outputs": [
        {
          "internalType": "address",
          "name": "",
          "type": "address"
        }
      ],
      "stateMutability": "view",
      "type": "function"
    },
    {
      "inputs": [],
      "name": "ownerCutPerMillion",
      "outputs": [
        {
          "internalType": "uint256",
          "name": "",
          "type": "uint256"
        }
      ],
      "stateMutability": "view",
      "type": "function"
    },
    {
      "inputs": [],
      "name": "pauseMarketplace",
      "outputs": [],
      "stateMutability": "nonpayable",
      "type": "function"
    },
    {
      "inputs": [],
      "name": "publicationFeeInWei",
      "outputs": [
        {
          "internalType": "uint256",
          "name": "",
          "type": "uint256"
        }
      ],
      "stateMutability": "view",
      "type": "function"
    },
    {
      "inputs": [],
      "name": "renounceOwnership",
      "outputs": [],
      "stateMutability": "nonpayable",
      "type": "function"
    },
    {
      "inputs": [
        {
          "internalType": "bytes32",
          "name": "role",
          "type": "bytes32"
        },
        {
          "internalType": "address",
          "name": "account",
          "type": "address"
        }
      ],
      "name": "renounceRole",
      "outputs": [],
      "stateMutability": "nonpayable",
      "type": "function"
    },
    {
      "inputs": [
        {
          "internalType": "bytes32",
          "name": "role",
          "type": "bytes32"
        },
        {
          "internalType": "address",
          "name": "account",
          "type": "address"
        }
      ],
      "name": "revokeRole",
      "outputs": [],
      "stateMutability": "nonpayable",
      "type": "function"
    },
    {
      "inputs": [
        {
          "internalType": "uint256",
          "name": "_ownerCutPerMillion",
          "type": "uint256"
        }
      ],
      "name": "setOwnerCutPerMillion",
      "outputs": [],
      "stateMutability": "nonpayable",
      "type": "function"
    },
    {
      "inputs": [
        {
          "internalType": "uint256",
          "name": "_publicationFee",
          "type": "uint256"
        }
      ],
      "name": "setPublicationFee",
      "outputs": [],
      "stateMutability": "nonpayable",
      "type": "function"
    },
    {
      "inputs": [
        {
          "internalType": "bytes4",
          "name": "interfaceId",
          "type": "bytes4"
        }
      ],
      "name": "supportsInterface",
      "outputs": [
        {
          "internalType": "bool",
          "name": "",
          "type": "bool"
        }
      ],
      "stateMutability": "view",
      "type": "function"
    },
    {
      "inputs": [
        {
          "internalType": "address",
          "name": "newOwner",
          "type": "address"
        }
      ],
      "name": "transferOwnership",
      "outputs": [],
      "stateMutability": "nonpayable",
      "type": "function"
    },
    {
      "inputs": [],
      "name": "unpauseMarketplace",
      "outputs": [],
      "stateMutability": "nonpayable",
      "type": "function"
    },
    {
      "inputs": [],
      "name": "vaultBalance",
      "outputs": [
        {
          "internalType": "contract IBalanceVault",
          "name": "",
          "type": "address"
        }
      ],
      "stateMutability": "view",
      "type": "function"
    },
    {
      "inputs": [],
      "name": "vaultMaterial",
      "outputs": [
        {
          "internalType": "contract IMaterialVault",
          "name": "",
          "type": "address"
        }
      ],
      "stateMutability": "view",
      "type": "function"
    }
  ],
  "bytecode": "0x60806040523480156200001157600080fd5b506040516200201a3803806200201a83398101604081905262000034916200032f565b6200003f3362000125565b6001600255600480546001600160a01b0319166001600160a01b0387169081179091556040517fb56a8652e2916d5e2c2a16718a7469c852194b95bdcecb75bb52edcc53aa36ff90600090a2600580546001600160a01b0319166001600160a01b0386169081179091556040517ff2410757e0d0d6a249227533918903bd5f34b605a9a9aa213cc4ef756ef3b74390600090a2620000df60003362000175565b600380546001600160a01b0319166001600160a01b03831617905560088390556200010a8362000185565b60078290556200011a8262000185565b50505050506200038d565b600080546001600160a01b038381166001600160a01b0319831681178455604051919092169283917f8be0079c531659141344cd1fd0a4f28419497f9722a3daafe3b4186f6b6457e09190a35050565b6200018182826200028a565b5050565b6000546001600160a01b03163314620001e55760405162461bcd60e51b815260206004820181905260248201527f4f776e61626c653a2063616c6c6572206973206e6f7420746865206f776e657260448201526064015b60405180910390fd5b620f424081106200024f5760405162461bcd60e51b815260206004820152602d60248201527f546865206f776e6572206375742073686f756c64206265206265747765656e2060448201526c3020616e64203939392c39393960981b6064820152608401620001dc565b60078190556040518181527fc56b4b62e3ca239a18ac9cf8f3a4985e1ca30443ff0c14cc7c4688860d51a8c39060200160405180910390a150565b60008281526001602090815260408083206001600160a01b038516845290915290205460ff16620001815760008281526001602081815260408084206001600160a01b0386168086529252808420805460ff19169093179092559051339285917f2f8788117e7eff1d82e926ec794901d17c78024a50270940304540a733656f0d9190a45050565b80516001600160a01b03811681146200032a57600080fd5b919050565b600080600080600060a086880312156200034857600080fd5b620003538662000312565b9450620003636020870162000312565b93506040860151925060608601519150620003816080870162000312565b90509295509295909350565b611c7d806200039d6000396000f3fe608060405234801561001057600080fd5b50600436106101c45760003560e01c80637c231d90116100f9578063a217fddf11610097578063cb82437311610071578063cb8243731461043c578063d547741f14610463578063dcc2345514610476578063f2fde38b1461048957600080fd5b8063a217fddf14610418578063ae4f119814610420578063af8996f11461042957600080fd5b806389a4b2a2116100d357806389a4b2a2146103d85780638da5cb5b146103eb57806391d14854146103fc578063a01f79d41461040f57600080fd5b80637c231d90146103aa5780638231292e146103bd5780638945462a146103d057600080fd5b806336568abe1161016657806347d1c4c41161014057806347d1c4c4146103055780634d0d26bd1461038757806360a71df51461039a578063715018a6146103a257600080fd5b806336568abe146102d75780633b31afb2146102ea5780633ec62279146102fd57600080fd5b80631ef9cef7116101a25780631ef9cef71461023157806321f67fbb1461028a578063248a9ca3146102925780632f2ff15d146102c457600080fd5b806301ffc9a7146101c95780630bf6cc08146101f157806319dad16d1461021c575b600080fd5b6101dc6101d736600461197a565b61049c565b60405190151581526020015b60405180910390f35b600454610204906001600160a01b031681565b6040516001600160a01b0390911681526020016101e8565b61022f61022a36600461185d565b6104d3565b005b61024461023f366004611800565b6105aa565b6040516101e89190815181526020808301516001600160a01b03169082015260408083015190820152606080830151908201526080918201519181019190915260a00190565b61022f6106a9565b6102b66102a036600461185d565b6000908152600160208190526040909120015490565b6040519081526020016101e8565b61022f6102d2366004611876565b61077f565b61022f6102e5366004611876565b6107aa565b6102446102f83660046119a4565b610828565b61022f610adb565b610357610313366004611800565b60066020908152600092835260408084209091529082529020805460018201546002830154600384015460049094015492936001600160a01b039092169290919085565b604080519586526001600160a01b039094166020860152928401919091526060830152608082015260a0016101e8565b610244610395366004611800565b610b6d565b6007546102b6565b61022f610d8b565b600554610204906001600160a01b031681565b6102446103cb36600461182a565b610dc1565b6008546102b6565b61022f6103e63660046118a2565b61129e565b6000546001600160a01b0316610204565b6101dc61040a366004611876565b611310565b6102b660075481565b6102b6600081565b6102b660085481565b61022f61043736600461185d565b61133b565b6102b67fb15e2bb6de8e562b452dcfd0ca719f799c9919f6645dee389052d6326e77eb6081565b61022f610471366004611876565b61139a565b600354610204906001600160a01b031681565b61022f6104973660046117e5565b6113c0565b60006001600160e01b03198216637965db0b60e01b14806104cd57506301ffc9a760e01b6001600160e01b03198316145b92915050565b6000546001600160a01b031633146105065760405162461bcd60e51b81526004016104fd90611a78565b60405180910390fd5b620f4240811061056e5760405162461bcd60e51b815260206004820152602d60248201527f546865206f776e6572206375742073686f756c64206265206265747765656e2060448201526c3020616e64203939392c39393960981b60648201526084016104fd565b60078190556040518181527fc56b4b62e3ca239a18ac9cf8f3a4985e1ca30443ff0c14cc7c4688860d51a8c3906020015b60405180910390a150565b6105b261178e565b6001600160a01b038084166000908152600660209081526040808320868452825291829020825160a0810184528154808252600183015490951692810192909252600281015492820192909252600382015460608201526004909101546080820152906106315760405162461bcd60e51b81526004016104fd90611aad565b80602001516001600160a01b03167f8c9e71e2b8e6dce6f5957a192b371a04a161c600cdcbd87c0d4060112d227649826000015183604001518460600151856080015160405161069a949392919093845260208401929092526040830152606082015260800190565b60405180910390a29392505050565b6000546001600160a01b031633146106d35760405162461bcd60e51b81526004016104fd90611a78565b600554600160a01b900460ff166107475760405162461bcd60e51b815260206004820152603260248201527f5b4d61726b6574706c6163652e7768656e4d61726b6574706c6163654d6174656044820152711c9a585b14185d5cd959174814185d5cd95960721b60648201526084016104fd565b6005805460ff60a01b191690556040517f4f4e58c53d17dc1749294d7aa246c34d8546f031353521bacaf40e6c0b78bd7090600090a1565b6000828152600160208190526040909120015461079b8161145b565b6107a58383611465565b505050565b6001600160a01b038116331461081a5760405162461bcd60e51b815260206004820152602f60248201527f416363657373436f6e74726f6c3a2063616e206f6e6c792072656e6f756e636560448201526e103937b632b9903337b91039b2b63360891b60648201526084016104fd565b61082482826114d0565b5050565b61083061178e565b600554600160a01b900460ff161561085a5760405162461bcd60e51b81526004016104fd90611ada565b6040805142602082015290810185905233606090811b6bffffffffffffffffffffffff1916908201526074810183905260009060940160408051808303601f19018152908290528051602090910120600554630fe2dd8b60e31b835233600484015260248301889052604483018790529092506001600160a01b031690637f16ec5890606401600060405180830381600087803b1580156108fa57600080fd5b505af115801561090e573d6000803e3d6000fd5b505060048054600854604051600162fa96b760e01b03198152339381019390935260248301526001600160a01b0316925063ff0569499150604401600060405180830381600087803b15801561096357600080fd5b505af1158015610977573d6000803e3d6000fd5b505060048054600354600854604051635b86f59960e01b81526001600160a01b03928316948101949094526024840152169250635b86f5999150604401600060405180830381600087803b1580156109ce57600080fd5b505af11580156109e2573d6000803e3d6000fd5b50506040805160a080820183528582523360208084018281528486018d815260608087018e815260808089018f81526000888152600688528b81208f825288528b90209951808b55955160018b0180546001600160a01b0319166001600160a01b039092169182179055945160028b01819055925160038b0181905590516004909a018a90558a519889018b529488528786019390935286890152858101929092528481019590955285518981529182018d90529481018b905293840189905290945092507f904efd2636dfb2931f7c04889ec18a2795489a902f28c7501aa671e3bd942c0e910160405180910390a295945050505050565b6000546001600160a01b03163314610b055760405162461bcd60e51b81526004016104fd90611a78565b600554600160a01b900460ff1615610b2f5760405162461bcd60e51b81526004016104fd90611ada565b6005805460ff60a01b1916600160a01b1790556040517f799223898b819448000a125cd6ae442afb3ee25546c1e15edbaa86d2fbb7be0e90600090a1565b610b7561178e565b600554600160a01b900460ff1615610b9f5760405162461bcd60e51b81526004016104fd90611ada565b6001600160a01b038084166000908152600660209081526040808320868452825291829020825160a081018452815480825260018301549095169281019290925260028101549282019290925260038201546060820152600490910154608082015290610c1e5760405162461bcd60e51b81526004016104fd90611aad565b60208101516001600160a01b03163314610c6e5760405162461bcd60e51b81526020600482015260116024820152702ab730baba3437b934bd32b2103ab9b2b960791b60448201526064016104fd565b60055460208201516040808401516060850151915163f509af7760e01b81526001600160a01b0393841660048201526024810191909152604481019190915291169063f509af7790606401600060405180830381600087803b158015610cd357600080fd5b505af1158015610ce7573d6000803e3d6000fd5b505050602080830180516001600160a01b0390811660009081526006845260408082208983529094528381208181556001810180546001600160a01b03191690556002810182905560038101829055600401559051845183860151606087015194519290931694507feac85c84bf4631d54dbb8623d17368d5b11b3f13d481aa36a600a7d38158c4fa9361069a939183526020830191909152604082015260600190565b6000546001600160a01b03163314610db55760405162461bcd60e51b81526004016104fd90611a78565b610dbf6000611537565b565b610dc961178e565b600554600160a01b900460ff1615610df35760405162461bcd60e51b81526004016104fd90611ada565b6001600160a01b0380851660009081526006602090815260408083208784528252808320815160a0810183528154808252600183015490961693810193909352600281015491830191909152600381015460608301526004015460808201529091610e705760405162461bcd60e51b81526004016104fd90611aad565b8381606001511015610ec45760405162461bcd60e51b815260206004820152601860248201527f4974656d20696e206f72646572206e6f7420656e6f756768000000000000000060448201526064016104fd565b8381606001818151610ed69190611b90565b9052506040805160a081018252825181526020808401516001600160a01b0390811682840190815285850151848601908152606080880151908601908152608080890180519188019182528e86166000908152600688528981208f82529097529786209651875592516001870180546001600160a01b031916919095161790935551600285015590516003840155516004909201919091559051610f7b908690611b71565b60048054604051600162fa96b760e01b031981523392810192909252602482018390529192506001600160a01b039091169063ff05694990604401600060405180830381600087803b158015610fd057600080fd5b505af1158015610fe4573d6000803e3d6000fd5b5050600554604085810151905163f509af7760e01b81523360048201526024810191909152604481018990526001600160a01b03909116925063f509af779150606401600060405180830381600087803b15801561104157600080fd5b505af1158015611055573d6000803e3d6000fd5b5050600480546020860151604051635b86f59960e01b81526001600160a01b039182169381019390935260248301869052169250635b86f5999150604401600060405180830381600087803b1580156110ad57600080fd5b505af11580156110c1573d6000803e3d6000fd5b50505050620f4240600754826110d79190611b71565b6110e19190611b4f565b600480546020850151604051600162fa96b760e01b031981529396506001600160a01b039091169263ff0569499261113092918891016001600160a01b03929092168252602082015260400190565b600060405180830381600087803b15801561114a57600080fd5b505af115801561115e573d6000803e3d6000fd5b505060048054600354604051635b86f59960e01b81526001600160a01b039182169381019390935260248301889052169250635b86f5999150604401600060405180830381600087803b1580156111b457600080fd5b505af11580156111c8573d6000803e3d6000fd5b505050506060820151611220576001600160a01b038716600090815260066020908152604080832089845290915281208181556001810180546001600160a01b03191690556002810182905560038101829055600401555b6020808301518351604080860151606080880151835194855295840191909152908201939093529182018790526080820183905260a082018590526001600160a01b03169033907f227f3950b018343ac8750883ba9ff9982ec36e9d8576643f2d18045e13f5336d9060c00160405180910390a35095945050505050565b6000546001600160a01b031633146112c85760405162461bcd60e51b81526004016104fd90611a78565b805160005b8181101561130a576112f8848483815181106112eb576112eb611c1b565b602002602001015161077f565b8061130281611bea565b9150506112cd565b50505050565b60009182526001602090815260408084206001600160a01b0393909316845291905290205460ff1690565b6000546001600160a01b031633146113655760405162461bcd60e51b81526004016104fd90611a78565b60088190556040518181527fcec2253610663f3acd50ce5f266b9e8aa6697cfa8f9cf14460857c5c796c12279060200161059f565b600082815260016020819052604090912001546113b68161145b565b6107a583836114d0565b6000546001600160a01b031633146113ea5760405162461bcd60e51b81526004016104fd90611a78565b6001600160a01b03811661144f5760405162461bcd60e51b815260206004820152602660248201527f4f776e61626c653a206e6577206f776e657220697320746865207a65726f206160448201526564647265737360d01b60648201526084016104fd565b61145881611537565b50565b6114588133611587565b61146f8282611310565b6108245760008281526001602081815260408084206001600160a01b0386168086529252808420805460ff19169093179092559051339285917f2f8788117e7eff1d82e926ec794901d17c78024a50270940304540a733656f0d9190a45050565b6114da8282611310565b156108245760008281526001602090815260408083206001600160a01b0385168085529252808320805460ff1916905551339285917ff6391f5c32d9c69d2a47ea670b442974b53935d1edc7fd64eb21e047a839171b9190a45050565b600080546001600160a01b038381166001600160a01b0319831681178455604051919092169283917f8be0079c531659141344cd1fd0a4f28419497f9722a3daafe3b4186f6b6457e09190a35050565b6115918282611310565b610824576115a9816001600160a01b031660146115eb565b6115b48360206115eb565b6040516020016115c59291906119d0565b60408051601f198184030181529082905262461bcd60e51b82526104fd91600401611a45565b606060006115fa836002611b71565b611605906002611b37565b67ffffffffffffffff81111561161d5761161d611c31565b6040519080825280601f01601f191660200182016040528015611647576020820181803683370190505b509050600360fc1b8160008151811061166257611662611c1b565b60200101906001600160f81b031916908160001a905350600f60fb1b8160018151811061169157611691611c1b565b60200101906001600160f81b031916908160001a90535060006116b5846002611b71565b6116c0906001611b37565b90505b6001811115611738576f181899199a1a9b1b9c1cb0b131b232b360811b85600f16601081106116f4576116f4611c1b565b1a60f81b82828151811061170a5761170a611c1b565b60200101906001600160f81b031916908160001a90535060049490941c9361173181611bd3565b90506116c3565b5083156117875760405162461bcd60e51b815260206004820181905260248201527f537472696e67733a20686578206c656e67746820696e73756666696369656e7460448201526064016104fd565b9392505050565b6040518060a001604052806000801916815260200160006001600160a01b031681526020016000815260200160008152602001600081525090565b80356001600160a01b03811681146117e057600080fd5b919050565b6000602082840312156117f757600080fd5b611787826117c9565b6000806040838503121561181357600080fd5b61181c836117c9565b946020939093013593505050565b60008060006060848603121561183f57600080fd5b611848846117c9565b95602085013595506040909401359392505050565b60006020828403121561186f57600080fd5b5035919050565b6000806040838503121561188957600080fd5b82359150611899602084016117c9565b90509250929050565b600080604083850312156118b557600080fd5b8235915060208084013567ffffffffffffffff808211156118d557600080fd5b818601915086601f8301126118e957600080fd5b8135818111156118fb576118fb611c31565b8060051b604051601f19603f8301168101818110858211171561192057611920611c31565b604052828152858101935084860182860187018b101561193f57600080fd5b600095505b8386101561196957611955816117c9565b855260019590950194938601938601611944565b508096505050505050509250929050565b60006020828403121561198c57600080fd5b81356001600160e01b03198116811461178757600080fd5b6000806000606084860312156119b957600080fd5b505081359360208301359350604090920135919050565b7f416363657373436f6e74726f6c3a206163636f756e7420000000000000000000815260008351611a08816017850160208801611ba7565b7001034b99036b4b9b9b4b733903937b6329607d1b6017918401918201528351611a39816028840160208801611ba7565b01602801949350505050565b6020815260008251806020840152611a64816040850160208701611ba7565b601f01601f19169190910160400192915050565b6020808252818101527f4f776e61626c653a2063616c6c6572206973206e6f7420746865206f776e6572604082015260600190565b602080825260139082015272105cdcd95d081b9bdd081c1d589b1a5cda1959606a1b604082015260600190565b60208082526039908201527f5b4d61726b6574706c6163652e7768656e4d61726b6574706c6163654d61746560408201527f7269616c4e6f745061757365645d204e6f742050617573656400000000000000606082015260800190565b60008219821115611b4a57611b4a611c05565b500190565b600082611b6c57634e487b7160e01b600052601260045260246000fd5b500490565b6000816000190483118215151615611b8b57611b8b611c05565b500290565b600082821015611ba257611ba2611c05565b500390565b60005b83811015611bc2578181015183820152602001611baa565b8381111561130a5750506000910152565b600081611be257611be2611c05565b506000190190565b6000600019821415611bfe57611bfe611c05565b5060010190565b634e487b7160e01b600052601160045260246000fd5b634e487b7160e01b600052603260045260246000fd5b634e487b7160e01b600052604160045260246000fdfea2646970667358221220b719b3ea7ea05dc91198d48d0a11e5c551b566747747b763f775f193d8481d8b64736f6c63430008070033",
  "linkReferences": {},
  "deployedLinkReferences": {}
}