{
  "_format": "hh-sol-artifact-1",
  "contractName": "NFTRenting",
  "sourceName": "contracts/NFTRenting.sol",
  "abi": [
    {
      "inputs": [
        {
          "internalType": "address",
          "name": "_tokenAddress",
          "type": "address"
        },
        {
          "internalType": "address",
          "name": "_marketplaceNFTAddress",
          "type": "address"
        },
        {
          "internalType": "address",
          "name": "_installmentAddress",
          "type": "address"
        },
        {
          "internalType": "address",
          "name": "_nftVaultAddress",
          "type": "address"
        }
      ],
      "stateMutability": "nonpayable",
      "type": "constructor"
    },
    {
      "anonymous": false,
      "inputs": [
        {
          "indexed": false,
          "internalType": "bytes32",
          "name": "orderIdRentingNFT",
          "type": "bytes32"
        },
        {
          "indexed": false,
          "internalType": "address",
          "name": "NFTaddress",
          "type": "address"
        },
        {
          "indexed": false,
          "internalType": "uint256",
          "name": "NFTID",
          "type": "uint256"
        },
        {
          "indexed": false,
          "internalType": "address",
          "name": "NFTOwner",
          "type": "address"
        }
      ],
      "name": "CancelListedRentingNFT",
      "type": "event"
    },
    {
      "anonymous": false,
      "inputs": [
        {
          "indexed": false,
          "internalType": "bytes32",
          "name": "orderIdRentingNFT",
          "type": "bytes32"
        },
        {
          "indexed": false,
          "internalType": "address",
          "name": "newOwner",
          "type": "address"
        }
      ],
      "name": "ChangeOwnerRentingNFT",
      "type": "event"
    },
    {
      "anonymous": false,
      "inputs": [
        {
          "indexed": false,
          "internalType": "bytes32",
          "name": "orderIdRentingNFT",
          "type": "bytes32"
        },
        {
          "indexed": false,
          "internalType": "address",
          "name": "NFTaddress",
          "type": "address"
        },
        {
          "indexed": false,
          "internalType": "uint256",
          "name": "NFTID",
          "type": "uint256"
        },
        {
          "indexed": false,
          "internalType": "address",
          "name": "NFTOwner",
          "type": "address"
        },
        {
          "indexed": false,
          "internalType": "uint256",
          "name": "NFTOwnerReceivedAmount",
          "type": "uint256"
        },
        {
          "indexed": false,
          "internalType": "address",
          "name": "renter",
          "type": "address"
        },
        {
          "indexed": false,
          "internalType": "uint256",
          "name": "lastClaimedTime",
          "type": "uint256"
        },
        {
          "indexed": false,
          "internalType": "uint256",
          "name": "claimedAmount",
          "type": "uint256"
        },
        {
          "indexed": false,
          "internalType": "uint256",
          "name": "totalClaimed",
          "type": "uint256"
        },
        {
          "indexed": false,
          "internalType": "uint256",
          "name": "claimedBalance",
          "type": "uint256"
        },
        {
          "indexed": false,
          "internalType": "uint256",
          "name": "countClaimed",
          "type": "uint256"
        }
      ],
      "name": "ClaimFeeRenting",
      "type": "event"
    },
    {
      "anonymous": false,
      "inputs": [
        {
          "indexed": false,
          "internalType": "bytes32",
          "name": "orderIdRentingNFT",
          "type": "bytes32"
        },
        {
          "indexed": false,
          "internalType": "address",
          "name": "NFTaddress",
          "type": "address"
        },
        {
          "indexed": false,
          "internalType": "uint256",
          "name": "NFTID",
          "type": "uint256"
        },
        {
          "indexed": false,
          "internalType": "uint256",
          "name": "rentalPeriod",
          "type": "uint256"
        },
        {
          "indexed": false,
          "internalType": "address",
          "name": "renter",
          "type": "address"
        },
        {
          "indexed": false,
          "internalType": "uint256",
          "name": "rentalStart",
          "type": "uint256"
        },
        {
          "indexed": false,
          "internalType": "uint256",
          "name": "rentalEnd",
          "type": "uint256"
        },
        {
          "indexed": false,
          "internalType": "uint256",
          "name": "totalRenterSpent",
          "type": "uint256"
        },
        {
          "indexed": false,
          "internalType": "uint256",
          "name": "nextClaimedTime",
          "type": "uint256"
        }
      ],
      "name": "ExecuteRent",
      "type": "event"
    },
    {
      "anonymous": false,
      "inputs": [
        {
          "indexed": false,
          "internalType": "bytes32",
          "name": "orderIdRentingNFT",
          "type": "bytes32"
        },
        {
          "indexed": false,
          "internalType": "address",
          "name": "NFTaddress",
          "type": "address"
        },
        {
          "indexed": false,
          "internalType": "uint256",
          "name": "NFTID",
          "type": "uint256"
        },
        {
          "indexed": false,
          "internalType": "uint256",
          "name": "rentalPricePerDays",
          "type": "uint256"
        },
        {
          "indexed": false,
          "internalType": "uint256",
          "name": "maxPeriod",
          "type": "uint256"
        },
        {
          "indexed": false,
          "internalType": "address",
          "name": "NFTOwner",
          "type": "address"
        }
      ],
      "name": "ListRentingNFT",
      "type": "event"
    },
    {
      "anonymous": false,
      "inputs": [
        {
          "indexed": true,
          "internalType": "address",
          "name": "previousOwner",
          "type": "address"
        },
        {
          "indexed": true,
          "internalType": "address",
          "name": "newOwner",
          "type": "address"
        }
      ],
      "name": "OwnershipTransferred",
      "type": "event"
    },
    {
      "anonymous": false,
      "inputs": [
        {
          "indexed": false,
          "internalType": "address",
          "name": "account",
          "type": "address"
        }
      ],
      "name": "Paused",
      "type": "event"
    },
    {
      "anonymous": false,
      "inputs": [
        {
          "indexed": true,
          "internalType": "bytes32",
          "name": "role",
          "type": "bytes32"
        },
        {
          "indexed": true,
          "internalType": "bytes32",
          "name": "previousAdminRole",
          "type": "bytes32"
        },
        {
          "indexed": true,
          "internalType": "bytes32",
          "name": "newAdminRole",
          "type": "bytes32"
        }
      ],
      "name": "RoleAdminChanged",
      "type": "event"
    },
    {
      "anonymous": false,
      "inputs": [
        {
          "indexed": true,
          "internalType": "bytes32",
          "name": "role",
          "type": "bytes32"
        },
        {
          "indexed": true,
          "internalType": "address",
          "name": "account",
          "type": "address"
        },
        {
          "indexed": true,
          "internalType": "address",
          "name": "sender",
          "type": "address"
        }
      ],
      "name": "RoleGranted",
      "type": "event"
    },
    {
      "anonymous": false,
      "inputs": [
        {
          "indexed": true,
          "internalType": "bytes32",
          "name": "role",
          "type": "bytes32"
        },
        {
          "indexed": true,
          "internalType": "address",
          "name": "account",
          "type": "address"
        },
        {
          "indexed": true,
          "internalType": "address",
          "name": "sender",
          "type": "address"
        }
      ],
      "name": "RoleRevoked",
      "type": "event"
    },
    {
      "anonymous": false,
      "inputs": [
        {
          "indexed": false,
          "internalType": "address",
          "name": "account",
          "type": "address"
        }
      ],
      "name": "Unpaused",
      "type": "event"
    },
    {
      "inputs": [
        {
          "internalType": "address",
          "name": "",
          "type": "address"
        },
        {
          "internalType": "uint256",
          "name": "",
          "type": "uint256"
        }
      ],
      "name": "CheckDetails",
      "outputs": [
        {
          "internalType": "bytes32",
          "name": "orderIdRentingNFT",
          "type": "bytes32"
        },
        {
          "internalType": "address",
          "name": "owner",
          "type": "address"
        }
      ],
      "stateMutability": "view",
      "type": "function"
    },
    {
      "inputs": [
        {
          "internalType": "bytes32",
          "name": "",
          "type": "bytes32"
        }
      ],
      "name": "ClaimedDetails",
      "outputs": [
        {
          "internalType": "bytes32",
          "name": "orderIdRentingNFT",
          "type": "bytes32"
        },
        {
          "internalType": "uint256",
          "name": "lastClaimedTime",
          "type": "uint256"
        },
        {
          "internalType": "uint256",
          "name": "nextClaimedTime",
          "type": "uint256"
        },
        {
          "internalType": "uint256",
          "name": "claimedAmount",
          "type": "uint256"
        },
        {
          "internalType": "uint256",
          "name": "totalClaimed",
          "type": "uint256"
        },
        {
          "internalType": "uint256",
          "name": "claimedBalance",
          "type": "uint256"
        },
        {
          "internalType": "uint256",
          "name": "claimedTokenBalance",
          "type": "uint256"
        }
      ],
      "stateMutability": "view",
      "type": "function"
    },
    {
      "inputs": [],
      "name": "DEFAULT_ADMIN_ROLE",
      "outputs": [
        {
          "internalType": "bytes32",
          "name": "",
          "type": "bytes32"
        }
      ],
      "stateMutability": "view",
      "type": "function"
    },
    {
      "inputs": [],
      "name": "Days",
      "outputs": [
        {
          "internalType": "uint256",
          "name": "",
          "type": "uint256"
        }
      ],
      "stateMutability": "view",
      "type": "function"
    },
    {
      "inputs": [
        {
          "internalType": "bytes32",
          "name": "",
          "type": "bytes32"
        }
      ],
      "name": "RentingNFTs",
      "outputs": [
        {
          "internalType": "bytes32",
          "name": "orderIdRentingNFT",
          "type": "bytes32"
        },
        {
          "internalType": "address",
          "name": "nftAddress",
          "type": "address"
        },
        {
          "internalType": "uint256",
          "name": "nftTokenID",
          "type": "uint256"
        },
        {
          "internalType": "address",
          "name": "owner",
          "type": "address"
        },
        {
          "internalType": "address",
          "name": "renter",
          "type": "address"
        },
        {
          "internalType": "uint256",
          "name": "rentalPricePerDays",
          "type": "uint256"
        },
        {
          "internalType": "uint256",
          "name": "rentalPeriod",
          "type": "uint256"
        },
        {
          "internalType": "uint256",
          "name": "rentalStart",
          "type": "uint256"
        },
        {
          "internalType": "uint256",
          "name": "rentalEnd",
          "type": "uint256"
        },
        {
          "internalType": "uint256",
          "name": "maxPeriod",
          "type": "uint256"
        },
        {
          "internalType": "uint256",
          "name": "maxPeriodBalance",
          "type": "uint256"
        },
        {
          "internalType": "bool",
          "name": "rentalStatus",
          "type": "bool"
        }
      ],
      "stateMutability": "view",
      "type": "function"
    },
    {
      "inputs": [],
      "name": "WORKER_ROLE",
      "outputs": [
        {
          "internalType": "bytes32",
          "name": "",
          "type": "bytes32"
        }
      ],
      "stateMutability": "view",
      "type": "function"
    },
    {
      "inputs": [
        {
          "internalType": "bytes32",
          "name": "_orderIdRentingNFT",
          "type": "bytes32"
        }
      ],
      "name": "cancelListedRentingOrder",
      "outputs": [],
      "stateMutability": "nonpayable",
      "type": "function"
    },
    {
      "inputs": [
        {
          "internalType": "bytes32",
          "name": "_orderIdRentingNFT",
          "type": "bytes32"
        },
        {
          "internalType": "address",
          "name": "_newOwner",
          "type": "address"
        }
      ],
      "name": "changeOwnerRentingNFT",
      "outputs": [],
      "stateMutability": "nonpayable",
      "type": "function"
    },
    {
      "inputs": [
        {
          "internalType": "bytes32",
          "name": "_orderIdRentingNFT",
          "type": "bytes32"
        }
      ],
      "name": "claimFeeRenting",
      "outputs": [],
      "stateMutability": "nonpayable",
      "type": "function"
    },
    {
      "inputs": [
        {
          "internalType": "address",
          "name": "_userAddress",
          "type": "address"
        },
        {
          "internalType": "uint256",
          "name": "amount",
          "type": "uint256"
        }
      ],
      "name": "emergencyTransfer",
      "outputs": [],
      "stateMutability": "nonpayable",
      "type": "function"
    },
    {
      "inputs": [
        {
          "internalType": "bytes32",
          "name": "_orderIdRentingNFT",
          "type": "bytes32"
        },
        {
          "internalType": "uint256",
          "name": "_rentalPeriod",
          "type": "uint256"
        }
      ],
      "name": "executeRent",
      "outputs": [],
      "stateMutability": "nonpayable",
      "type": "function"
    },
    {
      "inputs": [
        {
          "internalType": "bytes32",
          "name": "role",
          "type": "bytes32"
        }
      ],
      "name": "getRoleAdmin",
      "outputs": [
        {
          "internalType": "bytes32",
          "name": "",
          "type": "bytes32"
        }
      ],
      "stateMutability": "view",
      "type": "function"
    },
    {
      "inputs": [
        {
          "internalType": "bytes32",
          "name": "role",
          "type": "bytes32"
        },
        {
          "internalType": "address",
          "name": "account",
          "type": "address"
        }
      ],
      "name": "grantRole",
      "outputs": [],
      "stateMutability": "nonpayable",
      "type": "function"
    },
    {
      "inputs": [
        {
          "internalType": "bytes32",
          "name": "role",
          "type": "bytes32"
        },
        {
          "internalType": "address",
          "name": "account",
          "type": "address"
        }
      ],
      "name": "hasRole",
      "outputs": [
        {
          "internalType": "bool",
          "name": "",
          "type": "bool"
        }
      ],
      "stateMutability": "view",
      "type": "function"
    },
    {
      "inputs": [],
      "name": "installmentAddress",
      "outputs": [
        {
          "internalType": "address",
          "name": "",
          "type": "address"
        }
      ],
      "stateMutability": "view",
      "type": "function"
    },
    {
      "inputs": [
        {
          "internalType": "address",
          "name": "_NFTAddress",
          "type": "address"
        },
        {
          "internalType": "uint256",
          "name": "_NFTId",
          "type": "uint256"
        },
        {
          "internalType": "uint256",
          "name": "_rentalPricePerDays",
          "type": "uint256"
        },
        {
          "internalType": "uint256",
          "name": "_maxPeriod",
          "type": "uint256"
        }
      ],
      "name": "listRentingNFT",
      "outputs": [],
      "stateMutability": "nonpayable",
      "type": "function"
    },
    {
      "inputs": [],
      "name": "marketplaceAddress",
      "outputs": [
        {
          "internalType": "address",
          "name": "",
          "type": "address"
        }
      ],
      "stateMutability": "view",
      "type": "function"
    },
    {
      "inputs": [
        {
          "internalType": "bytes32",
          "name": "_role",
          "type": "bytes32"
        },
        {
          "internalType": "address[]",
          "name": "_workerAddress",
          "type": "address[]"
        }
      ],
      "name": "multiGrantRole",
      "outputs": [],
      "stateMutability": "nonpayable",
      "type": "function"
    },
    {
      "inputs": [],
      "name": "nftNFTVault",
      "outputs": [
        {
          "internalType": "address",
          "name": "",
          "type": "address"
        }
      ],
      "stateMutability": "view",
      "type": "function"
    },
    {
      "inputs": [],
      "name": "owner",
      "outputs": [
        {
          "internalType": "address",
          "name": "",
          "type": "address"
        }
      ],
      "stateMutability": "view",
      "type": "function"
    },
    {
      "inputs": [],
      "name": "pause",
      "outputs": [],
      "stateMutability": "nonpayable",
      "type": "function"
    },
    {
      "inputs": [],
      "name": "paused",
      "outputs": [
        {
          "internalType": "bool",
          "name": "",
          "type": "bool"
        }
      ],
      "stateMutability": "view",
      "type": "function"
    },
    {
      "inputs": [],
      "name": "renounceOwnership",
      "outputs": [],
      "stateMutability": "nonpayable",
      "type": "function"
    },
    {
      "inputs": [
        {
          "internalType": "bytes32",
          "name": "role",
          "type": "bytes32"
        },
        {
          "internalType": "address",
          "name": "account",
          "type": "address"
        }
      ],
      "name": "renounceRole",
      "outputs": [],
      "stateMutability": "nonpayable",
      "type": "function"
    },
    {
      "inputs": [
        {
          "internalType": "bytes32",
          "name": "role",
          "type": "bytes32"
        },
        {
          "internalType": "address",
          "name": "account",
          "type": "address"
        }
      ],
      "name": "revokeRole",
      "outputs": [],
      "stateMutability": "nonpayable",
      "type": "function"
    },
    {
      "inputs": [
        {
          "internalType": "address",
          "name": "_marketplaceNFTAddress",
          "type": "address"
        },
        {
          "internalType": "address",
          "name": "_installmentAddress",
          "type": "address"
        },
        {
          "internalType": "address",
          "name": "_nftVaultAddress",
          "type": "address"
        }
      ],
      "name": "setCheckOtherContarct",
      "outputs": [],
      "stateMutability": "nonpayable",
      "type": "function"
    },
    {
      "inputs": [
        {
          "internalType": "uint256",
          "name": "_time",
          "type": "uint256"
        }
      ],
      "name": "setTime",
      "outputs": [],
      "stateMutability": "nonpayable",
      "type": "function"
    },
    {
      "inputs": [
        {
          "internalType": "bytes4",
          "name": "interfaceId",
          "type": "bytes4"
        }
      ],
      "name": "supportsInterface",
      "outputs": [
        {
          "internalType": "bool",
          "name": "",
          "type": "bool"
        }
      ],
      "stateMutability": "view",
      "type": "function"
    },
    {
      "inputs": [],
      "name": "tokenAddress",
      "outputs": [
        {
          "internalType": "address",
          "name": "",
          "type": "address"
        }
      ],
      "stateMutability": "view",
      "type": "function"
    },
    {
      "inputs": [
        {
          "internalType": "address",
          "name": "newOwner",
          "type": "address"
        }
      ],
      "name": "transferOwnership",
      "outputs": [],
      "stateMutability": "nonpayable",
      "type": "function"
    },
    {
      "inputs": [],
      "name": "unpause",
      "outputs": [],
      "stateMutability": "nonpayable",
      "type": "function"
    }
  ],
  "bytecode": "0x60806040526105a06007553480156200001757600080fd5b506040516200313d3803806200313d8339810160408190526200003a91620001c0565b6200004533620000bb565b6001600255600380546001600160a81b0319166101006001600160a01b038781169190910291909117909155600480546001600160a01b03199081168584161790915560058054821686841617905560068054909116918316919091179055620000b16000336200010b565b505050506200021d565b600080546001600160a01b038381166001600160a01b0319831681178455604051919092169283917f8be0079c531659141344cd1fd0a4f28419497f9722a3daafe3b4186f6b6457e09190a35050565b6200011782826200011b565b5050565b60008281526001602090815260408083206001600160a01b038516845290915290205460ff16620001175760008281526001602081815260408084206001600160a01b0386168086529252808420805460ff19169093179092559051339285917f2f8788117e7eff1d82e926ec794901d17c78024a50270940304540a733656f0d9190a45050565b80516001600160a01b0381168114620001bb57600080fd5b919050565b60008060008060808587031215620001d757600080fd5b620001e285620001a3565b9350620001f260208601620001a3565b92506200020260408601620001a3565b91506200021260608601620001a3565b905092959194509250565b612f10806200022d6000396000f3fe608060405234801561001057600080fd5b50600436106101e55760003560e01c80638591b3661161010f578063ab15dec7116100a2578063d547741f11610071578063d547741f14610584578063daa17f4914610597578063dbf0f3e2146105aa578063f2fde38b146105bd57600080fd5b8063ab15dec7146103f5578063c688534514610475578063c881381a14610488578063ced658bd1461049b57600080fd5b80638e67d2bf116100de5780638e67d2bf146103af57806391d14854146103c25780639d76ea58146103d5578063a217fddf146103ed57600080fd5b80638591b3661461035b578063879eb50e1461036e57806389a4b2a2146103775780638da5cb5b1461038a57600080fd5b80633beb26c4116101875780635c975abb116101565780635c975abb1461032b578063634252dc14610336578063715018a61461034b5780638456cb591461035357600080fd5b80633beb26c4146102ea5780633d1e2801146102fd5780633f4ba83a146103105780635ab375b81461031857600080fd5b806317867dc9116101c357806317867dc91461027f578063248a9ca3146102925780632f2ff15d146102c457806336568abe146102d757600080fd5b806301ffc9a7146101ea57806315786b431461021257806316036d3314610227575b600080fd5b6101fd6101f8366004612891565b6105d0565b60405190151581526020015b60405180910390f35b6102256102203660046128d0565b610607565b005b610262610235366004612900565b6009602090815260009283526040808420909152908252902080546001909101546001600160a01b031682565b604080519283526001600160a01b03909116602083015201610209565b61022561028d36600461292c565b6106f3565b6102b66102a0366004612977565b6000908152600160208190526040909120015490565b604051908152602001610209565b6102256102d23660046128d0565b610738565b6102256102e53660046128d0565b610763565b6102256102f8366004612977565b6107e6565b61022561030b366004612977565b6107f3565b610225610e7d565b610225610326366004612977565b610e8f565b60035460ff166101fd565b6102b6600080516020612ebb83398151915281565b6102256112fb565b61022561130d565b610225610369366004612990565b61131d565b6102b660075481565b610225610385366004612a1d565b611730565b6000546001600160a01b03165b6040516001600160a01b039091168152602001610209565b6102256103bd366004612ac8565b611778565b6101fd6103d03660046128d0565b611d0f565b6003546103979061010090046001600160a01b031681565b6102b6600081565b610440610403366004612977565b600b602052600090815260409020805460018201546002830154600384015460048501546005860154600690960154949593949293919290919087565b604080519788526020880196909652948601939093526060850191909152608084015260a083015260c082015260e001610209565b600454610397906001600160a01b031681565b600654610397906001600160a01b031681565b61051b6104a9366004612977565b600860208190526000918252604090912080546001820154600283015460038401546004850154600586015460068701546007880154988801546009890154600a8a0154600b909a0154989a6001600160a01b039889169a979996891698909516969395929493919290919060ff168c565b604080519c8d526001600160a01b039b8c1660208e01528c019990995296891660608b015297909416608089015260a088019290925260c087015260e0860152610100850152610120840192909252610140830191909152151561016082015261018001610209565b6102256105923660046128d0565b611d3a565b600554610397906001600160a01b031681565b6102256105b8366004612900565b611d60565b6102256105cb366004612b03565b611d84565b60006001600160e01b03198216637965db0b60e01b148061060157506301ffc9a760e01b6001600160e01b03198316145b92915050565b600080516020612ebb83398151915261061f81611dfa565b60008381526008602052604090208054600382015461064791906001600160a01b0316611e04565b6003810180546001600160a01b03199081166001600160a01b038681169182179093556001808501549093166000908152600960209081526040808320600288015484528252808320860180549095168417909455828252600a8152838220805495860181558252908190209093018790558151878152928301527fe89ad9912dadf2ed3ce9c9ef9617db79af190b464a3b7359d407be5ea0b94a9a910160405180910390a150505050565b6106fb611edb565b600480546001600160a01b03199081166001600160a01b039485161790915560058054821694841694909417909355600680549093169116179055565b6000828152600160208190526040909120015461075481611dfa565b61075e8383611f35565b505050565b6001600160a01b03811633146107d85760405162461bcd60e51b815260206004820152602f60248201527f416363657373436f6e74726f6c3a2063616e206f6e6c792072656e6f756e636560448201526e103937b632b9903337b91039b2b63360891b60648201526084015b60405180910390fd5b6107e28282611fa0565b5050565b6107ee611edb565b600755565b6107fb612007565b600081815260086020526040908190206001810154600282015492516331a9108f60e11b8152600481019390935283926001600160a01b0390911690636352211e90602401602060405180830381865afa15801561085d573d6000803e3d6000fd5b505050506040513d601f19601f820116820180604052508101906108819190612b20565b6001600160a01b0316336001600160a01b031614806108b357506108b3600080516020612ebb83398151915233611d0f565b806108cd57506108c733826002015461205e565b15156001145b806109615750600654600182015460028301546040516349a0713760e11b81526001600160a01b039283166004820152602481019190915233929190911690639340e26e90604401602060405180830381865afa158015610932573d6000803e3d6000fd5b505050506040513d601f19601f820116820180604052508101906109569190612b20565b6001600160a01b0316145b61097d5760405162461bcd60e51b81526004016107cf90612b3d565b61098561212f565b6000838152600860209081526040808320600b90925290912060028101544211610a0d5760405162461bcd60e51b815260206004820152603360248201527f5b4e465452656e74696e672e636c61696d46656552656e74696e675d204e65656044820152726420746f2077616974206e6578742074696d6560681b60648201526084016107cf565b60048201546001600160a01b0316600003610a865760405162461bcd60e51b815260206004820152603360248201527f5b4e465452656e74696e672e636c61696d46656552656e74696e675d20546869604482015272399027232a103430b9903737903932b73a32b960691b60648201526084016107cf565b8060050154600003610af75760405162461bcd60e51b815260206004820152603460248201527f5b4e465452656e74696e672e636c61696d46656552656e74696e675d20636c61604482015273696d65642042616c616e6365206973207a65726f60601b60648201526084016107cf565b6000600754603c846007015442610b0e9190612bb0565b610b189190612bc3565b610b229190612bc3565b90506000826003015482610b369190612bb0565b905060008460050154846003015484610b4f9190612bb0565b610b599190612be5565b90506000610b68846001612bfc565b905085600801544210610bd35785600501548560050154610b899190612be5565b6003808801549054919350610bb09161010090046001600160a01b03908116911684612175565b600060028601819055600586018054919055600486015460038701559250610c40565b6003868101549054610bf7916001600160a01b036101009092048216911684612175565b600754610c049082612be5565b610c0f90603c612be5565b8660070154610c1e9190612bfc565b6002860155600385018490556006860154610c3a908590612bb0565b60058601555b81856006016000828254610c549190612bb0565b925050819055504285600101819055507f79f6f82abc2552891bbcf2bd66130c605e594dff07c6486bc9f8f35ffcd9dbca898760010160009054906101000a90046001600160a01b031688600201548960030160009054906101000a90046001600160a01b0316868b60040160009054906101000a90046001600160a01b03168b600101548c600301548d600401548e600501548d604051610d5e9b9a999897969594939291909a8b526001600160a01b03998a1660208c015260408b019890985295881660608a015260808901949094529190951660a087015260c086019490945260e08501939093526101008401929092526101208301919091526101408201526101600190565b60405180910390a18460050154600003610e685785546003870154610d8c91906001600160a01b0316611e04565b6001808701546001600160a01b031660009081526009602081815260408084206002808d01548652908352818520858155860180546001600160a01b03199081169091558f8652600880855283872087815580890180548416905580840188905560038082018054851690556004808301805490951690945560058083018a905560068084018b9055600784018b90559383018a9055978201899055600a8201899055600b918201805460ff19169055955292862086815596870186905590860185905591850184905590840183905590830182905591909101555b5050505050505050610e7a6001600255565b50565b610e85611edb565b610e8d6121d8565b565b600081815260086020526040908190206001810154600282015492516331a9108f60e11b8152600481019390935283926001600160a01b0390911690636352211e90602401602060405180830381865afa158015610ef1573d6000803e3d6000fd5b505050506040513d601f19601f82011682018060405250810190610f159190612b20565b6001600160a01b0316336001600160a01b03161480610f475750610f47600080516020612ebb83398151915233611d0f565b80610f615750610f5b33826002015461205e565b15156001145b80610ff55750600654600182015460028301546040516349a0713760e11b81526001600160a01b039283166004820152602481019190915233929190911690639340e26e90604401602060405180830381865afa158015610fc6573d6000803e3d6000fd5b505050506040513d601f19601f82011682018060405250810190610fea9190612b20565b6001600160a01b0316145b6110115760405162461bcd60e51b81526004016107cf90612b3d565b61101961212f565b6000838152600860208181526040808420815161018081018352815480825260018301546001600160a01b039081169583019590955260028301549382019390935260038201548416606082015260048201549093166080840152600581015460a0840152600681015460c0840152600781015460e0840152928301546101008301526009830154610120830152600a830154610140830152600b9092015460ff16151561016082015291036111375760405162461bcd60e51b815260206004820152603f60248201527f5b4e465452656e74696e672e63616e63656c4c697374656452656e74696e674f60448201527f726465725d2052656e74696e67204e4654206e6f74207075626c69736865640060648201526084016107cf565b60808101516001600160a01b0316156111ce5760405162461bcd60e51b815260206004820152604d60248201527f5b4e465452656e74696e672e63616e63656c4c697374656452656e74696e674f60448201527f726465725d20546869732052656e74696e67206f7264657220616c726561647960648201526c103430b99030903932b73a32b960991b608482015260a4016107cf565b7f1a6053880d9168a1859d6643fb81ac7d3d306def8428201bbb1d5ba292f547568482602001518360400151846060015160405161123194939291909384526001600160a01b039283166020850152604084019190915216606082015260800190565b60405180910390a161124b81600001518260600151611e04565b6020808201516001600160a01b0316600090815260098083526040808320948101518352938352838220828155600190810180546001600160a01b03199081169091559783526008938490529382208281559384018054881690556002840182905560038401805488169055600484018054909716909655600583018190556006830181905560078301819055908201819055938101849055600a8101939093555050600b01805460ff19169055565b611303611edb565b610e8d600061222a565b611315611edb565b610e8d61227a565b61132561212f565b6000828152600860209081526040808320600b90925290912060048201546001600160a01b0316156113ad5760405162461bcd60e51b815260206004820152602b60248201527f5b4e465452656e74696e672e6578656375746552656e745d204e465420616c7260448201526a1958591e481c995b9d195960aa1b60648201526084016107cf565b81546000036114195760405162461bcd60e51b815260206004820152603260248201527f5b4e465452656e74696e672e6578656375746552656e745d2052656e74696e6760448201527108139195081b9bdd081c1d589b1a5cda195960721b60648201526084016107cf565b826000036114865760405162461bcd60e51b815260206004820152603460248201527f5b4e465452656e74696e672e6578656375746552656e745d2052656e74616c20604482015273706572696f642063616e2774206265207a65726f60601b60648201526084016107cf565b6003820154336001600160a01b03909116036114fe5760405162461bcd60e51b815260206004820152603160248201527f5b4e465452656e74696e672e6578656375746552656e745d2043616e2774207260448201527032b73a103cb7bab91037bbb71037333a1760791b60648201526084016107cf565b81600a01548311156115865760405162461bcd60e51b815260206004820152604560248201527f5b4e465452656e74696e672e6578656375746552656e745d2052656e74616c2060448201527f706572696f642063616e2774206265206d707265207468616e206d61782070656064820152643934b7b21760d91b608482015260a4016107cf565b6115b4333085856005015461159b9190612be5565b60035461010090046001600160a01b03169291906122b7565b6000600754846115c49190612be5565b6115cf90603c612be5565b6115d99042612bfc565b6004840180546001600160a01b031916331790556006840185905542600785015560088401819055600a84018054919250859160009061161a908490612bb0565b9091555050600b8301805460ff191660011790558482556005830154611641908590612be5565b6006830155600582018490556004820184905560075461166290603c612be5565b61166c9042612bfc565b82600201819055507fd920ca6b9fe0991b381d05929e96738b21d34d183df407c4eabff92ead2b228b858460010160009054906101000a90046001600160a01b031685600201548733886007015489600801548b8b600501546116cf9190612be5565b60028b015460408051998a526001600160a01b0398891660208b0152890196909652606088019490945294909116608086015260a085015260c084019290925260e08301919091526101008201526101200160405180910390a15050505050565b805160005b81811015611772576117608484838151811061175357611753612c0f565b6020026020010151610738565b8061176a81612c25565b915050611735565b50505050565b6004805460405163327ffa7d60e21b81526001600160a01b0380881693820193909352602481018690528692869260009291169063c9ffe9f4906044016040805180830381865afa1580156117d1573d6000803e3d6000fd5b505050506040513d601f19601f820116820180604052508101906117f59190612c3e565b60048054604051639161e08f60e01b81526001600160a01b038781169382019390935260248101869052929350600092911690639161e08f90604401606060405180830381865afa15801561184e573d6000803e3d6000fd5b505050506040513d601f19601f820116820180604052508101906118729190612c94565b60208301519091506001600160a01b0316331480159061189f575060408101516001600160a01b03163314155b6119275760405162461bcd60e51b815260206004820152604d60248201527f5b4e465452656e74696e672e636865636b4f6e496e7374616c6c6d656e745d2060448201527f4e465420616c7265616479206c6973746564206f6e20496e7374616c6c6d656e60648201526c27232a1031b7b73a3930b1ba1760991b608482015260a4016107cf565b61192f61212f565b856000036119a55760405162461bcd60e51b815260206004820152603760248201527f5b4e465452656e74696e672e6c69737452656e74696e674e46545d2052656e7460448201527f616c2070726963652063616e2774206265207a65726f2e00000000000000000060648201526084016107cf565b6001600160a01b03881660009081526009602090815260408083208a845290915290205415611a3c5760405162461bcd60e51b815260206004820152603a60248201527f5b4e465452656e74696e672e6c69737452656e74696e674e46545d2052656e7460448201527f696e67206f72646572206973207374696c6c2072756e6e696e6700000000000060648201526084016107cf565b6001600160a01b0380891660009081526009602090815260408083208b84529091529020600101541615611ac95760405162461bcd60e51b815260206004820152602e60248201527f5b4e465452656e74696e672e6c69737452656e74696e674e46545d204e46542060448201526d185b1c9958591e481b1a5cdd195960921b60648201526084016107cf565b604080514260208201526bffffffffffffffffffffffff1960608b811b821693830193909352605482018a90523390921b90911660748201526088810187905260009060a8016040516020818303038152906040528051906020012090506000600960008b6001600160a01b03166001600160a01b0316815260200190815260200160002060008a81526020019081526020016000209050818160000181905550338160010160006101000a8154816001600160a01b0302191690836001600160a01b0316021790555060006008600084815260200190815260200160002090508281600001819055508a8160010160006101000a8154816001600160a01b0302191690836001600160a01b03160217905550898160020181905550338160030160006101000a8154816001600160a01b0302191690836001600160a01b031602179055508881600501819055508781600901819055508781600a0181905550600081600b0160006101000a81548160ff021916908315150217905550600a6000336001600160a01b03166001600160a01b031681526020019081526020016000208390806001815401808255809150506001900390600052602060002001600090919091909150557f9b193a3d4ba7e837889ed029d5db3d04fcade9c03e48b7aa2f427a228fc0b57b838c8c8c8c33604051611cfa969594939291909586526001600160a01b0394851660208701526040860193909352606085019190915260808401521660a082015260c00190565b60405180910390a15050505050505050505050565b60009182526001602090815260408084206001600160a01b0393909316845291905290205460ff1690565b60008281526001602081905260409091200154611d5681611dfa565b61075e8383611fa0565b611d68611edb565b6003546107e29061010090046001600160a01b03168383612175565b611d8c611edb565b6001600160a01b038116611df15760405162461bcd60e51b815260206004820152602660248201527f4f776e61626c653a206e6577206f776e657220697320746865207a65726f206160448201526564647265737360d01b60648201526084016107cf565b610e7a8161222a565b610e7a81336122ef565b6000611e108383612348565b6001600160a01b0383166000908152600a60205260409020805491925090611e3a90600190612bb0565b81548110611e4a57611e4a612c0f565b9060005260206000200154600a6000846001600160a01b03166001600160a01b031681526020019081526020016000208281548110611e8b57611e8b612c0f565b60009182526020808320909101929092556001600160a01b0384168152600a90915260409020805480611ec057611ec0612cfd565b60019003818190600052602060002001600090559055505050565b6000546001600160a01b03163314610e8d5760405162461bcd60e51b815260206004820181905260248201527f4f776e61626c653a2063616c6c6572206973206e6f7420746865206f776e657260448201526064016107cf565b611f3f8282611d0f565b6107e25760008281526001602081815260408084206001600160a01b0386168086529252808420805460ff19169093179092559051339285917f2f8788117e7eff1d82e926ec794901d17c78024a50270940304540a733656f0d9190a45050565b611faa8282611d0f565b156107e25760008281526001602090815260408083206001600160a01b0385168085529252808320805460ff1916905551339285917ff6391f5c32d9c69d2a47ea670b442974b53935d1edc7fd64eb21e047a839171b9190a45050565b60028054036120585760405162461bcd60e51b815260206004820152601f60248201527f5265656e7472616e637947756172643a207265656e7472616e742063616c6c0060448201526064016107cf565b60028055565b60055460405163187346f960e01b81526001600160a01b038481166004830152600092839291169063187346f990602401600060405180830381865afa1580156120ac573d6000803e3d6000fd5b505050506040513d6000823e601f3d908101601f191682016040526120d49190810190612d13565b80519091506000805b8281101561212557858482815181106120f8576120f8612c0f565b60200260200101510361211357506001935061060192505050565b8061211d81612c25565b9150506120dd565b5050505092915050565b60035460ff1615610e8d5760405162461bcd60e51b815260206004820152601060248201526f14185d5cd8589b194e881c185d5cd95960821b60448201526064016107cf565b6040516001600160a01b03831660248201526044810182905261075e90849063a9059cbb60e01b906064015b60408051601f198184030181529190526020810180516001600160e01b03166001600160e01b031990931692909217909152612431565b6121e0612503565b6003805460ff191690557f5db9ee0a495bf2e6ff9c91a7834c1ba4fdd244a5e8aa4e537bd38aeae4b073aa335b6040516001600160a01b03909116815260200160405180910390a1565b600080546001600160a01b038381166001600160a01b0319831681178455604051919092169283917f8be0079c531659141344cd1fd0a4f28419497f9722a3daafe3b4186f6b6457e09190a35050565b61228261212f565b6003805460ff191660011790557f62e78cea01bee320cd4e420270b5ea74000d11b0c9f74754ebdbfc544b05a25861220d3390565b6040516001600160a01b03808516602483015283166044820152606481018290526117729085906323b872dd60e01b906084016121a1565b6122f98282611d0f565b6107e2576123068161254c565b61231183602061255e565b604051602001612322929190612dbd565b60408051601f198184030181529082905262461bcd60e51b82526107cf91600401612e32565b6000805b6001600160a01b0383166000908152600a60205260409020548110156123c2576001600160a01b0383166000908152600a6020526040902080548591908390811061239957612399612c0f565b9060005260206000200154036123b0579050610601565b806123ba81612c25565b91505061234c565b5060405162461bcd60e51b815260206004820152603c60248201527f5b4e465452656e74696e672e66696e64496e6465785d2043616e27742066696e60448201527f6420746865206f776e657273686970206f662074686973204e46542e0000000060648201526084016107cf565b6000612486826040518060400160405280602081526020017f5361666545524332303a206c6f772d6c6576656c2063616c6c206661696c6564815250856001600160a01b03166127019092919063ffffffff16565b80519091501561075e57808060200190518101906124a49190612e65565b61075e5760405162461bcd60e51b815260206004820152602a60248201527f5361666545524332303a204552433230206f7065726174696f6e20646964206e6044820152691bdd081cdd58d8d9595960b21b60648201526084016107cf565b60035460ff16610e8d5760405162461bcd60e51b815260206004820152601460248201527314185d5cd8589b194e881b9bdd081c185d5cd95960621b60448201526064016107cf565b60606106016001600160a01b03831660145b6060600061256d836002612be5565b612578906002612bfc565b67ffffffffffffffff811115612590576125906129b2565b6040519080825280601f01601f1916602001820160405280156125ba576020820181803683370190505b509050600360fc1b816000815181106125d5576125d5612c0f565b60200101906001600160f81b031916908160001a905350600f60fb1b8160018151811061260457612604612c0f565b60200101906001600160f81b031916908160001a9053506000612628846002612be5565b612633906001612bfc565b90505b60018111156126ab576f181899199a1a9b1b9c1cb0b131b232b360811b85600f166010811061266757612667612c0f565b1a60f81b82828151811061267d5761267d612c0f565b60200101906001600160f81b031916908160001a90535060049490941c936126a481612e87565b9050612636565b5083156126fa5760405162461bcd60e51b815260206004820181905260248201527f537472696e67733a20686578206c656e67746820696e73756666696369656e7460448201526064016107cf565b9392505050565b60606127108484600085612718565b949350505050565b6060824710156127795760405162461bcd60e51b815260206004820152602660248201527f416464726573733a20696e73756666696369656e742062616c616e636520666f6044820152651c8818d85b1b60d21b60648201526084016107cf565b600080866001600160a01b031685876040516127959190612e9e565b60006040518083038185875af1925050503d80600081146127d2576040519150601f19603f3d011682016040523d82523d6000602084013e6127d7565b606091505b50915091506127e8878383876127f3565b979650505050505050565b6060831561286257825160000361285b576001600160a01b0385163b61285b5760405162461bcd60e51b815260206004820152601d60248201527f416464726573733a2063616c6c20746f206e6f6e2d636f6e747261637400000060448201526064016107cf565b5081612710565b61271083838151156128775781518083602001fd5b8060405162461bcd60e51b81526004016107cf9190612e32565b6000602082840312156128a357600080fd5b81356001600160e01b0319811681146126fa57600080fd5b6001600160a01b0381168114610e7a57600080fd5b600080604083850312156128e357600080fd5b8235915060208301356128f5816128bb565b809150509250929050565b6000806040838503121561291357600080fd5b823561291e816128bb565b946020939093013593505050565b60008060006060848603121561294157600080fd5b833561294c816128bb565b9250602084013561295c816128bb565b9150604084013561296c816128bb565b809150509250925092565b60006020828403121561298957600080fd5b5035919050565b600080604083850312156129a357600080fd5b50508035926020909101359150565b634e487b7160e01b600052604160045260246000fd5b604051601f8201601f1916810167ffffffffffffffff811182821017156129f1576129f16129b2565b604052919050565b600067ffffffffffffffff821115612a1357612a136129b2565b5060051b60200190565b60008060408385031215612a3057600080fd5b8235915060208084013567ffffffffffffffff811115612a4f57600080fd5b8401601f81018613612a6057600080fd5b8035612a73612a6e826129f9565b6129c8565b81815260059190911b82018301908381019088831115612a9257600080fd5b928401925b82841015612ab9578335612aaa816128bb565b82529284019290840190612a97565b80955050505050509250929050565b60008060008060808587031215612ade57600080fd5b8435612ae9816128bb565b966020860135965060408601359560600135945092505050565b600060208284031215612b1557600080fd5b81356126fa816128bb565b600060208284031215612b3257600080fd5b81516126fa816128bb565b60208082526039908201527f5b4e465452656e74696e672e6f6e6c794e46544f776e6572414e4461646d696e60408201527f5d204e6f74204e4654206f776e6572206f722041646d696e2e00000000000000606082015260800190565b634e487b7160e01b600052601160045260246000fd5b8181038181111561060157610601612b9a565b600082612be057634e487b7160e01b600052601260045260246000fd5b500490565b808202811582820484141761060157610601612b9a565b8082018082111561060157610601612b9a565b634e487b7160e01b600052603260045260246000fd5b600060018201612c3757612c37612b9a565b5060010190565b600060408284031215612c5057600080fd5b6040516040810181811067ffffffffffffffff82111715612c7357612c736129b2565b604052825181526020830151612c88816128bb565b60208201529392505050565b600060608284031215612ca657600080fd5b6040516060810181811067ffffffffffffffff82111715612cc957612cc96129b2565b604052825181526020830151612cde816128bb565b60208201526040830151612cf1816128bb565b60408201529392505050565b634e487b7160e01b600052603160045260246000fd5b60006020808385031215612d2657600080fd5b825167ffffffffffffffff811115612d3d57600080fd5b8301601f81018513612d4e57600080fd5b8051612d5c612a6e826129f9565b81815260059190911b82018301908381019087831115612d7b57600080fd5b928401925b828410156127e857835182529284019290840190612d80565b60005b83811015612db4578181015183820152602001612d9c565b50506000910152565b7f416363657373436f6e74726f6c3a206163636f756e7420000000000000000000815260008351612df5816017850160208801612d99565b7001034b99036b4b9b9b4b733903937b6329607d1b6017918401918201528351612e26816028840160208801612d99565b01602801949350505050565b6020815260008251806020840152612e51816040850160208701612d99565b601f01601f19169190910160400192915050565b600060208284031215612e7757600080fd5b815180151581146126fa57600080fd5b600081612e9657612e96612b9a565b506000190190565b60008251612eb0818460208701612d99565b919091019291505056fef1b411d6abb365480ac902cc153c45e9ded5847a2265ce6d01945d253edb6bc7a26469706673582212209a1723eb9c291ad6d6144054a6ea59ef02b73b47689cdacecfd2149af23768dc64736f6c63430008120033",
  "linkReferences": {},
  "deployedLinkReferences": {}
}