{
  "_format": "hh-sol-artifact-1",
  "contractName": "Marketplace",
  "sourceName": "contracts/Marketplace.sol",
  "abi": [
    {
      "inputs": [
        {
          "internalType": "address",
          "name": "_vaultBalanceAddress",
          "type": "address"
        },
        {
          "internalType": "address",
          "name": "_vaultItemAddress",
          "type": "address"
        },
        {
          "internalType": "uint256",
          "name": "_ownerCutPerMillion",
          "type": "uint256"
        },
        {
          "internalType": "address",
          "name": "_owner",
          "type": "address"
        }
      ],
      "stateMutability": "nonpayable",
      "type": "constructor"
    },
    {
      "anonymous": false,
      "inputs": [],
      "name": "MarketplacePaused",
      "type": "event"
    },
    {
      "anonymous": false,
      "inputs": [],
      "name": "MarketplaceUnpaused",
      "type": "event"
    },
    {
      "anonymous": false,
      "inputs": [
        {
          "indexed": false,
          "internalType": "bytes32",
          "name": "orderId",
          "type": "bytes32"
        },
        {
          "indexed": true,
          "internalType": "address",
          "name": "seller",
          "type": "address"
        },
        {
          "indexed": false,
          "internalType": "uint256",
          "name": "itemId",
          "type": "uint256"
        },
        {
          "indexed": false,
          "internalType": "uint256",
          "name": "itemAmount",
          "type": "uint256"
        }
      ],
      "name": "OrderCancelled",
      "type": "event"
    },
    {
      "anonymous": false,
      "inputs": [
        {
          "indexed": false,
          "internalType": "bytes32",
          "name": "orderId",
          "type": "bytes32"
        },
        {
          "indexed": true,
          "internalType": "address",
          "name": "seller",
          "type": "address"
        },
        {
          "indexed": false,
          "internalType": "uint256",
          "name": "itemId",
          "type": "uint256"
        },
        {
          "indexed": false,
          "internalType": "uint256",
          "name": "itemAmount",
          "type": "uint256"
        },
        {
          "indexed": false,
          "internalType": "uint256",
          "name": "nakaAmountToitem",
          "type": "uint256"
        }
      ],
      "name": "OrderCreated",
      "type": "event"
    },
    {
      "anonymous": false,
      "inputs": [
        {
          "indexed": false,
          "internalType": "bytes32",
          "name": "orderId",
          "type": "bytes32"
        },
        {
          "indexed": true,
          "internalType": "address",
          "name": "seller",
          "type": "address"
        },
        {
          "indexed": false,
          "internalType": "uint256",
          "name": "itemId",
          "type": "uint256"
        },
        {
          "indexed": false,
          "internalType": "uint256",
          "name": "itemAmount",
          "type": "uint256"
        },
        {
          "indexed": false,
          "internalType": "uint256",
          "name": "nakaAmount",
          "type": "uint256"
        }
      ],
      "name": "OrderDetail",
      "type": "event"
    },
    {
      "anonymous": false,
      "inputs": [
        {
          "indexed": false,
          "internalType": "bytes32",
          "name": "orderId",
          "type": "bytes32"
        },
        {
          "indexed": true,
          "internalType": "address",
          "name": "buyer",
          "type": "address"
        },
        {
          "indexed": true,
          "internalType": "address",
          "name": "seller",
          "type": "address"
        },
        {
          "indexed": false,
          "internalType": "uint256",
          "name": "itemId",
          "type": "uint256"
        },
        {
          "indexed": false,
          "internalType": "uint256",
          "name": "itemAmount",
          "type": "uint256"
        },
        {
          "indexed": false,
          "internalType": "uint256",
          "name": "buyItemAmount",
          "type": "uint256"
        },
        {
          "indexed": false,
          "internalType": "uint256",
          "name": "totalPriceNaka",
          "type": "uint256"
        },
        {
          "indexed": false,
          "internalType": "uint256",
          "name": "ownerCutPerMillion",
          "type": "uint256"
        }
      ],
      "name": "OrderExecuted",
      "type": "event"
    },
    {
      "anonymous": false,
      "inputs": [
        {
          "indexed": true,
          "internalType": "address",
          "name": "previousOwner",
          "type": "address"
        },
        {
          "indexed": true,
          "internalType": "address",
          "name": "newOwner",
          "type": "address"
        }
      ],
      "name": "OwnershipTransferred",
      "type": "event"
    },
    {
      "anonymous": false,
      "inputs": [
        {
          "indexed": true,
          "internalType": "bytes32",
          "name": "role",
          "type": "bytes32"
        },
        {
          "indexed": true,
          "internalType": "bytes32",
          "name": "previousAdminRole",
          "type": "bytes32"
        },
        {
          "indexed": true,
          "internalType": "bytes32",
          "name": "newAdminRole",
          "type": "bytes32"
        }
      ],
      "name": "RoleAdminChanged",
      "type": "event"
    },
    {
      "anonymous": false,
      "inputs": [
        {
          "indexed": true,
          "internalType": "bytes32",
          "name": "role",
          "type": "bytes32"
        },
        {
          "indexed": true,
          "internalType": "address",
          "name": "account",
          "type": "address"
        },
        {
          "indexed": true,
          "internalType": "address",
          "name": "sender",
          "type": "address"
        }
      ],
      "name": "RoleGranted",
      "type": "event"
    },
    {
      "anonymous": false,
      "inputs": [
        {
          "indexed": true,
          "internalType": "bytes32",
          "name": "role",
          "type": "bytes32"
        },
        {
          "indexed": true,
          "internalType": "address",
          "name": "account",
          "type": "address"
        },
        {
          "indexed": true,
          "internalType": "address",
          "name": "sender",
          "type": "address"
        }
      ],
      "name": "RoleRevoked",
      "type": "event"
    },
    {
      "anonymous": false,
      "inputs": [
        {
          "indexed": true,
          "internalType": "address",
          "name": "vaultAddress",
          "type": "address"
        }
      ],
      "name": "SetVaultBalanceAddress",
      "type": "event"
    },
    {
      "anonymous": false,
      "inputs": [
        {
          "indexed": true,
          "internalType": "address",
          "name": "vaultAddress",
          "type": "address"
        }
      ],
      "name": "SetVaultItemAddress",
      "type": "event"
    },
    {
      "inputs": [],
      "name": "DEFAULT_ADMIN_ROLE",
      "outputs": [
        {
          "internalType": "bytes32",
          "name": "",
          "type": "bytes32"
        }
      ],
      "stateMutability": "view",
      "type": "function"
    },
    {
      "inputs": [],
      "name": "VAULT_ADMIN",
      "outputs": [
        {
          "internalType": "bytes32",
          "name": "",
          "type": "bytes32"
        }
      ],
      "stateMutability": "view",
      "type": "function"
    },
    {
      "inputs": [],
      "name": "_Owner",
      "outputs": [
        {
          "internalType": "address",
          "name": "",
          "type": "address"
        }
      ],
      "stateMutability": "view",
      "type": "function"
    },
    {
      "inputs": [
        {
          "internalType": "address",
          "name": "_sellerAccount",
          "type": "address"
        },
        {
          "internalType": "bytes32",
          "name": "_orderId",
          "type": "bytes32"
        }
      ],
      "name": "cancelOrder",
      "outputs": [
        {
          "components": [
            {
              "internalType": "bytes32",
              "name": "id",
              "type": "bytes32"
            },
            {
              "internalType": "address",
              "name": "seller",
              "type": "address"
            },
            {
              "internalType": "uint256",
              "name": "itemId",
              "type": "uint256"
            },
            {
              "internalType": "uint256",
              "name": "itemAmount",
              "type": "uint256"
            },
            {
              "internalType": "uint256",
              "name": "price",
              "type": "uint256"
            }
          ],
          "internalType": "struct Marketplace.Order",
          "name": "",
          "type": "tuple"
        }
      ],
      "stateMutability": "nonpayable",
      "type": "function"
    },
    {
      "inputs": [
        {
          "internalType": "uint256",
          "name": "_itemId",
          "type": "uint256"
        },
        {
          "internalType": "uint256",
          "name": "_itemAmount",
          "type": "uint256"
        },
        {
          "internalType": "uint256",
          "name": "_nakaAmount",
          "type": "uint256"
        }
      ],
      "name": "createOrder",
      "outputs": [
        {
          "components": [
            {
              "internalType": "bytes32",
              "name": "id",
              "type": "bytes32"
            },
            {
              "internalType": "address",
              "name": "seller",
              "type": "address"
            },
            {
              "internalType": "uint256",
              "name": "itemId",
              "type": "uint256"
            },
            {
              "internalType": "uint256",
              "name": "itemAmount",
              "type": "uint256"
            },
            {
              "internalType": "uint256",
              "name": "price",
              "type": "uint256"
            }
          ],
          "internalType": "struct Marketplace.Order",
          "name": "",
          "type": "tuple"
        }
      ],
      "stateMutability": "nonpayable",
      "type": "function"
    },
    {
      "inputs": [
        {
          "internalType": "address",
          "name": "_sellerAccount",
          "type": "address"
        },
        {
          "internalType": "bytes32",
          "name": "_orderId",
          "type": "bytes32"
        },
        {
          "internalType": "uint256",
          "name": "_itemAmount",
          "type": "uint256"
        }
      ],
      "name": "executeOrder",
      "outputs": [
        {
          "components": [
            {
              "internalType": "bytes32",
              "name": "id",
              "type": "bytes32"
            },
            {
              "internalType": "address",
              "name": "seller",
              "type": "address"
            },
            {
              "internalType": "uint256",
              "name": "itemId",
              "type": "uint256"
            },
            {
              "internalType": "uint256",
              "name": "itemAmount",
              "type": "uint256"
            },
            {
              "internalType": "uint256",
              "name": "price",
              "type": "uint256"
            }
          ],
          "internalType": "struct Marketplace.Order",
          "name": "",
          "type": "tuple"
        }
      ],
      "stateMutability": "nonpayable",
      "type": "function"
    },
    {
      "inputs": [
        {
          "internalType": "address",
          "name": "_sellerAccount",
          "type": "address"
        },
        {
          "internalType": "bytes32",
          "name": "_orderId",
          "type": "bytes32"
        }
      ],
      "name": "getOrderInfo",
      "outputs": [
        {
          "components": [
            {
              "internalType": "bytes32",
              "name": "id",
              "type": "bytes32"
            },
            {
              "internalType": "address",
              "name": "seller",
              "type": "address"
            },
            {
              "internalType": "uint256",
              "name": "itemId",
              "type": "uint256"
            },
            {
              "internalType": "uint256",
              "name": "itemAmount",
              "type": "uint256"
            },
            {
              "internalType": "uint256",
              "name": "price",
              "type": "uint256"
            }
          ],
          "internalType": "struct Marketplace.Order",
          "name": "",
          "type": "tuple"
        }
      ],
      "stateMutability": "nonpayable",
      "type": "function"
    },
    {
      "inputs": [],
      "name": "getOwnerCutPerMillion",
      "outputs": [
        {
          "internalType": "uint256",
          "name": "",
          "type": "uint256"
        }
      ],
      "stateMutability": "view",
      "type": "function"
    },
    {
      "inputs": [],
      "name": "getPublicationFee",
      "outputs": [
        {
          "internalType": "uint256",
          "name": "",
          "type": "uint256"
        }
      ],
      "stateMutability": "view",
      "type": "function"
    },
    {
      "inputs": [
        {
          "internalType": "bytes32",
          "name": "role",
          "type": "bytes32"
        }
      ],
      "name": "getRoleAdmin",
      "outputs": [
        {
          "internalType": "bytes32",
          "name": "",
          "type": "bytes32"
        }
      ],
      "stateMutability": "view",
      "type": "function"
    },
    {
      "inputs": [
        {
          "internalType": "bytes32",
          "name": "role",
          "type": "bytes32"
        },
        {
          "internalType": "address",
          "name": "account",
          "type": "address"
        }
      ],
      "name": "grantRole",
      "outputs": [],
      "stateMutability": "nonpayable",
      "type": "function"
    },
    {
      "inputs": [
        {
          "internalType": "bytes32",
          "name": "role",
          "type": "bytes32"
        },
        {
          "internalType": "address",
          "name": "account",
          "type": "address"
        }
      ],
      "name": "hasRole",
      "outputs": [
        {
          "internalType": "bool",
          "name": "",
          "type": "bool"
        }
      ],
      "stateMutability": "view",
      "type": "function"
    },
    {
      "inputs": [
        {
          "internalType": "address",
          "name": "",
          "type": "address"
        },
        {
          "internalType": "bytes32",
          "name": "",
          "type": "bytes32"
        }
      ],
      "name": "orderByOrderId",
      "outputs": [
        {
          "internalType": "bytes32",
          "name": "id",
          "type": "bytes32"
        },
        {
          "internalType": "address",
          "name": "seller",
          "type": "address"
        },
        {
          "internalType": "uint256",
          "name": "itemId",
          "type": "uint256"
        },
        {
          "internalType": "uint256",
          "name": "itemAmount",
          "type": "uint256"
        },
        {
          "internalType": "uint256",
          "name": "price",
          "type": "uint256"
        }
      ],
      "stateMutability": "view",
      "type": "function"
    },
    {
      "inputs": [],
      "name": "owner",
      "outputs": [
        {
          "internalType": "address",
          "name": "",
          "type": "address"
        }
      ],
      "stateMutability": "view",
      "type": "function"
    },
    {
      "inputs": [],
      "name": "ownerCutPerMillion",
      "outputs": [
        {
          "internalType": "uint256",
          "name": "",
          "type": "uint256"
        }
      ],
      "stateMutability": "view",
      "type": "function"
    },
    {
      "inputs": [],
      "name": "pauseMarketplace",
      "outputs": [],
      "stateMutability": "nonpayable",
      "type": "function"
    },
    {
      "inputs": [],
      "name": "publicationFeeInWei",
      "outputs": [
        {
          "internalType": "uint256",
          "name": "",
          "type": "uint256"
        }
      ],
      "stateMutability": "view",
      "type": "function"
    },
    {
      "inputs": [],
      "name": "renounceOwnership",
      "outputs": [],
      "stateMutability": "nonpayable",
      "type": "function"
    },
    {
      "inputs": [
        {
          "internalType": "bytes32",
          "name": "role",
          "type": "bytes32"
        },
        {
          "internalType": "address",
          "name": "account",
          "type": "address"
        }
      ],
      "name": "renounceRole",
      "outputs": [],
      "stateMutability": "nonpayable",
      "type": "function"
    },
    {
      "inputs": [
        {
          "internalType": "bytes32",
          "name": "role",
          "type": "bytes32"
        },
        {
          "internalType": "address",
          "name": "account",
          "type": "address"
        }
      ],
      "name": "revokeRole",
      "outputs": [],
      "stateMutability": "nonpayable",
      "type": "function"
    },
    {
      "inputs": [
        {
          "internalType": "uint256",
          "name": "_ownerCutPerMillion",
          "type": "uint256"
        }
      ],
      "name": "setOwnerCutPerMillion",
      "outputs": [],
      "stateMutability": "nonpayable",
      "type": "function"
    },
    {
      "inputs": [
        {
          "internalType": "uint256",
          "name": "_publicationFee",
          "type": "uint256"
        }
      ],
      "name": "setPublicationFee",
      "outputs": [],
      "stateMutability": "nonpayable",
      "type": "function"
    },
    {
      "inputs": [
        {
          "internalType": "bytes4",
          "name": "interfaceId",
          "type": "bytes4"
        }
      ],
      "name": "supportsInterface",
      "outputs": [
        {
          "internalType": "bool",
          "name": "",
          "type": "bool"
        }
      ],
      "stateMutability": "view",
      "type": "function"
    },
    {
      "inputs": [
        {
          "internalType": "address",
          "name": "newOwner",
          "type": "address"
        }
      ],
      "name": "transferOwnership",
      "outputs": [],
      "stateMutability": "nonpayable",
      "type": "function"
    },
    {
      "inputs": [],
      "name": "unpauseMarketplace",
      "outputs": [],
      "stateMutability": "nonpayable",
      "type": "function"
    },
    {
      "inputs": [],
      "name": "vaultBalance",
      "outputs": [
        {
          "internalType": "contract IBalanceVault",
          "name": "",
          "type": "address"
        }
      ],
      "stateMutability": "view",
      "type": "function"
    },
    {
      "inputs": [],
      "name": "vaultItem",
      "outputs": [
        {
          "internalType": "contract IItemVault",
          "name": "",
          "type": "address"
        }
      ],
      "stateMutability": "view",
      "type": "function"
    }
  ],
  "bytecode": "0x60806040523480156200001157600080fd5b5060405162001cd538038062001cd58339810160408190526200003491620002e3565b6200003f336200010f565b6001600255600480546001600160a01b0319166001600160a01b0386169081179091556040517f3c0d327af1b7b726d2d117d1e3ba848c453ec18fb65e2291fcfc990feac5a4fa90600090a2600580546001600160a01b0319166001600160a01b0385169081179091556040517fdbcb3f2f826be362c0228d61ce58103fffe97b4cf0b5facf0c73c1e60f31398890600090a2620000df6000336200015f565b600380546001600160a01b0319166001600160a01b03831617905562000105826200016f565b5050505062000337565b600080546001600160a01b038381166001600160a01b0319831681178455604051919092169283917f8be0079c531659141344cd1fd0a4f28419497f9722a3daafe3b4186f6b6457e09190a35050565b6200016b82826200023e565b5050565b6000546001600160a01b03163314620001cf5760405162461bcd60e51b815260206004820181905260248201527f4f776e61626c653a2063616c6c6572206973206e6f7420746865206f776e657260448201526064015b60405180910390fd5b620f42408110620002395760405162461bcd60e51b815260206004820152602d60248201527f546865206f776e6572206375742073686f756c64206265206265747765656e2060448201526c3020616e64203939392c39393960981b6064820152608401620001c6565b600755565b60008281526001602090815260408083206001600160a01b038516845290915290205460ff166200016b5760008281526001602081815260408084206001600160a01b0386168086529252808420805460ff19169093179092559051339285917f2f8788117e7eff1d82e926ec794901d17c78024a50270940304540a733656f0d9190a45050565b80516001600160a01b0381168114620002de57600080fd5b919050565b60008060008060808587031215620002fa57600080fd5b6200030585620002c6565b93506200031560208601620002c6565b9250604085015191506200032c60608601620002c6565b905092959194509250565b61198e80620003476000396000f3fe608060405234801561001057600080fd5b50600436106101a95760003560e01c80638945462a116100f9578063af8996f111610097578063d547741f11610071578063d547741f14610422578063dcc2345514610435578063f0d5c81114610448578063f2fde38b1461045b57600080fd5b8063af8996f1146103d5578063cb824373146103e8578063cf66b25a1461040f57600080fd5b8063a01f79d4116100d3578063a01f79d4146103a8578063a1ba444d146103b1578063a217fddf146103c4578063ae4f1198146103cc57600080fd5b80638945462a1461037c5780638da5cb5b1461038457806391d148541461039557600080fd5b806336568abe11610166578063548103b011610140578063548103b01461030057806360a71df514610359578063715018a61461036157806384b2167c1461036957600080fd5b806336568abe146102635780633ec622791461027657806347d1c4c41461027e57600080fd5b806301ffc9a7146101ae5780630bf6cc08146101d657806319dad16d1461020157806321f67fbb14610216578063248a9ca31461021e5780632f2ff15d14610250575b600080fd5b6101c16101bc3660046116ff565b61046e565b60405190151581526020015b60405180910390f35b6004546101e9906001600160a01b031681565b6040516001600160a01b0390911681526020016101cd565b61021461020f3660046116ba565b6104a5565b005b610214610545565b61024261022c3660046116ba565b6000908152600160208190526040909120015490565b6040519081526020016101cd565b61021461025e3660046116d3565b610613565b6102146102713660046116d3565b61063f565b6102146106bd565b6102d061028c36600461165d565b60066020908152600092835260408084209091529082529020805460018201546002830154600384015460049094015492936001600160a01b039092169290919085565b604080519586526001600160a01b039094166020860152928401919091526060830152608082015260a0016101cd565b61031361030e366004611687565b610799565b6040516101cd9190815181526020808301516001600160a01b03169082015260408083015190820152606080830151908201526080918201519181019190915260a00190565b600754610242565b610214610c48565b61031361037736600461165d565b610c7e565b600854610242565b6000546001600160a01b03166101e9565b6101c16103a33660046116d3565b610e31565b61024260075481565b6103136103bf366004611729565b610e5c565b610242600081565b61024260085481565b6102146103e33660046116ba565b6110e1565b6102427fb15e2bb6de8e562b452dcfd0ca719f799c9919f6645dee389052d6326e77eb6081565b61031361041d36600461165d565b611110565b6102146104303660046116d3565b611200565b6003546101e9906001600160a01b031681565b6005546101e9906001600160a01b031681565b610214610469366004611642565b611227565b60006001600160e01b03198216637965db0b60e01b148061049f57506301ffc9a760e01b6001600160e01b03198316145b92915050565b6000546001600160a01b031633146104d85760405162461bcd60e51b81526004016104cf906117fd565b60405180910390fd5b620f424081106105405760405162461bcd60e51b815260206004820152602d60248201527f546865206f776e6572206375742073686f756c64206265206265747765656e2060448201526c3020616e64203939392c39393960981b60648201526084016104cf565b600755565b6000546001600160a01b0316331461056f5760405162461bcd60e51b81526004016104cf906117fd565b600554600160a01b900460ff166105db5760405162461bcd60e51b815260206004820152602a60248201527f5b4d61726b6574706c6163652e7768656e4d61726b6574706c616365506175736044820152691959174814185d5cd95960b21b60648201526084016104cf565b6005805460ff60a01b191690556040517fab44e88513d27d3cd938d8cabf6ee5cbb5a841d25d2342885883ca420b63aba190600090a1565b6000828152600160208190526040909120015461063081336112c2565b61063a8383611326565b505050565b6001600160a01b03811633146106af5760405162461bcd60e51b815260206004820152602f60248201527f416363657373436f6e74726f6c3a2063616e206f6e6c792072656e6f756e636560448201526e103937b632b9903337b91039b2b63360891b60648201526084016104cf565b6106b98282611391565b5050565b6000546001600160a01b031633146106e75760405162461bcd60e51b81526004016104cf906117fd565b600554600160a01b900460ff161561075b5760405162461bcd60e51b815260206004820152603160248201527f5b4d61726b6574706c6163652e7768656e4d61726b6574706c6163654e6f7450604482015270185d5cd9591748139bdd0814185d5cd959607a1b60648201526084016104cf565b6005805460ff60a01b1916600160a01b1790556040517ff9ecce735cbdc09411aea95fac8e250d8ba45591e555673cff75969cd667391190600090a1565b6107a16115eb565b6001600160a01b0380851660009081526006602090815260408083208784528252808320815160a081018352815480825260018301549096169381019390935260028101549183019190915260038101546060830152600401546080820152909161081e5760405162461bcd60e51b81526004016104cf90611832565b83816060015110156108725760405162461bcd60e51b815260206004820152601860248201527f4974656d20696e206f72646572206e6f7420656e6f756768000000000000000060448201526064016104cf565b838160600181815161088491906118b8565b9052506040805160a081018252825181526020808401516001600160a01b0390811682840190815285850151848601908152606080880151908601908152608080890180519188019182528e86166000908152600688528981208f82529097529786209651875592516001870180546001600160a01b031916919095161790935551600285015590516003840155516004909201919091559051610929908690611899565b60055460408481015190516338f47b0760e01b81523360048201526024810191909152604481018890529192506001600160a01b0316906338f47b0790606401600060405180830381600087803b15801561098357600080fd5b505af1158015610997573d6000803e3d6000fd5b5050600480546020860151604051635b86f59960e01b81526001600160a01b039182169381019390935260248301869052169250635b86f5999150604401600060405180830381600087803b1580156109ef57600080fd5b505af1158015610a03573d6000803e3d6000fd5b505060048054604051600162fa96b760e01b031981523392810192909252602482018590526001600160a01b0316925063ff0569499150604401600060405180830381600087803b158015610a5757600080fd5b505af1158015610a6b573d6000803e3d6000fd5b50505050620f424060075482610a819190611899565b610a8b9190611877565b600480546020850151604051600162fa96b760e01b031981529396506001600160a01b039091169263ff05694992610ada92918891016001600160a01b03929092168252602082015260400190565b600060405180830381600087803b158015610af457600080fd5b505af1158015610b08573d6000803e3d6000fd5b505060048054600354604051635b86f59960e01b81526001600160a01b039182169381019390935260248301889052169250635b86f5999150604401600060405180830381600087803b158015610b5e57600080fd5b505af1158015610b72573d6000803e3d6000fd5b505050506060820151610bca576001600160a01b038716600090815260066020908152604080832089845290915281208181556001810180546001600160a01b03191690556002810182905560038101829055600401555b6020808301518351604080860151606080880151835194855295840191909152908201939093529182018790526080820183905260a082018590526001600160a01b03169033907fac1d66f63101545f64f489d5fb88a976e720130358e6d10f5075258d2099d51a9060c00160405180910390a35095945050505050565b6000546001600160a01b03163314610c725760405162461bcd60e51b81526004016104cf906117fd565b610c7c60006113f8565b565b610c866115eb565b6001600160a01b038084166000908152600660209081526040808320868452825291829020825160a081018452815480825260018301549095169281019290925260028101549282019290925260038201546060820152600490910154608082015290610d055760405162461bcd60e51b81526004016104cf90611832565b6005546020820151604080840151606085015191516338f47b0760e01b81526001600160a01b039384166004820152602481019190915260448101919091529116906338f47b0790606401600060405180830381600087803b158015610d6a57600080fd5b505af1158015610d7e573d6000803e3d6000fd5b505050602080830180516001600160a01b0390811660009081526006845260408082208983529094528381208181556001810180546001600160a01b03191690556002810182905560038101829055600401559051845183860151606087015194519290931694507fe5511acce6fbdf775b76e2921d9f62d7f15be4fd9d14a6deb11cca46a5883f6e93610e22939183526020830191909152604082015260600190565b60405180910390a29392505050565b60009182526001602090815260408084206001600160a01b0393909316845291905290205460ff1690565b610e646115eb565b6040805142602082015290810185905233606090811b6bffffffffffffffffffffffff1916908201526074810183905260009060940160408051808303601f19018152828252805160209182012060a08085018452818552338386018181528686018c815260608089018d81526080808b018e8152600087815260068b528b81208a82528b528b90209b51808d55955160018d0180546001600160a01b0319166001600160a01b03928316908117909155955160028e01819055935160038e01819055915160049d8e018190558c51998a018d5296895299880194909452868a01919091529085019190915283015285546008549551600162fa96b760e01b031981529687019190915260248601949094529094509291169063ff05694990604401600060405180830381600087803b158015610fa057600080fd5b505af1158015610fb4573d6000803e3d6000fd5b505060048054600354600854604051635b86f59960e01b81526001600160a01b03928316948101949094526024840152169250635b86f5999150604401600060405180830381600087803b15801561100b57600080fd5b505af115801561101f573d6000803e3d6000fd5b505060055460405163350c90d760e01b8152336004820152602481018a9052604481018990526001600160a01b03909116925063350c90d79150606401600060405180830381600087803b15801561107657600080fd5b505af115801561108a573d6000803e3d6000fd5b505060408051858152602081018a9052908101889052606081018790523392507f2b7a95a61cb6efaffa9e5e6acf07d9ee462803776ac14bdd4500fa29bcadfed5915060800160405180910390a295945050505050565b6000546001600160a01b0316331461110b5760405162461bcd60e51b81526004016104cf906117fd565b600855565b6111186115eb565b6001600160a01b038084166000908152600660209081526040808320868452825291829020825160a0810184528154808252600183015490951692810192909252600281015492820192909252600382015460608201526004909101546080820152906111975760405162461bcd60e51b81526004016104cf90611832565b80602001516001600160a01b03167fb94427fb5155c8faf950af39e529aee57b1e6b6398705d5039a19ea314230d7f8260000151836040015184606001518560800151604051610e22949392919093845260208401929092526040830152606082015260800190565b6000828152600160208190526040909120015461121d81336112c2565b61063a8383611391565b6000546001600160a01b031633146112515760405162461bcd60e51b81526004016104cf906117fd565b6001600160a01b0381166112b65760405162461bcd60e51b815260206004820152602660248201527f4f776e61626c653a206e6577206f776e657220697320746865207a65726f206160448201526564647265737360d01b60648201526084016104cf565b6112bf816113f8565b50565b6112cc8282610e31565b6106b9576112e4816001600160a01b03166014611448565b6112ef836020611448565b604051602001611300929190611755565b60408051601f198184030181529082905262461bcd60e51b82526104cf916004016117ca565b6113308282610e31565b6106b95760008281526001602081815260408084206001600160a01b0386168086529252808420805460ff19169093179092559051339285917f2f8788117e7eff1d82e926ec794901d17c78024a50270940304540a733656f0d9190a45050565b61139b8282610e31565b156106b95760008281526001602090815260408083206001600160a01b0385168085529252808320805460ff1916905551339285917ff6391f5c32d9c69d2a47ea670b442974b53935d1edc7fd64eb21e047a839171b9190a45050565b600080546001600160a01b038381166001600160a01b0319831681178455604051919092169283917f8be0079c531659141344cd1fd0a4f28419497f9722a3daafe3b4186f6b6457e09190a35050565b60606000611457836002611899565b61146290600261185f565b67ffffffffffffffff81111561147a5761147a611942565b6040519080825280601f01601f1916602001820160405280156114a4576020820181803683370190505b509050600360fc1b816000815181106114bf576114bf61192c565b60200101906001600160f81b031916908160001a905350600f60fb1b816001815181106114ee576114ee61192c565b60200101906001600160f81b031916908160001a9053506000611512846002611899565b61151d90600161185f565b90505b6001811115611595576f181899199a1a9b1b9c1cb0b131b232b360811b85600f16601081106115515761155161192c565b1a60f81b8282815181106115675761156761192c565b60200101906001600160f81b031916908160001a90535060049490941c9361158e816118ff565b9050611520565b5083156115e45760405162461bcd60e51b815260206004820181905260248201527f537472696e67733a20686578206c656e67746820696e73756666696369656e7460448201526064016104cf565b9392505050565b6040518060a001604052806000801916815260200160006001600160a01b031681526020016000815260200160008152602001600081525090565b80356001600160a01b038116811461163d57600080fd5b919050565b60006020828403121561165457600080fd5b6115e482611626565b6000806040838503121561167057600080fd5b61167983611626565b946020939093013593505050565b60008060006060848603121561169c57600080fd5b6116a584611626565b95602085013595506040909401359392505050565b6000602082840312156116cc57600080fd5b5035919050565b600080604083850312156116e657600080fd5b823591506116f660208401611626565b90509250929050565b60006020828403121561171157600080fd5b81356001600160e01b0319811681146115e457600080fd5b60008060006060848603121561173e57600080fd5b505081359360208301359350604090920135919050565b7f416363657373436f6e74726f6c3a206163636f756e742000000000000000000081526000835161178d8160178501602088016118cf565b7001034b99036b4b9b9b4b733903937b6329607d1b60179184019182015283516117be8160288401602088016118cf565b01602801949350505050565b60208152600082518060208401526117e98160408501602087016118cf565b601f01601f19169190910160400192915050565b6020808252818101527f4f776e61626c653a2063616c6c6572206973206e6f7420746865206f776e6572604082015260600190565b602080825260139082015272105cdcd95d081b9bdd081c1d589b1a5cda1959606a1b604082015260600190565b6000821982111561187257611872611916565b500190565b60008261189457634e487b7160e01b600052601260045260246000fd5b500490565b60008160001904831182151516156118b3576118b3611916565b500290565b6000828210156118ca576118ca611916565b500390565b60005b838110156118ea5781810151838201526020016118d2565b838111156118f9576000848401525b50505050565b60008161190e5761190e611916565b506000190190565b634e487b7160e01b600052601160045260246000fd5b634e487b7160e01b600052603260045260246000fd5b634e487b7160e01b600052604160045260246000fdfea26469706673582212201116eae00152889281ffb206c93de55d954aa13e87b4e70bc19cf4a94457e08864736f6c63430008070033",
  "linkReferences": {},
  "deployedLinkReferences": {}
}