{
  "_format": "hh-sol-artifact-1",
  "contractName": "InstallmentNFT",
  "sourceName": "contracts/InstallmentNFT.sol",
  "abi": [
    {
      "inputs": [
        {
          "internalType": "address",
          "name": "_nakaTokenAddress",
          "type": "address"
        },
        {
          "internalType": "address",
          "name": "_nftVaultAddress",
          "type": "address"
        }
      ],
      "stateMutability": "nonpayable",
      "type": "constructor"
    },
    {
      "anonymous": false,
      "inputs": [
        {
          "indexed": false,
          "internalType": "bytes32",
          "name": "billId",
          "type": "bytes32"
        },
        {
          "indexed": true,
          "internalType": "address",
          "name": "buyer",
          "type": "address"
        },
        {
          "indexed": true,
          "internalType": "address",
          "name": "seller",
          "type": "address"
        },
        {
          "indexed": false,
          "internalType": "address",
          "name": "nftAddress",
          "type": "address"
        },
        {
          "indexed": false,
          "internalType": "uint256",
          "name": "tokenID",
          "type": "uint256"
        },
        {
          "indexed": false,
          "internalType": "uint256",
          "name": "price",
          "type": "uint256"
        },
        {
          "indexed": false,
          "internalType": "uint256",
          "name": "period",
          "type": "uint256"
        },
        {
          "indexed": false,
          "internalType": "uint256",
          "name": "periodBalance",
          "type": "uint256"
        },
        {
          "indexed": false,
          "internalType": "uint256",
          "name": "totalBill",
          "type": "uint256"
        },
        {
          "indexed": false,
          "internalType": "uint256",
          "name": "billBalance",
          "type": "uint256"
        },
        {
          "indexed": false,
          "internalType": "uint256",
          "name": "payByperiod",
          "type": "uint256"
        }
      ],
      "name": "BillCancelledInstallmentNFT",
      "type": "event"
    },
    {
      "anonymous": false,
      "inputs": [
        {
          "indexed": false,
          "internalType": "bytes32",
          "name": "orderId",
          "type": "bytes32"
        },
        {
          "indexed": false,
          "internalType": "uint256",
          "name": "Price",
          "type": "uint256"
        }
      ],
      "name": "EditOrderInstallmentNFT",
      "type": "event"
    },
    {
      "anonymous": false,
      "inputs": [],
      "name": "InstallmentPaused",
      "type": "event"
    },
    {
      "anonymous": false,
      "inputs": [],
      "name": "InstallmentUnpaused",
      "type": "event"
    },
    {
      "anonymous": false,
      "inputs": [
        {
          "indexed": false,
          "internalType": "bytes32",
          "name": "orderId",
          "type": "bytes32"
        },
        {
          "indexed": true,
          "internalType": "address",
          "name": "seller",
          "type": "address"
        },
        {
          "indexed": false,
          "internalType": "address",
          "name": "nftAddress",
          "type": "address"
        },
        {
          "indexed": false,
          "internalType": "uint256",
          "name": "tokenID",
          "type": "uint256"
        },
        {
          "indexed": false,
          "internalType": "uint256",
          "name": "price",
          "type": "uint256"
        }
      ],
      "name": "OrderCancelledInstallmentNFT",
      "type": "event"
    },
    {
      "anonymous": false,
      "inputs": [
        {
          "indexed": false,
          "internalType": "bytes32",
          "name": "orderId",
          "type": "bytes32"
        },
        {
          "indexed": true,
          "internalType": "address",
          "name": "seller",
          "type": "address"
        },
        {
          "indexed": false,
          "internalType": "address",
          "name": "nftAddress",
          "type": "address"
        },
        {
          "indexed": false,
          "internalType": "uint256",
          "name": "tokenID",
          "type": "uint256"
        },
        {
          "indexed": false,
          "internalType": "uint256",
          "name": "price",
          "type": "uint256"
        }
      ],
      "name": "OrderCreatedInstallmentNFT",
      "type": "event"
    },
    {
      "anonymous": false,
      "inputs": [
        {
          "indexed": true,
          "internalType": "address",
          "name": "previousOwner",
          "type": "address"
        },
        {
          "indexed": true,
          "internalType": "address",
          "name": "newOwner",
          "type": "address"
        }
      ],
      "name": "OwnershipTransferred",
      "type": "event"
    },
    {
      "anonymous": false,
      "inputs": [
        {
          "indexed": false,
          "internalType": "bytes32",
          "name": "billId",
          "type": "bytes32"
        },
        {
          "indexed": true,
          "internalType": "address",
          "name": "buyer",
          "type": "address"
        },
        {
          "indexed": true,
          "internalType": "address",
          "name": "seller",
          "type": "address"
        },
        {
          "indexed": false,
          "internalType": "uint256",
          "name": "periodBalance",
          "type": "uint256"
        },
        {
          "indexed": false,
          "internalType": "uint256",
          "name": "billBalance",
          "type": "uint256"
        },
        {
          "indexed": false,
          "internalType": "uint256",
          "name": "nakaAmount",
          "type": "uint256"
        }
      ],
      "name": "PayBill",
      "type": "event"
    },
    {
      "anonymous": false,
      "inputs": [
        {
          "indexed": true,
          "internalType": "bytes32",
          "name": "role",
          "type": "bytes32"
        },
        {
          "indexed": true,
          "internalType": "bytes32",
          "name": "previousAdminRole",
          "type": "bytes32"
        },
        {
          "indexed": true,
          "internalType": "bytes32",
          "name": "newAdminRole",
          "type": "bytes32"
        }
      ],
      "name": "RoleAdminChanged",
      "type": "event"
    },
    {
      "anonymous": false,
      "inputs": [
        {
          "indexed": true,
          "internalType": "bytes32",
          "name": "role",
          "type": "bytes32"
        },
        {
          "indexed": true,
          "internalType": "address",
          "name": "account",
          "type": "address"
        },
        {
          "indexed": true,
          "internalType": "address",
          "name": "sender",
          "type": "address"
        }
      ],
      "name": "RoleGranted",
      "type": "event"
    },
    {
      "anonymous": false,
      "inputs": [
        {
          "indexed": true,
          "internalType": "bytes32",
          "name": "role",
          "type": "bytes32"
        },
        {
          "indexed": true,
          "internalType": "address",
          "name": "account",
          "type": "address"
        },
        {
          "indexed": true,
          "internalType": "address",
          "name": "sender",
          "type": "address"
        }
      ],
      "name": "RoleRevoked",
      "type": "event"
    },
    {
      "anonymous": false,
      "inputs": [
        {
          "indexed": false,
          "internalType": "bytes32",
          "name": "billId",
          "type": "bytes32"
        },
        {
          "indexed": true,
          "internalType": "address",
          "name": "buyer",
          "type": "address"
        },
        {
          "indexed": true,
          "internalType": "address",
          "name": "seller",
          "type": "address"
        },
        {
          "indexed": false,
          "internalType": "address",
          "name": "nftAddress",
          "type": "address"
        }
      ],
      "name": "executedOrderInstallmentNFT",
      "type": "event"
    },
    {
      "anonymous": false,
      "inputs": [
        {
          "indexed": false,
          "internalType": "bytes32",
          "name": "billId",
          "type": "bytes32"
        },
        {
          "indexed": false,
          "internalType": "uint256",
          "name": "price",
          "type": "uint256"
        },
        {
          "indexed": false,
          "internalType": "uint256",
          "name": "period",
          "type": "uint256"
        },
        {
          "indexed": false,
          "internalType": "uint256",
          "name": "periodBalance",
          "type": "uint256"
        },
        {
          "indexed": false,
          "internalType": "uint256",
          "name": "prePay",
          "type": "uint256"
        },
        {
          "indexed": false,
          "internalType": "uint256",
          "name": "totalBill",
          "type": "uint256"
        },
        {
          "indexed": false,
          "internalType": "uint256",
          "name": "billBalance",
          "type": "uint256"
        },
        {
          "indexed": false,
          "internalType": "uint256",
          "name": "payByperiod",
          "type": "uint256"
        }
      ],
      "name": "executedOrderInstallmentNFT_Details",
      "type": "event"
    },
    {
      "inputs": [],
      "name": "DEFAULT_ADMIN_ROLE",
      "outputs": [
        {
          "internalType": "bytes32",
          "name": "",
          "type": "bytes32"
        }
      ],
      "stateMutability": "view",
      "type": "function"
    },
    {
      "inputs": [],
      "name": "WORKER_ROLE",
      "outputs": [
        {
          "internalType": "bytes32",
          "name": "",
          "type": "bytes32"
        }
      ],
      "stateMutability": "view",
      "type": "function"
    },
    {
      "inputs": [
        {
          "internalType": "address",
          "name": "",
          "type": "address"
        },
        {
          "internalType": "bytes32",
          "name": "",
          "type": "bytes32"
        }
      ],
      "name": "billByBillId",
      "outputs": [
        {
          "internalType": "bytes32",
          "name": "billId",
          "type": "bytes32"
        },
        {
          "internalType": "address",
          "name": "buyer",
          "type": "address"
        },
        {
          "internalType": "address",
          "name": "seller",
          "type": "address"
        },
        {
          "internalType": "address",
          "name": "nftAddress",
          "type": "address"
        },
        {
          "internalType": "uint256",
          "name": "tokenId",
          "type": "uint256"
        },
        {
          "internalType": "uint256",
          "name": "price",
          "type": "uint256"
        },
        {
          "internalType": "uint256",
          "name": "period",
          "type": "uint256"
        },
        {
          "internalType": "uint256",
          "name": "periodBalance",
          "type": "uint256"
        },
        {
          "internalType": "uint256",
          "name": "prePay",
          "type": "uint256"
        },
        {
          "internalType": "uint256",
          "name": "totalBill",
          "type": "uint256"
        },
        {
          "internalType": "uint256",
          "name": "billBalance",
          "type": "uint256"
        },
        {
          "internalType": "uint256",
          "name": "payByperiod",
          "type": "uint256"
        }
      ],
      "stateMutability": "view",
      "type": "function"
    },
    {
      "inputs": [
        {
          "internalType": "address",
          "name": "",
          "type": "address"
        },
        {
          "internalType": "uint256",
          "name": "",
          "type": "uint256"
        }
      ],
      "name": "billIdByNFT",
      "outputs": [
        {
          "internalType": "bytes32",
          "name": "billId",
          "type": "bytes32"
        },
        {
          "internalType": "address",
          "name": "buyer",
          "type": "address"
        },
        {
          "internalType": "address",
          "name": "seller",
          "type": "address"
        }
      ],
      "stateMutability": "view",
      "type": "function"
    },
    {
      "inputs": [
        {
          "internalType": "address",
          "name": "_buyerAccount",
          "type": "address"
        },
        {
          "internalType": "bytes32",
          "name": "_billId",
          "type": "bytes32"
        }
      ],
      "name": "cancelBillInstallmentNFT",
      "outputs": [],
      "stateMutability": "nonpayable",
      "type": "function"
    },
    {
      "inputs": [
        {
          "internalType": "bytes32",
          "name": "_orderId",
          "type": "bytes32"
        }
      ],
      "name": "cancelOrderInstallmentNFT",
      "outputs": [],
      "stateMutability": "nonpayable",
      "type": "function"
    },
    {
      "inputs": [
        {
          "internalType": "address",
          "name": "_nftAddress",
          "type": "address"
        },
        {
          "internalType": "uint256",
          "name": "_tokenId",
          "type": "uint256"
        },
        {
          "internalType": "uint256",
          "name": "_price",
          "type": "uint256"
        }
      ],
      "name": "createOrderInstallmentNFT",
      "outputs": [],
      "stateMutability": "nonpayable",
      "type": "function"
    },
    {
      "inputs": [
        {
          "internalType": "bytes32",
          "name": "_orderId",
          "type": "bytes32"
        },
        {
          "internalType": "uint256",
          "name": "_price",
          "type": "uint256"
        }
      ],
      "name": "editOrderInstallmentNFT",
      "outputs": [],
      "stateMutability": "nonpayable",
      "type": "function"
    },
    {
      "inputs": [
        {
          "internalType": "address",
          "name": "_sellerAccount",
          "type": "address"
        },
        {
          "internalType": "bytes32",
          "name": "_orderId",
          "type": "bytes32"
        },
        {
          "internalType": "uint256",
          "name": "_period",
          "type": "uint256"
        }
      ],
      "name": "executeOrderInstallmentNFT",
      "outputs": [],
      "stateMutability": "nonpayable",
      "type": "function"
    },
    {
      "inputs": [
        {
          "internalType": "bytes32",
          "name": "role",
          "type": "bytes32"
        }
      ],
      "name": "getRoleAdmin",
      "outputs": [
        {
          "internalType": "bytes32",
          "name": "",
          "type": "bytes32"
        }
      ],
      "stateMutability": "view",
      "type": "function"
    },
    {
      "inputs": [
        {
          "internalType": "bytes32",
          "name": "role",
          "type": "bytes32"
        },
        {
          "internalType": "address",
          "name": "account",
          "type": "address"
        }
      ],
      "name": "grantRole",
      "outputs": [],
      "stateMutability": "nonpayable",
      "type": "function"
    },
    {
      "inputs": [
        {
          "internalType": "bytes32",
          "name": "role",
          "type": "bytes32"
        },
        {
          "internalType": "address",
          "name": "account",
          "type": "address"
        }
      ],
      "name": "hasRole",
      "outputs": [
        {
          "internalType": "bool",
          "name": "",
          "type": "bool"
        }
      ],
      "stateMutability": "view",
      "type": "function"
    },
    {
      "inputs": [
        {
          "internalType": "bytes32",
          "name": "_role",
          "type": "bytes32"
        },
        {
          "internalType": "address[]",
          "name": "_workerAddress",
          "type": "address[]"
        }
      ],
      "name": "multiGrantRole",
      "outputs": [],
      "stateMutability": "nonpayable",
      "type": "function"
    },
    {
      "inputs": [],
      "name": "nakaTokenAddress",
      "outputs": [
        {
          "internalType": "address",
          "name": "",
          "type": "address"
        }
      ],
      "stateMutability": "view",
      "type": "function"
    },
    {
      "inputs": [],
      "name": "nftVaultAddress",
      "outputs": [
        {
          "internalType": "address",
          "name": "",
          "type": "address"
        }
      ],
      "stateMutability": "view",
      "type": "function"
    },
    {
      "inputs": [
        {
          "internalType": "address",
          "name": "",
          "type": "address"
        },
        {
          "internalType": "bytes32",
          "name": "",
          "type": "bytes32"
        }
      ],
      "name": "orderByOrderId",
      "outputs": [
        {
          "internalType": "bytes32",
          "name": "id",
          "type": "bytes32"
        },
        {
          "internalType": "address",
          "name": "nftAddress",
          "type": "address"
        },
        {
          "internalType": "uint256",
          "name": "tokenId",
          "type": "uint256"
        },
        {
          "internalType": "address",
          "name": "seller",
          "type": "address"
        },
        {
          "internalType": "uint256",
          "name": "price",
          "type": "uint256"
        }
      ],
      "stateMutability": "view",
      "type": "function"
    },
    {
      "inputs": [
        {
          "internalType": "address",
          "name": "",
          "type": "address"
        },
        {
          "internalType": "uint256",
          "name": "",
          "type": "uint256"
        }
      ],
      "name": "orderIdByNFT",
      "outputs": [
        {
          "internalType": "bytes32",
          "name": "id",
          "type": "bytes32"
        },
        {
          "internalType": "address",
          "name": "seller",
          "type": "address"
        }
      ],
      "stateMutability": "view",
      "type": "function"
    },
    {
      "inputs": [],
      "name": "owner",
      "outputs": [
        {
          "internalType": "address",
          "name": "",
          "type": "address"
        }
      ],
      "stateMutability": "view",
      "type": "function"
    },
    {
      "inputs": [],
      "name": "pauseInstallment",
      "outputs": [],
      "stateMutability": "nonpayable",
      "type": "function"
    },
    {
      "inputs": [
        {
          "internalType": "bytes32",
          "name": "_billId",
          "type": "bytes32"
        },
        {
          "internalType": "uint256",
          "name": "_period",
          "type": "uint256"
        }
      ],
      "name": "payBillInstallmentNFT",
      "outputs": [],
      "stateMutability": "nonpayable",
      "type": "function"
    },
    {
      "inputs": [],
      "name": "renounceOwnership",
      "outputs": [],
      "stateMutability": "nonpayable",
      "type": "function"
    },
    {
      "inputs": [
        {
          "internalType": "bytes32",
          "name": "role",
          "type": "bytes32"
        },
        {
          "internalType": "address",
          "name": "account",
          "type": "address"
        }
      ],
      "name": "renounceRole",
      "outputs": [],
      "stateMutability": "nonpayable",
      "type": "function"
    },
    {
      "inputs": [],
      "name": "rentingAddress",
      "outputs": [
        {
          "internalType": "address",
          "name": "",
          "type": "address"
        }
      ],
      "stateMutability": "view",
      "type": "function"
    },
    {
      "inputs": [
        {
          "internalType": "bytes32",
          "name": "role",
          "type": "bytes32"
        },
        {
          "internalType": "address",
          "name": "account",
          "type": "address"
        }
      ],
      "name": "revokeRole",
      "outputs": [],
      "stateMutability": "nonpayable",
      "type": "function"
    },
    {
      "inputs": [
        {
          "internalType": "address",
          "name": "_rentingAddress",
          "type": "address"
        },
        {
          "internalType": "address",
          "name": "_nftVaultAddress",
          "type": "address"
        }
      ],
      "name": "setCheckOtherContract",
      "outputs": [],
      "stateMutability": "nonpayable",
      "type": "function"
    },
    {
      "inputs": [
        {
          "internalType": "bytes4",
          "name": "interfaceId",
          "type": "bytes4"
        }
      ],
      "name": "supportsInterface",
      "outputs": [
        {
          "internalType": "bool",
          "name": "",
          "type": "bool"
        }
      ],
      "stateMutability": "view",
      "type": "function"
    },
    {
      "inputs": [
        {
          "internalType": "address",
          "name": "newOwner",
          "type": "address"
        }
      ],
      "name": "transferOwnership",
      "outputs": [],
      "stateMutability": "nonpayable",
      "type": "function"
    },
    {
      "inputs": [],
      "name": "unpauseInstallment",
      "outputs": [],
      "stateMutability": "nonpayable",
      "type": "function"
    }
  ],
  "bytecode": "0x60806040523480156200001157600080fd5b5060405162002ec938038062002ec983398101604081905262000034916200018e565b6200003f3362000089565b6001600255600380546001600160a01b038085166001600160a01b031992831617909255600580549284169290911691909117905562000081600033620000d9565b5050620001c6565b600080546001600160a01b038381166001600160a01b0319831681178455604051919092169283917f8be0079c531659141344cd1fd0a4f28419497f9722a3daafe3b4186f6b6457e09190a35050565b620000e58282620000e9565b5050565b60008281526001602090815260408083206001600160a01b038516845290915290205460ff16620000e55760008281526001602081815260408084206001600160a01b0386168086529252808420805460ff19169093179092559051339285917f2f8788117e7eff1d82e926ec794901d17c78024a50270940304540a733656f0d9190a45050565b80516001600160a01b03811681146200018957600080fd5b919050565b60008060408385031215620001a257600080fd5b620001ad8362000171565b9150620001bd6020840162000171565b90509250929050565b612cf380620001d66000396000f3fe608060405234801561001057600080fd5b50600436106101c45760003560e01c80638da5cb5b116100f9578063a397e91611610097578063d547741f11610071578063d547741f146105af578063f2fde38b146105c2578063f4d4316c146105d5578063f9fca0d0146105e857600080fd5b8063a397e9161461053c578063c9ffe9f41461054f578063cef0015a146105a757600080fd5b806391d14854116100d357806391d14854146104fb5780639b88be9b1461050e5780639c27400014610521578063a217fddf1461053457600080fd5b80638da5cb5b1461046c5780638e59a2341461047d5780639161e08f1461049057600080fd5b806347d1c4c411610166578063715018a611610140578063715018a61461033857806371d8d2fe146103405780637b8695f81461036b57806389a4b2a21461045957600080fd5b806347d1c4c414610279578063634252dc146102fe57806365d2e3061461032557600080fd5b8063248a9ca3116101a2578063248a9ca31461020e5780632f2ff15d1461024057806336568abe14610253578063427f01151461026657600080fd5b806301ffc9a7146101c957806302a7196b146101f157806308376d71146101fb575b600080fd5b6101dc6101d7366004612656565b6105fb565b60405190151581526020015b60405180910390f35b6101f9610632565b005b6101f9610209366004612680565b6106cd565b61023261021c3660046126a2565b6000908152600160208190526040909120015490565b6040519081526020016101e8565b6101f961024e3660046126d0565b6107a3565b6101f96102613660046126d0565b6107cf565b6101f9610274366004612700565b61084d565b6102cc610287366004612735565b60066020908152600092835260408084209091529082529020805460018201546002830154600384015460049094015492936001600160a01b03928316939192169085565b604080519586526001600160a01b0394851660208701528501929092529091166060830152608082015260a0016101e8565b6102327ff1b411d6abb365480ac902cc153c45e9ded5847a2265ce6d01945d253edb6bc781565b6101f9610333366004612680565b610c80565b6101f96110d2565b600354610353906001600160a01b031681565b6040516001600160a01b0390911681526020016101e8565b6103f1610379366004612735565b6008602081815260009384526040808520909152918352912080546001820154600283015460038401546004850154600586015460068701546007880154988801546009890154600a8a0154600b909a0154989a6001600160a01b039889169a9789169996909816979496939592949391929091908c565b604080519c8d526001600160a01b039b8c1660208e0152998b16998c01999099529890961660608a0152608089019490945260a088019290925260c087015260e0860152610100850152610120840152610140830191909152610160820152610180016101e8565b6101f96104673660046127a8565b611108565b6000546001600160a01b0316610353565b600454610353906001600160a01b031681565b6104d661049e366004612735565b600960209081526000928352604080842090915290825290208054600182015460029092015490916001600160a01b03908116911683565b604080519384526001600160a01b0392831660208501529116908201526060016101e8565b6101dc6105093660046126d0565b611150565b6101f961051c3660046126a2565b61117b565b6101f961052f366004612866565b6113b1565b610232600081565b600554610353906001600160a01b031681565b61058a61055d366004612735565b6007602090815260009283526040808420909152908252902080546001909101546001600160a01b031682565b604080519283526001600160a01b039091166020830152016101e8565b6101f9611409565b6101f96105bd3660046126d0565b6114d7565b6101f96105d0366004612894565b6114fe565b6101f96105e3366004612700565b611599565b6101f96105f6366004612735565b611d2b565b60006001600160e01b03198216637965db0b60e01b148061062c57506301ffc9a760e01b6001600160e01b03198316145b92915050565b6000546001600160a01b031633146106655760405162461bcd60e51b815260040161065c906128b1565b60405180910390fd5b600554600160a01b900460ff161561068f5760405162461bcd60e51b815260040161065c906128e6565b6005805460ff60a01b1916600160a01b1790556040517fdd33f107c2ec6a6efa77c0268de5e55848c9539539e88acfb9972d67b2f01fd290600090a1565b600554600160a01b900460ff16156106f75760405162461bcd60e51b815260040161065c906128e6565b336000908152600660209081526040808320858452909152812080549091036107325760405162461bcd60e51b815260040161065c90612937565b60038101546001600160a01b0316331461075e5760405162461bcd60e51b815260040161065c90612981565b6004810182905560408051848152602081018490527f5f61441f892c4f35cf8fdb64a6cea8009b34d2139e2d101fb64b6947c453cb10910160405180910390a1505050565b600082815260016020819052604090912001546107c08133612089565b6107ca83836120ed565b505050565b6001600160a01b038116331461083f5760405162461bcd60e51b815260206004820152602f60248201527f416363657373436f6e74726f6c3a2063616e206f6e6c792072656e6f756e636560448201526e103937b632b9903337b91039b2b63360891b606482015260840161065c565b6108498282612158565b5050565b600480546040516316036d3360e01b81526001600160a01b038087169382019390935260248101859052859285926000929116906316036d33906044016040805180830381865afa1580156108a6573d6000803e3d6000fd5b505050506040513d601f19601f820116820180604052508101906108ca91906129cd565b9050336001600160a01b031681602001516001600160a01b0316036109675760405162461bcd60e51b815260206004820152604760248201527f5b496e7374616c6c6d656e742e636865636b4f6e52656e74696e675d204e465460448201527f20616c7265616479206c6973746564206f6e204e465452656e74696e6720636f606482015266373a3930b1ba1760c91b608482015260a40161065c565b600554600160a01b900460ff16156109915760405162461bcd60e51b815260040161065c906128e6565b600042338888886040516020016109ac959493929190612a23565b6040516020818303038152906040528051906020012090506040518060a00160405280828152602001886001600160a01b03168152602001878152602001336001600160a01b031681526020018681525060066000336001600160a01b03166001600160a01b0316815260200190815260200160002060008381526020019081526020016000206000820151816000015560208201518160010160006101000a8154816001600160a01b0302191690836001600160a01b031602179055506040820151816002015560608201518160030160006101000a8154816001600160a01b0302191690836001600160a01b03160217905550608082015181600401559050506040518060400160405280828152602001336001600160a01b031681525060076000896001600160a01b03166001600160a01b0316815260200190815260200160002060008881526020019081526020016000206000820151816000015560208201518160010160006101000a8154816001600160a01b0302191690836001600160a01b031602179055509050506000339050600560009054906101000a90046001600160a01b03166001600160a01b0316639abe68538989846040518463ffffffff1660e01b8152600401610b8693929190612a5c565b600060405180830381600087803b158015610ba057600080fd5b505af1158015610bb4573d6000803e3d6000fd5b5050600554604051632142170760e11b81523360048201526001600160a01b039182166024820152604481018b9052908b1692506342842e0e9150606401600060405180830381600087803b158015610c0c57600080fd5b505af1158015610c20573d6000803e3d6000fd5b5050604080518581526001600160a01b038c1660208201529081018a9052606081018990523392507f9ebc565863d5b5df12b50a1817cf519d221fbd3a6b4db96e4cd8bb1c3e60d5b6915060800160405180910390a25050505050505050565b600554600160a01b900460ff1615610caa5760405162461bcd60e51b815260040161065c906128e6565b33600090815260086020908152604080832085845290915281208054909103610d315760405162461bcd60e51b815260206004820152603360248201527f5b496e7374616c6c6d656e742e70617942696c6c496e7374616c6c6d656e744e604482015272232a2e902134b636103737ba103337bab7321760691b606482015260840161065c565b81600003610d515760405162461bcd60e51b815260040161065c90612a7f565b8181600701541015610d755760405162461bcd60e51b815260040161065c90612a7f565b60018101546001600160a01b03163314610e1d5760405162461bcd60e51b815260206004820152605760248201527f5b496e7374616c6c6d656e742e70617942696c6c496e7374616c6c6d656e744e60448201527f46545d204f6e6c79206275796572206f6620696e7374616c6c6d656e7420636f60648201527f6e74726163742063616e20706179207468652062696c6c000000000000000000608482015260a40161065c565b60035460078201546000916001600160a01b031690849003610e6457600a8301546002840154909250610e5f906001600160a01b0383811691339116856121bf565b610ef5565b8260070154600103610ebd57601e83600b0154600a610e839190612af2565b610e8d9190612b1f565b83600b0154610e9c9190612b33565b6002840154909250610e5f906001600160a01b0383811691339116856121bf565b60008484600b0154610ecf9190612af2565b6002850154909350839150610ef3906001600160a01b0384811691339116846121bf565b505b8183600a016000828254610f099190612b33565b9250508190555083836007016000828254610f249190612b33565b909155505060028301546007840154600a850154604080518981526020810193909352820152606081018490526001600160a01b039091169033907f35457995c78ea12c99be33bc41458a087c4aa0481f9711443511b572aa452cbf9060800160405180910390a382600701546000036110cb5760055460038401546004808601546001870154604051637419d1a360e01b81526001600160a01b0395861695637419d1a395610fdd9590821694939091169101612a5c565b600060405180830381600087803b158015610ff757600080fd5b505af115801561100b573d6000803e3d6000fd5b50503360009081526008602081815260408084208b85528252808420848155600180820180546001600160a01b03199081169091556002808401805483169055600380850180548416905560048086018a9055600586018a9055600686018a9055600786018a905597850189905560098086018a9055600a86018a9055600b9095018990558d01546001600160a01b03168852928552838720958c0154875294909352908420938455908301805483169055919091018054909116905550505b5050505050565b6000546001600160a01b031633146110fc5760405162461bcd60e51b815260040161065c906128b1565b6111066000612219565b565b805160005b8181101561114a576111388484838151811061112b5761112b612b46565b60200260200101516107a3565b8061114281612b5c565b91505061110d565b50505050565b60009182526001602090815260408084206001600160a01b0393909316845291905290205460ff1690565b600554600160a01b900460ff16156111a55760405162461bcd60e51b815260040161065c906128e6565b3360009081526006602090815260408083208484528252808320815160a081018352815480825260018301546001600160a01b0390811695830195909552600283015493820193909352600382015490931660608401526004015460808301529091036112245760405162461bcd60e51b815260040161065c90612937565b60608101516001600160a01b031633146112505760405162461bcd60e51b815260040161065c90612981565b600554602082015160408084015160608501519151637419d1a360e01b81526001600160a01b0390941693637419d1a39361129093909291600401612a5c565b600060405180830381600087803b1580156112aa57600080fd5b505af11580156112be573d6000803e3d6000fd5b5050506060820180516001600160a01b0390811660009081526006602090815260408083208884528252808320838155600180820180546001600160a01b03199081169091556002830186905560038301805482169055600490920185905583890180518716865260078552838620848b018051885295528386209586559401805490911690559351865192519151608088015195519190941695507fac9c8ec260895e4ddbeb3fbda003317b2438a6f6d31c901efaf7c984e453cb87946113a594919384526001600160a01b039290921660208401526040830152606082015260800190565b60405180910390a25050565b6000546001600160a01b031633146113db5760405162461bcd60e51b815260040161065c906128b1565b600480546001600160a01b039384166001600160a01b03199182161790915560058054929093169116179055565b6000546001600160a01b031633146114335760405162461bcd60e51b815260040161065c906128b1565b600554600160a01b900460ff1661149f5760405162461bcd60e51b815260206004820152602a60248201527f5b496e7374616c6c6d656e742e7768656e496e7374616c6c6d656e74506175736044820152691959174814185d5cd95960b21b606482015260840161065c565b6005805460ff60a01b191690556040517f98ce2079ce85809d9a97d5c599d0fb5a6cf14fcd06b9850c2c2d7cd2df065bd890600090a1565b600082815260016020819052604090912001546114f48133612089565b6107ca8383612158565b6000546001600160a01b031633146115285760405162461bcd60e51b815260040161065c906128b1565b6001600160a01b03811661158d5760405162461bcd60e51b815260206004820152602660248201527f4f776e61626c653a206e6577206f776e657220697320746865207a65726f206160448201526564647265737360d01b606482015260840161065c565b61159681612219565b50565b600554600160a01b900460ff16156115c35760405162461bcd60e51b815260040161065c906128e6565b6001600160a01b0380841660009081526006602090815260408083208684528252808320815160a0810183528154808252600183015487169482019490945260028201549281019290925260038101549094166060820152600490930154608084015290036116925760405162461bcd60e51b815260206004820152603560248201527f5b496e7374616c6c6d656e742e7075726368617365496e7374616c6c6d656e7460448201527427232a2e9027b93232b9103737ba103337bab7321760591b606482015260840161065c565b336001600160a01b031681606001516001600160a01b03160361171d5760405162461bcd60e51b815260206004820152603a60248201527f5b496e7374616c6c6d656e742e7075726368617365496e7374616c6c6d656e7460448201527f4e46545d2043616e2774206275792074686973206f726465722e000000000000606482015260840161065c565b611728600383612b75565b158015611736575060068210155b8015611743575060188211155b6117db5760405162461bcd60e51b815260206004820152605960248201527f5b496e7374616c6c6d656e742e7075726368617365496e7374616c6c6d656e7460448201527f4e46545d20506572696f64206d757374206265206d6f7265207468616e206f7260648201527f20657175616c20746f203620616e64206d6f642033203d203000000000000000608482015260a40161065c565b60006117e8600184612b33565b905060008060036117fa600687612b33565b611805906004612af2565b61180f9190612b1f565b61181a600387612b1f565b611825906003612b89565b61182f9190612b89565b915060648285608001516118439190612af2565b61184d9190612b1f565b905060008185608001516118619190612b89565b9050600061186f8783612b1f565b90506000601e611880836028612af2565b61188a9190612b1f565b905060006118988285612b33565b60035460608a01519192506001600160a01b0316906118bb9082903390866121bf565b600042338b602001518c604001518d608001516040516020016118e2959493929190612a23565b604051602081830303815290604052805190602001209050604051806101800160405280828152602001336001600160a01b031681526020018e6001600160a01b031681526020018b602001516001600160a01b031681526020018b6040015181526020018b6080015181526020018c81526020018a81526020018581526020018781526020018481526020018681525060086000336001600160a01b03166001600160a01b0316815260200190815260200160002060008381526020019081526020016000206000820151816000015560208201518160010160006101000a8154816001600160a01b0302191690836001600160a01b0316021790555060408201518160020160006101000a8154816001600160a01b0302191690836001600160a01b0316021790555060608201518160030160006101000a8154816001600160a01b0302191690836001600160a01b031602179055506080820151816004015560a0820151816005015560c0820151816006015560e082015181600701556101008201518160080155610120820151816009015561014082015181600a015561016082015181600b01559050506040518060600160405280828152602001336001600160a01b031681526020018e6001600160a01b0316815250600960008c602001516001600160a01b03166001600160a01b0316815260200190815260200160002060008c6040015181526020019081526020016000206000820151816000015560208201518160010160006101000a8154816001600160a01b0302191690836001600160a01b0316021790555060408201518160020160006101000a8154816001600160a01b0302191690836001600160a01b03160217905550905050600660008b606001516001600160a01b03166001600160a01b0316815260200190815260200160002060008d81526020019081526020016000206000808201600090556001820160006101000a8154906001600160a01b03021916905560028201600090556003820160006101000a8154906001600160a01b03021916905560048201600090555050600760008b602001516001600160a01b03166001600160a01b0316815260200190815260200160002060008b6040015181526020019081526020016000206000808201600090556001820160006101000a8154906001600160a01b03021916905550508c6001600160a01b0316336001600160a01b03167fdf6f700531b14b91a457002d7310a33865f16743cd4131fb8b5dabd90d58ed8f838d60200151604051611caa9291909182526001600160a01b0316602082015260400190565b60405180910390a36080808b015160408051848152602081019290925281018d9052606081018b905290810185905260a0810187905260c0810184905260e081018690527f68cfaaf31187477db51aafc6d30b3617f109dc6a5295f1b7c0bb451d8442e11a906101000160405180910390a150505050505050505050505050565b7ff1b411d6abb365480ac902cc153c45e9ded5847a2265ce6d01945d253edb6bc7611d568133612089565b600554600160a01b900460ff1615611d805760405162461bcd60e51b815260040161065c906128e6565b6001600160a01b03808416600090815260086020818152604080842087855282528084208151610180810183528154808252600183015488169482019490945260028201548716928101929092526003810154909516606082015260048501546080820152600585015460a0820152600685015460c0820152600785015460e0820152918401546101008301526009840154610120830152600a840154610140830152600b90930154610160820152919003611e8f5760405162461bcd60e51b815260206004820152602860248201527f5b496e7374616c6c6d656e742e63616e63656c42696c6c5d2042696c6c206e6f6044820152673a103337bab7321760c11b606482015260840161065c565b600554606082015160808301516040808501519051637419d1a360e01b81526001600160a01b0390941693637419d1a393611ed09390929091600401612a5c565b600060405180830381600087803b158015611eea57600080fd5b505af1158015611efe573d6000803e3d6000fd5b5050506001600160a01b0380861660009081526008602081815260408084208985528252808420848155600180820180546001600160a01b0319908116909155600280840180548316905560038401805483169055600484018890556005840188905560068401889055600784018890559583018790556009808401889055600a8401889055600b90930187905560608a0180518916885292855283872060808b0180518952908652848820978855918701805482169055959094018054909516909455868101519187015187519451935160a089015160c08a015160e08b01516101208c01516101408d01516101608e01519751988c169c5095909a16997f01c5e0798075d68fa6a9f0aceecc835f5f7b2b19a2ae9315ebcab75e0562d8359961207b99909890979596949593949293919291909889526001600160a01b0397909716602089015260408801959095526060870193909352608086019190915260a085015260c084015260e08301526101008201526101200190565b60405180910390a350505050565b6120938282611150565b610849576120ab816001600160a01b03166014612269565b6120b6836020612269565b6040516020016120c7929190612bc0565b60408051601f198184030181529082905262461bcd60e51b825261065c91600401612c35565b6120f78282611150565b6108495760008281526001602081815260408084206001600160a01b0386168086529252808420805460ff19169093179092559051339285917f2f8788117e7eff1d82e926ec794901d17c78024a50270940304540a733656f0d9190a45050565b6121628282611150565b156108495760008281526001602090815260408083206001600160a01b0385168085529252808320805460ff1916905551339285917ff6391f5c32d9c69d2a47ea670b442974b53935d1edc7fd64eb21e047a839171b9190a45050565b604080516001600160a01b0385811660248301528416604482015260648082018490528251808303909101815260849091019091526020810180516001600160e01b03166323b872dd60e01b17905261114a90859061240c565b600080546001600160a01b038381166001600160a01b0319831681178455604051919092169283917f8be0079c531659141344cd1fd0a4f28419497f9722a3daafe3b4186f6b6457e09190a35050565b60606000612278836002612af2565b612283906002612b89565b67ffffffffffffffff81111561229b5761229b612761565b6040519080825280601f01601f1916602001820160405280156122c5576020820181803683370190505b509050600360fc1b816000815181106122e0576122e0612b46565b60200101906001600160f81b031916908160001a905350600f60fb1b8160018151811061230f5761230f612b46565b60200101906001600160f81b031916908160001a9053506000612333846002612af2565b61233e906001612b89565b90505b60018111156123b6576f181899199a1a9b1b9c1cb0b131b232b360811b85600f166010811061237257612372612b46565b1a60f81b82828151811061238857612388612b46565b60200101906001600160f81b031916908160001a90535060049490941c936123af81612c68565b9050612341565b5083156124055760405162461bcd60e51b815260206004820181905260248201527f537472696e67733a20686578206c656e67746820696e73756666696369656e74604482015260640161065c565b9392505050565b6000612461826040518060400160405280602081526020017f5361666545524332303a206c6f772d6c6576656c2063616c6c206661696c6564815250856001600160a01b03166124de9092919063ffffffff16565b8051909150156107ca578080602001905181019061247f9190612c7f565b6107ca5760405162461bcd60e51b815260206004820152602a60248201527f5361666545524332303a204552433230206f7065726174696f6e20646964206e6044820152691bdd081cdd58d8d9595960b21b606482015260840161065c565b60606124ed84846000856124f5565b949350505050565b6060824710156125565760405162461bcd60e51b815260206004820152602660248201527f416464726573733a20696e73756666696369656e742062616c616e636520666f6044820152651c8818d85b1b60d21b606482015260840161065c565b843b6125a45760405162461bcd60e51b815260206004820152601d60248201527f416464726573733a2063616c6c20746f206e6f6e2d636f6e7472616374000000604482015260640161065c565b600080866001600160a01b031685876040516125c09190612ca1565b60006040518083038185875af1925050503d80600081146125fd576040519150601f19603f3d011682016040523d82523d6000602084013e612602565b606091505b509150915061261282828661261d565b979650505050505050565b6060831561262c575081612405565b82511561263c5782518084602001fd5b8160405162461bcd60e51b815260040161065c9190612c35565b60006020828403121561266857600080fd5b81356001600160e01b03198116811461240557600080fd5b6000806040838503121561269357600080fd5b50508035926020909101359150565b6000602082840312156126b457600080fd5b5035919050565b6001600160a01b038116811461159657600080fd5b600080604083850312156126e357600080fd5b8235915060208301356126f5816126bb565b809150509250929050565b60008060006060848603121561271557600080fd5b8335612720816126bb565b95602085013595506040909401359392505050565b6000806040838503121561274857600080fd5b8235612753816126bb565b946020939093013593505050565b634e487b7160e01b600052604160045260246000fd5b604051601f8201601f1916810167ffffffffffffffff811182821017156127a0576127a0612761565b604052919050565b600080604083850312156127bb57600080fd5b8235915060208084013567ffffffffffffffff808211156127db57600080fd5b818601915086601f8301126127ef57600080fd5b81358181111561280157612801612761565b8060051b9150612812848301612777565b818152918301840191848101908984111561282c57600080fd5b938501935b838510156128565784359250612846836126bb565b8282529385019390850190612831565b8096505050505050509250929050565b6000806040838503121561287957600080fd5b8235612884816126bb565b915060208301356126f5816126bb565b6000602082840312156128a657600080fd5b8135612405816126bb565b6020808252818101527f4f776e61626c653a2063616c6c6572206973206e6f7420746865206f776e6572604082015260600190565b60208082526031908201527f5b496e7374616c6c6d656e742e7768656e496e7374616c6c6d656e744e6f7450604082015270185d5cd9591748139bdd0814185d5cd959607a1b606082015260800190565b6020808252602a908201527f5b496e7374616c6c6d656e742e63616e63656c4f726465725d204f72646572206040820152693737ba103337bab7321760b11b606082015260800190565b6020808252602c908201527f5b496e7374616c6c6d656e742e63616e63656c4f726465725d20556e6175746860408201526b37b934bd32b2103ab9b2b91760a11b606082015260800190565b6000604082840312156129df57600080fd5b6040516040810181811067ffffffffffffffff82111715612a0257612a02612761565b604052825181526020830151612a17816126bb565b60208201529392505050565b9485526bffffffffffffffffffffffff19606094851b811660208701529290931b90911660348401526048830152606882015260880190565b6001600160a01b0393841681526020810192909252909116604082015260600190565b60208082526039908201527f5b496e7374616c6c6d656e742e70617942696c6c496e7374616c6c6d656e744e60408201527f46545d20506572696f64206973206e6f7420636f727265637400000000000000606082015260800190565b634e487b7160e01b600052601160045260246000fd5b808202811582820484141761062c5761062c612adc565b634e487b7160e01b600052601260045260246000fd5b600082612b2e57612b2e612b09565b500490565b8181038181111561062c5761062c612adc565b634e487b7160e01b600052603260045260246000fd5b600060018201612b6e57612b6e612adc565b5060010190565b600082612b8457612b84612b09565b500690565b8082018082111561062c5761062c612adc565b60005b83811015612bb7578181015183820152602001612b9f565b50506000910152565b7f416363657373436f6e74726f6c3a206163636f756e7420000000000000000000815260008351612bf8816017850160208801612b9c565b7001034b99036b4b9b9b4b733903937b6329607d1b6017918401918201528351612c29816028840160208801612b9c565b01602801949350505050565b6020815260008251806020840152612c54816040850160208701612b9c565b601f01601f19169190910160400192915050565b600081612c7757612c77612adc565b506000190190565b600060208284031215612c9157600080fd5b8151801515811461240557600080fd5b60008251612cb3818460208701612b9c565b919091019291505056fea264697066735822122067ef8a3056b31b70feb0064dbc7c18899c9c77bdacb9de084de7c6da2e4a2bde64736f6c63430008110033",
  "linkReferences": {},
  "deployedLinkReferences": {}
}