{
  "_format": "hh-sol-artifact-1",
  "contractName": "ArcadeGamesNFT",
  "sourceName": "contracts/ArcadeGamesNFT.sol",
  "abi": [
    {
      "inputs": [
        {
          "internalType": "uint256",
          "name": "_maxSupply",
          "type": "uint256"
        }
      ],
      "stateMutability": "nonpayable",
      "type": "constructor"
    },
    {
      "anonymous": false,
      "inputs": [
        {
          "indexed": true,
          "internalType": "address",
          "name": "owner",
          "type": "address"
        },
        {
          "indexed": true,
          "internalType": "address",
          "name": "approved",
          "type": "address"
        },
        {
          "indexed": true,
          "internalType": "uint256",
          "name": "tokenId",
          "type": "uint256"
        }
      ],
      "name": "Approval",
      "type": "event"
    },
    {
      "anonymous": false,
      "inputs": [
        {
          "indexed": true,
          "internalType": "address",
          "name": "owner",
          "type": "address"
        },
        {
          "indexed": true,
          "internalType": "address",
          "name": "operator",
          "type": "address"
        },
        {
          "indexed": false,
          "internalType": "bool",
          "name": "approved",
          "type": "bool"
        }
      ],
      "name": "ApprovalForAll",
      "type": "event"
    },
    {
      "anonymous": false,
      "inputs": [
        {
          "indexed": false,
          "internalType": "address",
          "name": "to",
          "type": "address"
        },
        {
          "indexed": false,
          "internalType": "uint256",
          "name": "Token",
          "type": "uint256"
        }
      ],
      "name": "MintNFTs",
      "type": "event"
    },
    {
      "anonymous": false,
      "inputs": [
        {
          "indexed": true,
          "internalType": "address",
          "name": "previousOwner",
          "type": "address"
        },
        {
          "indexed": true,
          "internalType": "address",
          "name": "newOwner",
          "type": "address"
        }
      ],
      "name": "OwnershipTransferred",
      "type": "event"
    },
    {
      "anonymous": false,
      "inputs": [
        {
          "indexed": false,
          "internalType": "address",
          "name": "account",
          "type": "address"
        }
      ],
      "name": "Paused",
      "type": "event"
    },
    {
      "anonymous": false,
      "inputs": [
        {
          "indexed": true,
          "internalType": "bytes32",
          "name": "role",
          "type": "bytes32"
        },
        {
          "indexed": true,
          "internalType": "bytes32",
          "name": "previousAdminRole",
          "type": "bytes32"
        },
        {
          "indexed": true,
          "internalType": "bytes32",
          "name": "newAdminRole",
          "type": "bytes32"
        }
      ],
      "name": "RoleAdminChanged",
      "type": "event"
    },
    {
      "anonymous": false,
      "inputs": [
        {
          "indexed": true,
          "internalType": "bytes32",
          "name": "role",
          "type": "bytes32"
        },
        {
          "indexed": true,
          "internalType": "address",
          "name": "account",
          "type": "address"
        },
        {
          "indexed": true,
          "internalType": "address",
          "name": "sender",
          "type": "address"
        }
      ],
      "name": "RoleGranted",
      "type": "event"
    },
    {
      "anonymous": false,
      "inputs": [
        {
          "indexed": true,
          "internalType": "bytes32",
          "name": "role",
          "type": "bytes32"
        },
        {
          "indexed": true,
          "internalType": "address",
          "name": "account",
          "type": "address"
        },
        {
          "indexed": true,
          "internalType": "address",
          "name": "sender",
          "type": "address"
        }
      ],
      "name": "RoleRevoked",
      "type": "event"
    },
    {
      "anonymous": false,
      "inputs": [
        {
          "indexed": true,
          "internalType": "address",
          "name": "from",
          "type": "address"
        },
        {
          "indexed": true,
          "internalType": "address",
          "name": "to",
          "type": "address"
        },
        {
          "indexed": true,
          "internalType": "uint256",
          "name": "tokenId",
          "type": "uint256"
        }
      ],
      "name": "Transfer",
      "type": "event"
    },
    {
      "anonymous": false,
      "inputs": [
        {
          "indexed": false,
          "internalType": "address",
          "name": "account",
          "type": "address"
        }
      ],
      "name": "Unpaused",
      "type": "event"
    },
    {
      "anonymous": false,
      "inputs": [
        {
          "indexed": false,
          "internalType": "uint256",
          "name": "Tokenid",
          "type": "uint256"
        }
      ],
      "name": "burnNFTs",
      "type": "event"
    },
    {
      "stateMutability": "payable",
      "type": "fallback"
    },
    {
      "inputs": [],
      "name": "DEFAULT_ADMIN_ROLE",
      "outputs": [
        {
          "internalType": "bytes32",
          "name": "",
          "type": "bytes32"
        }
      ],
      "stateMutability": "view",
      "type": "function"
    },
    {
      "inputs": [],
      "name": "WORKER_ROLE",
      "outputs": [
        {
          "internalType": "bytes32",
          "name": "",
          "type": "bytes32"
        }
      ],
      "stateMutability": "view",
      "type": "function"
    },
    {
      "inputs": [
        {
          "internalType": "uint256",
          "name": "_tokenId",
          "type": "uint256"
        }
      ],
      "name": "_burnNFT",
      "outputs": [],
      "stateMutability": "nonpayable",
      "type": "function"
    },
    {
      "inputs": [
        {
          "internalType": "address",
          "name": "to",
          "type": "address"
        },
        {
          "internalType": "uint256",
          "name": "tokenId",
          "type": "uint256"
        }
      ],
      "name": "approve",
      "outputs": [],
      "stateMutability": "nonpayable",
      "type": "function"
    },
    {
      "inputs": [
        {
          "internalType": "address",
          "name": "owner",
          "type": "address"
        }
      ],
      "name": "balanceOf",
      "outputs": [
        {
          "internalType": "uint256",
          "name": "",
          "type": "uint256"
        }
      ],
      "stateMutability": "view",
      "type": "function"
    },
    {
      "inputs": [
        {
          "internalType": "uint256",
          "name": "tokenId",
          "type": "uint256"
        }
      ],
      "name": "burn",
      "outputs": [],
      "stateMutability": "nonpayable",
      "type": "function"
    },
    {
      "inputs": [
        {
          "internalType": "uint256",
          "name": "tokenId",
          "type": "uint256"
        }
      ],
      "name": "getApproved",
      "outputs": [
        {
          "internalType": "address",
          "name": "",
          "type": "address"
        }
      ],
      "stateMutability": "view",
      "type": "function"
    },
    {
      "inputs": [
        {
          "internalType": "bytes32",
          "name": "role",
          "type": "bytes32"
        }
      ],
      "name": "getRoleAdmin",
      "outputs": [
        {
          "internalType": "bytes32",
          "name": "",
          "type": "bytes32"
        }
      ],
      "stateMutability": "view",
      "type": "function"
    },
    {
      "inputs": [
        {
          "internalType": "bytes32",
          "name": "role",
          "type": "bytes32"
        },
        {
          "internalType": "address",
          "name": "account",
          "type": "address"
        }
      ],
      "name": "grantRole",
      "outputs": [],
      "stateMutability": "nonpayable",
      "type": "function"
    },
    {
      "inputs": [
        {
          "internalType": "bytes32",
          "name": "role",
          "type": "bytes32"
        },
        {
          "internalType": "address",
          "name": "account",
          "type": "address"
        }
      ],
      "name": "hasRole",
      "outputs": [
        {
          "internalType": "bool",
          "name": "",
          "type": "bool"
        }
      ],
      "stateMutability": "view",
      "type": "function"
    },
    {
      "inputs": [
        {
          "internalType": "address",
          "name": "owner",
          "type": "address"
        },
        {
          "internalType": "address",
          "name": "operator",
          "type": "address"
        }
      ],
      "name": "isApprovedForAll",
      "outputs": [
        {
          "internalType": "bool",
          "name": "",
          "type": "bool"
        }
      ],
      "stateMutability": "view",
      "type": "function"
    },
    {
      "inputs": [],
      "name": "maxSupply",
      "outputs": [
        {
          "internalType": "uint256",
          "name": "",
          "type": "uint256"
        }
      ],
      "stateMutability": "view",
      "type": "function"
    },
    {
      "inputs": [
        {
          "internalType": "address",
          "name": "_minter",
          "type": "address"
        },
        {
          "internalType": "uint256",
          "name": "_tokenId",
          "type": "uint256"
        },
        {
          "internalType": "string",
          "name": "_baseTokenURI",
          "type": "string"
        }
      ],
      "name": "mintNFT",
      "outputs": [],
      "stateMutability": "nonpayable",
      "type": "function"
    },
    {
      "inputs": [
        {
          "internalType": "bytes32",
          "name": "_role",
          "type": "bytes32"
        },
        {
          "internalType": "address[]",
          "name": "_workerAddress",
          "type": "address[]"
        }
      ],
      "name": "multiGrantRole",
      "outputs": [],
      "stateMutability": "nonpayable",
      "type": "function"
    },
    {
      "inputs": [],
      "name": "name",
      "outputs": [
        {
          "internalType": "string",
          "name": "",
          "type": "string"
        }
      ],
      "stateMutability": "view",
      "type": "function"
    },
    {
      "inputs": [],
      "name": "owner",
      "outputs": [
        {
          "internalType": "address",
          "name": "",
          "type": "address"
        }
      ],
      "stateMutability": "view",
      "type": "function"
    },
    {
      "inputs": [
        {
          "internalType": "uint256",
          "name": "tokenId",
          "type": "uint256"
        }
      ],
      "name": "ownerOf",
      "outputs": [
        {
          "internalType": "address",
          "name": "",
          "type": "address"
        }
      ],
      "stateMutability": "view",
      "type": "function"
    },
    {
      "inputs": [],
      "name": "pause",
      "outputs": [],
      "stateMutability": "nonpayable",
      "type": "function"
    },
    {
      "inputs": [],
      "name": "paused",
      "outputs": [
        {
          "internalType": "bool",
          "name": "",
          "type": "bool"
        }
      ],
      "stateMutability": "view",
      "type": "function"
    },
    {
      "inputs": [],
      "name": "renounceOwnership",
      "outputs": [],
      "stateMutability": "nonpayable",
      "type": "function"
    },
    {
      "inputs": [
        {
          "internalType": "bytes32",
          "name": "role",
          "type": "bytes32"
        },
        {
          "internalType": "address",
          "name": "account",
          "type": "address"
        }
      ],
      "name": "renounceRole",
      "outputs": [],
      "stateMutability": "nonpayable",
      "type": "function"
    },
    {
      "inputs": [
        {
          "internalType": "bytes32",
          "name": "role",
          "type": "bytes32"
        },
        {
          "internalType": "address",
          "name": "account",
          "type": "address"
        }
      ],
      "name": "revokeRole",
      "outputs": [],
      "stateMutability": "nonpayable",
      "type": "function"
    },
    {
      "inputs": [
        {
          "internalType": "address",
          "name": "from",
          "type": "address"
        },
        {
          "internalType": "address",
          "name": "to",
          "type": "address"
        },
        {
          "internalType": "uint256",
          "name": "tokenId",
          "type": "uint256"
        }
      ],
      "name": "safeTransferFrom",
      "outputs": [],
      "stateMutability": "nonpayable",
      "type": "function"
    },
    {
      "inputs": [
        {
          "internalType": "address",
          "name": "from",
          "type": "address"
        },
        {
          "internalType": "address",
          "name": "to",
          "type": "address"
        },
        {
          "internalType": "uint256",
          "name": "tokenId",
          "type": "uint256"
        },
        {
          "internalType": "bytes",
          "name": "data",
          "type": "bytes"
        }
      ],
      "name": "safeTransferFrom",
      "outputs": [],
      "stateMutability": "nonpayable",
      "type": "function"
    },
    {
      "inputs": [
        {
          "internalType": "address",
          "name": "operator",
          "type": "address"
        },
        {
          "internalType": "bool",
          "name": "approved",
          "type": "bool"
        }
      ],
      "name": "setApprovalForAll",
      "outputs": [],
      "stateMutability": "nonpayable",
      "type": "function"
    },
    {
      "inputs": [
        {
          "internalType": "uint256",
          "name": "_maxSupply",
          "type": "uint256"
        }
      ],
      "name": "setMaxSupply",
      "outputs": [],
      "stateMutability": "nonpayable",
      "type": "function"
    },
    {
      "inputs": [
        {
          "internalType": "bytes4",
          "name": "_interfaceId",
          "type": "bytes4"
        }
      ],
      "name": "supportsInterface",
      "outputs": [
        {
          "internalType": "bool",
          "name": "",
          "type": "bool"
        }
      ],
      "stateMutability": "view",
      "type": "function"
    },
    {
      "inputs": [],
      "name": "symbol",
      "outputs": [
        {
          "internalType": "string",
          "name": "",
          "type": "string"
        }
      ],
      "stateMutability": "view",
      "type": "function"
    },
    {
      "inputs": [
        {
          "internalType": "uint256",
          "name": "index",
          "type": "uint256"
        }
      ],
      "name": "tokenByIndex",
      "outputs": [
        {
          "internalType": "uint256",
          "name": "",
          "type": "uint256"
        }
      ],
      "stateMutability": "view",
      "type": "function"
    },
    {
      "inputs": [
        {
          "internalType": "address",
          "name": "owner",
          "type": "address"
        },
        {
          "internalType": "uint256",
          "name": "index",
          "type": "uint256"
        }
      ],
      "name": "tokenOfOwnerByIndex",
      "outputs": [
        {
          "internalType": "uint256",
          "name": "",
          "type": "uint256"
        }
      ],
      "stateMutability": "view",
      "type": "function"
    },
    {
      "inputs": [
        {
          "internalType": "uint256",
          "name": "_tokenId",
          "type": "uint256"
        }
      ],
      "name": "tokenURI",
      "outputs": [
        {
          "internalType": "string",
          "name": "",
          "type": "string"
        }
      ],
      "stateMutability": "view",
      "type": "function"
    },
    {
      "inputs": [],
      "name": "totalMint",
      "outputs": [
        {
          "internalType": "uint256",
          "name": "",
          "type": "uint256"
        }
      ],
      "stateMutability": "view",
      "type": "function"
    },
    {
      "inputs": [],
      "name": "totalSupply",
      "outputs": [
        {
          "internalType": "uint256",
          "name": "",
          "type": "uint256"
        }
      ],
      "stateMutability": "view",
      "type": "function"
    },
    {
      "inputs": [
        {
          "internalType": "address",
          "name": "from",
          "type": "address"
        },
        {
          "internalType": "address",
          "name": "to",
          "type": "address"
        },
        {
          "internalType": "uint256",
          "name": "tokenId",
          "type": "uint256"
        }
      ],
      "name": "transferFrom",
      "outputs": [],
      "stateMutability": "nonpayable",
      "type": "function"
    },
    {
      "inputs": [
        {
          "internalType": "address",
          "name": "newOwner",
          "type": "address"
        }
      ],
      "name": "transferOwnership",
      "outputs": [],
      "stateMutability": "nonpayable",
      "type": "function"
    },
    {
      "inputs": [],
      "name": "unpause",
      "outputs": [],
      "stateMutability": "nonpayable",
      "type": "function"
    },
    {
      "stateMutability": "payable",
      "type": "receive"
    }
  ],
  "bytecode": "0x60806040523480156200001157600080fd5b5060405162002f6f38038062002f6f8339810160408190526200003491620001fa565b6040518060400160405280600d81526020016c4e465420617320612047616d6560981b8152506040518060400160405280601681526020017f4e414b414d4f544f41726361646547616d65734e4654000000000000000000008152508160009081620000a19190620002b9565b506001620000b08282620002b9565b505050620000cd620000c7620000f060201b60201c565b620000f4565b600d805460ff19169055600f819055620000e960003362000146565b5062000385565b3390565b600b80546001600160a01b038381166001600160a01b0319831681179093556040519116919082907f8be0079c531659141344cd1fd0a4f28419497f9722a3daafe3b4186f6b6457e090600090a35050565b62000152828262000156565b5050565b6000828152600c602090815260408083206001600160a01b038516845290915290205460ff1662000152576000828152600c602090815260408083206001600160a01b03851684529091529020805460ff19166001179055620001b63390565b6001600160a01b0316816001600160a01b0316837f2f8788117e7eff1d82e926ec794901d17c78024a50270940304540a733656f0d60405160405180910390a45050565b6000602082840312156200020d57600080fd5b5051919050565b634e487b7160e01b600052604160045260246000fd5b600181811c908216806200023f57607f821691505b6020821081036200026057634e487b7160e01b600052602260045260246000fd5b50919050565b601f821115620002b457600081815260208120601f850160051c810160208610156200028f5750805b601f850160051c820191505b81811015620002b0578281556001016200029b565b5050505b505050565b81516001600160401b03811115620002d557620002d562000214565b620002ed81620002e684546200022a565b8462000266565b602080601f8311600181146200032557600084156200030c5750858301515b600019600386901b1c1916600185901b178555620002b0565b600085815260208120601f198616915b82811015620003565788860151825594840194600190910190840162000335565b5085821015620003755787850151600019600388901b60f8161c191681555b5050505050600190811b01905550565b612bda80620003956000396000f3fe6080604052600436106102135760003560e01c8063634252dc1161011857806395d89b41116100a0578063c87b56dd1161006f578063c87b56dd1461060a578063d547741f1461062a578063d5abeb011461064a578063e985e9c514610660578063f2fde38b146106a957600080fd5b806395d89b41146105a0578063a217fddf146105b5578063a22cb465146105ca578063b88d4fde146105ea57600080fd5b8063715018a6116100e7578063715018a6146105185780638456cb591461052d57806389a4b2a2146105425780638da5cb5b1461056257806391d148541461058057600080fd5b8063634252dc146104845780636352211e146104b85780636f8b44b0146104d857806370a08231146104f857600080fd5b80632f745c591161019b57806342966c681161016a57806342966c68146103f757806345ee0097146104175780634f6ccce71461043757806359a7715a146104575780635c975abb1461046c57600080fd5b80632f745c591461038257806336568abe146103a25780633f4ba83a146103c257806342842e0e146103d757600080fd5b806318160ddd116101e257806318160ddd146102d35780631e576912146102f257806323b872dd14610312578063248a9ca3146103325780632f2ff15d1461036257600080fd5b806301ffc9a71461022257806306fdde0314610257578063081812fc14610279578063095ea7b3146102b157600080fd5b3661021d57600080fd5b600080fd5b34801561022e57600080fd5b5061024261023d3660046123c4565b6106c9565b60405190151581526020015b60405180910390f35b34801561026357600080fd5b5061026c6106da565b60405161024e9190612431565b34801561028557600080fd5b50610299610294366004612444565b61076c565b6040516001600160a01b03909116815260200161024e565b3480156102bd57600080fd5b506102d16102cc366004612479565b610793565b005b3480156102df57600080fd5b506009545b60405190815260200161024e565b3480156102fe57600080fd5b506102d161030d366004612542565b6108ad565b34801561031e57600080fd5b506102d161032d3660046125ad565b6109ce565b34801561033e57600080fd5b506102e461034d366004612444565b6000908152600c602052604090206001015490565b34801561036e57600080fd5b506102d161037d3660046125e9565b610a00565b34801561038e57600080fd5b506102e461039d366004612479565b610a25565b3480156103ae57600080fd5b506102d16103bd3660046125e9565b610abb565b3480156103ce57600080fd5b506102d1610b39565b3480156103e357600080fd5b506102d16103f23660046125ad565b610b4b565b34801561040357600080fd5b506102d1610412366004612444565b610b66565b34801561042357600080fd5b506102d1610432366004612444565b610b97565b34801561044357600080fd5b506102e4610452366004612444565b610bfb565b34801561046357600080fd5b506102e4610c8e565b34801561047857600080fd5b50600d5460ff16610242565b34801561049057600080fd5b506102e47ff1b411d6abb365480ac902cc153c45e9ded5847a2265ce6d01945d253edb6bc781565b3480156104c457600080fd5b506102996104d3366004612444565b610c9e565b3480156104e457600080fd5b506102d16104f3366004612444565b610cfe565b34801561050457600080fd5b506102e4610513366004612615565b610d7a565b34801561052457600080fd5b506102d1610e00565b34801561053957600080fd5b506102d1610e12565b34801561054e57600080fd5b506102d161055d366004612630565b610e22565b34801561056e57600080fd5b50600b546001600160a01b0316610299565b34801561058c57600080fd5b5061024261059b3660046125e9565b610e72565b3480156105ac57600080fd5b5061026c610e9d565b3480156105c157600080fd5b506102e4600081565b3480156105d657600080fd5b506102d16105e53660046126e9565b610eac565b3480156105f657600080fd5b506102d1610605366004612725565b610eb7565b34801561061657600080fd5b5061026c610625366004612444565b610ee9565b34801561063657600080fd5b506102d16106453660046125e9565b610ef4565b34801561065657600080fd5b506102e4600f5481565b34801561066c57600080fd5b5061024261067b3660046127a1565b6001600160a01b03918216600090815260056020908152604080832093909416825291909152205460ff1690565b3480156106b557600080fd5b506102d16106c4366004612615565b610f19565b60006106d482610f8f565b92915050565b6060600080546106e9906127cb565b80601f0160208091040260200160405190810160405280929190818152602001828054610715906127cb565b80156107625780601f1061073757610100808354040283529160200191610762565b820191906000526020600020905b81548152906001019060200180831161074557829003601f168201915b5050505050905090565b600061077782610fb4565b506000908152600460205260409020546001600160a01b031690565b600061079e82610c9e565b9050806001600160a01b0316836001600160a01b0316036108105760405162461bcd60e51b815260206004820152602160248201527f4552433732313a20617070726f76616c20746f2063757272656e74206f776e656044820152603960f91b60648201526084015b60405180910390fd5b336001600160a01b038216148061082c575061082c813361067b565b61089e5760405162461bcd60e51b815260206004820152603d60248201527f4552433732313a20617070726f76652063616c6c6572206973206e6f7420746f60448201527f6b656e206f776e6572206f7220617070726f76656420666f7220616c6c0000006064820152608401610807565b6108a88383611013565b505050565b6108b5611081565b7ff1b411d6abb365480ac902cc153c45e9ded5847a2265ce6d01945d253edb6bc76108df816110c7565b600f54600e546108f090600161281b565b11156109645760405162461bcd60e51b815260206004820152603f60248201527f5b41726361646547616d65734e46542e6d696e744e465457697468507269636560448201527f5d206d696e74696e67206e756d6265727320657863656564206c696d69742e006064820152608401610807565b61096e84846110d1565b61097883836110eb565b610986600e80546001019055565b604080516001600160a01b0386168152602081018590527ff10df2fb1fbf515c54b3dfa9f0cdf50cab7e48febc9b727467cf9eeeebf33cf6910160405180910390a150505050565b6109d9335b8261117e565b6109f55760405162461bcd60e51b81526004016108079061282e565b6108a88383836111fd565b6000828152600c6020526040902060010154610a1b816110c7565b6108a8838361136e565b6000610a3083610d7a565b8210610a925760405162461bcd60e51b815260206004820152602b60248201527f455243373231456e756d657261626c653a206f776e657220696e646578206f7560448201526a74206f6620626f756e647360a81b6064820152608401610807565b506001600160a01b03919091166000908152600760209081526040808320938352929052205490565b6001600160a01b0381163314610b2b5760405162461bcd60e51b815260206004820152602f60248201527f416363657373436f6e74726f6c3a2063616e206f6e6c792072656e6f756e636560448201526e103937b632b9903337b91039b2b63360891b6064820152608401610807565b610b3582826113f4565b5050565b610b4161145b565b610b496114b5565b565b6108a883838360405180602001604052806000815250610eb7565b610b6f336109d3565b610b8b5760405162461bcd60e51b81526004016108079061282e565b610b9481611507565b50565b610ba0336109d3565b610bbc5760405162461bcd60e51b81526004016108079061282e565b610bc581611507565b6040518181527fe3b2a4286f5fd707ee5f3f80de7c5dba6a619036c5f83c995602525ec1b4e7209060200160405180910390a150565b6000610c0660095490565b8210610c695760405162461bcd60e51b815260206004820152602c60248201527f455243373231456e756d657261626c653a20676c6f62616c20696e646578206f60448201526b7574206f6620626f756e647360a01b6064820152608401610807565b60098281548110610c7c57610c7c61287b565b90600052602060002001549050919050565b6000610c99600e5490565b905090565b6000818152600260205260408120546001600160a01b0316806106d45760405162461bcd60e51b8152602060048201526018602482015277115490cdcc8c4e881a5b9d985b1a59081d1bdad95b88125160421b6044820152606401610807565b610d0661145b565b610d0e611510565b600e54811015610d755760405162461bcd60e51b815260206004820152602c60248201527f5b41726361646547616d65734e46542e7365744d6178537570706c795d20537560448201526b3838363c9032bc31b2b9b99760a11b6064820152608401610807565b600f55565b60006001600160a01b038216610de45760405162461bcd60e51b815260206004820152602960248201527f4552433732313a2061646472657373207a65726f206973206e6f7420612076616044820152683634b21037bbb732b960b91b6064820152608401610807565b506001600160a01b031660009081526003602052604090205490565b610e0861145b565b610b496000611559565b610e1a61145b565b610b496115ab565b610e2a61145b565b805160005b81811015610e6c57610e5a84848381518110610e4d57610e4d61287b565b6020026020010151610a00565b80610e6481612891565b915050610e2f565b50505050565b6000918252600c602090815260408084206001600160a01b0393909316845291905290205460ff1690565b6060600180546106e9906127cb565b610b353383836115e8565b610ec1338361117e565b610edd5760405162461bcd60e51b81526004016108079061282e565b610e6c848484846116b6565b60606106d4826116e9565b6000828152600c6020526040902060010154610f0f816110c7565b6108a883836113f4565b610f2161145b565b6001600160a01b038116610f865760405162461bcd60e51b815260206004820152602660248201527f4f776e61626c653a206e6577206f776e657220697320746865207a65726f206160448201526564647265737360d01b6064820152608401610807565b610b9481611559565b60006001600160e01b03198216637965db0b60e01b14806106d457506106d4826117f1565b6000818152600260205260409020546001600160a01b0316610b945760405162461bcd60e51b8152602060048201526018602482015277115490cdcc8c4e881a5b9d985b1a59081d1bdad95b88125160421b6044820152606401610807565b600081815260046020526040902080546001600160a01b0319166001600160a01b038416908117909155819061104882610c9e565b6001600160a01b03167f8c5be1e5ebec7d5bd14f71427d1e84f3dd0314c0f7b2291e5b200ac8c7c3b92560405160405180910390a45050565b600d5460ff1615610b495760405162461bcd60e51b815260206004820152601060248201526f14185d5cd8589b194e881c185d5cd95960821b6044820152606401610807565b610b948133611816565b610b3582826040518060200160405280600081525061186f565b6000828152600260205260409020546001600160a01b03166111665760405162461bcd60e51b815260206004820152602e60248201527f45524337323155524953746f726167653a2055524920736574206f66206e6f6e60448201526d32bc34b9ba32b73a103a37b5b2b760911b6064820152608401610807565b60008281526006602052604090206108a882826128f8565b60008061118a83610c9e565b9050806001600160a01b0316846001600160a01b031614806111d157506001600160a01b0380821660009081526005602090815260408083209388168352929052205460ff165b806111f55750836001600160a01b03166111ea8461076c565b6001600160a01b0316145b949350505050565b826001600160a01b031661121082610c9e565b6001600160a01b0316146112365760405162461bcd60e51b8152600401610807906129b8565b6001600160a01b0382166112985760405162461bcd60e51b8152602060048201526024808201527f4552433732313a207472616e7366657220746f20746865207a65726f206164646044820152637265737360e01b6064820152608401610807565b6112a583838360016118a2565b826001600160a01b03166112b882610c9e565b6001600160a01b0316146112de5760405162461bcd60e51b8152600401610807906129b8565b600081815260046020908152604080832080546001600160a01b03199081169091556001600160a01b0387811680865260038552838620805460001901905590871680865283862080546001019055868652600290945282852080549092168417909155905184937fddf252ad1be2c89b69c2b068fc378daa952ba7f163c4a11628f55a4df523b3ef91a4505050565b6113788282610e72565b610b35576000828152600c602090815260408083206001600160a01b03851684529091529020805460ff191660011790556113b03390565b6001600160a01b0316816001600160a01b0316837f2f8788117e7eff1d82e926ec794901d17c78024a50270940304540a733656f0d60405160405180910390a45050565b6113fe8282610e72565b15610b35576000828152600c602090815260408083206001600160a01b0385168085529252808320805460ff1916905551339285917ff6391f5c32d9c69d2a47ea670b442974b53935d1edc7fd64eb21e047a839171b9190a45050565b600b546001600160a01b03163314610b495760405162461bcd60e51b815260206004820181905260248201527f4f776e61626c653a2063616c6c6572206973206e6f7420746865206f776e65726044820152606401610807565b6114bd611510565b600d805460ff191690557f5db9ee0a495bf2e6ff9c91a7834c1ba4fdd244a5e8aa4e537bd38aeae4b073aa335b6040516001600160a01b03909116815260200160405180910390a1565b610bc5816118ae565b600d5460ff16610b495760405162461bcd60e51b815260206004820152601460248201527314185d5cd8589b194e881b9bdd081c185d5cd95960621b6044820152606401610807565b600b80546001600160a01b038381166001600160a01b0319831681179093556040519116919082907f8be0079c531659141344cd1fd0a4f28419497f9722a3daafe3b4186f6b6457e090600090a35050565b6115b3611081565b600d805460ff191660011790557f62e78cea01bee320cd4e420270b5ea74000d11b0c9f74754ebdbfc544b05a2586114ea3390565b816001600160a01b0316836001600160a01b0316036116495760405162461bcd60e51b815260206004820152601960248201527f4552433732313a20617070726f766520746f2063616c6c6572000000000000006044820152606401610807565b6001600160a01b03838116600081815260056020908152604080832094871680845294825291829020805460ff191686151590811790915591519182527f17307eab39ab6107e8899845ad3d59bd9653f200f220920489ca2b5937696c31910160405180910390a3505050565b6116c18484846111fd565b6116cd848484846118ee565b610e6c5760405162461bcd60e51b8152600401610807906129fd565b60606116f482610fb4565b6000828152600660205260408120805461170d906127cb565b80601f0160208091040260200160405190810160405280929190818152602001828054611739906127cb565b80156117865780601f1061175b57610100808354040283529160200191611786565b820191906000526020600020905b81548152906001019060200180831161176957829003601f168201915b5050505050905060006117a460408051602081019091526000815290565b905080516000036117b6575092915050565b8151156117e85780826040516020016117d0929190612a4f565b60405160208183030381529060405292505050919050565b6111f5846119ef565b60006001600160e01b0319821663780e9d6360e01b14806106d457506106d482611a63565b6118208282610e72565b610b355761182d81611ab3565b611838836020611ac5565b604051602001611849929190612a7e565b60408051601f198184030181529082905262461bcd60e51b825261080791600401612431565b6118798383611c61565b61188660008484846118ee565b6108a85760405162461bcd60e51b8152600401610807906129fd565b610e6c84848484611dfa565b6118b781611f3a565b600081815260066020526040902080546118d0906127cb565b159050610b94576000818152600660205260408120610b9491612360565b60006001600160a01b0384163b156119e457604051630a85bd0160e11b81526001600160a01b0385169063150b7a0290611932903390899088908890600401612af3565b6020604051808303816000875af192505050801561196d575060408051601f3d908101601f1916820190925261196a91810190612b30565b60015b6119ca573d80801561199b576040519150601f19603f3d011682016040523d82523d6000602084013e6119a0565b606091505b5080516000036119c25760405162461bcd60e51b8152600401610807906129fd565b805181602001fd5b6001600160e01b031916630a85bd0160e11b1490506111f5565b506001949350505050565b60606119fa82610fb4565b6000611a1160408051602081019091526000815290565b90506000815111611a315760405180602001604052806000815250611a5c565b80611a3b84611fdd565b604051602001611a4c929190612a4f565b6040516020818303038152906040525b9392505050565b60006001600160e01b031982166380ac58cd60e01b1480611a9457506001600160e01b03198216635b5e139f60e01b145b806106d457506301ffc9a760e01b6001600160e01b03198316146106d4565b60606106d46001600160a01b03831660145b60606000611ad4836002612b4d565b611adf90600261281b565b67ffffffffffffffff811115611af757611af76124a3565b6040519080825280601f01601f191660200182016040528015611b21576020820181803683370190505b509050600360fc1b81600081518110611b3c57611b3c61287b565b60200101906001600160f81b031916908160001a905350600f60fb1b81600181518110611b6b57611b6b61287b565b60200101906001600160f81b031916908160001a9053506000611b8f846002612b4d565b611b9a90600161281b565b90505b6001811115611c12576f181899199a1a9b1b9c1cb0b131b232b360811b85600f1660108110611bce57611bce61287b565b1a60f81b828281518110611be457611be461287b565b60200101906001600160f81b031916908160001a90535060049490941c93611c0b81612b64565b9050611b9d565b508315611a5c5760405162461bcd60e51b815260206004820181905260248201527f537472696e67733a20686578206c656e67746820696e73756666696369656e746044820152606401610807565b6001600160a01b038216611cb75760405162461bcd60e51b815260206004820181905260248201527f4552433732313a206d696e7420746f20746865207a65726f20616464726573736044820152606401610807565b6000818152600260205260409020546001600160a01b031615611d1c5760405162461bcd60e51b815260206004820152601c60248201527f4552433732313a20746f6b656e20616c7265616479206d696e746564000000006044820152606401610807565b611d2a6000838360016118a2565b6000818152600260205260409020546001600160a01b031615611d8f5760405162461bcd60e51b815260206004820152601c60248201527f4552433732313a20746f6b656e20616c7265616479206d696e746564000000006044820152606401610807565b6001600160a01b038216600081815260036020908152604080832080546001019055848352600290915280822080546001600160a01b0319168417905551839291907fddf252ad1be2c89b69c2b068fc378daa952ba7f163c4a11628f55a4df523b3ef908290a45050565b611e0684848484612070565b6001811115611e755760405162461bcd60e51b815260206004820152603560248201527f455243373231456e756d657261626c653a20636f6e7365637574697665207472604482015274185b9cd9995c9cc81b9bdd081cdd5c1c1bdc9d1959605a1b6064820152608401610807565b816001600160a01b038516611ed157611ecc81600980546000838152600a60205260408120829055600182018355919091527f6e1540171b6c0c960b71a7020d9f60077f6af931a8bbf590da0223dacf75c7af0155565b611ef4565b836001600160a01b0316856001600160a01b031614611ef457611ef485826120f8565b6001600160a01b038416611f1057611f0b81612195565b611f33565b846001600160a01b0316846001600160a01b031614611f3357611f338482612244565b5050505050565b6000611f4582610c9e565b9050611f558160008460016118a2565b611f5e82610c9e565b600083815260046020908152604080832080546001600160a01b03199081169091556001600160a01b0385168085526003845282852080546000190190558785526002909352818420805490911690555192935084927fddf252ad1be2c89b69c2b068fc378daa952ba7f163c4a11628f55a4df523b3ef908390a45050565b60606000611fea83612288565b600101905060008167ffffffffffffffff81111561200a5761200a6124a3565b6040519080825280601f01601f191660200182016040528015612034576020820181803683370190505b5090508181016020015b600019016f181899199a1a9b1b9c1cb0b131b232b360811b600a86061a8153600a850494508461203e57509392505050565b6001811115610e6c576001600160a01b038416156120b6576001600160a01b038416600090815260036020526040812080548392906120b0908490612b7b565b90915550505b6001600160a01b03831615610e6c576001600160a01b038316600090815260036020526040812080548392906120ed90849061281b565b909155505050505050565b6000600161210584610d7a565b61210f9190612b7b565b600083815260086020526040902054909150808214612162576001600160a01b03841660009081526007602090815260408083208584528252808320548484528184208190558352600890915290208190555b5060009182526008602090815260408084208490556001600160a01b039094168352600781528383209183525290812055565b6009546000906121a790600190612b7b565b6000838152600a6020526040812054600980549394509092849081106121cf576121cf61287b565b9060005260206000200154905080600983815481106121f0576121f061287b565b6000918252602080832090910192909255828152600a9091526040808220849055858252812055600980548061222857612228612b8e565b6001900381819060005260206000200160009055905550505050565b600061224f83610d7a565b6001600160a01b039093166000908152600760209081526040808320868452825280832085905593825260089052919091209190915550565b60008072184f03e93ff9f4daa797ed6e38ed64bf6a1f0160401b83106122c75772184f03e93ff9f4daa797ed6e38ed64bf6a1f0160401b830492506040015b6d04ee2d6d415b85acef810000000083106122f3576d04ee2d6d415b85acef8100000000830492506020015b662386f26fc10000831061231157662386f26fc10000830492506010015b6305f5e1008310612329576305f5e100830492506008015b612710831061233d57612710830492506004015b6064831061234f576064830492506002015b600a83106106d45760010192915050565b50805461236c906127cb565b6000825580601f1061237c575050565b601f016020900490600052602060002090810190610b9491905b808211156123aa5760008155600101612396565b5090565b6001600160e01b031981168114610b9457600080fd5b6000602082840312156123d657600080fd5b8135611a5c816123ae565b60005b838110156123fc5781810151838201526020016123e4565b50506000910152565b6000815180845261241d8160208601602086016123e1565b601f01601f19169290920160200192915050565b602081526000611a5c6020830184612405565b60006020828403121561245657600080fd5b5035919050565b80356001600160a01b038116811461247457600080fd5b919050565b6000806040838503121561248c57600080fd5b6124958361245d565b946020939093013593505050565b634e487b7160e01b600052604160045260246000fd5b604051601f8201601f1916810167ffffffffffffffff811182821017156124e2576124e26124a3565b604052919050565b600067ffffffffffffffff831115612504576125046124a3565b612517601f8401601f19166020016124b9565b905082815283838301111561252b57600080fd5b828260208301376000602084830101529392505050565b60008060006060848603121561255757600080fd5b6125608461245d565b925060208401359150604084013567ffffffffffffffff81111561258357600080fd5b8401601f8101861361259457600080fd5b6125a3868235602084016124ea565b9150509250925092565b6000806000606084860312156125c257600080fd5b6125cb8461245d565b92506125d96020850161245d565b9150604084013590509250925092565b600080604083850312156125fc57600080fd5b8235915061260c6020840161245d565b90509250929050565b60006020828403121561262757600080fd5b611a5c8261245d565b6000806040838503121561264357600080fd5b8235915060208084013567ffffffffffffffff8082111561266357600080fd5b818601915086601f83011261267757600080fd5b813581811115612689576126896124a3565b8060051b915061269a8483016124b9565b81815291830184019184810190898411156126b457600080fd5b938501935b838510156126d9576126ca8561245d565b825293850193908501906126b9565b8096505050505050509250929050565b600080604083850312156126fc57600080fd5b6127058361245d565b91506020830135801515811461271a57600080fd5b809150509250929050565b6000806000806080858703121561273b57600080fd5b6127448561245d565b93506127526020860161245d565b925060408501359150606085013567ffffffffffffffff81111561277557600080fd5b8501601f8101871361278657600080fd5b612795878235602084016124ea565b91505092959194509250565b600080604083850312156127b457600080fd5b6127bd8361245d565b915061260c6020840161245d565b600181811c908216806127df57607f821691505b6020821081036127ff57634e487b7160e01b600052602260045260246000fd5b50919050565b634e487b7160e01b600052601160045260246000fd5b808201808211156106d4576106d4612805565b6020808252602d908201527f4552433732313a2063616c6c6572206973206e6f7420746f6b656e206f776e6560408201526c1c881bdc88185c1c1c9bdd9959609a1b606082015260800190565b634e487b7160e01b600052603260045260246000fd5b6000600182016128a3576128a3612805565b5060010190565b601f8211156108a857600081815260208120601f850160051c810160208610156128d15750805b601f850160051c820191505b818110156128f0578281556001016128dd565b505050505050565b815167ffffffffffffffff811115612912576129126124a3565b6129268161292084546127cb565b846128aa565b602080601f83116001811461295b57600084156129435750858301515b600019600386901b1c1916600185901b1785556128f0565b600085815260208120601f198616915b8281101561298a5788860151825594840194600190910190840161296b565b50858210156129a85787850151600019600388901b60f8161c191681555b5050505050600190811b01905550565b60208082526025908201527f4552433732313a207472616e736665722066726f6d20696e636f72726563742060408201526437bbb732b960d91b606082015260800190565b60208082526032908201527f4552433732313a207472616e7366657220746f206e6f6e20455243373231526560408201527131b2b4bb32b91034b6b83632b6b2b73a32b960711b606082015260800190565b60008351612a618184602088016123e1565b835190830190612a758183602088016123e1565b01949350505050565b7f416363657373436f6e74726f6c3a206163636f756e7420000000000000000000815260008351612ab68160178501602088016123e1565b7001034b99036b4b9b9b4b733903937b6329607d1b6017918401918201528351612ae78160288401602088016123e1565b01602801949350505050565b6001600160a01b0385811682528416602082015260408101839052608060608201819052600090612b2690830184612405565b9695505050505050565b600060208284031215612b4257600080fd5b8151611a5c816123ae565b80820281158282048414176106d4576106d4612805565b600081612b7357612b73612805565b506000190190565b818103818111156106d4576106d4612805565b634e487b7160e01b600052603160045260246000fdfea2646970667358221220cbf3ce9cc40ad7c130ba622e8b9fdab11a09aa4b3c924ba0b7c57bd3c129983b64736f6c63430008110033",
  "linkReferences": {},
  "deployedLinkReferences": {}
}