{
  "_format": "hh-sol-artifact-1",
  "contractName": "BuildingNFT",
  "sourceName": "contracts/BuildingNFT.sol",
  "abi": [
    {
      "inputs": [
        {
          "internalType": "address",
          "name": "_currency",
          "type": "address"
        },
        {
          "internalType": "address",
          "name": "_admin",
          "type": "address"
        },
        {
          "internalType": "string",
          "name": "_baseURI1",
          "type": "string"
        },
        {
          "internalType": "string",
          "name": "_baseURI2",
          "type": "string"
        },
        {
          "internalType": "string",
          "name": "_baseURI3",
          "type": "string"
        },
        {
          "internalType": "uint256",
          "name": "_maxSupply",
          "type": "uint256"
        },
        {
          "internalType": "uint96",
          "name": "_royaltyFeesInBips",
          "type": "uint96"
        }
      ],
      "stateMutability": "nonpayable",
      "type": "constructor"
    },
    {
      "anonymous": false,
      "inputs": [
        {
          "indexed": true,
          "internalType": "address",
          "name": "owner",
          "type": "address"
        },
        {
          "indexed": true,
          "internalType": "address",
          "name": "approved",
          "type": "address"
        },
        {
          "indexed": true,
          "internalType": "uint256",
          "name": "tokenId",
          "type": "uint256"
        }
      ],
      "name": "Approval",
      "type": "event"
    },
    {
      "anonymous": false,
      "inputs": [
        {
          "indexed": true,
          "internalType": "address",
          "name": "owner",
          "type": "address"
        },
        {
          "indexed": true,
          "internalType": "address",
          "name": "operator",
          "type": "address"
        },
        {
          "indexed": false,
          "internalType": "bool",
          "name": "approved",
          "type": "bool"
        }
      ],
      "name": "ApprovalForAll",
      "type": "event"
    },
    {
      "anonymous": false,
      "inputs": [
        {
          "indexed": false,
          "internalType": "address",
          "name": "to",
          "type": "address"
        },
        {
          "indexed": false,
          "internalType": "uint256",
          "name": "buildingId",
          "type": "uint256"
        }
      ],
      "name": "Mint",
      "type": "event"
    },
    {
      "anonymous": false,
      "inputs": [
        {
          "indexed": false,
          "internalType": "address",
          "name": "to",
          "type": "address"
        },
        {
          "indexed": false,
          "internalType": "uint256",
          "name": "buildingId",
          "type": "uint256"
        },
        {
          "indexed": false,
          "internalType": "uint256",
          "name": "price",
          "type": "uint256"
        }
      ],
      "name": "MintWithPrice",
      "type": "event"
    },
    {
      "anonymous": false,
      "inputs": [
        {
          "indexed": false,
          "internalType": "address",
          "name": "to",
          "type": "address"
        },
        {
          "indexed": false,
          "internalType": "uint256[]",
          "name": "buildingIds",
          "type": "uint256[]"
        },
        {
          "indexed": false,
          "internalType": "uint256",
          "name": "price",
          "type": "uint256"
        }
      ],
      "name": "MultipleMintWithPrice",
      "type": "event"
    },
    {
      "anonymous": false,
      "inputs": [
        {
          "indexed": true,
          "internalType": "address",
          "name": "previousOwner",
          "type": "address"
        },
        {
          "indexed": true,
          "internalType": "address",
          "name": "newOwner",
          "type": "address"
        }
      ],
      "name": "OwnershipTransferred",
      "type": "event"
    },
    {
      "anonymous": false,
      "inputs": [
        {
          "indexed": false,
          "internalType": "address",
          "name": "account",
          "type": "address"
        }
      ],
      "name": "Paused",
      "type": "event"
    },
    {
      "anonymous": false,
      "inputs": [
        {
          "indexed": true,
          "internalType": "bytes32",
          "name": "role",
          "type": "bytes32"
        },
        {
          "indexed": true,
          "internalType": "bytes32",
          "name": "previousAdminRole",
          "type": "bytes32"
        },
        {
          "indexed": true,
          "internalType": "bytes32",
          "name": "newAdminRole",
          "type": "bytes32"
        }
      ],
      "name": "RoleAdminChanged",
      "type": "event"
    },
    {
      "anonymous": false,
      "inputs": [
        {
          "indexed": true,
          "internalType": "bytes32",
          "name": "role",
          "type": "bytes32"
        },
        {
          "indexed": true,
          "internalType": "address",
          "name": "account",
          "type": "address"
        },
        {
          "indexed": true,
          "internalType": "address",
          "name": "sender",
          "type": "address"
        }
      ],
      "name": "RoleGranted",
      "type": "event"
    },
    {
      "anonymous": false,
      "inputs": [
        {
          "indexed": true,
          "internalType": "bytes32",
          "name": "role",
          "type": "bytes32"
        },
        {
          "indexed": true,
          "internalType": "address",
          "name": "account",
          "type": "address"
        },
        {
          "indexed": true,
          "internalType": "address",
          "name": "sender",
          "type": "address"
        }
      ],
      "name": "RoleRevoked",
      "type": "event"
    },
    {
      "anonymous": false,
      "inputs": [
        {
          "indexed": true,
          "internalType": "address",
          "name": "from",
          "type": "address"
        },
        {
          "indexed": true,
          "internalType": "address",
          "name": "to",
          "type": "address"
        },
        {
          "indexed": true,
          "internalType": "uint256",
          "name": "tokenId",
          "type": "uint256"
        }
      ],
      "name": "Transfer",
      "type": "event"
    },
    {
      "anonymous": false,
      "inputs": [
        {
          "indexed": false,
          "internalType": "address",
          "name": "account",
          "type": "address"
        }
      ],
      "name": "Unpaused",
      "type": "event"
    },
    {
      "stateMutability": "payable",
      "type": "fallback"
    },
    {
      "inputs": [],
      "name": "DEFAULT_ADMIN_ROLE",
      "outputs": [
        {
          "internalType": "bytes32",
          "name": "",
          "type": "bytes32"
        }
      ],
      "stateMutability": "view",
      "type": "function"
    },
    {
      "inputs": [],
      "name": "WORKER_ROLE",
      "outputs": [
        {
          "internalType": "bytes32",
          "name": "",
          "type": "bytes32"
        }
      ],
      "stateMutability": "view",
      "type": "function"
    },
    {
      "inputs": [],
      "name": "admin",
      "outputs": [
        {
          "internalType": "address",
          "name": "",
          "type": "address"
        }
      ],
      "stateMutability": "view",
      "type": "function"
    },
    {
      "inputs": [
        {
          "internalType": "address",
          "name": "to",
          "type": "address"
        },
        {
          "internalType": "uint256",
          "name": "tokenId",
          "type": "uint256"
        }
      ],
      "name": "approve",
      "outputs": [],
      "stateMutability": "nonpayable",
      "type": "function"
    },
    {
      "inputs": [
        {
          "internalType": "address",
          "name": "owner",
          "type": "address"
        }
      ],
      "name": "balanceOf",
      "outputs": [
        {
          "internalType": "uint256",
          "name": "",
          "type": "uint256"
        }
      ],
      "stateMutability": "view",
      "type": "function"
    },
    {
      "inputs": [
        {
          "internalType": "uint256",
          "name": "tokenId",
          "type": "uint256"
        }
      ],
      "name": "burn",
      "outputs": [],
      "stateMutability": "nonpayable",
      "type": "function"
    },
    {
      "inputs": [
        {
          "internalType": "uint256",
          "name": "_tokenId",
          "type": "uint256"
        }
      ],
      "name": "burnNFT",
      "outputs": [],
      "stateMutability": "nonpayable",
      "type": "function"
    },
    {
      "inputs": [],
      "name": "currency",
      "outputs": [
        {
          "internalType": "contract IERC20",
          "name": "",
          "type": "address"
        }
      ],
      "stateMutability": "view",
      "type": "function"
    },
    {
      "inputs": [
        {
          "internalType": "uint256",
          "name": "tokenId",
          "type": "uint256"
        }
      ],
      "name": "getApproved",
      "outputs": [
        {
          "internalType": "address",
          "name": "",
          "type": "address"
        }
      ],
      "stateMutability": "view",
      "type": "function"
    },
    {
      "inputs": [
        {
          "internalType": "bytes32",
          "name": "role",
          "type": "bytes32"
        }
      ],
      "name": "getRoleAdmin",
      "outputs": [
        {
          "internalType": "bytes32",
          "name": "",
          "type": "bytes32"
        }
      ],
      "stateMutability": "view",
      "type": "function"
    },
    {
      "inputs": [
        {
          "internalType": "bytes32",
          "name": "role",
          "type": "bytes32"
        },
        {
          "internalType": "address",
          "name": "account",
          "type": "address"
        }
      ],
      "name": "grantRole",
      "outputs": [],
      "stateMutability": "nonpayable",
      "type": "function"
    },
    {
      "inputs": [
        {
          "internalType": "bytes32",
          "name": "role",
          "type": "bytes32"
        },
        {
          "internalType": "address",
          "name": "account",
          "type": "address"
        }
      ],
      "name": "hasRole",
      "outputs": [
        {
          "internalType": "bool",
          "name": "",
          "type": "bool"
        }
      ],
      "stateMutability": "view",
      "type": "function"
    },
    {
      "inputs": [
        {
          "internalType": "address",
          "name": "owner",
          "type": "address"
        },
        {
          "internalType": "address",
          "name": "operator",
          "type": "address"
        }
      ],
      "name": "isApprovedForAll",
      "outputs": [
        {
          "internalType": "bool",
          "name": "",
          "type": "bool"
        }
      ],
      "stateMutability": "view",
      "type": "function"
    },
    {
      "inputs": [],
      "name": "maxSupply",
      "outputs": [
        {
          "internalType": "uint256",
          "name": "",
          "type": "uint256"
        }
      ],
      "stateMutability": "view",
      "type": "function"
    },
    {
      "inputs": [
        {
          "internalType": "address",
          "name": "_minter",
          "type": "address"
        },
        {
          "internalType": "uint256",
          "name": "_buildingId",
          "type": "uint256"
        },
        {
          "internalType": "uint256",
          "name": "_price",
          "type": "uint256"
        }
      ],
      "name": "mintWithPrice",
      "outputs": [],
      "stateMutability": "nonpayable",
      "type": "function"
    },
    {
      "inputs": [
        {
          "internalType": "bytes32",
          "name": "_role",
          "type": "bytes32"
        },
        {
          "internalType": "address[]",
          "name": "_workerAddress",
          "type": "address[]"
        }
      ],
      "name": "multiGrantRole",
      "outputs": [],
      "stateMutability": "nonpayable",
      "type": "function"
    },
    {
      "inputs": [
        {
          "internalType": "address",
          "name": "_minter",
          "type": "address"
        },
        {
          "internalType": "uint256[]",
          "name": "_buildingIds",
          "type": "uint256[]"
        },
        {
          "internalType": "uint256",
          "name": "_price",
          "type": "uint256"
        }
      ],
      "name": "multipleMintWithPrice",
      "outputs": [],
      "stateMutability": "nonpayable",
      "type": "function"
    },
    {
      "inputs": [],
      "name": "name",
      "outputs": [
        {
          "internalType": "string",
          "name": "",
          "type": "string"
        }
      ],
      "stateMutability": "view",
      "type": "function"
    },
    {
      "inputs": [],
      "name": "owner",
      "outputs": [
        {
          "internalType": "address",
          "name": "",
          "type": "address"
        }
      ],
      "stateMutability": "view",
      "type": "function"
    },
    {
      "inputs": [
        {
          "internalType": "uint256",
          "name": "tokenId",
          "type": "uint256"
        }
      ],
      "name": "ownerOf",
      "outputs": [
        {
          "internalType": "address",
          "name": "",
          "type": "address"
        }
      ],
      "stateMutability": "view",
      "type": "function"
    },
    {
      "inputs": [],
      "name": "pause",
      "outputs": [],
      "stateMutability": "nonpayable",
      "type": "function"
    },
    {
      "inputs": [],
      "name": "paused",
      "outputs": [
        {
          "internalType": "bool",
          "name": "",
          "type": "bool"
        }
      ],
      "stateMutability": "view",
      "type": "function"
    },
    {
      "inputs": [],
      "name": "renounceOwnership",
      "outputs": [],
      "stateMutability": "nonpayable",
      "type": "function"
    },
    {
      "inputs": [
        {
          "internalType": "bytes32",
          "name": "role",
          "type": "bytes32"
        },
        {
          "internalType": "address",
          "name": "account",
          "type": "address"
        }
      ],
      "name": "renounceRole",
      "outputs": [],
      "stateMutability": "nonpayable",
      "type": "function"
    },
    {
      "inputs": [
        {
          "internalType": "bytes32",
          "name": "role",
          "type": "bytes32"
        },
        {
          "internalType": "address",
          "name": "account",
          "type": "address"
        }
      ],
      "name": "revokeRole",
      "outputs": [],
      "stateMutability": "nonpayable",
      "type": "function"
    },
    {
      "inputs": [
        {
          "internalType": "uint256",
          "name": "_tokenId",
          "type": "uint256"
        },
        {
          "internalType": "uint256",
          "name": "_salePrice",
          "type": "uint256"
        }
      ],
      "name": "royaltyInfo",
      "outputs": [
        {
          "internalType": "address",
          "name": "",
          "type": "address"
        },
        {
          "internalType": "uint256",
          "name": "",
          "type": "uint256"
        }
      ],
      "stateMutability": "view",
      "type": "function"
    },
    {
      "inputs": [
        {
          "internalType": "address",
          "name": "from",
          "type": "address"
        },
        {
          "internalType": "address",
          "name": "to",
          "type": "address"
        },
        {
          "internalType": "uint256",
          "name": "tokenId",
          "type": "uint256"
        }
      ],
      "name": "safeTransferFrom",
      "outputs": [],
      "stateMutability": "nonpayable",
      "type": "function"
    },
    {
      "inputs": [
        {
          "internalType": "address",
          "name": "from",
          "type": "address"
        },
        {
          "internalType": "address",
          "name": "to",
          "type": "address"
        },
        {
          "internalType": "uint256",
          "name": "tokenId",
          "type": "uint256"
        },
        {
          "internalType": "bytes",
          "name": "_data",
          "type": "bytes"
        }
      ],
      "name": "safeTransferFrom",
      "outputs": [],
      "stateMutability": "nonpayable",
      "type": "function"
    },
    {
      "inputs": [
        {
          "internalType": "address",
          "name": "_address",
          "type": "address"
        }
      ],
      "name": "setAdmin",
      "outputs": [],
      "stateMutability": "nonpayable",
      "type": "function"
    },
    {
      "inputs": [
        {
          "internalType": "address",
          "name": "operator",
          "type": "address"
        },
        {
          "internalType": "bool",
          "name": "approved",
          "type": "bool"
        }
      ],
      "name": "setApprovalForAll",
      "outputs": [],
      "stateMutability": "nonpayable",
      "type": "function"
    },
    {
      "inputs": [
        {
          "internalType": "string",
          "name": "_baseTokenURI",
          "type": "string"
        }
      ],
      "name": "setBaseURI",
      "outputs": [],
      "stateMutability": "nonpayable",
      "type": "function"
    },
    {
      "inputs": [
        {
          "internalType": "string",
          "name": "_baseURI1",
          "type": "string"
        },
        {
          "internalType": "string",
          "name": "_baseURI2",
          "type": "string"
        },
        {
          "internalType": "string",
          "name": "_baseURI3",
          "type": "string"
        }
      ],
      "name": "setBaseURIs",
      "outputs": [],
      "stateMutability": "nonpayable",
      "type": "function"
    },
    {
      "inputs": [
        {
          "internalType": "uint256",
          "name": "_maxSupply",
          "type": "uint256"
        }
      ],
      "name": "setMaxSupply",
      "outputs": [],
      "stateMutability": "nonpayable",
      "type": "function"
    },
    {
      "inputs": [
        {
          "internalType": "address",
          "name": "_receiver",
          "type": "address"
        },
        {
          "internalType": "uint96",
          "name": "_royaltyFeesInBips",
          "type": "uint96"
        }
      ],
      "name": "setRoyaltyInfo",
      "outputs": [],
      "stateMutability": "nonpayable",
      "type": "function"
    },
    {
      "inputs": [
        {
          "internalType": "bytes4",
          "name": "_interfaceId",
          "type": "bytes4"
        }
      ],
      "name": "supportsInterface",
      "outputs": [
        {
          "internalType": "bool",
          "name": "",
          "type": "bool"
        }
      ],
      "stateMutability": "view",
      "type": "function"
    },
    {
      "inputs": [],
      "name": "symbol",
      "outputs": [
        {
          "internalType": "string",
          "name": "",
          "type": "string"
        }
      ],
      "stateMutability": "view",
      "type": "function"
    },
    {
      "inputs": [
        {
          "internalType": "uint256",
          "name": "index",
          "type": "uint256"
        }
      ],
      "name": "tokenByIndex",
      "outputs": [
        {
          "internalType": "uint256",
          "name": "",
          "type": "uint256"
        }
      ],
      "stateMutability": "view",
      "type": "function"
    },
    {
      "inputs": [
        {
          "internalType": "address",
          "name": "owner",
          "type": "address"
        },
        {
          "internalType": "uint256",
          "name": "index",
          "type": "uint256"
        }
      ],
      "name": "tokenOfOwnerByIndex",
      "outputs": [
        {
          "internalType": "uint256",
          "name": "",
          "type": "uint256"
        }
      ],
      "stateMutability": "view",
      "type": "function"
    },
    {
      "inputs": [
        {
          "internalType": "uint256",
          "name": "_tokenId",
          "type": "uint256"
        }
      ],
      "name": "tokenURI",
      "outputs": [
        {
          "internalType": "string",
          "name": "",
          "type": "string"
        }
      ],
      "stateMutability": "view",
      "type": "function"
    },
    {
      "inputs": [],
      "name": "totalMint",
      "outputs": [
        {
          "internalType": "uint256",
          "name": "",
          "type": "uint256"
        }
      ],
      "stateMutability": "view",
      "type": "function"
    },
    {
      "inputs": [],
      "name": "totalSupply",
      "outputs": [
        {
          "internalType": "uint256",
          "name": "",
          "type": "uint256"
        }
      ],
      "stateMutability": "view",
      "type": "function"
    },
    {
      "inputs": [
        {
          "internalType": "address",
          "name": "from",
          "type": "address"
        },
        {
          "internalType": "address",
          "name": "to",
          "type": "address"
        },
        {
          "internalType": "uint256",
          "name": "tokenId",
          "type": "uint256"
        }
      ],
      "name": "transferFrom",
      "outputs": [],
      "stateMutability": "nonpayable",
      "type": "function"
    },
    {
      "inputs": [
        {
          "internalType": "address",
          "name": "newOwner",
          "type": "address"
        }
      ],
      "name": "transferOwnership",
      "outputs": [],
      "stateMutability": "nonpayable",
      "type": "function"
    },
    {
      "inputs": [],
      "name": "unpause",
      "outputs": [],
      "stateMutability": "nonpayable",
      "type": "function"
    },
    {
      "stateMutability": "payable",
      "type": "receive"
    }
  ],
  "bytecode": "0x60c06040526005608081905264173539b7b760d91b60a09081526200002891601991906200043b565b503480156200003657600080fd5b50604051620041cd380380620041cd8339810160408190526200005991620005b5565b604080518082018252601e81527f4e616b617665727365204275696c64696e67204e4654206c6576656c2031000060208083019182528351808501909452601d84527f4e414b4156455253454255494c44494e474c4e4654206c6576656c2031000000908401528151919291620000d3916000916200043b565b508051620000e99060019060208401906200043b565b5050506200010662000100620001c460201b60201c565b620001c8565b600d805460ff191690556001600e55601380546001600160a01b03808a166001600160a01b031992831617909255601580549289169290911691909117905584516200015a9060169060208801906200043b565b508351620001709060179060208701906200043b565b508251620001869060189060208601906200043b565b506014829055620001aa620001a3600b546001600160a01b031690565b826200021a565b620001b76000336200028a565b50505050505050620006ed565b3390565b600b80546001600160a01b038381166001600160a01b0319831681179093556040519116919082907f8be0079c531659141344cd1fd0a4f28419497f9722a3daafe3b4186f6b6457e090600090a35050565b600b546001600160a01b031633146200027a5760405162461bcd60e51b815260206004820181905260248201527f4f776e61626c653a2063616c6c6572206973206e6f7420746865206f776e657260448201526064015b60405180910390fd5b62000286828262000296565b5050565b62000286828262000397565b6127106001600160601b0382161115620003065760405162461bcd60e51b815260206004820152602a60248201527f455243323938313a20726f79616c7479206665652077696c6c206578636565646044820152692073616c65507269636560b01b606482015260840162000271565b6001600160a01b0382166200035e5760405162461bcd60e51b815260206004820152601960248201527f455243323938313a20696e76616c696420726563656976657200000000000000604482015260640162000271565b604080518082019091526001600160a01b039092168083526001600160601b039091166020909201829052600160a01b90910217600f55565b6000828152600c602090815260408083206001600160a01b038516845290915290205460ff1662000286576000828152600c602090815260408083206001600160a01b03851684529091529020805460ff19166001179055620003f73390565b6001600160a01b0316816001600160a01b0316837f2f8788117e7eff1d82e926ec794901d17c78024a50270940304540a733656f0d60405160405180910390a45050565b82805462000449906200069a565b90600052602060002090601f0160209004810192826200046d5760008555620004b8565b82601f106200048857805160ff1916838001178555620004b8565b82800160010185558215620004b8579182015b82811115620004b85782518255916020019190600101906200049b565b50620004c6929150620004ca565b5090565b5b80821115620004c65760008155600101620004cb565b80516001600160a01b0381168114620004f957600080fd5b919050565b600082601f8301126200051057600080fd5b81516001600160401b03808211156200052d576200052d620006d7565b604051601f8301601f19908116603f01168101908282118183101715620005585762000558620006d7565b816040528381526020925086838588010111156200057557600080fd5b600091505b838210156200059957858201830151818301840152908201906200057a565b83821115620005ab5760008385830101525b9695505050505050565b600080600080600080600060e0888a031215620005d157600080fd5b620005dc88620004e1565b9650620005ec60208901620004e1565b60408901519096506001600160401b03808211156200060a57600080fd5b620006188b838c01620004fe565b965060608a01519150808211156200062f57600080fd5b6200063d8b838c01620004fe565b955060808a01519150808211156200065457600080fd5b50620006638a828b01620004fe565b60a08a015160c08b0151919550935090506001600160601b03811681146200068a57600080fd5b8091505092959891949750929550565b600181811c90821680620006af57607f821691505b60208210811415620006d157634e487b7160e01b600052602260045260246000fd5b50919050565b634e487b7160e01b600052604160045260246000fd5b613ad080620006fd6000396000f3fe60806040526004361061026b5760003560e01c8063664bfeef1161014457806398ccb341116100b6578063d547741f1161007a578063d547741f14610761578063d5abeb0114610781578063e5a6b10f14610797578063e985e9c5146107b7578063f2fde38b14610800578063f851a4401461082057600080fd5b806398ccb341146106cc578063a217fddf146106ec578063a22cb46514610701578063b88d4fde14610721578063c87b56dd1461074157600080fd5b8063715018a611610108578063715018a61461062f5780638456cb591461064457806389a4b2a2146106595780638da5cb5b1461067957806391d148541461069757806395d89b41146106b757600080fd5b8063664bfeef1461058f5780636bc5f9bb146105af5780636f8b44b0146105cf578063704b6c02146105ef57806370a082311461060f57600080fd5b80632f745c59116101dd5780634f6ccce7116101a15780634f6ccce7146104ce57806355f804b3146104ee57806359a7715a1461050e5780635c975abb14610523578063634252dc1461053b5780636352211e1461056f57600080fd5b80632f745c591461043957806336568abe146104595780633f4ba83a1461047957806342842e0e1461048e57806342966c68146104ae57600080fd5b806318160ddd1161022f57806318160ddd1461034b57806323b872dd1461036a578063248a9ca31461038a5780632890e0d7146103ba5780632a55205a146103da5780632f2ff15d1461041957600080fd5b806301ffc9a71461027a57806302fa7c47146102af57806306fdde03146102d1578063081812fc146102f3578063095ea7b31461032b57600080fd5b3661027557600080fd5b600080fd5b34801561028657600080fd5b5061029a610295366004613440565b610840565b60405190151581526020015b60405180910390f35b3480156102bb57600080fd5b506102cf6102ca366004613304565b610851565b005b3480156102dd57600080fd5b506102e6610892565b6040516102a6919061378f565b3480156102ff57600080fd5b5061031361030e366004613359565b610924565b6040516001600160a01b0390911681526020016102a6565b34801561033757600080fd5b506102cf6103463660046132a7565b6109b9565b34801561035757600080fd5b506009545b6040519081526020016102a6565b34801561037657600080fd5b506102cf610385366004613100565b610acf565b34801561039657600080fd5b5061035c6103a5366004613359565b6000908152600c602052604090206001015490565b3480156103c657600080fd5b506102cf6103d5366004613359565b610b01565b3480156103e657600080fd5b506103fa6103f5366004613550565b610b78565b604080516001600160a01b0390931683526020830191909152016102a6565b34801561042557600080fd5b506102cf610434366004613372565b610c24565b34801561044557600080fd5b5061035c6104543660046132a7565b610c49565b34801561046557600080fd5b506102cf610474366004613372565b610cdf565b34801561048557600080fd5b506102cf610d59565b34801561049a57600080fd5b506102cf6104a9366004613100565b610d8d565b3480156104ba57600080fd5b506102cf6104c9366004613359565b610da8565b3480156104da57600080fd5b5061035c6104e9366004613359565b610e16565b3480156104fa57600080fd5b506102cf61050936600461347a565b610ea9565b34801561051a57600080fd5b5061035c610ee6565b34801561052f57600080fd5b50600d5460ff1661029a565b34801561054757600080fd5b5061035c7ff1b411d6abb365480ac902cc153c45e9ded5847a2265ce6d01945d253edb6bc781565b34801561057b57600080fd5b5061031361058a366004613359565b610ef6565b34801561059b57600080fd5b506102cf6105aa3660046132d1565b610f6d565b3480156105bb57600080fd5b506102cf6105ca3660046134af565b6112b9565b3480156105db57600080fd5b506102cf6105ea366004613359565b611324565b3480156105fb57600080fd5b506102cf61060a3660046130b2565b611405565b34801561061b57600080fd5b5061035c61062a3660046130b2565b611451565b34801561063b57600080fd5b506102cf6114d8565b34801561065057600080fd5b506102cf61150c565b34801561066557600080fd5b506102cf610674366004613395565b61153e565b34801561068557600080fd5b50600b546001600160a01b0316610313565b3480156106a357600080fd5b5061029a6106b2366004613372565b6115aa565b3480156106c357600080fd5b506102e66115d5565b3480156106d857600080fd5b506102cf6106e73660046131b8565b6115e4565b3480156106f857600080fd5b5061035c600081565b34801561070d57600080fd5b506102cf61071c366004613270565b61197b565b34801561072d57600080fd5b506102cf61073c36600461313c565b611986565b34801561074d57600080fd5b506102e661075c366004613359565b6119b8565b34801561076d57600080fd5b506102cf61077c366004613372565b611ade565b34801561078d57600080fd5b5061035c60145481565b3480156107a357600080fd5b50601354610313906001600160a01b031681565b3480156107c357600080fd5b5061029a6107d23660046130cd565b6001600160a01b03918216600090815260056020908152604080832093909416825291909152205460ff1690565b34801561080c57600080fd5b506102cf61081b3660046130b2565b611b03565b34801561082c57600080fd5b50601554610313906001600160a01b031681565b600061084b82611b9b565b92915050565b600b546001600160a01b031633146108845760405162461bcd60e51b815260040161087b9061381e565b60405180910390fd5b61088e8282611bc0565b5050565b6060600080546108a19061399e565b80601f01602080910402602001604051908101604052809291908181526020018280546108cd9061399e565b801561091a5780601f106108ef5761010080835404028352916020019161091a565b820191906000526020600020905b8154815290600101906020018083116108fd57829003601f168201915b5050505050905090565b6000818152600260205260408120546001600160a01b031661099d5760405162461bcd60e51b815260206004820152602c60248201527f4552433732313a20617070726f76656420717565727920666f72206e6f6e657860448201526b34b9ba32b73a103a37b5b2b760a11b606482015260840161087b565b506000908152600460205260409020546001600160a01b031690565b60006109c482610ef6565b9050806001600160a01b0316836001600160a01b03161415610a325760405162461bcd60e51b815260206004820152602160248201527f4552433732313a20617070726f76616c20746f2063757272656e74206f776e656044820152603960f91b606482015260840161087b565b336001600160a01b0382161480610a4e5750610a4e81336107d2565b610ac05760405162461bcd60e51b815260206004820152603860248201527f4552433732313a20617070726f76652063616c6c6572206973206e6f74206f7760448201527f6e6572206e6f7220617070726f76656420666f7220616c6c0000000000000000606482015260840161087b565b610aca8383611cbd565b505050565b610ada335b82611d2b565b610af65760405162461bcd60e51b815260040161087b90613853565b610aca838383611e22565b610b0a33610ad4565b610b6c5760405162461bcd60e51b815260206004820152602d60248201527f4552433732313a2063616c6c6572206973206e6f7420746f6b656e206f776e6560448201526c1c881bdc88185c1c1c9bdd9959609a1b606482015260840161087b565b610b7581611fc9565b50565b60008281526010602090815260408083208151808301909252546001600160a01b038116808352600160a01b9091046001600160601b0316928201929092528291610bed575060408051808201909152600f546001600160a01b0381168252600160a01b90046001600160601b031660208201525b602081015160009061271090610c0c906001600160601b031687613925565b610c169190613911565b915196919550909350505050565b6000828152600c6020526040902060010154610c3f81611fd2565b610aca8383611fdc565b6000610c5483611451565b8210610cb65760405162461bcd60e51b815260206004820152602b60248201527f455243373231456e756d657261626c653a206f776e657220696e646578206f7560448201526a74206f6620626f756e647360a81b606482015260840161087b565b506001600160a01b03919091166000908152600760209081526040808320938352929052205490565b6001600160a01b0381163314610d4f5760405162461bcd60e51b815260206004820152602f60248201527f416363657373436f6e74726f6c3a2063616e206f6e6c792072656e6f756e636560448201526e103937b632b9903337b91039b2b63360891b606482015260840161087b565b61088e8282612062565b600b546001600160a01b03163314610d835760405162461bcd60e51b815260040161087b9061381e565b610d8b6120c9565b565b610aca83838360405180602001604052806000815250611986565b610db133610ad4565b610b6c5760405162461bcd60e51b815260206004820152603060248201527f4552433732314275726e61626c653a2063616c6c6572206973206e6f74206f7760448201526f1b995c881b9bdc88185c1c1c9bdd995960821b606482015260840161087b565b6000610e2160095490565b8210610e845760405162461bcd60e51b815260206004820152602c60248201527f455243373231456e756d657261626c653a20676c6f62616c20696e646578206f60448201526b7574206f6620626f756e647360a01b606482015260840161087b565b60098281548110610e9757610e97613a4a565b90600052602060002001549050919050565b600b546001600160a01b03163314610ed35760405162461bcd60e51b815260040161087b9061381e565b805161088e906012906020840190612f54565b6000610ef160115490565b905090565b6000818152600260205260408120546001600160a01b03168061084b5760405162461bcd60e51b815260206004820152602960248201527f4552433732313a206f776e657220717565727920666f72206e6f6e657869737460448201526832b73a103a37b5b2b760b91b606482015260840161087b565b6002600e541415610fc05760405162461bcd60e51b815260206004820152601f60248201527f5265656e7472616e637947756172643a207265656e7472616e742063616c6c00604482015260640161087b565b6002600e55600d5460ff1615610fe85760405162461bcd60e51b815260040161087b906137f4565b7ff1b411d6abb365480ac902cc153c45e9ded5847a2265ce6d01945d253edb6bc761101281611fd2565b6013546040516370a0823160e01b81526001600160a01b038681166004830152849216906370a082319060240160206040518083038186803b15801561105757600080fd5b505afa15801561106b573d6000803e3d6000fd5b505050506040513d601f19601f8201168201806040525081019061108f9190613537565b10156111115760405162461bcd60e51b8152602060048201526044602482018190527f5b4275696c64696e674e46542e6d696e745769746850726963655d204d757374908201527f2068617665204e616b61206d6f7265207468616e206275696c64696e6720707260648201526334b1b29760e11b608482015260a40161087b565b60145460115411156111a85760405162461bcd60e51b815260206004820152605460248201527f5b4275696c64696e674e46542e6d696e745769746850726963655d206275696c60448201527f64696e67204e4654206f66207468697320747970652068617320616c726561646064820152733c903932b0b1b432b21036b0bc103634b6b4ba1760611b608482015260a40161087b565b6014546011546111b99060016138f9565b111561122d5760405162461bcd60e51b815260206004820152603960248201527f5b4275696c64696e674e46542e6d696e745769746850726963655d206d696e7460448201527f696e67206e756d6265727320657863656564206c696d69742e00000000000000606482015260840161087b565b60155460135461124c916001600160a01b03918216918791168561215c565b61125a601180546001019055565b61126484846121b6565b604080516001600160a01b0386168152602081018590529081018390527f63ae3bcbafcb4f900af404b9a3a9880698c9fedf45ae7bd9a12d6ca30430d79f9060600160405180910390a150506001600e555050565b600b546001600160a01b031633146112e35760405162461bcd60e51b815260040161087b9061381e565b82516112f6906016906020860190612f54565b50815161130a906017906020850190612f54565b50805161131e906018906020840190612f54565b50505050565b600b546001600160a01b0316331461134e5760405162461bcd60e51b815260040161087b9061381e565b600d5460ff166113975760405162461bcd60e51b815260206004820152601460248201527314185d5cd8589b194e881b9bdd081c185d5cd95960621b604482015260640161087b565b6011548110156114005760405162461bcd60e51b815260206004820152602e60248201527f5b4275696c64696e674e46542e7365744d6178537570706c7950726963655d2060448201526d29bab838363c9032bc31b2b9b99760911b606482015260840161087b565b601455565b600b546001600160a01b0316331461142f5760405162461bcd60e51b815260040161087b9061381e565b601580546001600160a01b0319166001600160a01b0392909216919091179055565b60006001600160a01b0382166114bc5760405162461bcd60e51b815260206004820152602a60248201527f4552433732313a2062616c616e636520717565727920666f7220746865207a65604482015269726f206164647265737360b01b606482015260840161087b565b506001600160a01b031660009081526003602052604090205490565b600b546001600160a01b031633146115025760405162461bcd60e51b815260040161087b9061381e565b610d8b60006121d0565b600b546001600160a01b031633146115365760405162461bcd60e51b815260040161087b9061381e565b610d8b612222565b600b546001600160a01b031633146115685760405162461bcd60e51b815260040161087b9061381e565b805160005b8181101561131e576115988484838151811061158b5761158b613a4a565b6020026020010151610c24565b806115a2816139d9565b91505061156d565b6000918252600c602090815260408084206001600160a01b0393909316845291905290205460ff1690565b6060600180546108a19061399e565b6002600e5414156116375760405162461bcd60e51b815260206004820152601f60248201527f5265656e7472616e637947756172643a207265656e7472616e742063616c6c00604482015260640161087b565b6002600e55600d5460ff161561165f5760405162461bcd60e51b815260040161087b906137f4565b7ff1b411d6abb365480ac902cc153c45e9ded5847a2265ce6d01945d253edb6bc761168981611fd2565b82516013546040516370a0823160e01b81526001600160a01b038781166004830152859216906370a082319060240160206040518083038186803b1580156116d057600080fd5b505afa1580156116e4573d6000803e3d6000fd5b505050506040513d601f19601f820116820180604052508101906117089190613537565b10156117915760405162461bcd60e51b815260206004820152604c60248201527f5b4275696c64696e674e46542e6d756c7469706c654d696e745769746850726960448201527f63655d204d7573742068617665204e616b61206d6f7265207468616e2062756960648201526b363234b73390383934b1b29760a11b608482015260a40161087b565b60145460115411156118315760405162461bcd60e51b815260206004820152605c60248201527f5b4275696c64696e674e46542e6d756c7469706c654d696e745769746850726960448201527f63655d206275696c64696e67204e4654206f662074686973207479706520686160648201527f7320616c72656164792072656163686564206d6178206c696d69742e00000000608482015260a40161087b565b6014548161183e60115490565b61184891906138f9565b11156118c65760405162461bcd60e51b815260206004820152604160248201527f5b4275696c64696e674e46542e6d756c7469706c654d696e745769746850726960448201527f63655d206d696e74696e67206e756d6265727320657863656564206c696d69746064820152601760f91b608482015260a40161087b565b6015546013546118e5916001600160a01b03918216918891168661215c565b60005b81811015611933576118fe601180546001019055565b6119218686838151811061191457611914613a4a565b60200260200101516121b6565b8061192b816139d9565b9150506118e8565b507fc32ccfe9dae829a57bfa54c93dfc0d86770c9e9d0c0e0aa367efb9852fad4f6f85858560405161196793929190613730565b60405180910390a150506001600e55505050565b61088e33838361227a565b6119903383611d2b565b6119ac5760405162461bcd60e51b815260040161087b90613853565b61131e84848484612349565b6000818152600260205260409020546060906001600160a01b0316611a375760405162461bcd60e51b815260206004820152602f60248201527f4552433732314d657461646174613a2055524920717565727920666f72206e6f60448201526e3732bc34b9ba32b73a103a37b5b2b760891b606482015260840161087b565b62a344e0821015611aa1576000611a4c61237c565b90506000815111611a6c5760405180602001604052806000815250611a9a565b80611a768461238b565b6019604051602001611a8a939291906135ba565b6040516020818303038152906040525b9392505050565b62ac6ca08210158015611ab6575062af79e082105b15611ac5576000611a4c612489565b62af79e08210611ad9576000611a4c612498565b919050565b6000828152600c6020526040902060010154611af981611fd2565b610aca8383612062565b600b546001600160a01b03163314611b2d5760405162461bcd60e51b815260040161087b9061381e565b6001600160a01b038116611b925760405162461bcd60e51b815260206004820152602660248201527f4f776e61626c653a206e6577206f776e657220697320746865207a65726f206160448201526564647265737360d01b606482015260840161087b565b610b75816121d0565b60006001600160e01b0319821663152a902d60e11b148061084b575061084b826124a7565b6127106001600160601b0382161115611c2e5760405162461bcd60e51b815260206004820152602a60248201527f455243323938313a20726f79616c7479206665652077696c6c206578636565646044820152692073616c65507269636560b01b606482015260840161087b565b6001600160a01b038216611c845760405162461bcd60e51b815260206004820152601960248201527f455243323938313a20696e76616c696420726563656976657200000000000000604482015260640161087b565b604080518082019091526001600160a01b039092168083526001600160601b039091166020909201829052600160a01b90910217600f55565b600081815260046020526040902080546001600160a01b0319166001600160a01b0384169081179091558190611cf282610ef6565b6001600160a01b03167f8c5be1e5ebec7d5bd14f71427d1e84f3dd0314c0f7b2291e5b200ac8c7c3b92560405160405180910390a45050565b6000818152600260205260408120546001600160a01b0316611da45760405162461bcd60e51b815260206004820152602c60248201527f4552433732313a206f70657261746f7220717565727920666f72206e6f6e657860448201526b34b9ba32b73a103a37b5b2b760a11b606482015260840161087b565b6000611daf83610ef6565b9050806001600160a01b0316846001600160a01b03161480611df657506001600160a01b0380821660009081526005602090815260408083209388168352929052205460ff165b80611e1a5750836001600160a01b0316611e0f84610924565b6001600160a01b0316145b949350505050565b826001600160a01b0316611e3582610ef6565b6001600160a01b031614611e995760405162461bcd60e51b815260206004820152602560248201527f4552433732313a207472616e736665722066726f6d20696e636f72726563742060448201526437bbb732b960d91b606482015260840161087b565b6001600160a01b038216611efb5760405162461bcd60e51b8152602060048201526024808201527f4552433732313a207472616e7366657220746f20746865207a65726f206164646044820152637265737360e01b606482015260840161087b565b611f068383836124cc565b611f11600082611cbd565b6001600160a01b0383166000908152600360205260408120805460019290611f3a908490613944565b90915550506001600160a01b0382166000908152600360205260408120805460019290611f689084906138f9565b909155505060008181526002602052604080822080546001600160a01b0319166001600160a01b0386811691821790925591518493918716917fddf252ad1be2c89b69c2b068fc378daa952ba7f163c4a11628f55a4df523b3ef91a4505050565b610b75816124d7565b610b758133612517565b611fe682826115aa565b61088e576000828152600c602090815260408083206001600160a01b03851684529091529020805460ff1916600117905561201e3390565b6001600160a01b0316816001600160a01b0316837f2f8788117e7eff1d82e926ec794901d17c78024a50270940304540a733656f0d60405160405180910390a45050565b61206c82826115aa565b1561088e576000828152600c602090815260408083206001600160a01b0385168085529252808320805460ff1916905551339285917ff6391f5c32d9c69d2a47ea670b442974b53935d1edc7fd64eb21e047a839171b9190a45050565b600d5460ff166121125760405162461bcd60e51b815260206004820152601460248201527314185d5cd8589b194e881b9bdd081c185d5cd95960621b604482015260640161087b565b600d805460ff191690557f5db9ee0a495bf2e6ff9c91a7834c1ba4fdd244a5e8aa4e537bd38aeae4b073aa335b6040516001600160a01b03909116815260200160405180910390a1565b604080516001600160a01b0385811660248301528416604482015260648082018490528251808303909101815260849091019091526020810180516001600160e01b03166323b872dd60e01b17905261131e90859061257b565b61088e82826040518060200160405280600081525061264d565b600b80546001600160a01b038381166001600160a01b0319831681179093556040519116919082907f8be0079c531659141344cd1fd0a4f28419497f9722a3daafe3b4186f6b6457e090600090a35050565b600d5460ff16156122455760405162461bcd60e51b815260040161087b906137f4565b600d805460ff191660011790557f62e78cea01bee320cd4e420270b5ea74000d11b0c9f74754ebdbfc544b05a25861213f3390565b816001600160a01b0316836001600160a01b031614156122dc5760405162461bcd60e51b815260206004820152601960248201527f4552433732313a20617070726f766520746f2063616c6c657200000000000000604482015260640161087b565b6001600160a01b03838116600081815260056020908152604080832094871680845294825291829020805460ff191686151590811790915591519182527f17307eab39ab6107e8899845ad3d59bd9653f200f220920489ca2b5937696c31910160405180910390a3505050565b612354848484611e22565b61236084848484612680565b61131e5760405162461bcd60e51b815260040161087b906137a2565b6060601680546108a19061399e565b6060816123af5750506040805180820190915260018152600360fc1b602082015290565b8160005b81156123d957806123c3816139d9565b91506123d29050600a83613911565b91506123b3565b60008167ffffffffffffffff8111156123f4576123f4613a60565b6040519080825280601f01601f19166020018201604052801561241e576020820181803683370190505b5090505b8415611e1a57612433600183613944565b9150612440600a866139f4565b61244b9060306138f9565b60f81b81838151811061246057612460613a4a565b60200101906001600160f81b031916908160001a905350612482600a86613911565b9450612422565b6060601780546108a19061399e565b6060601880546108a19061399e565b60006001600160e01b03198216637965db0b60e01b148061084b575061084b8261278d565b610aca8383836127b2565b6124e08161286a565b600081815260066020526040902080546124f99061399e565b159050610b75576000818152600660205260408120610b7591612fd8565b61252182826115aa565b61088e57612539816001600160a01b03166014612911565b612544836020612911565b60405160200161255592919061367e565b60408051601f198184030181529082905262461bcd60e51b825261087b9160040161378f565b60006125d0826040518060400160405280602081526020017f5361666545524332303a206c6f772d6c6576656c2063616c6c206661696c6564815250856001600160a01b0316612aad9092919063ffffffff16565b805190915015610aca57808060200190518101906125ee919061333c565b610aca5760405162461bcd60e51b815260206004820152602a60248201527f5361666545524332303a204552433230206f7065726174696f6e20646964206e6044820152691bdd081cdd58d8d9595960b21b606482015260840161087b565b6126578383612abc565b6126646000848484612680565b610aca5760405162461bcd60e51b815260040161087b906137a2565b60006001600160a01b0384163b1561278257604051630a85bd0160e11b81526001600160a01b0385169063150b7a02906126c49033908990889088906004016136f3565b602060405180830381600087803b1580156126de57600080fd5b505af192505050801561270e575060408051601f3d908101601f1916820190925261270b9181019061345d565b60015b612768573d80801561273c576040519150601f19603f3d011682016040523d82523d6000602084013e612741565b606091505b5080516127605760405162461bcd60e51b815260040161087b906137a2565b805181602001fd5b6001600160e01b031916630a85bd0160e11b149050611e1a565b506001949350505050565b60006001600160e01b0319821663780e9d6360e01b148061084b575061084b82612c0a565b6001600160a01b03831661280d5761280881600980546000838152600a60205260408120829055600182018355919091527f6e1540171b6c0c960b71a7020d9f60077f6af931a8bbf590da0223dacf75c7af0155565b612830565b816001600160a01b0316836001600160a01b031614612830576128308382612c5a565b6001600160a01b03821661284757610aca81612cf7565b826001600160a01b0316826001600160a01b031614610aca57610aca8282612da6565b600061287582610ef6565b9050612883816000846124cc565b61288e600083611cbd565b6001600160a01b03811660009081526003602052604081208054600192906128b7908490613944565b909155505060008281526002602052604080822080546001600160a01b0319169055518391906001600160a01b038416907fddf252ad1be2c89b69c2b068fc378daa952ba7f163c4a11628f55a4df523b3ef908390a45050565b60606000612920836002613925565b61292b9060026138f9565b67ffffffffffffffff81111561294357612943613a60565b6040519080825280601f01601f19166020018201604052801561296d576020820181803683370190505b509050600360fc1b8160008151811061298857612988613a4a565b60200101906001600160f81b031916908160001a905350600f60fb1b816001815181106129b7576129b7613a4a565b60200101906001600160f81b031916908160001a90535060006129db846002613925565b6129e69060016138f9565b90505b6001811115612a5e576f181899199a1a9b1b9c1cb0b131b232b360811b85600f1660108110612a1a57612a1a613a4a565b1a60f81b828281518110612a3057612a30613a4a565b60200101906001600160f81b031916908160001a90535060049490941c93612a5781613987565b90506129e9565b508315611a9a5760405162461bcd60e51b815260206004820181905260248201527f537472696e67733a20686578206c656e67746820696e73756666696369656e74604482015260640161087b565b6060611e1a8484600085612dea565b6001600160a01b038216612b125760405162461bcd60e51b815260206004820181905260248201527f4552433732313a206d696e7420746f20746865207a65726f2061646472657373604482015260640161087b565b6000818152600260205260409020546001600160a01b031615612b775760405162461bcd60e51b815260206004820152601c60248201527f4552433732313a20746f6b656e20616c7265616479206d696e74656400000000604482015260640161087b565b612b83600083836124cc565b6001600160a01b0382166000908152600360205260408120805460019290612bac9084906138f9565b909155505060008181526002602052604080822080546001600160a01b0319166001600160a01b03861690811790915590518392907fddf252ad1be2c89b69c2b068fc378daa952ba7f163c4a11628f55a4df523b3ef908290a45050565b60006001600160e01b031982166380ac58cd60e01b1480612c3b57506001600160e01b03198216635b5e139f60e01b145b8061084b57506301ffc9a760e01b6001600160e01b031983161461084b565b60006001612c6784611451565b612c719190613944565b600083815260086020526040902054909150808214612cc4576001600160a01b03841660009081526007602090815260408083208584528252808320548484528184208190558352600890915290208190555b5060009182526008602090815260408084208490556001600160a01b039094168352600781528383209183525290812055565b600954600090612d0990600190613944565b6000838152600a602052604081205460098054939450909284908110612d3157612d31613a4a565b906000526020600020015490508060098381548110612d5257612d52613a4a565b6000918252602080832090910192909255828152600a90915260408082208490558582528120556009805480612d8a57612d8a613a34565b6001900381819060005260206000200160009055905550505050565b6000612db183611451565b6001600160a01b039093166000908152600760209081526040808320868452825280832085905593825260089052919091209190915550565b606082471015612e4b5760405162461bcd60e51b815260206004820152602660248201527f416464726573733a20696e73756666696369656e742062616c616e636520666f6044820152651c8818d85b1b60d21b606482015260840161087b565b6001600160a01b0385163b612ea25760405162461bcd60e51b815260206004820152601d60248201527f416464726573733a2063616c6c20746f206e6f6e2d636f6e7472616374000000604482015260640161087b565b600080866001600160a01b03168587604051612ebe919061359e565b60006040518083038185875af1925050503d8060008114612efb576040519150601f19603f3d011682016040523d82523d6000602084013e612f00565b606091505b5091509150612f10828286612f1b565b979650505050505050565b60608315612f2a575081611a9a565b825115612f3a5782518084602001fd5b8160405162461bcd60e51b815260040161087b919061378f565b828054612f609061399e565b90600052602060002090601f016020900481019282612f825760008555612fc8565b82601f10612f9b57805160ff1916838001178555612fc8565b82800160010185558215612fc8579182015b82811115612fc8578251825591602001919060010190612fad565b50612fd492915061300e565b5090565b508054612fe49061399e565b6000825580601f10612ff4575050565b601f016020900490600052602060002090810190610b7591905b5b80821115612fd4576000815560010161300f565b600067ffffffffffffffff83111561303d5761303d613a60565b613050601f8401601f19166020016138a4565b905082815283838301111561306457600080fd5b828260208301376000602084830101529392505050565b80356001600160a01b0381168114611ad957600080fd5b600082601f8301126130a357600080fd5b611a9a83833560208501613023565b6000602082840312156130c457600080fd5b611a9a8261307b565b600080604083850312156130e057600080fd5b6130e98361307b565b91506130f76020840161307b565b90509250929050565b60008060006060848603121561311557600080fd5b61311e8461307b565b925061312c6020850161307b565b9150604084013590509250925092565b6000806000806080858703121561315257600080fd5b61315b8561307b565b93506131696020860161307b565b925060408501359150606085013567ffffffffffffffff81111561318c57600080fd5b8501601f8101871361319d57600080fd5b6131ac87823560208401613023565b91505092959194509250565b6000806000606084860312156131cd57600080fd5b6131d68461307b565b925060208085013567ffffffffffffffff8111156131f357600080fd5b8501601f8101871361320457600080fd5b8035613217613212826138d5565b6138a4565b8082825284820191508484018a868560051b870101111561323757600080fd5b600094505b8385101561325a57803583526001949094019391850191850161323c565b5096999698505050506040949094013593505050565b6000806040838503121561328357600080fd5b61328c8361307b565b9150602083013561329c81613a76565b809150509250929050565b600080604083850312156132ba57600080fd5b6132c38361307b565b946020939093013593505050565b6000806000606084860312156132e657600080fd5b6132ef8461307b565b95602085013595506040909401359392505050565b6000806040838503121561331757600080fd5b6133208361307b565b915060208301356001600160601b038116811461329c57600080fd5b60006020828403121561334e57600080fd5b8151611a9a81613a76565b60006020828403121561336b57600080fd5b5035919050565b6000806040838503121561338557600080fd5b823591506130f76020840161307b565b600080604083850312156133a857600080fd5b8235915060208084013567ffffffffffffffff8111156133c757600080fd5b8401601f810186136133d857600080fd5b80356133e6613212826138d5565b80828252848201915084840189868560051b870101111561340657600080fd5b600094505b838510156134305761341c8161307b565b83526001949094019391850191850161340b565b5080955050505050509250929050565b60006020828403121561345257600080fd5b8135611a9a81613a84565b60006020828403121561346f57600080fd5b8151611a9a81613a84565b60006020828403121561348c57600080fd5b813567ffffffffffffffff8111156134a357600080fd5b611e1a84828501613092565b6000806000606084860312156134c457600080fd5b833567ffffffffffffffff808211156134dc57600080fd5b6134e887838801613092565b945060208601359150808211156134fe57600080fd5b61350a87838801613092565b9350604086013591508082111561352057600080fd5b5061352d86828701613092565b9150509250925092565b60006020828403121561354957600080fd5b5051919050565b6000806040838503121561356357600080fd5b50508035926020909101359150565b6000815180845261358a81602086016020860161395b565b601f01601f19169290920160200192915050565b600082516135b081846020870161395b565b9190910192915050565b6000845160206135cd8285838a0161395b565b8551918401916135e08184848a0161395b565b8554920191600090600181811c90808316806135fd57607f831692505b85831081141561361b57634e487b7160e01b85526022600452602485fd5b80801561362f57600181146136405761366d565b60ff1985168852838801955061366d565b60008b81526020902060005b858110156136655781548a82015290840190880161364c565b505083880195505b50939b9a5050505050505050505050565b7f416363657373436f6e74726f6c3a206163636f756e74200000000000000000008152600083516136b681601785016020880161395b565b7001034b99036b4b9b9b4b733903937b6329607d1b60179184019182015283516136e781602884016020880161395b565b01602801949350505050565b6001600160a01b038581168252841660208201526040810183905260806060820181905260009061372690830184613572565b9695505050505050565b6001600160a01b038416815260606020808301829052845191830182905260009185820191906080850190845b818110156137795784518352938301939183019160010161375d565b5050809350505050826040830152949350505050565b602081526000611a9a6020830184613572565b60208082526032908201527f4552433732313a207472616e7366657220746f206e6f6e20455243373231526560408201527131b2b4bb32b91034b6b83632b6b2b73a32b960711b606082015260800190565b60208082526010908201526f14185d5cd8589b194e881c185d5cd95960821b604082015260600190565b6020808252818101527f4f776e61626c653a2063616c6c6572206973206e6f7420746865206f776e6572604082015260600190565b60208082526031908201527f4552433732313a207472616e736665722063616c6c6572206973206e6f74206f6040820152701ddb995c881b9bdc88185c1c1c9bdd9959607a1b606082015260800190565b604051601f8201601f1916810167ffffffffffffffff811182821017156138cd576138cd613a60565b604052919050565b600067ffffffffffffffff8211156138ef576138ef613a60565b5060051b60200190565b6000821982111561390c5761390c613a08565b500190565b60008261392057613920613a1e565b500490565b600081600019048311821515161561393f5761393f613a08565b500290565b60008282101561395657613956613a08565b500390565b60005b8381101561397657818101518382015260200161395e565b8381111561131e5750506000910152565b60008161399657613996613a08565b506000190190565b600181811c908216806139b257607f821691505b602082108114156139d357634e487b7160e01b600052602260045260246000fd5b50919050565b60006000198214156139ed576139ed613a08565b5060010190565b600082613a0357613a03613a1e565b500690565b634e487b7160e01b600052601160045260246000fd5b634e487b7160e01b600052601260045260246000fd5b634e487b7160e01b600052603160045260246000fd5b634e487b7160e01b600052603260045260246000fd5b634e487b7160e01b600052604160045260246000fd5b8015158114610b7557600080fd5b6001600160e01b031981168114610b7557600080fdfea264697066735822122069b2d27447f2102da9f3190fea2c16d515a048743c3b0b24b0374dce2799054c64736f6c63430008070033",
  "linkReferences": {},
  "deployedLinkReferences": {}
}