{
  "_format": "hh-sol-artifact-1",
  "contractName": "NAKAPUNK",
  "sourceName": "contracts/antPunk.sol",
  "abi": [
    {
      "inputs": [
        {
          "internalType": "address",
          "name": "_currency",
          "type": "address"
        },
        {
          "internalType": "string",
          "name": "_baseURI1",
          "type": "string"
        },
        {
          "internalType": "string",
          "name": "_baseURI2",
          "type": "string"
        },
        {
          "internalType": "string",
          "name": "_baseURI3",
          "type": "string"
        },
        {
          "internalType": "uint96",
          "name": "_royaltyFeesInBips",
          "type": "uint96"
        },
        {
          "internalType": "uint64",
          "name": "_subId",
          "type": "uint64"
        }
      ],
      "stateMutability": "nonpayable",
      "type": "constructor"
    },
    {
      "inputs": [
        {
          "internalType": "address",
          "name": "have",
          "type": "address"
        },
        {
          "internalType": "address",
          "name": "want",
          "type": "address"
        }
      ],
      "name": "OnlyCoordinatorCanFulfill",
      "type": "error"
    },
    {
      "anonymous": false,
      "inputs": [
        {
          "indexed": true,
          "internalType": "address",
          "name": "owner",
          "type": "address"
        },
        {
          "indexed": true,
          "internalType": "address",
          "name": "approved",
          "type": "address"
        },
        {
          "indexed": true,
          "internalType": "uint256",
          "name": "tokenId",
          "type": "uint256"
        }
      ],
      "name": "Approval",
      "type": "event"
    },
    {
      "anonymous": false,
      "inputs": [
        {
          "indexed": true,
          "internalType": "address",
          "name": "owner",
          "type": "address"
        },
        {
          "indexed": true,
          "internalType": "address",
          "name": "operator",
          "type": "address"
        },
        {
          "indexed": false,
          "internalType": "bool",
          "name": "approved",
          "type": "bool"
        }
      ],
      "name": "ApprovalForAll",
      "type": "event"
    },
    {
      "anonymous": false,
      "inputs": [
        {
          "indexed": false,
          "internalType": "address",
          "name": "to",
          "type": "address"
        },
        {
          "indexed": false,
          "internalType": "uint256",
          "name": "quantity",
          "type": "uint256"
        },
        {
          "indexed": false,
          "internalType": "uint256",
          "name": "totalpay",
          "type": "uint256"
        },
        {
          "indexed": false,
          "internalType": "uint256[]",
          "name": "mintIds",
          "type": "uint256[]"
        }
      ],
      "name": "Mint",
      "type": "event"
    },
    {
      "anonymous": false,
      "inputs": [
        {
          "indexed": false,
          "internalType": "address",
          "name": "to",
          "type": "address"
        },
        {
          "indexed": true,
          "internalType": "uint256[]",
          "name": "results",
          "type": "uint256[]"
        }
      ],
      "name": "MintRandom",
      "type": "event"
    },
    {
      "anonymous": false,
      "inputs": [
        {
          "indexed": true,
          "internalType": "address",
          "name": "previousOwner",
          "type": "address"
        },
        {
          "indexed": true,
          "internalType": "address",
          "name": "newOwner",
          "type": "address"
        }
      ],
      "name": "OwnershipTransferred",
      "type": "event"
    },
    {
      "anonymous": false,
      "inputs": [
        {
          "indexed": false,
          "internalType": "address",
          "name": "account",
          "type": "address"
        }
      ],
      "name": "Paused",
      "type": "event"
    },
    {
      "anonymous": false,
      "inputs": [
        {
          "indexed": true,
          "internalType": "bytes32",
          "name": "role",
          "type": "bytes32"
        },
        {
          "indexed": true,
          "internalType": "bytes32",
          "name": "previousAdminRole",
          "type": "bytes32"
        },
        {
          "indexed": true,
          "internalType": "bytes32",
          "name": "newAdminRole",
          "type": "bytes32"
        }
      ],
      "name": "RoleAdminChanged",
      "type": "event"
    },
    {
      "anonymous": false,
      "inputs": [
        {
          "indexed": true,
          "internalType": "bytes32",
          "name": "role",
          "type": "bytes32"
        },
        {
          "indexed": true,
          "internalType": "address",
          "name": "account",
          "type": "address"
        },
        {
          "indexed": true,
          "internalType": "address",
          "name": "sender",
          "type": "address"
        }
      ],
      "name": "RoleGranted",
      "type": "event"
    },
    {
      "anonymous": false,
      "inputs": [
        {
          "indexed": true,
          "internalType": "bytes32",
          "name": "role",
          "type": "bytes32"
        },
        {
          "indexed": true,
          "internalType": "address",
          "name": "account",
          "type": "address"
        },
        {
          "indexed": true,
          "internalType": "address",
          "name": "sender",
          "type": "address"
        }
      ],
      "name": "RoleRevoked",
      "type": "event"
    },
    {
      "anonymous": false,
      "inputs": [
        {
          "indexed": true,
          "internalType": "address",
          "name": "from",
          "type": "address"
        },
        {
          "indexed": true,
          "internalType": "address",
          "name": "to",
          "type": "address"
        },
        {
          "indexed": true,
          "internalType": "uint256",
          "name": "tokenId",
          "type": "uint256"
        }
      ],
      "name": "Transfer",
      "type": "event"
    },
    {
      "anonymous": false,
      "inputs": [
        {
          "indexed": false,
          "internalType": "address",
          "name": "account",
          "type": "address"
        }
      ],
      "name": "Unpaused",
      "type": "event"
    },
    {
      "stateMutability": "payable",
      "type": "fallback"
    },
    {
      "inputs": [],
      "name": "DEFAULT_ADMIN_ROLE",
      "outputs": [
        {
          "internalType": "bytes32",
          "name": "",
          "type": "bytes32"
        }
      ],
      "stateMutability": "view",
      "type": "function"
    },
    {
      "inputs": [],
      "name": "WORKER_ROLE",
      "outputs": [
        {
          "internalType": "bytes32",
          "name": "",
          "type": "bytes32"
        }
      ],
      "stateMutability": "view",
      "type": "function"
    },
    {
      "inputs": [],
      "name": "_SubId",
      "outputs": [
        {
          "internalType": "uint64",
          "name": "",
          "type": "uint64"
        }
      ],
      "stateMutability": "view",
      "type": "function"
    },
    {
      "inputs": [],
      "name": "_maxSupplies",
      "outputs": [
        {
          "internalType": "uint256",
          "name": "",
          "type": "uint256"
        }
      ],
      "stateMutability": "view",
      "type": "function"
    },
    {
      "inputs": [
        {
          "internalType": "address",
          "name": "to",
          "type": "address"
        },
        {
          "internalType": "uint256",
          "name": "tokenId",
          "type": "uint256"
        }
      ],
      "name": "approve",
      "outputs": [],
      "stateMutability": "nonpayable",
      "type": "function"
    },
    {
      "inputs": [
        {
          "internalType": "address",
          "name": "owner",
          "type": "address"
        }
      ],
      "name": "balanceOf",
      "outputs": [
        {
          "internalType": "uint256",
          "name": "",
          "type": "uint256"
        }
      ],
      "stateMutability": "view",
      "type": "function"
    },
    {
      "inputs": [
        {
          "internalType": "uint256",
          "name": "tokenId",
          "type": "uint256"
        }
      ],
      "name": "burn",
      "outputs": [],
      "stateMutability": "nonpayable",
      "type": "function"
    },
    {
      "inputs": [],
      "name": "currency",
      "outputs": [
        {
          "internalType": "contract IERC20",
          "name": "",
          "type": "address"
        }
      ],
      "stateMutability": "view",
      "type": "function"
    },
    {
      "inputs": [
        {
          "internalType": "uint256",
          "name": "tokenId",
          "type": "uint256"
        }
      ],
      "name": "getApproved",
      "outputs": [
        {
          "internalType": "address",
          "name": "",
          "type": "address"
        }
      ],
      "stateMutability": "view",
      "type": "function"
    },
    {
      "inputs": [
        {
          "internalType": "bytes32",
          "name": "role",
          "type": "bytes32"
        }
      ],
      "name": "getRoleAdmin",
      "outputs": [
        {
          "internalType": "bytes32",
          "name": "",
          "type": "bytes32"
        }
      ],
      "stateMutability": "view",
      "type": "function"
    },
    {
      "inputs": [
        {
          "internalType": "bytes32",
          "name": "role",
          "type": "bytes32"
        },
        {
          "internalType": "address",
          "name": "account",
          "type": "address"
        }
      ],
      "name": "grantRole",
      "outputs": [],
      "stateMutability": "nonpayable",
      "type": "function"
    },
    {
      "inputs": [
        {
          "internalType": "bytes32",
          "name": "role",
          "type": "bytes32"
        },
        {
          "internalType": "address",
          "name": "account",
          "type": "address"
        }
      ],
      "name": "hasRole",
      "outputs": [
        {
          "internalType": "bool",
          "name": "",
          "type": "bool"
        }
      ],
      "stateMutability": "view",
      "type": "function"
    },
    {
      "inputs": [
        {
          "internalType": "address",
          "name": "owner",
          "type": "address"
        },
        {
          "internalType": "address",
          "name": "operator",
          "type": "address"
        }
      ],
      "name": "isApprovedForAll",
      "outputs": [
        {
          "internalType": "bool",
          "name": "",
          "type": "bool"
        }
      ],
      "stateMutability": "view",
      "type": "function"
    },
    {
      "inputs": [],
      "name": "maxSupply",
      "outputs": [
        {
          "internalType": "uint256",
          "name": "",
          "type": "uint256"
        }
      ],
      "stateMutability": "view",
      "type": "function"
    },
    {
      "inputs": [
        {
          "internalType": "address",
          "name": "to",
          "type": "address"
        },
        {
          "internalType": "uint256",
          "name": "quantity",
          "type": "uint256"
        },
        {
          "internalType": "uint256",
          "name": "totalpay",
          "type": "uint256"
        }
      ],
      "name": "mint",
      "outputs": [
        {
          "internalType": "uint256[]",
          "name": "",
          "type": "uint256[]"
        }
      ],
      "stateMutability": "nonpayable",
      "type": "function"
    },
    {
      "inputs": [
        {
          "internalType": "bytes32",
          "name": "_role",
          "type": "bytes32"
        },
        {
          "internalType": "address[]",
          "name": "_workerAddress",
          "type": "address[]"
        }
      ],
      "name": "multiGrandRole",
      "outputs": [],
      "stateMutability": "nonpayable",
      "type": "function"
    },
    {
      "inputs": [],
      "name": "name",
      "outputs": [
        {
          "internalType": "string",
          "name": "",
          "type": "string"
        }
      ],
      "stateMutability": "view",
      "type": "function"
    },
    {
      "inputs": [],
      "name": "owner",
      "outputs": [
        {
          "internalType": "address",
          "name": "",
          "type": "address"
        }
      ],
      "stateMutability": "view",
      "type": "function"
    },
    {
      "inputs": [
        {
          "internalType": "uint256",
          "name": "tokenId",
          "type": "uint256"
        }
      ],
      "name": "ownerOf",
      "outputs": [
        {
          "internalType": "address",
          "name": "",
          "type": "address"
        }
      ],
      "stateMutability": "view",
      "type": "function"
    },
    {
      "inputs": [],
      "name": "pause",
      "outputs": [],
      "stateMutability": "nonpayable",
      "type": "function"
    },
    {
      "inputs": [],
      "name": "paused",
      "outputs": [
        {
          "internalType": "bool",
          "name": "",
          "type": "bool"
        }
      ],
      "stateMutability": "view",
      "type": "function"
    },
    {
      "inputs": [
        {
          "internalType": "uint256",
          "name": "requestId",
          "type": "uint256"
        },
        {
          "internalType": "uint256[]",
          "name": "randomWords",
          "type": "uint256[]"
        }
      ],
      "name": "rawFulfillRandomWords",
      "outputs": [],
      "stateMutability": "nonpayable",
      "type": "function"
    },
    {
      "inputs": [],
      "name": "renounceOwnership",
      "outputs": [],
      "stateMutability": "nonpayable",
      "type": "function"
    },
    {
      "inputs": [
        {
          "internalType": "bytes32",
          "name": "role",
          "type": "bytes32"
        },
        {
          "internalType": "address",
          "name": "account",
          "type": "address"
        }
      ],
      "name": "renounceRole",
      "outputs": [],
      "stateMutability": "nonpayable",
      "type": "function"
    },
    {
      "inputs": [],
      "name": "reserve",
      "outputs": [],
      "stateMutability": "nonpayable",
      "type": "function"
    },
    {
      "inputs": [
        {
          "internalType": "bytes32",
          "name": "role",
          "type": "bytes32"
        },
        {
          "internalType": "address",
          "name": "account",
          "type": "address"
        }
      ],
      "name": "revokeRole",
      "outputs": [],
      "stateMutability": "nonpayable",
      "type": "function"
    },
    {
      "inputs": [
        {
          "internalType": "uint256",
          "name": "_tokenId",
          "type": "uint256"
        },
        {
          "internalType": "uint256",
          "name": "_salePrice",
          "type": "uint256"
        }
      ],
      "name": "royaltyInfo",
      "outputs": [
        {
          "internalType": "address",
          "name": "",
          "type": "address"
        },
        {
          "internalType": "uint256",
          "name": "",
          "type": "uint256"
        }
      ],
      "stateMutability": "view",
      "type": "function"
    },
    {
      "inputs": [
        {
          "internalType": "uint256",
          "name": "",
          "type": "uint256"
        }
      ],
      "name": "s_results",
      "outputs": [
        {
          "internalType": "uint256",
          "name": "",
          "type": "uint256"
        }
      ],
      "stateMutability": "view",
      "type": "function"
    },
    {
      "inputs": [
        {
          "internalType": "address",
          "name": "from",
          "type": "address"
        },
        {
          "internalType": "address",
          "name": "to",
          "type": "address"
        },
        {
          "internalType": "uint256",
          "name": "tokenId",
          "type": "uint256"
        }
      ],
      "name": "safeTransferFrom",
      "outputs": [],
      "stateMutability": "nonpayable",
      "type": "function"
    },
    {
      "inputs": [
        {
          "internalType": "address",
          "name": "from",
          "type": "address"
        },
        {
          "internalType": "address",
          "name": "to",
          "type": "address"
        },
        {
          "internalType": "uint256",
          "name": "tokenId",
          "type": "uint256"
        },
        {
          "internalType": "bytes",
          "name": "_data",
          "type": "bytes"
        }
      ],
      "name": "safeTransferFrom",
      "outputs": [],
      "stateMutability": "nonpayable",
      "type": "function"
    },
    {
      "inputs": [
        {
          "internalType": "address",
          "name": "operator",
          "type": "address"
        },
        {
          "internalType": "bool",
          "name": "approved",
          "type": "bool"
        }
      ],
      "name": "setApprovalForAll",
      "outputs": [],
      "stateMutability": "nonpayable",
      "type": "function"
    },
    {
      "inputs": [
        {
          "internalType": "string",
          "name": "_baseTokenURI",
          "type": "string"
        }
      ],
      "name": "setBaseURI",
      "outputs": [],
      "stateMutability": "nonpayable",
      "type": "function"
    },
    {
      "inputs": [
        {
          "internalType": "string",
          "name": "_baseURI1",
          "type": "string"
        },
        {
          "internalType": "string",
          "name": "_baseURI2",
          "type": "string"
        },
        {
          "internalType": "string",
          "name": "_baseURI3",
          "type": "string"
        }
      ],
      "name": "setBaseURIs",
      "outputs": [],
      "stateMutability": "nonpayable",
      "type": "function"
    },
    {
      "inputs": [
        {
          "internalType": "address",
          "name": "_receiver",
          "type": "address"
        },
        {
          "internalType": "uint96",
          "name": "_royaltyFeesInBips",
          "type": "uint96"
        }
      ],
      "name": "setRoyaltyInfo",
      "outputs": [],
      "stateMutability": "nonpayable",
      "type": "function"
    },
    {
      "inputs": [
        {
          "internalType": "uint64",
          "name": "_subId",
          "type": "uint64"
        }
      ],
      "name": "setSubId",
      "outputs": [],
      "stateMutability": "nonpayable",
      "type": "function"
    },
    {
      "inputs": [
        {
          "internalType": "bytes4",
          "name": "_interfaceId",
          "type": "bytes4"
        }
      ],
      "name": "supportsInterface",
      "outputs": [
        {
          "internalType": "bool",
          "name": "",
          "type": "bool"
        }
      ],
      "stateMutability": "view",
      "type": "function"
    },
    {
      "inputs": [],
      "name": "symbol",
      "outputs": [
        {
          "internalType": "string",
          "name": "",
          "type": "string"
        }
      ],
      "stateMutability": "view",
      "type": "function"
    },
    {
      "inputs": [
        {
          "internalType": "uint256",
          "name": "tokenId",
          "type": "uint256"
        }
      ],
      "name": "tokenURI",
      "outputs": [
        {
          "internalType": "string",
          "name": "",
          "type": "string"
        }
      ],
      "stateMutability": "view",
      "type": "function"
    },
    {
      "inputs": [],
      "name": "totalSupply",
      "outputs": [
        {
          "internalType": "uint256",
          "name": "",
          "type": "uint256"
        }
      ],
      "stateMutability": "view",
      "type": "function"
    },
    {
      "inputs": [
        {
          "internalType": "address",
          "name": "from",
          "type": "address"
        },
        {
          "internalType": "address",
          "name": "to",
          "type": "address"
        },
        {
          "internalType": "uint256",
          "name": "tokenId",
          "type": "uint256"
        }
      ],
      "name": "transferFrom",
      "outputs": [],
      "stateMutability": "nonpayable",
      "type": "function"
    },
    {
      "inputs": [
        {
          "internalType": "address",
          "name": "newOwner",
          "type": "address"
        }
      ],
      "name": "transferOwnership",
      "outputs": [],
      "stateMutability": "nonpayable",
      "type": "function"
    },
    {
      "inputs": [],
      "name": "unpause",
      "outputs": [],
      "stateMutability": "nonpayable",
      "type": "function"
    },
    {
      "inputs": [],
      "name": "withdraw",
      "outputs": [],
      "stateMutability": "nonpayable",
      "type": "function"
    },
    {
      "stateMutability": "payable",
      "type": "receive"
    }
  ],
  "bytecode": "0x60008054600160401b600160e01b0319167bae975071be8f8ee67addbc1a82488f1c2485806700000000000000001790557fcc294a196eeeb44da2888d17c0625cc88d70d9760a69d58d853ba6581a9ab0cd600155600280546001600160501b0319166601000300009c40179055610100604052600560c081905264173539b7b760d91b60e0908152620000979160069190620004c5565b50612710601855348015620000ab57600080fd5b5060405162003dc938038062003dc9833981016040819052620000ce91620005a0565b6040805180820182526008808252674e414b4150554e4b60c01b6020808401828152855180870190965292855284015260185460005468010000000000000000900460601b6001600160601b0319166080528251929392909185916200013791600591620004c5565b5082516200014d906007906020860190620004c5565b5060a08290526009919091556000805460028054600160501b600160f01b0319166801000000000000000083046001600160a01b03166a0100000000000000000000021790556001600160401b0319166001600160401b0390921691909117905550506001600e55600f805460ff19169055620001d1620001cb3390565b62000252565b601780546001600160a01b0319166001600160a01b038616179055825162000201906016906020860190620004c5565b5062000220620002196011546001600160a01b031690565b83620002a4565b601580546001600160401b0319166001600160401b0383161790556200024860003362000314565b5050505062000718565b601180546001600160a01b038381166001600160a01b0319831681179093556040519116919082907f8be0079c531659141344cd1fd0a4f28419497f9722a3daafe3b4186f6b6457e090600090a35050565b6011546001600160a01b03163314620003045760405162461bcd60e51b815260206004820181905260248201527f4f776e61626c653a2063616c6c6572206973206e6f7420746865206f776e657260448201526064015b60405180910390fd5b62000310828262000320565b5050565b62000310828262000421565b6127106001600160601b0382161115620003905760405162461bcd60e51b815260206004820152602a60248201527f455243323938313a20726f79616c7479206665652077696c6c206578636565646044820152692073616c65507269636560b01b6064820152608401620002fb565b6001600160a01b038216620003e85760405162461bcd60e51b815260206004820152601960248201527f455243323938313a20696e76616c6964207265636569766572000000000000006044820152606401620002fb565b604080518082019091526001600160a01b039092168083526001600160601b039091166020909201829052600160a01b90910217601255565b60008281526010602090815260408083206001600160a01b038516845290915290205460ff16620003105760008281526010602090815260408083206001600160a01b03851684529091529020805460ff19166001179055620004813390565b6001600160a01b0316816001600160a01b0316837f2f8788117e7eff1d82e926ec794901d17c78024a50270940304540a733656f0d60405160405180910390a45050565b828054620004d390620006c5565b90600052602060002090601f016020900481019282620004f7576000855562000542565b82601f106200051257805160ff191683800117855562000542565b8280016001018555821562000542579182015b828111156200054257825182559160200191906001019062000525565b506200055092915062000554565b5090565b5b8082111562000550576000815560010162000555565b80516001600160401b03811681146200058357600080fd5b919050565b80516001600160601b03811681146200058357600080fd5b60008060008060808587031215620005b757600080fd5b84516001600160a01b0381168114620005cf57600080fd5b602086810151919550906001600160401b0380821115620005ef57600080fd5b818801915088601f8301126200060457600080fd5b81518181111562000619576200061962000702565b604051601f8201601f19908116603f0116810190838211818310171562000644576200064462000702565b816040528281528b868487010111156200065d57600080fd5b600093505b8284101562000681578484018601518185018701529285019262000662565b82841115620006935760008684830101525b809850505050505050620006aa6040860162000588565b9150620006ba606086016200056b565b905092959194509250565b600181811c90821680620006da57607f821691505b60208210811415620006fc57634e487b7160e01b600052602260045260246000fd5b50919050565b634e487b7160e01b600052604160045260246000fd5b60805160601c60a05161367a6200074f6000396000818161077d0152610d24015260008181610d5d0152610d9f015261367a6000f3fe60806040526004361061026a5760003560e01c8063634252dc11610144578063b88d4fde116100b6578063d547cfb71161007a578063d547cfb714610759578063d5abeb011461076e578063e5a6b10f146107a1578063e985e9c5146107c1578063f24186271461080a578063f2fde38b1461082a57600080fd5b8063b88d4fde146106cf578063c6682862146106ef578063c87b56dd14610704578063cd3293de14610724578063d547741f1461073957600080fd5b80638da5cb5b116101085780638da5cb5b1461061f57806391d148541461063d57806395d89b411461065d5780639918e7d114610672578063a217fddf1461069a578063a22cb465146106af57600080fd5b8063634252dc146105815780636352211e146105b557806370a08231146105d5578063715018a6146105f55780638456cb591461060a57600080fd5b80632a55205a116101dd5780633f4ba83a116101a15780633f4ba83a146104de57806342842e0e146104f357806342966c681461051357806355f804b31461053357806359a755f9146105535780635c975abb1461056957600080fd5b80632a55205a1461042a5780632f2ff15d1461046957806336568abe146104895780633ccfd60b146104a95780633e2831fe146104be57600080fd5b8063095ea7b31161022f578063095ea7b31461034a578063156e29f61461036a57806318160ddd146103975780631fe543e3146103ba57806323b872dd146103da578063248a9ca3146103fa57600080fd5b806207a6e71461027957806301ffc9a71461029b57806302fa7c47146102d057806306fdde03146102f0578063081812fc1461031257600080fd5b3661027457600080fd5b600080fd5b34801561028557600080fd5b50610299610294366004612e83565b61084a565b005b3480156102a757600080fd5b506102bb6102b6366004612f32565b610892565b60405190151581526020015b60405180910390f35b3480156102dc57600080fd5b506102996102eb366004612df2565b6108a3565b3480156102fc57600080fd5b506103056108e4565b6040516102c7919061331a565b34801561031e57600080fd5b5061033261032d366004612e47565b610976565b6040516001600160a01b0390911681526020016102c7565b34801561035657600080fd5b50610299610365366004612d95565b610a0b565b34801561037657600080fd5b5061038a610385366004612dbf565b610b21565b6040516102c79190613307565b3480156103a357600080fd5b506103ac610d1d565b6040519081526020016102c7565b3480156103c657600080fd5b506102996103d5366004612fcd565b610d52565b3480156103e657600080fd5b506102996103f5366004612ca7565b610dd6565b34801561040657600080fd5b506103ac610415366004612e47565b60009081526010602052604090206001015490565b34801561043657600080fd5b5061044a610445366004613060565b610e08565b604080516001600160a01b0390931683526020830191909152016102c7565b34801561047557600080fd5b50610299610484366004612e60565b610eb4565b34801561049557600080fd5b506102996104a4366004612e60565b610ed9565b3480156104b557600080fd5b50610299610f53565b3480156104ca57600080fd5b506102996104d9366004613082565b611033565b3480156104ea57600080fd5b50610299611080565b3480156104ff57600080fd5b5061029961050e366004612ca7565b6110b4565b34801561051f57600080fd5b5061029961052e366004612e47565b6110cf565b34801561053f57600080fd5b5061029961054e366004612f6c565b611143565b34801561055f57600080fd5b506103ac60185481565b34801561057557600080fd5b50600f5460ff166102bb565b34801561058d57600080fd5b506103ac7ff1b411d6abb365480ac902cc153c45e9ded5847a2265ce6d01945d253edb6bc781565b3480156105c157600080fd5b506103326105d0366004612e47565b611180565b3480156105e157600080fd5b506103ac6105f0366004612c59565b6111f7565b34801561060157600080fd5b5061029961127e565b34801561061657600080fd5b506102996112b2565b34801561062b57600080fd5b506011546001600160a01b0316610332565b34801561064957600080fd5b506102bb610658366004612e60565b6112e4565b34801561066957600080fd5b5061030561130f565b34801561067e57600080fd5b506015546040516001600160401b0390911681526020016102c7565b3480156106a657600080fd5b506103ac600081565b3480156106bb57600080fd5b506102996106ca366004612d5e565b61131e565b3480156106db57600080fd5b506102996106ea366004612ce3565b611329565b3480156106fb57600080fd5b5061030561135b565b34801561071057600080fd5b5061030561071f366004612e47565b6113e9565b34801561073057600080fd5b506102996114c7565b34801561074557600080fd5b50610299610754366004612e60565b611520565b34801561076557600080fd5b50610305611545565b34801561077a57600080fd5b507f00000000000000000000000000000000000000000000000000000000000000006103ac565b3480156107ad57600080fd5b50601754610332906001600160a01b031681565b3480156107cd57600080fd5b506102bb6107dc366004612c74565b6001600160a01b039182166000908152600d6020908152604080832093909416825291909152205460ff1690565b34801561081657600080fd5b506103ac610825366004612e47565b611552565b34801561083657600080fd5b50610299610845366004612c59565b611573565b805160005b8181101561088c5761087a8484838151811061086d5761086d6135f4565b6020026020010151610eb4565b8061088481613583565b91505061084f565b50505050565b600061089d8261160b565b92915050565b6011546001600160a01b031633146108d65760405162461bcd60e51b81526004016108cd906133ca565b60405180910390fd5b6108e08282611630565b5050565b6060600580546108f390613548565b80601f016020809104026020016040519081016040528092919081815260200182805461091f90613548565b801561096c5780601f106109415761010080835404028352916020019161096c565b820191906000526020600020905b81548152906001019060200180831161094f57829003601f168201915b5050505050905090565b6000818152600a60205260408120546001600160a01b03166109ef5760405162461bcd60e51b815260206004820152602c60248201527f4552433732313a20617070726f76656420717565727920666f72206e6f6e657860448201526b34b9ba32b73a103a37b5b2b760a11b60648201526084016108cd565b506000908152600c60205260409020546001600160a01b031690565b6000610a1682611180565b9050806001600160a01b0316836001600160a01b03161415610a845760405162461bcd60e51b815260206004820152602160248201527f4552433732313a20617070726f76616c20746f2063757272656e74206f776e656044820152603960f91b60648201526084016108cd565b336001600160a01b0382161480610aa05750610aa081336107dc565b610b125760405162461bcd60e51b815260206004820152603860248201527f4552433732313a20617070726f76652063616c6c6572206973206e6f74206f7760448201527f6e6572206e6f7220617070726f76656420666f7220616c6c000000000000000060648201526084016108cd565b610b1c838361172d565b505050565b60606002600e541415610b765760405162461bcd60e51b815260206004820152601f60248201527f5265656e7472616e637947756172643a207265656e7472616e742063616c6c0060448201526064016108cd565b6002600e55600f5460ff1615610bc15760405162461bcd60e51b815260206004820152601060248201526f14185d5cd8589b194e881c185d5cd95960821b60448201526064016108cd565b7ff1b411d6abb365480ac902cc153c45e9ded5847a2265ce6d01945d253edb6bc7610beb8161179b565b6000610bf660145490565b90506000856001600160401b03811115610c1257610c1261360a565b604051908082528060200260200182016040528015610c3b578160200160208202803683370190505b50905085815114610c4e57610c4e6135b2565b60008611610c5b57600080fd5b601854821115610cad5760405162461bcd60e51b815260206004820152601860248201527f4e616b6150756e6b2e736f6c3a204d6178206c696d69742e000000000000000060448201526064016108cd565b601754610cc5906001600160a01b03168830886117a5565b610ccf8787611810565b90507fa1f137c5ae158726e83083553b9082ce64d0180e2e71939290985b94816211d387878784604051610d0694939291906132da565b60405180910390a16001600e559695505050505050565b60006009547f0000000000000000000000000000000000000000000000000000000000000000610d4d91906134ee565b905090565b336001600160a01b037f00000000000000000000000000000000000000000000000000000000000000001614610dcc5760405163073e64fd60e21b81523360048201526001600160a01b037f00000000000000000000000000000000000000000000000000000000000000001660248201526044016108cd565b6108e08282611a7a565b610de1335b82611a8d565b610dfd5760405162461bcd60e51b81526004016108cd906133ff565b610b1c838383611b84565b60008281526013602090815260408083208151808301909252546001600160a01b038116808352600160a01b9091046001600160601b0316928201929092528291610e7d5750604080518082019091526012546001600160a01b0381168252600160a01b90046001600160601b031660208201525b602081015160009061271090610e9c906001600160601b0316876134cf565b610ea691906134bb565b915196919550909350505050565b600082815260106020526040902060010154610ecf8161179b565b610b1c8383611d20565b6001600160a01b0381163314610f495760405162461bcd60e51b815260206004820152602f60248201527f416363657373436f6e74726f6c3a2063616e206f6e6c792072656e6f756e636560448201526e103937b632b9903337b91039b2b63360891b60648201526084016108cd565b6108e08282611da6565b6011546001600160a01b03163314610f7d5760405162461bcd60e51b81526004016108cd906133ca565b6017546040516370a0823160e01b81523060048201526000916001600160a01b0316906370a082319060240160206040518083038186803b158015610fc157600080fd5b505afa158015610fd5573d6000803e3d6000fd5b505050506040513d601f19601f82011682018060405250810190610ff99190612fb4565b90506000811161100857600080fd5b61103061101d6011546001600160a01b031690565b6017546001600160a01b03169083611e0d565b50565b6011546001600160a01b0316331461105d5760405162461bcd60e51b81526004016108cd906133ca565b6015805467ffffffffffffffff19166001600160401b0392909216919091179055565b6011546001600160a01b031633146110aa5760405162461bcd60e51b81526004016108cd906133ca565b6110b2611e3d565b565b610b1c83838360405180602001604052806000815250611329565b6110d833610ddb565b61113a5760405162461bcd60e51b815260206004820152602d60248201527f4552433732313a2063616c6c6572206973206e6f7420746f6b656e206f776e6560448201526c1c881bdc88185c1c1c9bdd9959609a1b60648201526084016108cd565b61103081611ed0565b6011546001600160a01b0316331461116d5760405162461bcd60e51b81526004016108cd906133ca565b80516108e0906016906020840190612b13565b6000818152600a60205260408120546001600160a01b03168061089d5760405162461bcd60e51b815260206004820152602960248201527f4552433732313a206f776e657220717565727920666f72206e6f6e657869737460448201526832b73a103a37b5b2b760b91b60648201526084016108cd565b60006001600160a01b0382166112625760405162461bcd60e51b815260206004820152602a60248201527f4552433732313a2062616c616e636520717565727920666f7220746865207a65604482015269726f206164647265737360b01b60648201526084016108cd565b506001600160a01b03166000908152600b602052604090205490565b6011546001600160a01b031633146112a85760405162461bcd60e51b81526004016108cd906133ca565b6110b26000611f65565b6011546001600160a01b031633146112dc5760405162461bcd60e51b81526004016108cd906133ca565b6110b2611fb7565b60009182526010602090815260408084206001600160a01b0393909316845291905290205460ff1690565b6060600780546108f390613548565b6108e0338383612032565b6113333383611a8d565b61134f5760405162461bcd60e51b81526004016108cd906133ff565b61088c84848484612101565b6006805461136890613548565b80601f016020809104026020016040519081016040528092919081815260200182805461139490613548565b80156113e15780601f106113b6576101008083540402835291602001916113e1565b820191906000526020600020905b8154815290600101906020018083116113c457829003601f168201915b505050505081565b6000818152600a60205260409020546060906001600160a01b03166114685760405162461bcd60e51b815260206004820152602f60248201527f4552433732314d657461646174613a2055524920717565727920666f72206e6f60448201526e3732bc34b9ba32b73a103a37b5b2b760891b60648201526084016108cd565b6000611472612134565b9050600081511161149257604051806020016040528060008152506114c0565b8061149c84612143565b60066040516020016114b093929190613164565b6040516020818303038152906040525b9392505050565b7ff1b411d6abb365480ac902cc153c45e9ded5847a2265ce6d01945d253edb6bc76114f18161179b565b60055b80156108e05761150e336115096001846134ee565b612240565b8061151881613531565b9150506114f4565b60008281526010602052604090206001015461153b8161179b565b610b1c8383611da6565b6016805461136890613548565b6004818154811061156257600080fd5b600091825260209091200154905081565b6011546001600160a01b0316331461159d5760405162461bcd60e51b81526004016108cd906133ca565b6001600160a01b0381166116025760405162461bcd60e51b815260206004820152602660248201527f4f776e61626c653a206e6577206f776e657220697320746865207a65726f206160448201526564647265737360d01b60648201526084016108cd565b61103081611f65565b60006001600160e01b0319821663152a902d60e11b148061089d575061089d82612361565b6127106001600160601b038216111561169e5760405162461bcd60e51b815260206004820152602a60248201527f455243323938313a20726f79616c7479206665652077696c6c206578636565646044820152692073616c65507269636560b01b60648201526084016108cd565b6001600160a01b0382166116f45760405162461bcd60e51b815260206004820152601960248201527f455243323938313a20696e76616c69642072656365697665720000000000000060448201526064016108cd565b604080518082019091526001600160a01b039092168083526001600160601b039091166020909201829052600160a01b90910217601255565b6000818152600c6020526040902080546001600160a01b0319166001600160a01b038416908117909155819061176282611180565b6001600160a01b03167f8c5be1e5ebec7d5bd14f71427d1e84f3dd0314c0f7b2291e5b200ac8c7c3b92560405160405180910390a45050565b6110308133612386565b6040516001600160a01b038085166024830152831660448201526064810182905261088c9085906323b872dd60e01b906084015b60408051601f198184030181529190526020810180516001600160e01b03166001600160e01b0319909316929092179091526123ea565b60606000826001600160401b0381111561182c5761182c61360a565b604051908082528060200260200182016040528015611855578160200160208202803683370190505b50905082815114611868576118686135b2565b3332146118af5760405162461bcd60e51b815260206004820152601560248201527410dbdb9d1c9858dd1cc818d85b9b9bdd081b5a5b9d605a1b60448201526064016108cd565b6001600160a01b0384166119055760405162461bcd60e51b815260206004820181905260248201527f4552433732313a206d696e7420746f20746865207a65726f206164647265737360448201526064016108cd565b600083116119665760405162461bcd60e51b815260206004820152602860248201527f455243373231723a206e65656420746f206d696e74206174206c65617374206f6044820152673732903a37b5b2b760c11b60648201526084016108cd565b8260095410156119885760405162461bcd60e51b81526004016108cd9061337f565b60095460005b848110156119ee5760006119a287846124bc565b905060006119b08883612628565b9050808584815181106119c5576119c56135f4565b60209081029190910101526119d984613531565b93505050806119e790613583565b905061198e565b5060098190556001600160a01b0385166000908152600b602052604081208054869290611a1c9084906134a3565b9091555050604051611a2f908390613112565b6040519081900381206001600160a01b0387168252907f5f2f01c51433fe722a61274b6717b81cc321ff7fd12eb4d24e5aa1e16266d6419060200160405180910390a2509392505050565b8051610b1c906004906020840190612b97565b6000818152600a60205260408120546001600160a01b0316611b065760405162461bcd60e51b815260206004820152602c60248201527f4552433732313a206f70657261746f7220717565727920666f72206e6f6e657860448201526b34b9ba32b73a103a37b5b2b760a11b60648201526084016108cd565b6000611b1183611180565b9050806001600160a01b0316846001600160a01b03161480611b4c5750836001600160a01b0316611b4184610976565b6001600160a01b0316145b80611b7c57506001600160a01b038082166000908152600d602090815260408083209388168352929052205460ff165b949350505050565b826001600160a01b0316611b9782611180565b6001600160a01b031614611bfb5760405162461bcd60e51b815260206004820152602560248201527f4552433732313a207472616e736665722066726f6d20696e636f72726563742060448201526437bbb732b960d91b60648201526084016108cd565b6001600160a01b038216611c5d5760405162461bcd60e51b8152602060048201526024808201527f4552433732313a207472616e7366657220746f20746865207a65726f206164646044820152637265737360e01b60648201526084016108cd565b611c6860008261172d565b6001600160a01b0383166000908152600b60205260408120805460019290611c919084906134ee565b90915550506001600160a01b0382166000908152600b60205260408120805460019290611cbf9084906134a3565b90915550506000818152600a602052604080822080546001600160a01b0319166001600160a01b0386811691821790925591518493918716917fddf252ad1be2c89b69c2b068fc378daa952ba7f163c4a11628f55a4df523b3ef91a4505050565b611d2a82826112e4565b6108e05760008281526010602090815260408083206001600160a01b03851684529091529020805460ff19166001179055611d623390565b6001600160a01b0316816001600160a01b0316837f2f8788117e7eff1d82e926ec794901d17c78024a50270940304540a733656f0d60405160405180910390a45050565b611db082826112e4565b156108e05760008281526010602090815260408083206001600160a01b0385168085529252808320805460ff1916905551339285917ff6391f5c32d9c69d2a47ea670b442974b53935d1edc7fd64eb21e047a839171b9190a45050565b6040516001600160a01b038316602482015260448101829052610b1c90849063a9059cbb60e01b906064016117d9565b600f5460ff16611e865760405162461bcd60e51b815260206004820152601460248201527314185d5cd8589b194e881b9bdd081c185d5cd95960621b60448201526064016108cd565b600f805460ff191690557f5db9ee0a495bf2e6ff9c91a7834c1ba4fdd244a5e8aa4e537bd38aeae4b073aa335b6040516001600160a01b03909116815260200160405180910390a1565b6000611edb82611180565b9050611ee682611180565b6000838152600c6020908152604080832080546001600160a01b03199081169091556001600160a01b038516808552600b84528285208054600019019055878552600a909352818420805490911690555192935084927fddf252ad1be2c89b69c2b068fc378daa952ba7f163c4a11628f55a4df523b3ef908390a45050565b601180546001600160a01b038381166001600160a01b0319831681179093556040519116919082907f8be0079c531659141344cd1fd0a4f28419497f9722a3daafe3b4186f6b6457e090600090a35050565b600f5460ff1615611ffd5760405162461bcd60e51b815260206004820152601060248201526f14185d5cd8589b194e881c185d5cd95960821b60448201526064016108cd565b600f805460ff191660011790557f62e78cea01bee320cd4e420270b5ea74000d11b0c9f74754ebdbfc544b05a258611eb33390565b816001600160a01b0316836001600160a01b031614156120945760405162461bcd60e51b815260206004820152601960248201527f4552433732313a20617070726f766520746f2063616c6c65720000000000000060448201526064016108cd565b6001600160a01b038381166000818152600d6020908152604080832094871680845294825291829020805460ff191686151590811790915591519182527f17307eab39ab6107e8899845ad3d59bd9653f200f220920489ca2b5937696c31910160405180910390a3505050565b61210c848484611b84565b61211884848484612684565b61088c5760405162461bcd60e51b81526004016108cd9061332d565b6060601680546108f390613548565b6060816121675750506040805180820190915260018152600360fc1b602082015290565b8160005b8115612191578061217b81613583565b915061218a9050600a836134bb565b915061216b565b6000816001600160401b038111156121ab576121ab61360a565b6040519080825280601f01601f1916602001820160405280156121d5576020820181803683370190505b5090505b8415611b7c576121ea6001836134ee565b91506121f7600a8661359e565b6122029060306134a3565b60f81b818381518110612217576122176135f4565b60200101906001600160f81b031916908160001a905350612239600a866134bb565b94506121d9565b3332146122875760405162461bcd60e51b815260206004820152601560248201527410dbdb9d1c9858dd1cc818d85b9b9bdd081b5a5b9d605a1b60448201526064016108cd565b6001600160a01b0382166122dd5760405162461bcd60e51b815260206004820181905260248201527f4552433732313a206d696e7420746f20746865207a65726f206164647265737360448201526064016108cd565b600160095410156123005760405162461bcd60e51b81526004016108cd9061337f565b600061230e82600954612791565b905060096000815461231f90613531565b9091555061232d8382612628565b506001600160a01b0383166000908152600b602052604081208054600192906123579084906134a3565b9091555050505050565b60006001600160e01b03198216637965db0b60e01b148061089d575061089d82612814565b61239082826112e4565b6108e0576123a8816001600160a01b03166014612864565b6123b3836020612864565b6040516020016123c4929190613228565b60408051601f198184030181529082905262461bcd60e51b82526108cd9160040161331a565b600061243f826040518060400160405280602081526020017f5361666545524332303a206c6f772d6c6576656c2063616c6c206661696c6564815250856001600160a01b03166129ff9092919063ffffffff16565b805190915015610b1c578080602001905181019061245d9190612e2a565b610b1c5760405162461bcd60e51b815260206004820152602a60248201527f5361666545524332303a204552433230206f7065726174696f6e20646964206e6044820152691bdd081cdd58d8d9595960b21b60648201526084016108cd565b600254600154600080546040516305d3b1d360e41b815260048101939093526001600160401b03166024830152640100000000830461ffff16604483015263ffffffff80841660648401526601000000000000840416608483015291600160501b90046001600160a01b031690635d3b1d309060a401602060405180830381600087803b15801561254c57600080fd5b505af1158015612560573d6000803e3d6000fd5b505050506040513d601f19601f820116820180604052508101906125849190612fb4565b6003819055600090843a43424461259c6001846134ee565b6040805160208101989098526001600160a01b03909616958701959095526060860193909352608085019190915260a084015260c08301524060e08201523061010082015261012081018490526101400160408051601f19818403018152919052805160209091012090506000612613848361359e565b905061261f8185612791565b95945050505050565b600080828152600a602052604080822080546001600160a01b0319166001600160a01b03871690811790915590518492907fddf252ad1be2c89b69c2b068fc378daa952ba7f163c4a11628f55a4df523b3ef908290a450919050565b60006001600160a01b0384163b1561278657604051630a85bd0160e11b81526001600160a01b0385169063150b7a02906126c890339089908890889060040161329d565b602060405180830381600087803b1580156126e257600080fd5b505af1925050508015612712575060408051601f3d908101601f1916820190925261270f91810190612f4f565b60015b61276c573d808015612740576040519150601f19603f3d011682016040523d82523d6000602084013e612745565b606091505b5080516127645760405162461bcd60e51b81526004016108cd9061332d565b805181602001fd5b6001600160e01b031916630a85bd0160e11b149050611b7c565b506001949350505050565b60008281526008602052604081205481816127ad5750836127b0565b50805b60006127bd6001866134ee565b905080861461280b57600081815260086020526040902054806127f0576000878152600860205260409020829055612809565b6000878152600860205260408082208390558382528120555b505b50949350505050565b60006001600160e01b031982166380ac58cd60e01b148061284557506001600160e01b03198216635b5e139f60e01b145b8061089d57506301ffc9a760e01b6001600160e01b031983161461089d565b606060006128738360026134cf565b61287e9060026134a3565b6001600160401b038111156128955761289561360a565b6040519080825280601f01601f1916602001820160405280156128bf576020820181803683370190505b509050600360fc1b816000815181106128da576128da6135f4565b60200101906001600160f81b031916908160001a905350600f60fb1b81600181518110612909576129096135f4565b60200101906001600160f81b031916908160001a905350600061292d8460026134cf565b6129389060016134a3565b90505b60018111156129b0576f181899199a1a9b1b9c1cb0b131b232b360811b85600f166010811061296c5761296c6135f4565b1a60f81b828281518110612982576129826135f4565b60200101906001600160f81b031916908160001a90535060049490941c936129a981613531565b905061293b565b5083156114c05760405162461bcd60e51b815260206004820181905260248201527f537472696e67733a20686578206c656e67746820696e73756666696369656e7460448201526064016108cd565b6060611b7c8484600085856001600160a01b0385163b612a615760405162461bcd60e51b815260206004820152601d60248201527f416464726573733a2063616c6c20746f206e6f6e2d636f6e747261637400000060448201526064016108cd565b600080866001600160a01b03168587604051612a7d9190613148565b60006040518083038185875af1925050503d8060008114612aba576040519150601f19603f3d011682016040523d82523d6000602084013e612abf565b606091505b5091509150612acf828286612ada565b979650505050505050565b60608315612ae95750816114c0565b825115612af95782518084602001fd5b8160405162461bcd60e51b81526004016108cd919061331a565b828054612b1f90613548565b90600052602060002090601f016020900481019282612b415760008555612b87565b82601f10612b5a57805160ff1916838001178555612b87565b82800160010185558215612b87579182015b82811115612b87578251825591602001919060010190612b6c565b50612b93929150612bd1565b5090565b828054828255906000526020600020908101928215612b875791602002820182811115612b87578251825591602001919060010190612b6c565b5b80821115612b935760008155600101612bd2565b60006001600160401b03831115612bff57612bff61360a565b612c12601f8401601f1916602001613450565b9050828152838383011115612c2657600080fd5b828260208301376000602084830101529392505050565b80356001600160a01b0381168114612c5457600080fd5b919050565b600060208284031215612c6b57600080fd5b6114c082612c3d565b60008060408385031215612c8757600080fd5b612c9083612c3d565b9150612c9e60208401612c3d565b90509250929050565b600080600060608486031215612cbc57600080fd5b612cc584612c3d565b9250612cd360208501612c3d565b9150604084013590509250925092565b60008060008060808587031215612cf957600080fd5b612d0285612c3d565b9350612d1060208601612c3d565b92506040850135915060608501356001600160401b03811115612d3257600080fd5b8501601f81018713612d4357600080fd5b612d5287823560208401612be6565b91505092959194509250565b60008060408385031215612d7157600080fd5b612d7a83612c3d565b91506020830135612d8a81613620565b809150509250929050565b60008060408385031215612da857600080fd5b612db183612c3d565b946020939093013593505050565b600080600060608486031215612dd457600080fd5b612ddd84612c3d565b95602085013595506040909401359392505050565b60008060408385031215612e0557600080fd5b612e0e83612c3d565b915060208301356001600160601b0381168114612d8a57600080fd5b600060208284031215612e3c57600080fd5b81516114c081613620565b600060208284031215612e5957600080fd5b5035919050565b60008060408385031215612e7357600080fd5b82359150612c9e60208401612c3d565b60008060408385031215612e9657600080fd5b823591506020808401356001600160401b03811115612eb457600080fd5b8401601f81018613612ec557600080fd5b8035612ed8612ed382613480565b613450565b80828252848201915084840189868560051b8701011115612ef857600080fd5b600094505b83851015612f2257612f0e81612c3d565b835260019490940193918501918501612efd565b5080955050505050509250929050565b600060208284031215612f4457600080fd5b81356114c08161362e565b600060208284031215612f6157600080fd5b81516114c08161362e565b600060208284031215612f7e57600080fd5b81356001600160401b03811115612f9457600080fd5b8201601f81018413612fa557600080fd5b611b7c84823560208401612be6565b600060208284031215612fc657600080fd5b5051919050565b60008060408385031215612fe057600080fd5b823591506020808401356001600160401b03811115612ffe57600080fd5b8401601f8101861361300f57600080fd5b803561301d612ed382613480565b80828252848201915084840189868560051b870101111561303d57600080fd5b600094505b83851015612f22578035835260019490940193918501918501613042565b6000806040838503121561307357600080fd5b50508035926020909101359150565b60006020828403121561309457600080fd5b81356001600160401b03811681146114c057600080fd5b600081518084526020808501945080840160005b838110156130db578151875295820195908201906001016130bf565b509495945050505050565b600081518084526130fe816020860160208601613505565b601f01601f19169290920160200192915050565b815160009082906020808601845b8381101561313c57815185529382019390820190600101613120565b50929695505050505050565b6000825161315a818460208701613505565b9190910192915050565b6000845160206131778285838a01613505565b85519184019161318a8184848a01613505565b8554920191600090600181811c90808316806131a757607f831692505b8583108114156131c557634e487b7160e01b85526022600452602485fd5b8080156131d957600181146131ea57613217565b60ff19851688528388019550613217565b60008b81526020902060005b8581101561320f5781548a8201529084019088016131f6565b505083880195505b50939b9a5050505050505050505050565b7f416363657373436f6e74726f6c3a206163636f756e7420000000000000000000815260008351613260816017850160208801613505565b7001034b99036b4b9b9b4b733903937b6329607d1b6017918401918201528351613291816028840160208801613505565b01602801949350505050565b6001600160a01b03858116825284166020820152604081018390526080606082018190526000906132d0908301846130e6565b9695505050505050565b60018060a01b03851681528360208201528260408201526080606082015260006132d060808301846130ab565b6020815260006114c060208301846130ab565b6020815260006114c060208301846130e6565b60208082526032908201527f4552433732313a207472616e7366657220746f206e6f6e20455243373231526560408201527131b2b4bb32b91034b6b83632b6b2b73a32b960711b606082015260800190565b6020808252602b908201527f455243373231723a206d696e74696e67206d6f726520746f6b656e732074686160408201526a6e20617661696c61626c6560a81b606082015260800190565b6020808252818101527f4f776e61626c653a2063616c6c6572206973206e6f7420746865206f776e6572604082015260600190565b60208082526031908201527f4552433732313a207472616e736665722063616c6c6572206973206e6f74206f6040820152701ddb995c881b9bdc88185c1c1c9bdd9959607a1b606082015260800190565b604051601f8201601f191681016001600160401b03811182821017156134785761347861360a565b604052919050565b60006001600160401b038211156134995761349961360a565b5060051b60200190565b600082198211156134b6576134b66135c8565b500190565b6000826134ca576134ca6135de565b500490565b60008160001904831182151516156134e9576134e96135c8565b500290565b600082821015613500576135006135c8565b500390565b60005b83811015613520578181015183820152602001613508565b8381111561088c5750506000910152565b600081613540576135406135c8565b506000190190565b600181811c9082168061355c57607f821691505b6020821081141561357d57634e487b7160e01b600052602260045260246000fd5b50919050565b6000600019821415613597576135976135c8565b5060010190565b6000826135ad576135ad6135de565b500690565b634e487b7160e01b600052600160045260246000fd5b634e487b7160e01b600052601160045260246000fd5b634e487b7160e01b600052601260045260246000fd5b634e487b7160e01b600052603260045260246000fd5b634e487b7160e01b600052604160045260246000fd5b801515811461103057600080fd5b6001600160e01b03198116811461103057600080fdfea2646970667358221220c85e4ad412a900a77f40f847f36edc398bd65b0d5337493fe699e77327b8840f64736f6c63430008070033",
  "linkReferences": {},
  "deployedLinkReferences": {}
}