{
  "_format": "hh-sol-artifact-1",
  "contractName": "Payment",
  "sourceName": "contracts/Payment.sol",
  "abi": [
    {
      "inputs": [],
      "stateMutability": "nonpayable",
      "type": "constructor"
    },
    {
      "anonymous": false,
      "inputs": [
        {
          "indexed": false,
          "internalType": "bytes32",
          "name": "BillId",
          "type": "bytes32"
        },
        {
          "indexed": false,
          "internalType": "address",
          "name": "TokenAddress",
          "type": "address"
        },
        {
          "indexed": false,
          "internalType": "address",
          "name": "UserAddress",
          "type": "address"
        },
        {
          "indexed": false,
          "internalType": "uint256",
          "name": "Amount",
          "type": "uint256"
        }
      ],
      "name": "ExecutePayment",
      "type": "event"
    },
    {
      "anonymous": false,
      "inputs": [
        {
          "indexed": true,
          "internalType": "address",
          "name": "previousOwner",
          "type": "address"
        },
        {
          "indexed": true,
          "internalType": "address",
          "name": "newOwner",
          "type": "address"
        }
      ],
      "name": "OwnershipTransferred",
      "type": "event"
    },
    {
      "anonymous": false,
      "inputs": [
        {
          "indexed": false,
          "internalType": "address",
          "name": "account",
          "type": "address"
        }
      ],
      "name": "Paused",
      "type": "event"
    },
    {
      "anonymous": false,
      "inputs": [
        {
          "indexed": false,
          "internalType": "bytes32",
          "name": "BillId",
          "type": "bytes32"
        },
        {
          "indexed": false,
          "internalType": "address",
          "name": "TokenAddress",
          "type": "address"
        },
        {
          "indexed": false,
          "internalType": "address",
          "name": "UserAddress",
          "type": "address"
        },
        {
          "indexed": false,
          "internalType": "uint256",
          "name": "Amount",
          "type": "uint256"
        }
      ],
      "name": "Refund",
      "type": "event"
    },
    {
      "anonymous": false,
      "inputs": [
        {
          "indexed": true,
          "internalType": "bytes32",
          "name": "role",
          "type": "bytes32"
        },
        {
          "indexed": true,
          "internalType": "bytes32",
          "name": "previousAdminRole",
          "type": "bytes32"
        },
        {
          "indexed": true,
          "internalType": "bytes32",
          "name": "newAdminRole",
          "type": "bytes32"
        }
      ],
      "name": "RoleAdminChanged",
      "type": "event"
    },
    {
      "anonymous": false,
      "inputs": [
        {
          "indexed": true,
          "internalType": "bytes32",
          "name": "role",
          "type": "bytes32"
        },
        {
          "indexed": true,
          "internalType": "address",
          "name": "account",
          "type": "address"
        },
        {
          "indexed": true,
          "internalType": "address",
          "name": "sender",
          "type": "address"
        }
      ],
      "name": "RoleGranted",
      "type": "event"
    },
    {
      "anonymous": false,
      "inputs": [
        {
          "indexed": true,
          "internalType": "bytes32",
          "name": "role",
          "type": "bytes32"
        },
        {
          "indexed": true,
          "internalType": "address",
          "name": "account",
          "type": "address"
        },
        {
          "indexed": true,
          "internalType": "address",
          "name": "sender",
          "type": "address"
        }
      ],
      "name": "RoleRevoked",
      "type": "event"
    },
    {
      "anonymous": false,
      "inputs": [
        {
          "indexed": false,
          "internalType": "address",
          "name": "account",
          "type": "address"
        }
      ],
      "name": "Unpaused",
      "type": "event"
    },
    {
      "anonymous": false,
      "inputs": [
        {
          "indexed": false,
          "internalType": "address",
          "name": "TokenAddress",
          "type": "address"
        },
        {
          "indexed": false,
          "internalType": "uint256",
          "name": "Amount",
          "type": "uint256"
        }
      ],
      "name": "Withdraw",
      "type": "event"
    },
    {
      "inputs": [
        {
          "internalType": "bytes32",
          "name": "",
          "type": "bytes32"
        }
      ],
      "name": "Bills",
      "outputs": [
        {
          "internalType": "bytes32",
          "name": "billId",
          "type": "bytes32"
        },
        {
          "internalType": "address",
          "name": "tokenAddress",
          "type": "address"
        },
        {
          "internalType": "address",
          "name": "userAddress",
          "type": "address"
        },
        {
          "internalType": "uint256",
          "name": "amount",
          "type": "uint256"
        }
      ],
      "stateMutability": "view",
      "type": "function"
    },
    {
      "inputs": [],
      "name": "DEFAULT_ADMIN_ROLE",
      "outputs": [
        {
          "internalType": "bytes32",
          "name": "",
          "type": "bytes32"
        }
      ],
      "stateMutability": "view",
      "type": "function"
    },
    {
      "inputs": [],
      "name": "WORKER_ROLE",
      "outputs": [
        {
          "internalType": "bytes32",
          "name": "",
          "type": "bytes32"
        }
      ],
      "stateMutability": "view",
      "type": "function"
    },
    {
      "inputs": [
        {
          "internalType": "address",
          "name": "",
          "type": "address"
        }
      ],
      "name": "amountInContract",
      "outputs": [
        {
          "internalType": "uint256",
          "name": "",
          "type": "uint256"
        }
      ],
      "stateMutability": "view",
      "type": "function"
    },
    {
      "inputs": [
        {
          "internalType": "address",
          "name": "_tokenAddress",
          "type": "address"
        },
        {
          "internalType": "address",
          "name": "_userAddress",
          "type": "address"
        },
        {
          "internalType": "uint256",
          "name": "_amount",
          "type": "uint256"
        }
      ],
      "name": "executePayment",
      "outputs": [],
      "stateMutability": "nonpayable",
      "type": "function"
    },
    {
      "inputs": [
        {
          "internalType": "bytes32",
          "name": "role",
          "type": "bytes32"
        }
      ],
      "name": "getRoleAdmin",
      "outputs": [
        {
          "internalType": "bytes32",
          "name": "",
          "type": "bytes32"
        }
      ],
      "stateMutability": "view",
      "type": "function"
    },
    {
      "inputs": [
        {
          "internalType": "bytes32",
          "name": "role",
          "type": "bytes32"
        },
        {
          "internalType": "address",
          "name": "account",
          "type": "address"
        }
      ],
      "name": "grantRole",
      "outputs": [],
      "stateMutability": "nonpayable",
      "type": "function"
    },
    {
      "inputs": [
        {
          "internalType": "bytes32",
          "name": "role",
          "type": "bytes32"
        },
        {
          "internalType": "address",
          "name": "account",
          "type": "address"
        }
      ],
      "name": "hasRole",
      "outputs": [
        {
          "internalType": "bool",
          "name": "",
          "type": "bool"
        }
      ],
      "stateMutability": "view",
      "type": "function"
    },
    {
      "inputs": [
        {
          "internalType": "bytes32",
          "name": "_role",
          "type": "bytes32"
        },
        {
          "internalType": "address[]",
          "name": "_workerAddress",
          "type": "address[]"
        }
      ],
      "name": "multiGrantRole",
      "outputs": [],
      "stateMutability": "nonpayable",
      "type": "function"
    },
    {
      "inputs": [],
      "name": "owner",
      "outputs": [
        {
          "internalType": "address",
          "name": "",
          "type": "address"
        }
      ],
      "stateMutability": "view",
      "type": "function"
    },
    {
      "inputs": [],
      "name": "paused",
      "outputs": [
        {
          "internalType": "bool",
          "name": "",
          "type": "bool"
        }
      ],
      "stateMutability": "view",
      "type": "function"
    },
    {
      "inputs": [
        {
          "internalType": "bytes32",
          "name": "_billId",
          "type": "bytes32"
        }
      ],
      "name": "refund",
      "outputs": [],
      "stateMutability": "nonpayable",
      "type": "function"
    },
    {
      "inputs": [],
      "name": "renounceOwnership",
      "outputs": [],
      "stateMutability": "nonpayable",
      "type": "function"
    },
    {
      "inputs": [
        {
          "internalType": "bytes32",
          "name": "role",
          "type": "bytes32"
        },
        {
          "internalType": "address",
          "name": "account",
          "type": "address"
        }
      ],
      "name": "renounceRole",
      "outputs": [],
      "stateMutability": "nonpayable",
      "type": "function"
    },
    {
      "inputs": [
        {
          "internalType": "bytes32",
          "name": "role",
          "type": "bytes32"
        },
        {
          "internalType": "address",
          "name": "account",
          "type": "address"
        }
      ],
      "name": "revokeRole",
      "outputs": [],
      "stateMutability": "nonpayable",
      "type": "function"
    },
    {
      "inputs": [
        {
          "internalType": "bytes4",
          "name": "interfaceId",
          "type": "bytes4"
        }
      ],
      "name": "supportsInterface",
      "outputs": [
        {
          "internalType": "bool",
          "name": "",
          "type": "bool"
        }
      ],
      "stateMutability": "view",
      "type": "function"
    },
    {
      "inputs": [
        {
          "internalType": "address",
          "name": "newOwner",
          "type": "address"
        }
      ],
      "name": "transferOwnership",
      "outputs": [],
      "stateMutability": "nonpayable",
      "type": "function"
    },
    {
      "inputs": [
        {
          "internalType": "address",
          "name": "tokenAddress",
          "type": "address"
        }
      ],
      "name": "withdraw",
      "outputs": [],
      "stateMutability": "nonpayable",
      "type": "function"
    }
  ],
  "bytecode": "0x608060405234801561001057600080fd5b5060016000819055805460ff1916905561002933610039565b61003460003361008b565b61013b565b600380546001600160a01b038381166001600160a01b0319831681179093556040519116919082907f8be0079c531659141344cd1fd0a4f28419497f9722a3daafe3b4186f6b6457e090600090a35050565b6100958282610099565b5050565b60008281526002602090815260408083206001600160a01b038516845290915290205460ff166100955760008281526002602090815260408083206001600160a01b03851684529091529020805460ff191660011790556100f73390565b6001600160a01b0316816001600160a01b0316837f2f8788117e7eff1d82e926ec794901d17c78024a50270940304540a733656f0d60405160405180910390a45050565b6114c98061014a6000396000f3fe608060405234801561001057600080fd5b50600436106101165760003560e01c8063715018a6116100a257806391d148541161007157806391d148541461025d578063a217fddf14610270578063aa5957da14610278578063d547741f146102ea578063f2fde38b146102fd57600080fd5b8063715018a6146102145780637249fbb61461021c57806389a4b2a21461022f5780638da5cb5b1461024257600080fd5b806334eaf1bd116100e957806334eaf1bd1461019c57806336568abe146101bc57806351cff8d9146101cf5780635c975abb146101e2578063634252dc146101ed57600080fd5b806301ffc9a71461011b57806302ccde5e14610143578063248a9ca3146101585780632f2ff15d14610189575b600080fd5b61012e61012936600461110e565b610310565b60405190151581526020015b60405180910390f35b610156610151366004611154565b610347565b005b61017b610166366004611190565b60009081526002602052604090206001015490565b60405190815260200161013a565b6101566101973660046111a9565b61057b565b61017b6101aa3660046111d5565b60056020526000908152604090205481565b6101566101ca3660046111a9565b6105a5565b6101566101dd3660046111d5565b610623565b60015460ff1661012e565b61017b7ff1b411d6abb365480ac902cc153c45e9ded5847a2265ce6d01945d253edb6bc781565b61015661073a565b61015661022a366004611190565b61074e565b61015661023d366004611206565b610909565b6003546040516001600160a01b03909116815260200161013a565b61012e61026b3660046111a9565b610951565b61017b600081565b6102ba610286366004611190565b600460205260009081526040902080546001820154600283015460039093015491926001600160a01b039182169291169084565b60405161013a94939291909384526001600160a01b03928316602085015291166040830152606082015260800190565b6101566102f83660046111a9565b61097c565b61015661030b3660046111d5565b6109a1565b60006001600160e01b03198216637965db0b60e01b148061034157506301ffc9a760e01b6001600160e01b03198316145b92915050565b61034f610a1a565b7ff1b411d6abb365480ac902cc153c45e9ded5847a2265ce6d01945d253edb6bc761037981610a60565b6040516370a0823160e01b81526001600160a01b0384811660048301528391908616906370a0823190602401602060405180830381865afa1580156103c2573d6000803e3d6000fd5b505050506040513d601f19601f820116820180604052508101906103e691906112d7565b10156104535760405162461bcd60e51b815260206004820152603160248201527f5b5061796d656e742e657865637574655061796d656e745d207061796d656e746044820152701032bc31b2b2b239903130b630b731b29760791b60648201526084015b60405180910390fd5b60408051426020808301919091526bffffffffffffffffffffffff19606088811b82168486015287901b166054830152606880830186905283518084039091018152608890920190925280519101206104b76001600160a01b038616853086610a6a565b60008181526004602090815260408083208481556001810180546001600160a01b03808c166001600160a01b03199283168117909355600284018054918c16919092161790556003820188905584526005909252822080549192869261051e908490611306565b9091555050604080518381526001600160a01b0388811660208301528716818301526060810186905290517f6ee3806790776740c80aafedf33a9ee618ce098ddfb30f1c84f263e73e4bd91b9181900360800190a1505050505050565b60008281526002602052604090206001015461059681610a60565b6105a08383610ad5565b505050565b6001600160a01b03811633146106155760405162461bcd60e51b815260206004820152602f60248201527f416363657373436f6e74726f6c3a2063616e206f6e6c792072656e6f756e636560448201526e103937b632b9903337b91039b2b63360891b606482015260840161044a565b61061f8282610b5b565b5050565b61062b610bc2565b6001600160a01b0381166000908152600560205260409020546106a25760405162461bcd60e51b815260206004820152602960248201527f5b5061796d656e742e77697468647261775d20416d6f756e74496e436f6e747260448201526830b1ba1034b990181760b91b606482015260840161044a565b6001600160a01b038116600081815260056020526040902054906106c7903383610c1c565b6001600160a01b038216600090815260056020526040812080548392906106ef908490611319565b9091555050604080516001600160a01b0384168152602081018390527f884edad9ce6fa2440d8a54cc123490eb96d2768479d49ff9c7366125a9424364910160405180910390a15050565b610742610bc2565b61074c6000610c4c565b565b610756610a1a565b7ff1b411d6abb365480ac902cc153c45e9ded5847a2265ce6d01945d253edb6bc761078081610a60565b60008290036107d15760405162461bcd60e51b815260206004820181905260248201527f5b5061796d656e742e726566756e645d2042696c6c206e6f7420666f756e642e604482015260640161044a565b60008281526004602090815260409182902082516080810184528154815260018201546001600160a01b0390811693820184905260028301541693810184905260039091015460608201819052909261082a9291610c1c565b60608101516020808301516001600160a01b03166000908152600590915260408120805490919061085c908490611319565b909155505060008381526004602090815260408083208381556001810180546001600160a01b031990811690915560028201805490911690556003019290925582015182820151606084015192517f5b2a5a92e7e0aa7bcf044d10a942ae5f1213049cacda790715f50bb32f503fa7936108fc93889390929091909384526001600160a01b03928316602085015291166040830152606082015260800190565b60405180910390a1505050565b805160005b8181101561094b576109398484838151811061092c5761092c61132c565b602002602001015161057b565b8061094381611342565b91505061090e565b50505050565b60009182526002602090815260408084206001600160a01b0393909316845291905290205460ff1690565b60008281526002602052604090206001015461099781610a60565b6105a08383610b5b565b6109a9610bc2565b6001600160a01b038116610a0e5760405162461bcd60e51b815260206004820152602660248201527f4f776e61626c653a206e6577206f776e657220697320746865207a65726f206160448201526564647265737360d01b606482015260840161044a565b610a1781610c4c565b50565b60015460ff161561074c5760405162461bcd60e51b815260206004820152601060248201526f14185d5cd8589b194e881c185d5cd95960821b604482015260640161044a565b610a178133610c9e565b6040516001600160a01b038085166024830152831660448201526064810182905261094b9085906323b872dd60e01b906084015b60408051601f198184030181529190526020810180516001600160e01b03166001600160e01b031990931692909217909152610cf7565b610adf8282610951565b61061f5760008281526002602090815260408083206001600160a01b03851684529091529020805460ff19166001179055610b173390565b6001600160a01b0316816001600160a01b0316837f2f8788117e7eff1d82e926ec794901d17c78024a50270940304540a733656f0d60405160405180910390a45050565b610b658282610951565b1561061f5760008281526002602090815260408083206001600160a01b0385168085529252808320805460ff1916905551339285917ff6391f5c32d9c69d2a47ea670b442974b53935d1edc7fd64eb21e047a839171b9190a45050565b6003546001600160a01b0316331461074c5760405162461bcd60e51b815260206004820181905260248201527f4f776e61626c653a2063616c6c6572206973206e6f7420746865206f776e6572604482015260640161044a565b6040516001600160a01b0383166024820152604481018290526105a090849063a9059cbb60e01b90606401610a9e565b600380546001600160a01b038381166001600160a01b0319831681179093556040519116919082907f8be0079c531659141344cd1fd0a4f28419497f9722a3daafe3b4186f6b6457e090600090a35050565b610ca88282610951565b61061f57610cb581610dc9565b610cc0836020610ddb565b604051602001610cd192919061137f565b60408051601f198184030181529082905262461bcd60e51b825261044a916004016113f4565b6000610d4c826040518060400160405280602081526020017f5361666545524332303a206c6f772d6c6576656c2063616c6c206661696c6564815250856001600160a01b0316610f7e9092919063ffffffff16565b8051909150156105a05780806020019051810190610d6a9190611427565b6105a05760405162461bcd60e51b815260206004820152602a60248201527f5361666545524332303a204552433230206f7065726174696f6e20646964206e6044820152691bdd081cdd58d8d9595960b21b606482015260840161044a565b60606103416001600160a01b03831660145b60606000610dea836002611449565b610df5906002611306565b67ffffffffffffffff811115610e0d57610e0d6111f0565b6040519080825280601f01601f191660200182016040528015610e37576020820181803683370190505b509050600360fc1b81600081518110610e5257610e5261132c565b60200101906001600160f81b031916908160001a905350600f60fb1b81600181518110610e8157610e8161132c565b60200101906001600160f81b031916908160001a9053506000610ea5846002611449565b610eb0906001611306565b90505b6001811115610f28576f181899199a1a9b1b9c1cb0b131b232b360811b85600f1660108110610ee457610ee461132c565b1a60f81b828281518110610efa57610efa61132c565b60200101906001600160f81b031916908160001a90535060049490941c93610f2181611460565b9050610eb3565b508315610f775760405162461bcd60e51b815260206004820181905260248201527f537472696e67733a20686578206c656e67746820696e73756666696369656e74604482015260640161044a565b9392505050565b6060610f8d8484600085610f95565b949350505050565b606082471015610ff65760405162461bcd60e51b815260206004820152602660248201527f416464726573733a20696e73756666696369656e742062616c616e636520666f6044820152651c8818d85b1b60d21b606482015260840161044a565b600080866001600160a01b031685876040516110129190611477565b60006040518083038185875af1925050503d806000811461104f576040519150601f19603f3d011682016040523d82523d6000602084013e611054565b606091505b509150915061106587838387611070565b979650505050505050565b606083156110df5782516000036110d8576001600160a01b0385163b6110d85760405162461bcd60e51b815260206004820152601d60248201527f416464726573733a2063616c6c20746f206e6f6e2d636f6e7472616374000000604482015260640161044a565b5081610f8d565b610f8d83838151156110f45781518083602001fd5b8060405162461bcd60e51b815260040161044a91906113f4565b60006020828403121561112057600080fd5b81356001600160e01b031981168114610f7757600080fd5b80356001600160a01b038116811461114f57600080fd5b919050565b60008060006060848603121561116957600080fd5b61117284611138565b925061118060208501611138565b9150604084013590509250925092565b6000602082840312156111a257600080fd5b5035919050565b600080604083850312156111bc57600080fd5b823591506111cc60208401611138565b90509250929050565b6000602082840312156111e757600080fd5b610f7782611138565b634e487b7160e01b600052604160045260246000fd5b6000806040838503121561121957600080fd5b8235915060208084013567ffffffffffffffff8082111561123957600080fd5b818601915086601f83011261124d57600080fd5b81358181111561125f5761125f6111f0565b8060051b604051601f19603f83011681018181108582111715611284576112846111f0565b6040529182528482019250838101850191898311156112a257600080fd5b938501935b828510156112c7576112b885611138565b845293850193928501926112a7565b8096505050505050509250929050565b6000602082840312156112e957600080fd5b5051919050565b634e487b7160e01b600052601160045260246000fd5b80820180821115610341576103416112f0565b81810381811115610341576103416112f0565b634e487b7160e01b600052603260045260246000fd5b600060018201611354576113546112f0565b5060010190565b60005b8381101561137657818101518382015260200161135e565b50506000910152565b7f416363657373436f6e74726f6c3a206163636f756e74200000000000000000008152600083516113b781601785016020880161135b565b7001034b99036b4b9b9b4b733903937b6329607d1b60179184019182015283516113e881602884016020880161135b565b01602801949350505050565b602081526000825180602084015261141381604085016020870161135b565b601f01601f19169190910160400192915050565b60006020828403121561143957600080fd5b81518015158114610f7757600080fd5b8082028115828204841417610341576103416112f0565b60008161146f5761146f6112f0565b506000190190565b6000825161148981846020870161135b565b919091019291505056fea2646970667358221220f3ba5e74fb4d3842688dac554af95a2dc877d6f4c9eaac4facd1f02806b4fd1064736f6c63430008130033",
  "linkReferences": {},
  "deployedLinkReferences": {}
}