{
  "_format": "hh-sol-artifact-1",
  "contractName": "BalanceVault",
  "sourceName": "contracts/BalanceVault.sol",
  "abi": [
    {
      "inputs": [
        {
          "internalType": "address",
          "name": "_tokenAddress",
          "type": "address"
        }
      ],
      "stateMutability": "nonpayable",
      "type": "constructor"
    },
    {
      "anonymous": false,
      "inputs": [],
      "name": "BalanceVaultPaused",
      "type": "event"
    },
    {
      "anonymous": false,
      "inputs": [],
      "name": "BalanceVaultUnpaused",
      "type": "event"
    },
    {
      "anonymous": false,
      "inputs": [
        {
          "indexed": true,
          "internalType": "address",
          "name": "userAddress",
          "type": "address"
        },
        {
          "indexed": false,
          "internalType": "uint256",
          "name": "nakaAmount",
          "type": "uint256"
        }
      ],
      "name": "DecreaseBalance",
      "type": "event"
    },
    {
      "anonymous": false,
      "inputs": [
        {
          "indexed": true,
          "internalType": "address",
          "name": "userAddress",
          "type": "address"
        },
        {
          "indexed": false,
          "internalType": "uint256",
          "name": "nakaAmount",
          "type": "uint256"
        }
      ],
      "name": "DepositNaka",
      "type": "event"
    },
    {
      "anonymous": false,
      "inputs": [
        {
          "indexed": true,
          "internalType": "address",
          "name": "userAddress",
          "type": "address"
        },
        {
          "indexed": false,
          "internalType": "uint256",
          "name": "nakaAmount",
          "type": "uint256"
        }
      ],
      "name": "IncreaseBalance",
      "type": "event"
    },
    {
      "anonymous": false,
      "inputs": [
        {
          "indexed": true,
          "internalType": "address",
          "name": "previousOwner",
          "type": "address"
        },
        {
          "indexed": true,
          "internalType": "address",
          "name": "newOwner",
          "type": "address"
        }
      ],
      "name": "OwnershipTransferred",
      "type": "event"
    },
    {
      "anonymous": false,
      "inputs": [
        {
          "indexed": true,
          "internalType": "bytes32",
          "name": "role",
          "type": "bytes32"
        },
        {
          "indexed": true,
          "internalType": "bytes32",
          "name": "previousAdminRole",
          "type": "bytes32"
        },
        {
          "indexed": true,
          "internalType": "bytes32",
          "name": "newAdminRole",
          "type": "bytes32"
        }
      ],
      "name": "RoleAdminChanged",
      "type": "event"
    },
    {
      "anonymous": false,
      "inputs": [
        {
          "indexed": true,
          "internalType": "bytes32",
          "name": "role",
          "type": "bytes32"
        },
        {
          "indexed": true,
          "internalType": "address",
          "name": "account",
          "type": "address"
        },
        {
          "indexed": true,
          "internalType": "address",
          "name": "sender",
          "type": "address"
        }
      ],
      "name": "RoleGranted",
      "type": "event"
    },
    {
      "anonymous": false,
      "inputs": [
        {
          "indexed": true,
          "internalType": "bytes32",
          "name": "role",
          "type": "bytes32"
        },
        {
          "indexed": true,
          "internalType": "address",
          "name": "account",
          "type": "address"
        },
        {
          "indexed": true,
          "internalType": "address",
          "name": "sender",
          "type": "address"
        }
      ],
      "name": "RoleRevoked",
      "type": "event"
    },
    {
      "anonymous": false,
      "inputs": [
        {
          "indexed": true,
          "internalType": "address",
          "name": "userAddress",
          "type": "address"
        },
        {
          "indexed": false,
          "internalType": "uint256",
          "name": "nakaAmount",
          "type": "uint256"
        }
      ],
      "name": "WithdrawNaka",
      "type": "event"
    },
    {
      "inputs": [],
      "name": "DEFAULT_ADMIN_ROLE",
      "outputs": [
        {
          "internalType": "bytes32",
          "name": "",
          "type": "bytes32"
        }
      ],
      "stateMutability": "view",
      "type": "function"
    },
    {
      "inputs": [],
      "name": "VAULT_ADMIN",
      "outputs": [
        {
          "internalType": "bytes32",
          "name": "",
          "type": "bytes32"
        }
      ],
      "stateMutability": "view",
      "type": "function"
    },
    {
      "inputs": [],
      "name": "_pausedBalanceVault",
      "outputs": [
        {
          "internalType": "bool",
          "name": "",
          "type": "bool"
        }
      ],
      "stateMutability": "view",
      "type": "function"
    },
    {
      "inputs": [
        {
          "internalType": "address",
          "name": "_userAddress",
          "type": "address"
        },
        {
          "internalType": "uint256",
          "name": "_nakaAmount",
          "type": "uint256"
        }
      ],
      "name": "decreaseBalance",
      "outputs": [],
      "stateMutability": "nonpayable",
      "type": "function"
    },
    {
      "inputs": [
        {
          "internalType": "uint256",
          "name": "_nakaAmount",
          "type": "uint256"
        }
      ],
      "name": "depositNaka",
      "outputs": [],
      "stateMutability": "nonpayable",
      "type": "function"
    },
    {
      "inputs": [
        {
          "internalType": "address",
          "name": "_userAddress",
          "type": "address"
        }
      ],
      "name": "getBalance",
      "outputs": [
        {
          "internalType": "uint256",
          "name": "",
          "type": "uint256"
        }
      ],
      "stateMutability": "view",
      "type": "function"
    },
    {
      "inputs": [
        {
          "internalType": "bytes32",
          "name": "role",
          "type": "bytes32"
        }
      ],
      "name": "getRoleAdmin",
      "outputs": [
        {
          "internalType": "bytes32",
          "name": "",
          "type": "bytes32"
        }
      ],
      "stateMutability": "view",
      "type": "function"
    },
    {
      "inputs": [
        {
          "internalType": "bytes32",
          "name": "role",
          "type": "bytes32"
        },
        {
          "internalType": "address",
          "name": "account",
          "type": "address"
        }
      ],
      "name": "grantRole",
      "outputs": [],
      "stateMutability": "nonpayable",
      "type": "function"
    },
    {
      "inputs": [
        {
          "internalType": "bytes32",
          "name": "role",
          "type": "bytes32"
        },
        {
          "internalType": "address",
          "name": "account",
          "type": "address"
        }
      ],
      "name": "hasRole",
      "outputs": [
        {
          "internalType": "bool",
          "name": "",
          "type": "bool"
        }
      ],
      "stateMutability": "view",
      "type": "function"
    },
    {
      "inputs": [
        {
          "internalType": "address",
          "name": "_userAddress",
          "type": "address"
        },
        {
          "internalType": "uint256",
          "name": "_nakaAmount",
          "type": "uint256"
        }
      ],
      "name": "increaseBalance",
      "outputs": [],
      "stateMutability": "nonpayable",
      "type": "function"
    },
    {
      "inputs": [
        {
          "internalType": "address",
          "name": "",
          "type": "address"
        }
      ],
      "name": "nakaAmountbyAddress",
      "outputs": [
        {
          "internalType": "uint256",
          "name": "",
          "type": "uint256"
        }
      ],
      "stateMutability": "view",
      "type": "function"
    },
    {
      "inputs": [],
      "name": "owner",
      "outputs": [
        {
          "internalType": "address",
          "name": "",
          "type": "address"
        }
      ],
      "stateMutability": "view",
      "type": "function"
    },
    {
      "inputs": [],
      "name": "pauseBalanceVault",
      "outputs": [],
      "stateMutability": "nonpayable",
      "type": "function"
    },
    {
      "inputs": [],
      "name": "renounceOwnership",
      "outputs": [],
      "stateMutability": "nonpayable",
      "type": "function"
    },
    {
      "inputs": [
        {
          "internalType": "bytes32",
          "name": "role",
          "type": "bytes32"
        },
        {
          "internalType": "address",
          "name": "account",
          "type": "address"
        }
      ],
      "name": "renounceRole",
      "outputs": [],
      "stateMutability": "nonpayable",
      "type": "function"
    },
    {
      "inputs": [
        {
          "internalType": "bytes32",
          "name": "role",
          "type": "bytes32"
        },
        {
          "internalType": "address",
          "name": "account",
          "type": "address"
        }
      ],
      "name": "revokeRole",
      "outputs": [],
      "stateMutability": "nonpayable",
      "type": "function"
    },
    {
      "inputs": [
        {
          "internalType": "bytes4",
          "name": "interfaceId",
          "type": "bytes4"
        }
      ],
      "name": "supportsInterface",
      "outputs": [
        {
          "internalType": "bool",
          "name": "",
          "type": "bool"
        }
      ],
      "stateMutability": "view",
      "type": "function"
    },
    {
      "inputs": [],
      "name": "tokenAddress",
      "outputs": [
        {
          "internalType": "address",
          "name": "",
          "type": "address"
        }
      ],
      "stateMutability": "view",
      "type": "function"
    },
    {
      "inputs": [
        {
          "internalType": "address",
          "name": "newOwner",
          "type": "address"
        }
      ],
      "name": "transferOwnership",
      "outputs": [],
      "stateMutability": "nonpayable",
      "type": "function"
    },
    {
      "inputs": [],
      "name": "unpauseBalanceVault",
      "outputs": [],
      "stateMutability": "nonpayable",
      "type": "function"
    },
    {
      "inputs": [
        {
          "internalType": "uint256",
          "name": "_nakaAmount",
          "type": "uint256"
        }
      ],
      "name": "withdrawNaka",
      "outputs": [],
      "stateMutability": "nonpayable",
      "type": "function"
    }
  ],
  "bytecode": "0x60806040523480156200001157600080fd5b50604051620018723803806200187283398101604081905262000034916200015b565b6200003f3362000073565b6001600255600380546001600160a01b0319166001600160a01b0383161790556200006c600033620000c3565b506200018d565b600080546001600160a01b038381166001600160a01b0319831681178455604051919092169283917f8be0079c531659141344cd1fd0a4f28419497f9722a3daafe3b4186f6b6457e09190a35050565b620000cf8282620000d3565b5050565b60008281526001602090815260408083206001600160a01b038516845290915290205460ff16620000cf5760008281526001602081815260408084206001600160a01b0386168086529252808420805460ff19169093179092559051339285917f2f8788117e7eff1d82e926ec794901d17c78024a50270940304540a733656f0d9190a45050565b6000602082840312156200016e57600080fd5b81516001600160a01b03811681146200018657600080fd5b9392505050565b6116d5806200019d6000396000f3fe608060405234801561001057600080fd5b50600436106101375760003560e01c80638da5cb5b116100b8578063cb8243731161007c578063cb8243731461027c578063d547741f146102a3578063f2fde38b146102b6578063f4ca97d7146102c9578063f8b2cb4f146102dc578063ff0569491461030557600080fd5b80638da5cb5b1461020957806391d148541461022e5780639d76ea5814610241578063a217fddf14610254578063b42685c71461025c57600080fd5b80633cd869dc116100ff5780633cd869dc146101c65780635b86f599146101d3578063715018a6146101e65780637787ae9a146101ee5780637aa4905e1461020157600080fd5b8063017cabb71461013c57806301ffc9a714610146578063248a9ca31461016e5780632f2ff15d146101a057806336568abe146101b3575b600080fd5b610144610318565b005b61015961015436600461143d565b6103e7565b60405190151581526020015b60405180910390f35b61019261017c3660046113f8565b6000908152600160208190526040909120015490565b604051908152602001610165565b6101446101ae366004611411565b61041e565b6101446101c1366004611411565b61044a565b6005546101599060ff1681565b6101446101e13660046113ac565b6104c8565b61014461061e565b6101446101fc3660046113f8565b610654565b61014461075c565b6000546001600160a01b03165b6040516001600160a01b039091168152602001610165565b61015961023c366004611411565b6107e1565b600354610216906001600160a01b031681565b610192600081565b61019261026a366004611391565b60046020526000908152604090205481565b6101927fb15e2bb6de8e562b452dcfd0ca719f799c9919f6645dee389052d6326e77eb6081565b6101446102b1366004611411565b61080c565b6101446102c4366004611391565b610833565b6101446102d73660046113f8565b6108ce565b6101926102ea366004611391565b6001600160a01b031660009081526004602052604090205490565b6101446103133660046113ac565b610ab8565b6000546001600160a01b0316331461034b5760405162461bcd60e51b815260040161034290611597565b60405180910390fd5b60055460ff166103b25760405162461bcd60e51b815260206004820152602c60248201527f5b42616c616e63655661756c742e7768656e42616c616e63655661756c74506160448201526b1d5cd959174814185d5cd95960a21b6064820152608401610342565b6005805460ff191690556040517f7bf3260ea5aa4fba463ac88b602265b0643dc16203f18863f5db4da9ffe147fa90600090a1565b60006001600160e01b03198216637965db0b60e01b148061041857506301ffc9a760e01b6001600160e01b03198316145b92915050565b6000828152600160208190526040909120015461043b8133610cab565b6104458383610d0f565b505050565b6001600160a01b03811633146104ba5760405162461bcd60e51b815260206004820152602f60248201527f416363657373436f6e74726f6c3a2063616e206f6e6c792072656e6f756e636560448201526e103937b632b9903337b91039b2b63360891b6064820152608401610342565b6104c48282610d7a565b5050565b60055460ff16156104eb5760405162461bcd60e51b815260040161034290611544565b7fb15e2bb6de8e562b452dcfd0ca719f799c9919f6645dee389052d6326e77eb606105168133610cab565b6001600160a01b03831660009081526004602052604090205461053983826115cc565b10156105ad5760405162461bcd60e51b815260206004820152603960248201527f5b42616c616e63655661756c742e696e63726561736542616c616e63655d205560448201527f736572206861732062616c616e6365206f766572666c6f7773000000000000006064820152608401610342565b6001600160a01b038316600090815260046020526040812080548492906105d59084906115cc565b90915550506040518281526001600160a01b038416907f6fdf5a559aca442d78e8b84a7cbe5c21c91c9a305149d90ed6ae43c1a7e8f8c3906020015b60405180910390a2505050565b6000546001600160a01b031633146106485760405162461bcd60e51b815260040161034290611597565b6106526000610de1565b565b3360009081526004602052604090205461066e82826115cc565b10156106da5760405162461bcd60e51b815260206004820152603560248201527f5b42616c616e63655661756c742e6465706f7369744e616b615d2055736572206044820152746861732062616c616e6365206f766572666c6f777360581b6064820152608401610342565b60035433600090815260046020526040812080546001600160a01b03909316928492906107089084906115cc565b9091555061072390506001600160a01b038216333085610e31565b60405182815233907fc1dc2713583c514093893ae9b91f20eca0de1d439779f4600909401f5ed3c57e9060200160405180910390a25050565b6000546001600160a01b031633146107865760405162461bcd60e51b815260040161034290611597565b60055460ff16156107a95760405162461bcd60e51b815260040161034290611544565b6005805460ff191660011790556040517fb1f0e2663bcb6f72ca375724e3f971c691b1067c823ca6d7cd0c28a2b368cb0390600090a1565b60009182526001602090815260408084206001600160a01b0393909316845291905290205460ff1690565b600082815260016020819052604090912001546108298133610cab565b6104458383610d7a565b6000546001600160a01b0316331461085d5760405162461bcd60e51b815260040161034290611597565b6001600160a01b0381166108c25760405162461bcd60e51b815260206004820152602660248201527f4f776e61626c653a206e6577206f776e657220697320746865207a65726f206160448201526564647265737360d01b6064820152608401610342565b6108cb81610de1565b50565b6002805414156109205760405162461bcd60e51b815260206004820152601f60248201527f5265656e7472616e637947756172643a207265656e7472616e742063616c6c006044820152606401610342565b60028055336000908152600460205260409020548111156109be5760405162461bcd60e51b815260206004820152604c60248201527f5b42616c616e63655661756c742e77697468647261774e616b615d207769746860448201527f6472617720616d6f756e742073686f756c64206265206c657373207468616e2060648201526b757365722062616c616e636560a01b608482015260a401610342565b336000908152600460205260409020546109d88282611603565b1115610a4c5760405162461bcd60e51b815260206004820152603760248201527f5b42616c616e63655661756c742e77697468647261774e616b615d205573657260448201527f206861732062616c616e636520756e646572666c6f77730000000000000000006064820152608401610342565b3360009081526004602052604081208054839290610a6b908490611603565b90915550610a7b90503382610ea2565b60405181815233907fbe3f6cd7b5163f40a8f82c3c651ee7f7c6a4f3345a3c17774969a6e121011ead9060200160405180910390a2506001600255565b60055460ff1615610adb5760405162461bcd60e51b815260040161034290611544565b7fb15e2bb6de8e562b452dcfd0ca719f799c9919f6645dee389052d6326e77eb60610b068133610cab565b6001600160a01b038316600090815260046020526040902054821115610bac5760405162461bcd60e51b815260206004820152604f60248201527f5b42616c616e63655661756c742e646563726561736542616c616e63655d206460448201527f6563726561736520616d6f756e742073686f756c64206265206c65737320746860648201526e616e20757365722062616c616e636560881b608482015260a401610342565b6001600160a01b038316600090815260046020526040902054610bcf8382611603565b1115610c435760405162461bcd60e51b815260206004820152603a60248201527f5b42616c616e63655661756c742e646563726561736542616c616e63655d205560448201527f736572206861732062616c616e636520756e646572666c6f77730000000000006064820152608401610342565b6001600160a01b03831660009081526004602052604081208054849290610c6b908490611603565b90915550506040518281526001600160a01b038416907fed00f4b3c46d7c225a3a5a0771589317e7d55742990d035231f4bd4ac10c6ad390602001610611565b610cb582826107e1565b6104c457610ccd816001600160a01b03166014610f58565b610cd8836020610f58565b604051602001610ce992919061149c565b60408051601f198184030181529082905262461bcd60e51b825261034291600401611511565b610d1982826107e1565b6104c45760008281526001602081815260408084206001600160a01b0386168086529252808420805460ff19169093179092559051339285917f2f8788117e7eff1d82e926ec794901d17c78024a50270940304540a733656f0d9190a45050565b610d8482826107e1565b156104c45760008281526001602090815260408083206001600160a01b0385168085529252808320805460ff1916905551339285917ff6391f5c32d9c69d2a47ea670b442974b53935d1edc7fd64eb21e047a839171b9190a45050565b600080546001600160a01b038381166001600160a01b0319831681178455604051919092169283917f8be0079c531659141344cd1fd0a4f28419497f9722a3daafe3b4186f6b6457e09190a35050565b6040516001600160a01b0380851660248301528316604482015260648101829052610e9c9085906323b872dd60e01b906084015b60408051601f198184030181529190526020810180516001600160e01b03166001600160e01b0319909316929092179091526110fb565b50505050565b6003546040516370a0823160e01b81523060048201526001600160a01b039091169060009082906370a082319060240160206040518083038186803b158015610eea57600080fd5b505afa158015610efe573d6000803e3d6000fd5b505050506040513d601f19601f82011682018060405250810190610f229190611467565b9050808310610f4457610f3f6001600160a01b03831685836111cd565b610e9c565b610e9c6001600160a01b03831685856111cd565b60606000610f678360026115e4565b610f729060026115cc565b67ffffffffffffffff811115610f8a57610f8a611689565b6040519080825280601f01601f191660200182016040528015610fb4576020820181803683370190505b509050600360fc1b81600081518110610fcf57610fcf611673565b60200101906001600160f81b031916908160001a905350600f60fb1b81600181518110610ffe57610ffe611673565b60200101906001600160f81b031916908160001a90535060006110228460026115e4565b61102d9060016115cc565b90505b60018111156110a5576f181899199a1a9b1b9c1cb0b131b232b360811b85600f166010811061106157611061611673565b1a60f81b82828151811061107757611077611673565b60200101906001600160f81b031916908160001a90535060049490941c9361109e81611646565b9050611030565b5083156110f45760405162461bcd60e51b815260206004820181905260248201527f537472696e67733a20686578206c656e67746820696e73756666696369656e746044820152606401610342565b9392505050565b6000611150826040518060400160405280602081526020017f5361666545524332303a206c6f772d6c6576656c2063616c6c206661696c6564815250856001600160a01b03166111fd9092919063ffffffff16565b805190915015610445578080602001905181019061116e91906113d6565b6104455760405162461bcd60e51b815260206004820152602a60248201527f5361666545524332303a204552433230206f7065726174696f6e20646964206e6044820152691bdd081cdd58d8d9595960b21b6064820152608401610342565b6040516001600160a01b03831660248201526044810182905261044590849063a9059cbb60e01b90606401610e65565b606061120c8484600085611214565b949350505050565b6060824710156112755760405162461bcd60e51b815260206004820152602660248201527f416464726573733a20696e73756666696369656e742062616c616e636520666f6044820152651c8818d85b1b60d21b6064820152608401610342565b843b6112c35760405162461bcd60e51b815260206004820152601d60248201527f416464726573733a2063616c6c20746f206e6f6e2d636f6e74726163740000006044820152606401610342565b600080866001600160a01b031685876040516112df9190611480565b60006040518083038185875af1925050503d806000811461131c576040519150601f19603f3d011682016040523d82523d6000602084013e611321565b606091505b509150915061133182828661133c565b979650505050505050565b6060831561134b5750816110f4565b82511561135b5782518084602001fd5b8160405162461bcd60e51b81526004016103429190611511565b80356001600160a01b038116811461138c57600080fd5b919050565b6000602082840312156113a357600080fd5b6110f482611375565b600080604083850312156113bf57600080fd5b6113c883611375565b946020939093013593505050565b6000602082840312156113e857600080fd5b815180151581146110f457600080fd5b60006020828403121561140a57600080fd5b5035919050565b6000806040838503121561142457600080fd5b8235915061143460208401611375565b90509250929050565b60006020828403121561144f57600080fd5b81356001600160e01b0319811681146110f457600080fd5b60006020828403121561147957600080fd5b5051919050565b6000825161149281846020870161161a565b9190910192915050565b7f416363657373436f6e74726f6c3a206163636f756e74200000000000000000008152600083516114d481601785016020880161161a565b7001034b99036b4b9b9b4b733903937b6329607d1b601791840191820152835161150581602884016020880161161a565b01602801949350505050565b602081526000825180602084015261153081604085016020870161161a565b601f01601f19169190910160400192915050565b60208082526033908201527f5b42616c616e63655661756c742e7768656e42616c616e63655661756c744e6f6040820152721d14185d5cd9591748139bdd0814185d5cd959606a1b606082015260800190565b6020808252818101527f4f776e61626c653a2063616c6c6572206973206e6f7420746865206f776e6572604082015260600190565b600082198211156115df576115df61165d565b500190565b60008160001904831182151516156115fe576115fe61165d565b500290565b6000828210156116155761161561165d565b500390565b60005b8381101561163557818101518382015260200161161d565b83811115610e9c5750506000910152565b6000816116555761165561165d565b506000190190565b634e487b7160e01b600052601160045260246000fd5b634e487b7160e01b600052603260045260246000fd5b634e487b7160e01b600052604160045260246000fdfea26469706673582212201bbe766a48e3c3f02492d653d446359ebb3aac1750d0d437eb650e617cc5328e64736f6c63430008070033",
  "linkReferences": {},
  "deployedLinkReferences": {}
}