{
  "_format": "hh-sol-artifact-1",
  "contractName": "BinanceBalanceVault",
  "sourceName": "contracts/BinanceBalanceVault.sol",
  "abi": [
    {
      "inputs": [
        {
          "internalType": "address",
          "name": "_tokenAddress",
          "type": "address"
        },
        {
          "internalType": "address",
          "name": "_adminAddress",
          "type": "address"
        }
      ],
      "stateMutability": "nonpayable",
      "type": "constructor"
    },
    {
      "anonymous": false,
      "inputs": [],
      "name": "BinanceBalanceVaultPaused",
      "type": "event"
    },
    {
      "anonymous": false,
      "inputs": [],
      "name": "BinanceBalanceVaultUnpaused",
      "type": "event"
    },
    {
      "anonymous": false,
      "inputs": [
        {
          "indexed": false,
          "internalType": "address",
          "name": "TokenAddress",
          "type": "address"
        },
        {
          "indexed": false,
          "internalType": "address",
          "name": "UserAddress",
          "type": "address"
        },
        {
          "indexed": false,
          "internalType": "uint256",
          "name": "Amount",
          "type": "uint256"
        }
      ],
      "name": "DecreaseBalance",
      "type": "event"
    },
    {
      "anonymous": false,
      "inputs": [
        {
          "indexed": false,
          "internalType": "address",
          "name": "TokenAddress",
          "type": "address"
        }
      ],
      "name": "DeleteTokenAddress",
      "type": "event"
    },
    {
      "anonymous": false,
      "inputs": [
        {
          "indexed": false,
          "internalType": "address",
          "name": "TokenAddress",
          "type": "address"
        },
        {
          "indexed": false,
          "internalType": "uint256",
          "name": "Amount",
          "type": "uint256"
        }
      ],
      "name": "DepositToken",
      "type": "event"
    },
    {
      "anonymous": false,
      "inputs": [
        {
          "indexed": false,
          "internalType": "address",
          "name": "UserAddress",
          "type": "address"
        },
        {
          "indexed": false,
          "internalType": "address",
          "name": "TokenAddress",
          "type": "address"
        },
        {
          "indexed": false,
          "internalType": "uint256",
          "name": "Amount",
          "type": "uint256"
        }
      ],
      "name": "IncreaseBalance",
      "type": "event"
    },
    {
      "anonymous": false,
      "inputs": [
        {
          "indexed": false,
          "internalType": "address",
          "name": "FromAddress",
          "type": "address"
        },
        {
          "indexed": false,
          "internalType": "address",
          "name": "ToAddress",
          "type": "address"
        },
        {
          "indexed": false,
          "internalType": "address",
          "name": "TokenAddress",
          "type": "address"
        },
        {
          "indexed": false,
          "internalType": "uint256",
          "name": "Amount",
          "type": "uint256"
        }
      ],
      "name": "IncreaseBalanceFrom",
      "type": "event"
    },
    {
      "anonymous": false,
      "inputs": [
        {
          "indexed": true,
          "internalType": "address",
          "name": "previousOwner",
          "type": "address"
        },
        {
          "indexed": true,
          "internalType": "address",
          "name": "newOwner",
          "type": "address"
        }
      ],
      "name": "OwnershipTransferred",
      "type": "event"
    },
    {
      "anonymous": false,
      "inputs": [
        {
          "indexed": true,
          "internalType": "bytes32",
          "name": "role",
          "type": "bytes32"
        },
        {
          "indexed": true,
          "internalType": "bytes32",
          "name": "previousAdminRole",
          "type": "bytes32"
        },
        {
          "indexed": true,
          "internalType": "bytes32",
          "name": "newAdminRole",
          "type": "bytes32"
        }
      ],
      "name": "RoleAdminChanged",
      "type": "event"
    },
    {
      "anonymous": false,
      "inputs": [
        {
          "indexed": true,
          "internalType": "bytes32",
          "name": "role",
          "type": "bytes32"
        },
        {
          "indexed": true,
          "internalType": "address",
          "name": "account",
          "type": "address"
        },
        {
          "indexed": true,
          "internalType": "address",
          "name": "sender",
          "type": "address"
        }
      ],
      "name": "RoleGranted",
      "type": "event"
    },
    {
      "anonymous": false,
      "inputs": [
        {
          "indexed": true,
          "internalType": "bytes32",
          "name": "role",
          "type": "bytes32"
        },
        {
          "indexed": true,
          "internalType": "address",
          "name": "account",
          "type": "address"
        },
        {
          "indexed": true,
          "internalType": "address",
          "name": "sender",
          "type": "address"
        }
      ],
      "name": "RoleRevoked",
      "type": "event"
    },
    {
      "anonymous": false,
      "inputs": [
        {
          "indexed": false,
          "internalType": "address",
          "name": "TokenAddress",
          "type": "address"
        }
      ],
      "name": "SetTokenAddress",
      "type": "event"
    },
    {
      "anonymous": false,
      "inputs": [
        {
          "indexed": false,
          "internalType": "address",
          "name": "TokenAddress",
          "type": "address"
        },
        {
          "indexed": false,
          "internalType": "uint256",
          "name": "Amount",
          "type": "uint256"
        }
      ],
      "name": "Withdraw",
      "type": "event"
    },
    {
      "anonymous": false,
      "inputs": [
        {
          "indexed": false,
          "internalType": "address",
          "name": "TokenAddress",
          "type": "address"
        },
        {
          "indexed": false,
          "internalType": "uint256",
          "name": "Amount",
          "type": "uint256"
        }
      ],
      "name": "WithdrawForAdmin",
      "type": "event"
    },
    {
      "stateMutability": "payable",
      "type": "fallback"
    },
    {
      "inputs": [
        {
          "internalType": "address",
          "name": "",
          "type": "address"
        }
      ],
      "name": "AmountInPool",
      "outputs": [
        {
          "internalType": "uint256",
          "name": "",
          "type": "uint256"
        }
      ],
      "stateMutability": "view",
      "type": "function"
    },
    {
      "inputs": [],
      "name": "BNB",
      "outputs": [
        {
          "internalType": "address",
          "name": "",
          "type": "address"
        }
      ],
      "stateMutability": "view",
      "type": "function"
    },
    {
      "inputs": [],
      "name": "DEFAULT_ADMIN_ROLE",
      "outputs": [
        {
          "internalType": "bytes32",
          "name": "",
          "type": "bytes32"
        }
      ],
      "stateMutability": "view",
      "type": "function"
    },
    {
      "inputs": [
        {
          "internalType": "address",
          "name": "",
          "type": "address"
        }
      ],
      "name": "PoolOfAdmin",
      "outputs": [
        {
          "internalType": "uint256",
          "name": "",
          "type": "uint256"
        }
      ],
      "stateMutability": "view",
      "type": "function"
    },
    {
      "inputs": [],
      "name": "WORKER_ROLE",
      "outputs": [
        {
          "internalType": "bytes32",
          "name": "",
          "type": "bytes32"
        }
      ],
      "stateMutability": "view",
      "type": "function"
    },
    {
      "inputs": [],
      "name": "adminAddress",
      "outputs": [
        {
          "internalType": "address",
          "name": "",
          "type": "address"
        }
      ],
      "stateMutability": "view",
      "type": "function"
    },
    {
      "inputs": [
        {
          "internalType": "address",
          "name": "_userAddress",
          "type": "address"
        },
        {
          "internalType": "address",
          "name": "_tokenAddress",
          "type": "address"
        },
        {
          "internalType": "uint256",
          "name": "_amount",
          "type": "uint256"
        }
      ],
      "name": "decreaseBalance",
      "outputs": [],
      "stateMutability": "nonpayable",
      "type": "function"
    },
    {
      "inputs": [
        {
          "internalType": "address",
          "name": "_tokenAddress",
          "type": "address"
        }
      ],
      "name": "deleteTokenAddress",
      "outputs": [],
      "stateMutability": "nonpayable",
      "type": "function"
    },
    {
      "inputs": [
        {
          "internalType": "address",
          "name": "_tokenAddress",
          "type": "address"
        },
        {
          "internalType": "uint256",
          "name": "_amount",
          "type": "uint256"
        }
      ],
      "name": "depositToken",
      "outputs": [],
      "stateMutability": "payable",
      "type": "function"
    },
    {
      "inputs": [
        {
          "internalType": "address",
          "name": "_userAddress",
          "type": "address"
        }
      ],
      "name": "getAllTokenAddressByUser",
      "outputs": [
        {
          "internalType": "address[]",
          "name": "",
          "type": "address[]"
        }
      ],
      "stateMutability": "view",
      "type": "function"
    },
    {
      "inputs": [],
      "name": "getAllTokenAddressInContract",
      "outputs": [
        {
          "internalType": "address[]",
          "name": "",
          "type": "address[]"
        }
      ],
      "stateMutability": "view",
      "type": "function"
    },
    {
      "inputs": [
        {
          "internalType": "address",
          "name": "_userAddress",
          "type": "address"
        },
        {
          "internalType": "address",
          "name": "_tokenAddress",
          "type": "address"
        }
      ],
      "name": "getBalanceOf",
      "outputs": [
        {
          "internalType": "uint256",
          "name": "",
          "type": "uint256"
        }
      ],
      "stateMutability": "view",
      "type": "function"
    },
    {
      "inputs": [
        {
          "internalType": "bytes32",
          "name": "role",
          "type": "bytes32"
        }
      ],
      "name": "getRoleAdmin",
      "outputs": [
        {
          "internalType": "bytes32",
          "name": "",
          "type": "bytes32"
        }
      ],
      "stateMutability": "view",
      "type": "function"
    },
    {
      "inputs": [
        {
          "internalType": "bytes32",
          "name": "role",
          "type": "bytes32"
        },
        {
          "internalType": "address",
          "name": "account",
          "type": "address"
        }
      ],
      "name": "grantRole",
      "outputs": [],
      "stateMutability": "nonpayable",
      "type": "function"
    },
    {
      "inputs": [
        {
          "internalType": "bytes32",
          "name": "role",
          "type": "bytes32"
        },
        {
          "internalType": "address",
          "name": "account",
          "type": "address"
        }
      ],
      "name": "hasRole",
      "outputs": [
        {
          "internalType": "bool",
          "name": "",
          "type": "bool"
        }
      ],
      "stateMutability": "view",
      "type": "function"
    },
    {
      "inputs": [
        {
          "internalType": "address",
          "name": "_userAddress",
          "type": "address"
        },
        {
          "internalType": "address",
          "name": "_tokenAddress",
          "type": "address"
        },
        {
          "internalType": "uint256",
          "name": "_amount",
          "type": "uint256"
        }
      ],
      "name": "increaseBalance",
      "outputs": [],
      "stateMutability": "nonpayable",
      "type": "function"
    },
    {
      "inputs": [
        {
          "internalType": "address",
          "name": "_fromAddress",
          "type": "address"
        },
        {
          "internalType": "address",
          "name": "_toAddress",
          "type": "address"
        },
        {
          "internalType": "address",
          "name": "_tokenAddress",
          "type": "address"
        },
        {
          "internalType": "uint256",
          "name": "_amount",
          "type": "uint256"
        }
      ],
      "name": "increaseBalanceFrom",
      "outputs": [],
      "stateMutability": "nonpayable",
      "type": "function"
    },
    {
      "inputs": [
        {
          "internalType": "bytes32",
          "name": "_role",
          "type": "bytes32"
        },
        {
          "internalType": "address[]",
          "name": "_workerAddress",
          "type": "address[]"
        }
      ],
      "name": "multiGrantRole",
      "outputs": [],
      "stateMutability": "nonpayable",
      "type": "function"
    },
    {
      "inputs": [],
      "name": "owner",
      "outputs": [
        {
          "internalType": "address",
          "name": "",
          "type": "address"
        }
      ],
      "stateMutability": "view",
      "type": "function"
    },
    {
      "inputs": [],
      "name": "pauseBinanceBalanceVault",
      "outputs": [],
      "stateMutability": "nonpayable",
      "type": "function"
    },
    {
      "inputs": [],
      "name": "renounceOwnership",
      "outputs": [],
      "stateMutability": "nonpayable",
      "type": "function"
    },
    {
      "inputs": [
        {
          "internalType": "bytes32",
          "name": "role",
          "type": "bytes32"
        },
        {
          "internalType": "address",
          "name": "account",
          "type": "address"
        }
      ],
      "name": "renounceRole",
      "outputs": [],
      "stateMutability": "nonpayable",
      "type": "function"
    },
    {
      "inputs": [
        {
          "internalType": "bytes32",
          "name": "role",
          "type": "bytes32"
        },
        {
          "internalType": "address",
          "name": "account",
          "type": "address"
        }
      ],
      "name": "revokeRole",
      "outputs": [],
      "stateMutability": "nonpayable",
      "type": "function"
    },
    {
      "inputs": [
        {
          "internalType": "address",
          "name": "_adminAddress",
          "type": "address"
        }
      ],
      "name": "setAdmin",
      "outputs": [],
      "stateMutability": "nonpayable",
      "type": "function"
    },
    {
      "inputs": [
        {
          "internalType": "address",
          "name": "_tokenAddress",
          "type": "address"
        }
      ],
      "name": "setTokenAddress",
      "outputs": [],
      "stateMutability": "nonpayable",
      "type": "function"
    },
    {
      "inputs": [
        {
          "internalType": "bytes4",
          "name": "interfaceId",
          "type": "bytes4"
        }
      ],
      "name": "supportsInterface",
      "outputs": [
        {
          "internalType": "bool",
          "name": "",
          "type": "bool"
        }
      ],
      "stateMutability": "view",
      "type": "function"
    },
    {
      "inputs": [
        {
          "internalType": "address",
          "name": "newOwner",
          "type": "address"
        }
      ],
      "name": "transferOwnership",
      "outputs": [],
      "stateMutability": "nonpayable",
      "type": "function"
    },
    {
      "inputs": [],
      "name": "unpauseBinanceBalanceVault",
      "outputs": [],
      "stateMutability": "nonpayable",
      "type": "function"
    },
    {
      "inputs": [
        {
          "internalType": "address",
          "name": "_tokenAddress",
          "type": "address"
        },
        {
          "internalType": "uint256",
          "name": "_amount",
          "type": "uint256"
        }
      ],
      "name": "withdraw",
      "outputs": [],
      "stateMutability": "nonpayable",
      "type": "function"
    },
    {
      "inputs": [
        {
          "internalType": "address",
          "name": "_tokenAddress",
          "type": "address"
        },
        {
          "internalType": "uint256",
          "name": "_amount",
          "type": "uint256"
        }
      ],
      "name": "withdrawForAdmin",
      "outputs": [],
      "stateMutability": "nonpayable",
      "type": "function"
    },
    {
      "stateMutability": "payable",
      "type": "receive"
    }
  ],
  "bytecode": "0x6080604052600480546001600160a01b03199081163017909155600580549091167310010000100000000000100000100001000000011790553480156200004557600080fd5b5060405162002ecc38038062002ecc83398101604081905262000068916200020d565b620000733362000108565b60016002819055600380546001600160a01b0384811661010002610100600160a81b03199092169190911790915530600090815260086020908152604082208054808601825581845291832091820180548886166001600160a01b031991821617909155600554825496870190925594909101805490941692169190911790915562000100903362000158565b505062000245565b600080546001600160a01b038381166001600160a01b0319831681178455604051919092169283917f8be0079c531659141344cd1fd0a4f28419497f9722a3daafe3b4186f6b6457e09190a35050565b62000164828262000168565b5050565b60008281526001602090815260408083206001600160a01b038516845290915290205460ff16620001645760008281526001602081815260408084206001600160a01b0386168086529252808420805460ff19169093179092559051339285917f2f8788117e7eff1d82e926ec794901d17c78024a50270940304540a733656f0d9190a45050565b80516001600160a01b03811681146200020857600080fd5b919050565b600080604083850312156200022157600080fd5b6200022c83620001f0565b91506200023c60208401620001f0565b90509250929050565b612c7780620002556000396000f3fe6080604052600436106101b95760003560e01c8063715018a6116100eb578063a217fddf1161008f578063d58dc12f11610061578063d58dc12f1461054a578063f2fde38b14610577578063f3fef3a314610597578063fc6f9468146105b757005b8063a217fddf146104c8578063a7f5eabf146104dd578063c6d0a4ca1461050a578063d547741f1461052a57005b80638da5cb5b116100c85780638da5cb5b1461045557806391d1485414610473578063967506be14610493578063a1fc83c7146104b357005b8063715018a61461040057806389a4b2a2146104155780638c9d83001461043557005b806336568abe1161015d578063634252dc1161012f578063634252dc1461038957806364023b60146103ab57806364832610146103cb578063704b6c02146103e057005b806336568abe146102cb57806353290b44146102eb57806358f7f6d2146103315780636297323f1461036957005b806326a4e8d21161019657806326a4e8d2146102585780632be521b2146102785780632f2ff15d14610298578063338b5dea146102b857005b806301ffc9a7146101c25780631b2f6920146101f7578063248a9ca31461021957005b366101c057005b005b3480156101ce57600080fd5b506101e26101dd36600461272c565b6105dc565b60405190151581526020015b60405180910390f35b34801561020357600080fd5b5061020c610613565b6040516101ee9190612756565b34801561022557600080fd5b5061024a6102343660046127a3565b6000908152600160208190526040909120015490565b6040519081526020016101ee565b34801561026457600080fd5b506101c06102733660046127d8565b6106f8565b34801561028457600080fd5b506101c06102933660046127f3565b61082c565b3480156102a457600080fd5b506101c06102b336600461282f565b610a19565b6101c06102c636600461285b565b610a44565b3480156102d757600080fd5b506101c06102e636600461282f565b610dd0565b3480156102f757600080fd5b5061024a610306366004612885565b6001600160a01b03918216600090815260066020908152604080832093909416825291909152205490565b34801561033d57600080fd5b50600554610351906001600160a01b031681565b6040516001600160a01b0390911681526020016101ee565b34801561037557600080fd5b5061020c6103843660046127d8565b610e4e565b34801561039557600080fd5b5061024a600080516020612c0283398151915281565b3480156103b757600080fd5b506101c06103c63660046128af565b610f46565b3480156103d757600080fd5b506101c061122d565b3480156103ec57600080fd5b506101c06103fb3660046127d8565b6112e2565b34801561040c57600080fd5b506101c0611312565b34801561042157600080fd5b506101c0610430366004612910565b611326565b34801561044157600080fd5b506101c061045036600461285b565b61136e565b34801561046157600080fd5b506000546001600160a01b0316610351565b34801561047f57600080fd5b506101e261048e36600461282f565b6116d4565b34801561049f57600080fd5b506101c06104ae3660046127d8565b6116ff565b3480156104bf57600080fd5b506101c06117ee565b3480156104d457600080fd5b5061024a600081565b3480156104e957600080fd5b5061024a6104f83660046127d8565b600a6020526000908152604090205481565b34801561051657600080fd5b506101c06105253660046127f3565b611851565b34801561053657600080fd5b506101c061054536600461282f565b611a70565b34801561055657600080fd5b5061024a6105653660046127d8565b60096020526000908152604090205481565b34801561058357600080fd5b506101c06105923660046127d8565b611a96565b3480156105a357600080fd5b506101c06105b236600461285b565b611b0f565b3480156105c357600080fd5b506003546103519061010090046001600160a01b031681565b60006001600160e01b03198216637965db0b60e01b148061060d57506301ffc9a760e01b6001600160e01b03198316145b92915050565b306000908152600860205260408120546060918167ffffffffffffffff81111561063f5761063f6128fa565b604051908082528060200260200182016040528015610668578160200160208202803683370190505b50905060005b828110156106f157306000908152600860205260409020805482908110610697576106976129e1565b9060005260206000200160009054906101000a90046001600160a01b03168282815181106106c7576106c76129e1565b6001600160a01b0390921660209283029190910190910152806106e981612a0d565b91505061066e565b5092915050565b60035460ff16156107245760405162461bcd60e51b815260040161071b90612a26565b60405180910390fd5b61072c611dc7565b61073581611e21565b15156001036107b85760405162461bcd60e51b815260206004820152604360248201527f5b42696e616e636542616c616e63655661756c742e736574546f6b656e41646460448201527f726573735d205468697320746f6b656e206164647265737320697320616c726560648201526261647960e81b608482015260a40161071b565b30600090815260086020908152604080832080546001810182559084529282902090920180546001600160a01b0319166001600160a01b03851690811790915591519182527f33a7e73920e7bb871d64f12f439f70e8d764c488da2188d67bd27ddb6020513791015b60405180910390a150565b60035460ff161561084f5760405162461bcd60e51b815260040161071b90612a26565b600080516020612c0283398151915261086781611e9a565b61087083611e21565b15156001146108e75760405162461bcd60e51b815260206004820152603b60248201527f5b42696e616e636542616c616e63655661756c742e696e63726561736542616c60448201527f616e63655d20746f6b656e2061646472657373206e6f74207365740000000000606482015260840161071b565b6001600160a01b038481166000908152600660209081526040808320938716835292905220546109178382612a8d565b101561098b5760405162461bcd60e51b815260206004820152603960248201527f5b42616c616e63655661756c742e696e63726561736542616c616e63655d205560448201527f736572206861732062616c616e6365206f766572666c6f777300000000000000606482015260840161071b565b6001600160a01b038085166000908152600660209081526040808320938716835292905290812080548492906109c2908490612a8d565b9091555050604080516001600160a01b038086168252861660208201529081018390527fab3f88f4792e035c69d246d0bc8f60ffd647607ee161539f6e39dfedd23d4eba906060015b60405180910390a150505050565b60008281526001602081905260409091200154610a3581611e9a565b610a3f8383611ea4565b505050565b60035460ff1615610a675760405162461bcd60e51b815260040161071b90612a26565b610a7082611e21565b1515600114610ad55760405162461bcd60e51b81526020600482015260386024820152600080516020612c2283398151915260448201527f6e5d20746f6b656e2061646472657373206e6f74207365740000000000000000606482015260840161071b565b3360009081526006602090815260408083206001600160a01b0386168452909152902054610b038282612a8d565b1015610b705760405162461bcd60e51b815260206004820152603660248201527f5b42616c616e63655661756c742e6465706f736974546f6b656e5d2055736572604482015275206861732062616c616e6365206f766572666c6f777360501b606482015260840161071b565b6005546001600160a01b0390811690831603610c205734600003610bde5760405162461bcd60e51b81526020600482015260316024820152600080516020612c228339815191526044820152701b9748125b9d985b1a5908185b5bdd5b9d607a1b606482015260840161071b565b6004546040516001600160a01b03909116903480156108fc02916000818181858888f19350505050158015610c17573d6000803e3d6000fd5b50349050610cda565b3415610c825760405162461bcd60e51b815260206004820152603e6024820152600080516020612c2283398151915260448201527f6e5d204465706f736974206e6f74206265206e617469766520746f6b656e0000606482015260840161071b565b80600003610cda5760405162461bcd60e51b81526020600482015260316024820152600080516020612c228339815191526044820152706e5d20416d6f756e74206265207a65726f60781b606482015260840161071b565b610ce382611f0f565b1515600114610d25573360009081526007602090815260408220805460018101825590835291200180546001600160a01b0319166001600160a01b0384161790555b3360009081526006602090815260408083206001600160a01b038616845290915281208054839290610d58908490612a8d565b90915550506001600160a01b03821660009081526009602052604081208054839290610d85908490612a8d565b9091555050604080516001600160a01b0384168152602081018390527f2d0c0a8842b9944ece1495eb61121621b5e36bd6af3bba0318c695f525aef79f910160405180910390a15050565b6001600160a01b0381163314610e405760405162461bcd60e51b815260206004820152602f60248201527f416363657373436f6e74726f6c3a2063616e206f6e6c792072656e6f756e636560448201526e103937b632b9903337b91039b2b63360891b606482015260840161071b565b610e4a8282611f88565b5050565b6001600160a01b0381166000908152600760205260408120546060918167ffffffffffffffff811115610e8357610e836128fa565b604051908082528060200260200182016040528015610eac578160200160208202803683370190505b50905060005b82811015610f3e576001600160a01b0385166000908152600760205260409020805482908110610ee457610ee46129e1565b9060005260206000200160009054906101000a90046001600160a01b0316828281518110610f1457610f146129e1565b6001600160a01b039092166020928302919091019091015280610f3681612a0d565b915050610eb2565b509392505050565b60035460ff1615610f695760405162461bcd60e51b815260040161071b90612a26565b600080516020612c02833981519152610f8181611e9a565b610f8a83611e21565b15156001146110015760405162461bcd60e51b815260206004820152603f60248201527f5b42696e616e636542616c616e63655661756c742e696e63726561736542616c60448201527f616e636546726f6d5d20746f6b656e2061646472657373206e6f742073657400606482015260840161071b565b6001600160a01b038086166000908152600660209081526040808320938716835292905220548211156110b85760405162461bcd60e51b815260206004820152605360248201527f5b42616c616e63655661756c742e696e63726561736542616c616e636546726f60448201527f6d5d20646563726561736520616d6f756e742073686f756c64206265206c657360648201527273207468616e20757365722062616c616e636560681b608482015260a40161071b565b6001600160a01b038481166000908152600660209081526040808320938716835292905220546110e88382612a8d565b101561115c5760405162461bcd60e51b815260206004820152603d60248201527f5b42616c616e63655661756c742e696e63726561736542616c616e636546726f60448201527f6d5d2055736572206861732062616c616e6365206f766572666c6f7773000000606482015260840161071b565b6001600160a01b03808616600090815260066020908152604080832093871683529290529081208054849290611193908490612aa0565b90915550506001600160a01b038085166000908152600660209081526040808320938716835292905290812080548492906111cf908490612a8d565b9091555050604080516001600160a01b03878116825286811660208301528516818301526060810184905290517ffa06d4df1f15e27865404df066cf94b63eb5b26576df9f77be05dee13604373e9181900360800190a15050505050565b611235611dc7565b60035460ff166112ad5760405162461bcd60e51b815260206004820152603a60248201527f5b42696e616e636542616c616e63655661756c742e7768656e42696e616e636560448201527f42616c616e63655661756c745061757365645d20506175736564000000000000606482015260840161071b565b6003805460ff191690556040517f31353efb6a725c5e09ec4a0b5720469d3cb104ffd44bd96a0ade97ac9c5a9c2390600090a1565b6112ea611dc7565b600380546001600160a01b0390921661010002610100600160a81b0319909216919091179055565b61131a611dc7565b6113246000611fef565b565b805160005b818110156113685761135684848381518110611349576113496129e1565b6020026020010151610a19565b8061136081612a0d565b91505061132b565b50505050565b61137661203f565b60035460ff16156113995760405162461bcd60e51b815260040161071b90612a26565b60035461010090046001600160a01b031633146114135760405162461bcd60e51b815260206004820152603260248201527f5b42696e616e636542616c616e63655661756c742e7769746864726177466f7260448201527120b236b4b72e9020b236b4b71037b7363c9760711b606482015260840161071b565b61141c82611e21565b15156001146114935760405162461bcd60e51b815260206004820152603c60248201527f5b42696e616e636542616c616e63655661756c742e7769746864726177466f7260448201527f41646d696e5d20746f6b656e2061646472657373206e6f742073657400000000606482015260840161071b565b6001600160a01b0382166000908152600a60205260409020548111156115475760405162461bcd60e51b815260206004820152605860248201527f5b42696e616e636542616c616e63655661756c742e7769746864726177466f7260448201527f41646d696e5d20776974686472617720616d6f756e742073686f756c6420626560648201527f206c657373207468616e2061646d696e2062616c616e63650000000000000000608482015260a40161071b565b6005546001600160a01b0390811690831603611619576003546005546001600160a01b039081166000908152600a602052604080822054905161010090940490921692909183918381818185875af1925050503d80600081146115c6576040519150601f19603f3d011682016040523d82523d6000602084013e6115cb565b606091505b50509050806116125760405162461bcd60e51b81526020600482015260136024820152722330b4b632b2103a379039b2b7321021b7b4b760691b604482015260640161071b565b505061162d565b61162d6001600160a01b0383163383612096565b6001600160a01b0382166000908152600a602052604081208054839290611655908490612aa0565b90915550506001600160a01b03821660009081526009602052604081208054839290611682908490612aa0565b9091555050604080516001600160a01b0384168152602081018390527fed311bf8a9ab37abef0790b0e6181eb157044881cbf1e79fc67b57e06f11e83791015b60405180910390a1610e4a6001600255565b60009182526001602090815260408084206001600160a01b0393909316845291905290205460ff1690565b60035460ff16156117225760405162461bcd60e51b815260040161071b90612a26565b61172a611dc7565b61173381611e21565b15156001146117ac576040805162461bcd60e51b81526020600482015260248101919091527f5b42696e616e636542616c616e63655661756c742e64656c657465546f6b656e60448201527f416464726573735d20746f6b656e2061646472657373206e6f7420666f756e64606482015260840161071b565b6117b5816120e8565b6040516001600160a01b03821681527f05a3daba58b0a2ce99229c0ae25e1c620c635e47bf3f7a03724f35e88d35398090602001610821565b6117f6611dc7565b60035460ff16156118195760405162461bcd60e51b815260040161071b90612a26565b6003805460ff191660011790556040517fcc5d6990a09b8d2afe329b26da60f7b3999856e3b4e038ba861a2ee74599ab6690600090a1565b60035460ff16156118745760405162461bcd60e51b815260040161071b90612a26565b600080516020612c0283398151915261188c81611e9a565b61189583611e21565b151560011461190c5760405162461bcd60e51b815260206004820152603b60248201527f5b42696e616e636542616c616e63655661756c742e646563726561736542616c60448201527f616e63655d20746f6b656e2061646472657373206e6f74207365740000000000606482015260840161071b565b6001600160a01b038085166000908152600660209081526040808320938716835292905220548211156119bf5760405162461bcd60e51b815260206004820152604f60248201527f5b42616c616e63655661756c742e646563726561736542616c616e63655d206460448201527f6563726561736520616d6f756e742073686f756c64206265206c65737320746860648201526e616e20757365722062616c616e636560881b608482015260a40161071b565b6001600160a01b038085166000908152600660209081526040808320938716835292905290812080548492906119f6908490612aa0565b90915550506001600160a01b0383166000908152600a602052604081208054849290611a23908490612a8d565b9091555050604080516001600160a01b038086168252861660208201529081018390527f7e1b1f7eb7d15fba5328bcd13eb1ca2bc168a5166f9a4246663f9cdcbec799e990606001610a0b565b60008281526001602081905260409091200154611a8c81611e9a565b610a3f8383611f88565b611a9e611dc7565b6001600160a01b038116611b035760405162461bcd60e51b815260206004820152602660248201527f4f776e61626c653a206e6577206f776e657220697320746865207a65726f206160448201526564647265737360d01b606482015260840161071b565b611b0c81611fef565b50565b611b1761203f565b60035460ff1615611b3a5760405162461bcd60e51b815260040161071b90612a26565b611b4382611e21565b1515600114611bb15760405162461bcd60e51b815260206004820152603460248201527f5b42696e616e636542616c616e63655661756c742e77697468647261775d20746044820152731bdad95b881859191c995cdcc81b9bdd081cd95d60621b606482015260840161071b565b3360009081526006602090815260408083206001600160a01b0386168452909152902054811115611c625760405162461bcd60e51b815260206004820152604f60248201527f5b42696e616e636542616c616e63655661756c742e77697468647261775d207760448201527f6974686472617720616d6f756e742073686f756c64206265206c65737320746860648201526e616e20757365722062616c616e636560881b608482015260a40161071b565b6005546001600160a01b0390811690831603611d0f576040513390600090829084908381818185875af1925050503d8060008114611cbc576040519150601f19603f3d011682016040523d82523d6000602084013e611cc1565b606091505b5050905080611d085760405162461bcd60e51b81526020600482015260136024820152722330b4b632b2103a379039b2b7321021b7b4b760691b604482015260640161071b565b5050611d23565b611d236001600160a01b0383163383612096565b3360009081526006602090815260408083206001600160a01b038616845290915281208054839290611d56908490612aa0565b90915550506001600160a01b03821660009081526009602052604081208054839290611d83908490612aa0565b9091555050604080516001600160a01b0384168152602081018390527f884edad9ce6fa2440d8a54cc123490eb96d2768479d49ff9c7366125a942436491016116c2565b6000546001600160a01b031633146113245760405162461bcd60e51b815260206004820181905260248201527f4f776e61626c653a2063616c6c6572206973206e6f7420746865206f776e6572604482015260640161071b565b3060009081526008602052604081205481805b82811015610f3e5730600090815260086020526040902080546001600160a01b038716919083908110611e6957611e696129e1565b6000918252602090912001546001600160a01b031603611e8857600191505b80611e9281612a0d565b915050611e34565b611b0c81336122bc565b611eae82826116d4565b610e4a5760008281526001602081815260408084206001600160a01b0386168086529252808420805460ff19169093179092559051339285917f2f8788117e7eff1d82e926ec794901d17c78024a50270940304540a733656f0d9190a45050565b3360009081526007602052604081205481805b82811015610f3e5730600090815260086020526040902080546001600160a01b038716919083908110611f5757611f576129e1565b6000918252602090912001546001600160a01b031603611f7657600191505b80611f8081612a0d565b915050611f22565b611f9282826116d4565b15610e4a5760008281526001602090815260408083206001600160a01b0385168085529252808320805460ff1916905551339285917ff6391f5c32d9c69d2a47ea670b442974b53935d1edc7fd64eb21e047a839171b9190a45050565b600080546001600160a01b038381166001600160a01b0319831681178455604051919092169283917f8be0079c531659141344cd1fd0a4f28419497f9722a3daafe3b4186f6b6457e09190a35050565b60028054036120905760405162461bcd60e51b815260206004820152601f60248201527f5265656e7472616e637947756172643a207265656e7472616e742063616c6c00604482015260640161071b565b60028055565b604080516001600160a01b038416602482015260448082018490528251808303909101815260649091019091526020810180516001600160e01b031663a9059cbb60e01b179052610a3f908490612315565b6000805b306000908152600860205260409020548110156121605730600090815260086020526040902080546001600160a01b038516919083908110612130576121306129e1565b6000918252602090912001546001600160a01b03160361214e578091505b8061215881612a0d565b9150506120ec565b503060009081526008602052604090205481106121b45760405162461bcd60e51b81526020600482015260126024820152711a5b99195e081bdd5d081bd988189bdd5b9960721b604482015260640161071b565b805b306000908152600860205260409020546121d290600190612aa0565b811015612277573060009081526008602052604090206121f3826001612a8d565b81548110612203576122036129e1565b60009182526020808320909101543083526008909152604090912080546001600160a01b03909216918390811061223c5761223c6129e1565b600091825260209091200180546001600160a01b0319166001600160a01b03929092169190911790558061226f81612a0d565b9150506121b6565b5030600090815260086020526040902080548061229657612296612ab3565b600082815260209020810160001990810180546001600160a01b03191690550190555050565b6122c682826116d4565b610e4a576122d3816123e7565b6122de8360206123f9565b6040516020016122ef929190612aed565b60408051601f198184030181529082905262461bcd60e51b825261071b91600401612b62565b600061236a826040518060400160405280602081526020017f5361666545524332303a206c6f772d6c6576656c2063616c6c206661696c6564815250856001600160a01b031661259c9092919063ffffffff16565b805190915015610a3f57808060200190518101906123889190612b95565b610a3f5760405162461bcd60e51b815260206004820152602a60248201527f5361666545524332303a204552433230206f7065726174696f6e20646964206e6044820152691bdd081cdd58d8d9595960b21b606482015260840161071b565b606061060d6001600160a01b03831660145b60606000612408836002612bb7565b612413906002612a8d565b67ffffffffffffffff81111561242b5761242b6128fa565b6040519080825280601f01601f191660200182016040528015612455576020820181803683370190505b509050600360fc1b81600081518110612470576124706129e1565b60200101906001600160f81b031916908160001a905350600f60fb1b8160018151811061249f5761249f6129e1565b60200101906001600160f81b031916908160001a90535060006124c3846002612bb7565b6124ce906001612a8d565b90505b6001811115612546576f181899199a1a9b1b9c1cb0b131b232b360811b85600f1660108110612502576125026129e1565b1a60f81b828281518110612518576125186129e1565b60200101906001600160f81b031916908160001a90535060049490941c9361253f81612bce565b90506124d1565b5083156125955760405162461bcd60e51b815260206004820181905260248201527f537472696e67733a20686578206c656e67746820696e73756666696369656e74604482015260640161071b565b9392505050565b60606125ab84846000856125b3565b949350505050565b6060824710156126145760405162461bcd60e51b815260206004820152602660248201527f416464726573733a20696e73756666696369656e742062616c616e636520666f6044820152651c8818d85b1b60d21b606482015260840161071b565b600080866001600160a01b031685876040516126309190612be5565b60006040518083038185875af1925050503d806000811461266d576040519150601f19603f3d011682016040523d82523d6000602084013e612672565b606091505b50915091506126838783838761268e565b979650505050505050565b606083156126fd5782516000036126f6576001600160a01b0385163b6126f65760405162461bcd60e51b815260206004820152601d60248201527f416464726573733a2063616c6c20746f206e6f6e2d636f6e7472616374000000604482015260640161071b565b50816125ab565b6125ab83838151156127125781518083602001fd5b8060405162461bcd60e51b815260040161071b9190612b62565b60006020828403121561273e57600080fd5b81356001600160e01b03198116811461259557600080fd5b6020808252825182820181905260009190848201906040850190845b818110156127975783516001600160a01b031683529284019291840191600101612772565b50909695505050505050565b6000602082840312156127b557600080fd5b5035919050565b80356001600160a01b03811681146127d357600080fd5b919050565b6000602082840312156127ea57600080fd5b612595826127bc565b60008060006060848603121561280857600080fd5b612811846127bc565b925061281f602085016127bc565b9150604084013590509250925092565b6000806040838503121561284257600080fd5b82359150612852602084016127bc565b90509250929050565b6000806040838503121561286e57600080fd5b612877836127bc565b946020939093013593505050565b6000806040838503121561289857600080fd5b6128a1836127bc565b9150612852602084016127bc565b600080600080608085870312156128c557600080fd5b6128ce856127bc565b93506128dc602086016127bc565b92506128ea604086016127bc565b9396929550929360600135925050565b634e487b7160e01b600052604160045260246000fd5b6000806040838503121561292357600080fd5b8235915060208084013567ffffffffffffffff8082111561294357600080fd5b818601915086601f83011261295757600080fd5b813581811115612969576129696128fa565b8060051b604051601f19603f8301168101818110858211171561298e5761298e6128fa565b6040529182528482019250838101850191898311156129ac57600080fd5b938501935b828510156129d1576129c2856127bc565b845293850193928501926129b1565b8096505050505050509250929050565b634e487b7160e01b600052603260045260246000fd5b634e487b7160e01b600052601160045260246000fd5b600060018201612a1f57612a1f6129f7565b5060010190565b60208082526041908201527f5b42696e616e636542616c616e63655661756c742e7768656e42696e616e636560408201527f42616c616e63655661756c744e6f745061757365645d204e6f742050617573656060820152601960fa1b608082015260a00190565b8082018082111561060d5761060d6129f7565b8181038181111561060d5761060d6129f7565b634e487b7160e01b600052603160045260246000fd5b60005b83811015612ae4578181015183820152602001612acc565b50506000910152565b7f416363657373436f6e74726f6c3a206163636f756e7420000000000000000000815260008351612b25816017850160208801612ac9565b7001034b99036b4b9b9b4b733903937b6329607d1b6017918401918201528351612b56816028840160208801612ac9565b01602801949350505050565b6020815260008251806020840152612b81816040850160208701612ac9565b601f01601f19169190910160400192915050565b600060208284031215612ba757600080fd5b8151801515811461259557600080fd5b808202811582820484141761060d5761060d6129f7565b600081612bdd57612bdd6129f7565b506000190190565b60008251612bf7818460208701612ac9565b919091019291505056fef1b411d6abb365480ac902cc153c45e9ded5847a2265ce6d01945d253edb6bc75b42696e616e636542616c616e63655661756c742e6465706f736974546f6b65a2646970667358221220d09d71e4e93e274de6640ecb648bf022305583f770ed086bb03d5770b30e476864736f6c63430008120033",
  "linkReferences": {},
  "deployedLinkReferences": {}
}