{
  "_format": "hh-sol-artifact-1",
  "contractName": "FlexibleStaking",
  "sourceName": "contracts/FlexibleStaking.sol",
  "abi": [
    {
      "inputs": [
        {
          "internalType": "address",
          "name": "_nakaTokenAddress",
          "type": "address"
        },
        {
          "internalType": "uint256",
          "name": "_startStakeTime",
          "type": "uint256"
        },
        {
          "internalType": "uint256",
          "name": "_endStakeTime",
          "type": "uint256"
        },
        {
          "internalType": "uint256",
          "name": "_userStakeLimit",
          "type": "uint256"
        },
        {
          "internalType": "uint256",
          "name": "_poolStakeLimit",
          "type": "uint256"
        }
      ],
      "stateMutability": "nonpayable",
      "type": "constructor"
    },
    {
      "anonymous": false,
      "inputs": [
        {
          "indexed": true,
          "internalType": "address",
          "name": "userAddress",
          "type": "address"
        },
        {
          "indexed": false,
          "internalType": "uint256",
          "name": "nakaAmount",
          "type": "uint256"
        }
      ],
      "name": "NakaStaked",
      "type": "event"
    },
    {
      "anonymous": false,
      "inputs": [
        {
          "indexed": true,
          "internalType": "address",
          "name": "previousOwner",
          "type": "address"
        },
        {
          "indexed": true,
          "internalType": "address",
          "name": "newOwner",
          "type": "address"
        }
      ],
      "name": "OwnershipTransferred",
      "type": "event"
    },
    {
      "anonymous": false,
      "inputs": [
        {
          "indexed": false,
          "internalType": "address",
          "name": "account",
          "type": "address"
        }
      ],
      "name": "Paused",
      "type": "event"
    },
    {
      "anonymous": false,
      "inputs": [
        {
          "indexed": false,
          "internalType": "uint256",
          "name": "nakaAmount",
          "type": "uint256"
        }
      ],
      "name": "PoolRewardAdded",
      "type": "event"
    },
    {
      "anonymous": false,
      "inputs": [
        {
          "indexed": false,
          "internalType": "uint256",
          "name": "nakaAmount",
          "type": "uint256"
        }
      ],
      "name": "PoolRewardReduced",
      "type": "event"
    },
    {
      "anonymous": false,
      "inputs": [
        {
          "indexed": true,
          "internalType": "address",
          "name": "userAddress",
          "type": "address"
        },
        {
          "indexed": false,
          "internalType": "uint256",
          "name": "nakaAmount",
          "type": "uint256"
        }
      ],
      "name": "RewardClaimed",
      "type": "event"
    },
    {
      "anonymous": false,
      "inputs": [],
      "name": "StakingPaused",
      "type": "event"
    },
    {
      "anonymous": false,
      "inputs": [],
      "name": "StakingUnpaused",
      "type": "event"
    },
    {
      "anonymous": false,
      "inputs": [
        {
          "indexed": false,
          "internalType": "address",
          "name": "account",
          "type": "address"
        }
      ],
      "name": "Unpaused",
      "type": "event"
    },
    {
      "anonymous": false,
      "inputs": [
        {
          "indexed": true,
          "internalType": "address",
          "name": "userAddress",
          "type": "address"
        },
        {
          "indexed": false,
          "internalType": "uint256",
          "name": "nakaAmount",
          "type": "uint256"
        }
      ],
      "name": "WithdrawnNaka",
      "type": "event"
    },
    {
      "stateMutability": "payable",
      "type": "fallback"
    },
    {
      "inputs": [],
      "name": "DAYEPOCH",
      "outputs": [
        {
          "internalType": "uint256",
          "name": "",
          "type": "uint256"
        }
      ],
      "stateMutability": "view",
      "type": "function"
    },
    {
      "inputs": [
        {
          "internalType": "uint256",
          "name": "_nakaAmount",
          "type": "uint256"
        }
      ],
      "name": "addPoolReward",
      "outputs": [],
      "stateMutability": "nonpayable",
      "type": "function"
    },
    {
      "inputs": [
        {
          "internalType": "uint256",
          "name": "_nakaAmount",
          "type": "uint256"
        }
      ],
      "name": "claimReward",
      "outputs": [],
      "stateMutability": "nonpayable",
      "type": "function"
    },
    {
      "inputs": [],
      "name": "distributedReward",
      "outputs": [
        {
          "internalType": "uint256",
          "name": "",
          "type": "uint256"
        }
      ],
      "stateMutability": "view",
      "type": "function"
    },
    {
      "inputs": [],
      "name": "duration",
      "outputs": [
        {
          "internalType": "uint256",
          "name": "",
          "type": "uint256"
        }
      ],
      "stateMutability": "view",
      "type": "function"
    },
    {
      "inputs": [],
      "name": "endStakeTime",
      "outputs": [
        {
          "internalType": "uint256",
          "name": "",
          "type": "uint256"
        }
      ],
      "stateMutability": "view",
      "type": "function"
    },
    {
      "inputs": [],
      "name": "getCurrentAPR",
      "outputs": [
        {
          "internalType": "uint256",
          "name": "",
          "type": "uint256"
        }
      ],
      "stateMutability": "view",
      "type": "function"
    },
    {
      "inputs": [
        {
          "internalType": "address",
          "name": "_userAddress",
          "type": "address"
        }
      ],
      "name": "getUserClaimedAmount",
      "outputs": [
        {
          "internalType": "uint256",
          "name": "",
          "type": "uint256"
        }
      ],
      "stateMutability": "view",
      "type": "function"
    },
    {
      "inputs": [
        {
          "internalType": "address",
          "name": "_userAddress",
          "type": "address"
        }
      ],
      "name": "getUserStakeAmount",
      "outputs": [
        {
          "internalType": "uint256",
          "name": "",
          "type": "uint256"
        }
      ],
      "stateMutability": "view",
      "type": "function"
    },
    {
      "inputs": [
        {
          "internalType": "address",
          "name": "_userAddress",
          "type": "address"
        }
      ],
      "name": "getUserUnclaimAmount",
      "outputs": [
        {
          "internalType": "uint256",
          "name": "",
          "type": "uint256"
        }
      ],
      "stateMutability": "view",
      "type": "function"
    },
    {
      "inputs": [
        {
          "internalType": "uint256",
          "name": "_day",
          "type": "uint256"
        }
      ],
      "name": "increaseDay",
      "outputs": [],
      "stateMutability": "nonpayable",
      "type": "function"
    },
    {
      "inputs": [],
      "name": "nakaTokenAddress",
      "outputs": [
        {
          "internalType": "address",
          "name": "",
          "type": "address"
        }
      ],
      "stateMutability": "view",
      "type": "function"
    },
    {
      "inputs": [],
      "name": "owner",
      "outputs": [
        {
          "internalType": "address",
          "name": "",
          "type": "address"
        }
      ],
      "stateMutability": "view",
      "type": "function"
    },
    {
      "inputs": [],
      "name": "pause",
      "outputs": [],
      "stateMutability": "nonpayable",
      "type": "function"
    },
    {
      "inputs": [],
      "name": "paused",
      "outputs": [
        {
          "internalType": "bool",
          "name": "",
          "type": "bool"
        }
      ],
      "stateMutability": "view",
      "type": "function"
    },
    {
      "inputs": [],
      "name": "poolReward",
      "outputs": [
        {
          "internalType": "uint256",
          "name": "",
          "type": "uint256"
        }
      ],
      "stateMutability": "view",
      "type": "function"
    },
    {
      "inputs": [],
      "name": "poolStakeLimit",
      "outputs": [
        {
          "internalType": "uint256",
          "name": "",
          "type": "uint256"
        }
      ],
      "stateMutability": "view",
      "type": "function"
    },
    {
      "inputs": [],
      "name": "poolStakeTotal",
      "outputs": [
        {
          "internalType": "uint256",
          "name": "",
          "type": "uint256"
        }
      ],
      "stateMutability": "view",
      "type": "function"
    },
    {
      "inputs": [],
      "name": "renounceOwnership",
      "outputs": [],
      "stateMutability": "nonpayable",
      "type": "function"
    },
    {
      "inputs": [
        {
          "internalType": "uint256",
          "name": "_nakaAmount",
          "type": "uint256"
        }
      ],
      "name": "stakeNaka",
      "outputs": [],
      "stateMutability": "nonpayable",
      "type": "function"
    },
    {
      "inputs": [],
      "name": "startStakeTime",
      "outputs": [
        {
          "internalType": "uint256",
          "name": "",
          "type": "uint256"
        }
      ],
      "stateMutability": "view",
      "type": "function"
    },
    {
      "inputs": [
        {
          "internalType": "address",
          "name": "newOwner",
          "type": "address"
        }
      ],
      "name": "transferOwnership",
      "outputs": [],
      "stateMutability": "nonpayable",
      "type": "function"
    },
    {
      "inputs": [],
      "name": "unpause",
      "outputs": [],
      "stateMutability": "nonpayable",
      "type": "function"
    },
    {
      "inputs": [
        {
          "internalType": "address",
          "name": "",
          "type": "address"
        }
      ],
      "name": "userInfo",
      "outputs": [
        {
          "internalType": "uint256",
          "name": "stakeAmount",
          "type": "uint256"
        },
        {
          "internalType": "uint256",
          "name": "claimedAmount",
          "type": "uint256"
        }
      ],
      "stateMutability": "view",
      "type": "function"
    },
    {
      "inputs": [],
      "name": "userStakeLimit",
      "outputs": [
        {
          "internalType": "uint256",
          "name": "",
          "type": "uint256"
        }
      ],
      "stateMutability": "view",
      "type": "function"
    },
    {
      "inputs": [],
      "name": "withdrawNaka",
      "outputs": [],
      "stateMutability": "nonpayable",
      "type": "function"
    },
    {
      "stateMutability": "payable",
      "type": "receive"
    }
  ],
  "bytecode": "0x60806040523480156200001157600080fd5b50604051620018d4380380620018d4833981016040819052620000349162000148565b6200003f33620000f8565b60018055600280546001600160a81b0319166101006001600160a01b038816021790556004849055600583905560078290556008819055600062015180620000888187620001dc565b600454620000979190620001b6565b620000a391906200019f565b905060006201518080600554620000bb9190620001dc565b600554620000ca9190620001b6565b620000d691906200019f565b90506000620000e68383620001b6565b60065550620002099650505050505050565b600080546001600160a01b038381166001600160a01b0319831681178455604051919092169283917f8be0079c531659141344cd1fd0a4f28419497f9722a3daafe3b4186f6b6457e09190a35050565b600080600080600060a086880312156200016157600080fd5b85516001600160a01b03811681146200017957600080fd5b602087015160408801516060890151608090990151929a91995097965090945092505050565b600082620001b157620001b1620001f3565b500490565b600082821015620001d757634e487b7160e01b600052601160045260246000fd5b500390565b600082620001ee57620001ee620001f3565b500690565b634e487b7160e01b600052601260045260246000fd5b6116bb80620002196000396000f3fe6080604052600436106101855760003560e01c80638456cb59116100d1578063a58f03aa1161008a578063da6caa9911610064578063da6caa9914610515578063e20bdc6714610535578063f2fde38b1461054b578063fef10b951461056b576101ea565b8063a58f03aa146104c9578063ae169a50146104df578063b0d079c8146104ff576101ea565b80638456cb5914610410578063856f0afc146104255780638da5cb5b1461043c5780638e96ad4f1461045a578063971bdecd146104935780639edf8c84146104b3576101ea565b80635c975abb1161013e57806371aec5151161011857806371aec5151461036757806371d8d2fe1461037d5780637612f53c146103ba57806380d4848d146103f0576101ea565b80635c975abb1461030f5780636296891614610332578063715018a614610352576101ea565b80630fb5a6b41461024657806311df24fb1461026f57806313061a7e146102855780631959a0021461029c57806321ae05c8146102e55780633f4ba83a146102fa576101ea565b366101ea5760405162461bcd60e51b815260206004820152602a60248201527f5b466c657869626c655374616b696e675d20526576657274207265636569766560448201526910333ab731ba34b7b71760b11b60648201526084015b60405180910390fd5b60405162461bcd60e51b815260206004820152602b60248201527f5b466c657869626c655374616b696e675d205265766572742066616c6c62616360448201526a3590333ab731ba34b7b71760a91b60648201526084016101e1565b34801561025257600080fd5b5061025c60065481565b6040519081526020015b60405180910390f35b34801561027b57600080fd5b5061025c60095481565b34801561029157600080fd5b5061029a610581565b005b3480156102a857600080fd5b506102d06102b7366004611455565b6003602052600090815260409020805460019091015482565b60408051928352602083019190915201610266565b3480156102f157600080fd5b5061025c61073e565b34801561030657600080fd5b5061029a61077c565b34801561031b57600080fd5b5060025460ff166040519015158152602001610266565b34801561033e57600080fd5b5061025c61034d366004611455565b6107d9565b34801561035e57600080fd5b5061029a6108de565b34801561037357600080fd5b5061025c60045481565b34801561038957600080fd5b506002546103a29061010090046001600160a01b031681565b6040516001600160a01b039091168152602001610266565b3480156103c657600080fd5b5061025c6103d5366004611455565b6001600160a01b031660009081526003602052604090205490565b3480156103fc57600080fd5b5061029a61040b3660046114a0565b610914565b34801561041c57600080fd5b5061029a610baf565b34801561043157600080fd5b5061025c6201518081565b34801561044857600080fd5b506000546001600160a01b03166103a2565b34801561046657600080fd5b5061025c610475366004611455565b6001600160a01b031660009081526003602052604090206001015490565b34801561049f57600080fd5b5061029a6104ae3660046114a0565b610c0c565b3480156104bf57600080fd5b5061025c600b5481565b3480156104d557600080fd5b5061025c60055481565b3480156104eb57600080fd5b5061029a6104fa3660046114a0565b610ca1565b34801561050b57600080fd5b5061025c60085481565b34801561052157600080fd5b5061029a6105303660046114a0565b610e90565b34801561054157600080fd5b5061025c60075481565b34801561055757600080fd5b5061029a610566366004611455565b610eda565b34801561057757600080fd5b5061025c600a5481565b6005544210156105f95760405162461bcd60e51b815260206004820152603e60248201527f5b466c657869626c655374616b696e672e61667465725374616b65456e64656460448201527f5d205374616b696e6720706572696f64206e6f742079657420656e646564000060648201526084016101e1565b6002600154141561061c5760405162461bcd60e51b81526004016101e190611580565b6002600155600061062c336107d9565b905080156106c05760405162461bcd60e51b815260206004820152605560248201527f5b466c657869626c655374616b696e672e77697468647261774e616b615d207560448201527f6e636c61696d20616d6f756e742073686f756c64206265207a65726f206265666064820152746f726520757365722063616e20776974686472617760581b608482015260a4016101e1565b336000818152600360205260409020546106da9190610f75565b336000818152600360209081526040918290205491519182527f493740f9c3d071241491123651666920d1e8f26fca11475330ca678e2ed89249910160405180910390a2503360009081526003602052604081208181556001908101919091558055565b6000600654600954600a5461016d61075691906115e3565b61076390620f42406115e3565b61076d91906115cf565b61077791906115cf565b905090565b6000546001600160a01b031633146107a65760405162461bcd60e51b81526004016101e19061154b565b6107ae611035565b6040517fa75958c26fdcd449db08b7c754dcddd7a15b023665ee9dbd2ef62d8e1befaa4a90600090a1565b6001600160a01b03811660009081526003602090815260408083208151808301909252805482526001015491810191909152816201518061081a8142611645565b6108249042611602565b61082e91906115cf565b9050600062015180806004546108449190611645565b6004546108519190611602565b61085b91906115cf565b90506000600654828461086e9190611602565b116108825761087d8284611602565b610886565b6006545b9050600060065460095483600a5488600001516108a391906115e3565b6108ad91906115e3565b6108b791906115cf565b6108c191906115cf565b90508460200151816108d39190611602565b979650505050505050565b6000546001600160a01b031633146109085760405162461bcd60e51b81526004016101e19061154b565b61091260006110c8565b565b600454421061098b5760405162461bcd60e51b815260206004820152603b60248201527f5b466c657869626c655374616b696e672e6265666f72655374616b655374617260448201527f7465645d205374616b696e6720706572696f642073746172746564000000000060648201526084016101e1565b60025460ff16156109ae5760405162461bcd60e51b81526004016101e190611521565b600260015414156109d15760405162461bcd60e51b81526004016101e190611580565b6002600155600754336000908152600360205260409020546109f390836115b7565b1115610a7d5760405162461bcd60e51b815260206004820152604d60248201527f5b466c657869626c655374616b696e672e7374616b654e616b615d20746f746160448201527f6c207374616b6520616d6f756e742073686f756c64206265206c65737320746860648201526c185b881d5cd95c881b1a5b5a5d609a1b608482015260a4016101e1565b600854600954610a8d90836115b7565b1115610b175760405162461bcd60e51b815260206004820152604d60248201527f5b466c657869626c655374616b696e672e7374616b654e616b615d20746f746160448201527f6c207374616b6520616d6f756e742073686f756c64206265206c65737320746860648201526c185b881c1bdbdb081b1a5b5a5d609a1b608482015260a4016101e1565b60025461010090046001600160a01b0316610b3481333085611118565b3360009081526003602052604081208054849290610b539084906115b7565b925050819055508160096000828254610b6c91906115b7565b909155505060405182815233907f6fe46bb50339d26311b4ed81fd49ba5c04e4c27b0c5a212f65f4d3a5d0c76cf0906020015b60405180910390a2505060018055565b6000546001600160a01b03163314610bd95760405162461bcd60e51b81526004016101e19061154b565b610be1611183565b6040517f26d1807b479eaba249c1214b82e4b65bbb0cc73ee8a17901324b1ef1b5904e4990600090a1565b6000546001600160a01b03163314610c365760405162461bcd60e51b81526004016101e19061154b565b60025461010090046001600160a01b0316610c5381333085611118565b81600a6000828254610c6591906115b7565b90915550506040518281527f343a996c42574d90e4ace8418fab63dd38adc037aeb70c2618efc5aba7523c029060200160405180910390a15050565b600454421015610d245760405162461bcd60e51b815260206004820152604260248201527f5b466c657869626c655374616b696e672e61667465725374616b65537461727460448201527f65645d205374616b696e6720706572696f64206e6f7420796574207374617274606482015261195960f21b608482015260a4016101e1565b60026001541415610d475760405162461bcd60e51b81526004016101e190611580565b6002600155610d5860025460ff1690565b15610d755760405162461bcd60e51b81526004016101e190611521565b6000610d80336107d9565b905080821115610e135760405162461bcd60e51b815260206004820152605260248201527f5b466c657869626c655374616b696e672e636c61696d5265776172645d20636c60448201527f61696d20616d6f756e742073686f756c64206265206c657373207468616e20756064820152711cd95c881d5b98db185a5b48185b5bdd5b9d60721b608482015260a4016101e1565b3360009081526003602052604081206001018054849290610e359084906115b7565b9250508190555081600b6000828254610e4e91906115b7565b90915550610e5e90503383610f75565b60405182815233907f106f923f993c2149d49b4255ff723acafa1f2d94393f561d3eda32ae348f724190602001610b9f565b610e9d81620151806115e3565b60046000828254610eae9190611602565b90915550610ec1905081620151806115e3565b60056000828254610ed29190611602565b909155505050565b6000546001600160a01b03163314610f045760405162461bcd60e51b81526004016101e19061154b565b6001600160a01b038116610f695760405162461bcd60e51b815260206004820152602660248201527f4f776e61626c653a206e6577206f776e657220697320746865207a65726f206160448201526564647265737360d01b60648201526084016101e1565b610f72816110c8565b50565b6002546040516370a0823160e01b81523060048201526101009091046001600160a01b03169060009082906370a082319060240160206040518083038186803b158015610fc157600080fd5b505afa158015610fd5573d6000803e3d6000fd5b505050506040513d601f19601f82011682018060405250810190610ff991906114b9565b905080831061101b576110166001600160a01b03831685836111db565b61102f565b61102f6001600160a01b03831685856111db565b50505050565b60025460ff1661107e5760405162461bcd60e51b815260206004820152601460248201527314185d5cd8589b194e881b9bdd081c185d5cd95960621b60448201526064016101e1565b6002805460ff191690557f5db9ee0a495bf2e6ff9c91a7834c1ba4fdd244a5e8aa4e537bd38aeae4b073aa335b6040516001600160a01b03909116815260200160405180910390a1565b600080546001600160a01b038381166001600160a01b0319831681178455604051919092169283917f8be0079c531659141344cd1fd0a4f28419497f9722a3daafe3b4186f6b6457e09190a35050565b6040516001600160a01b038085166024830152831660448201526064810182905261102f9085906323b872dd60e01b906084015b60408051601f198184030181529190526020810180516001600160e01b03166001600160e01b031990931692909217909152611210565b60025460ff16156111a65760405162461bcd60e51b81526004016101e190611521565b6002805460ff191660011790557f62e78cea01bee320cd4e420270b5ea74000d11b0c9f74754ebdbfc544b05a2586110ab3390565b6040516001600160a01b03831660248201526044810182905261120b90849063a9059cbb60e01b9060640161114c565b505050565b6000611265826040518060400160405280602081526020017f5361666545524332303a206c6f772d6c6576656c2063616c6c206661696c6564815250856001600160a01b03166112e29092919063ffffffff16565b80519091501561120b5780806020019051810190611283919061147e565b61120b5760405162461bcd60e51b815260206004820152602a60248201527f5361666545524332303a204552433230206f7065726174696f6e20646964206e6044820152691bdd081cdd58d8d9595960b21b60648201526084016101e1565b60606112f184846000856112fb565b90505b9392505050565b60608247101561135c5760405162461bcd60e51b815260206004820152602660248201527f416464726573733a20696e73756666696369656e742062616c616e636520666f6044820152651c8818d85b1b60d21b60648201526084016101e1565b6001600160a01b0385163b6113b35760405162461bcd60e51b815260206004820152601d60248201527f416464726573733a2063616c6c20746f206e6f6e2d636f6e747261637400000060448201526064016101e1565b600080866001600160a01b031685876040516113cf91906114d2565b60006040518083038185875af1925050503d806000811461140c576040519150601f19603f3d011682016040523d82523d6000602084013e611411565b606091505b50915091506108d38282866060831561142b5750816112f4565b82511561143b5782518084602001fd5b8160405162461bcd60e51b81526004016101e191906114ee565b60006020828403121561146757600080fd5b81356001600160a01b03811681146112f457600080fd5b60006020828403121561149057600080fd5b815180151581146112f457600080fd5b6000602082840312156114b257600080fd5b5035919050565b6000602082840312156114cb57600080fd5b5051919050565b600082516114e4818460208701611619565b9190910192915050565b602081526000825180602084015261150d816040850160208701611619565b601f01601f19169190910160400192915050565b60208082526010908201526f14185d5cd8589b194e881c185d5cd95960821b604082015260600190565b6020808252818101527f4f776e61626c653a2063616c6c6572206973206e6f7420746865206f776e6572604082015260600190565b6020808252601f908201527f5265656e7472616e637947756172643a207265656e7472616e742063616c6c00604082015260600190565b600082198211156115ca576115ca611659565b500190565b6000826115de576115de61166f565b500490565b60008160001904831182151516156115fd576115fd611659565b500290565b60008282101561161457611614611659565b500390565b60005b8381101561163457818101518382015260200161161c565b8381111561102f5750506000910152565b6000826116545761165461166f565b500690565b634e487b7160e01b600052601160045260246000fd5b634e487b7160e01b600052601260045260246000fdfea264697066735822122060e50fc5355d4ffac66baf874bc59d2d8f56da452fe7f63f4b27c80a517af53964736f6c63430008070033",
  "linkReferences": {},
  "deployedLinkReferences": {}
}