{
  "_format": "hh-sol-artifact-1",
  "contractName": "GetAllLandsOfAddress",
  "sourceName": "contracts/GetAllLandsOfAddress.sol",
  "abi": [
    {
      "inputs": [],
      "stateMutability": "nonpayable",
      "type": "constructor"
    },
    {
      "anonymous": false,
      "inputs": [
        {
          "indexed": true,
          "internalType": "address",
          "name": "owner",
          "type": "address"
        },
        {
          "indexed": true,
          "internalType": "address",
          "name": "approved",
          "type": "address"
        },
        {
          "indexed": true,
          "internalType": "uint256",
          "name": "tokenId",
          "type": "uint256"
        }
      ],
      "name": "Approval",
      "type": "event"
    },
    {
      "anonymous": false,
      "inputs": [
        {
          "indexed": true,
          "internalType": "address",
          "name": "owner",
          "type": "address"
        },
        {
          "indexed": true,
          "internalType": "address",
          "name": "operator",
          "type": "address"
        },
        {
          "indexed": false,
          "internalType": "bool",
          "name": "approved",
          "type": "bool"
        }
      ],
      "name": "ApprovalForAll",
      "type": "event"
    },
    {
      "anonymous": false,
      "inputs": [
        {
          "indexed": true,
          "internalType": "address",
          "name": "from",
          "type": "address"
        },
        {
          "indexed": true,
          "internalType": "address",
          "name": "to",
          "type": "address"
        },
        {
          "indexed": true,
          "internalType": "uint256",
          "name": "tokenId",
          "type": "uint256"
        }
      ],
      "name": "Transfer",
      "type": "event"
    },
    {
      "inputs": [
        {
          "internalType": "address",
          "name": "to",
          "type": "address"
        },
        {
          "internalType": "uint256",
          "name": "tokenId",
          "type": "uint256"
        }
      ],
      "name": "approve",
      "outputs": [],
      "stateMutability": "nonpayable",
      "type": "function"
    },
    {
      "inputs": [
        {
          "internalType": "address",
          "name": "owner",
          "type": "address"
        }
      ],
      "name": "balanceOf",
      "outputs": [
        {
          "internalType": "uint256",
          "name": "",
          "type": "uint256"
        }
      ],
      "stateMutability": "view",
      "type": "function"
    },
    {
      "inputs": [
        {
          "internalType": "uint256",
          "name": "tokenId",
          "type": "uint256"
        }
      ],
      "name": "getApproved",
      "outputs": [
        {
          "internalType": "address",
          "name": "",
          "type": "address"
        }
      ],
      "stateMutability": "view",
      "type": "function"
    },
    {
      "inputs": [
        {
          "internalType": "address",
          "name": "_nftaddress",
          "type": "address"
        },
        {
          "internalType": "address",
          "name": "_owneraddress",
          "type": "address"
        }
      ],
      "name": "getLandsOfAddress",
      "outputs": [
        {
          "internalType": "uint256[]",
          "name": "",
          "type": "uint256[]"
        }
      ],
      "stateMutability": "view",
      "type": "function"
    },
    {
      "inputs": [
        {
          "internalType": "address",
          "name": "owner",
          "type": "address"
        },
        {
          "internalType": "address",
          "name": "operator",
          "type": "address"
        }
      ],
      "name": "isApprovedForAll",
      "outputs": [
        {
          "internalType": "bool",
          "name": "",
          "type": "bool"
        }
      ],
      "stateMutability": "view",
      "type": "function"
    },
    {
      "inputs": [],
      "name": "name",
      "outputs": [
        {
          "internalType": "string",
          "name": "",
          "type": "string"
        }
      ],
      "stateMutability": "view",
      "type": "function"
    },
    {
      "inputs": [
        {
          "internalType": "uint256",
          "name": "tokenId",
          "type": "uint256"
        }
      ],
      "name": "ownerOf",
      "outputs": [
        {
          "internalType": "address",
          "name": "",
          "type": "address"
        }
      ],
      "stateMutability": "view",
      "type": "function"
    },
    {
      "inputs": [
        {
          "internalType": "address",
          "name": "from",
          "type": "address"
        },
        {
          "internalType": "address",
          "name": "to",
          "type": "address"
        },
        {
          "internalType": "uint256",
          "name": "tokenId",
          "type": "uint256"
        }
      ],
      "name": "safeTransferFrom",
      "outputs": [],
      "stateMutability": "nonpayable",
      "type": "function"
    },
    {
      "inputs": [
        {
          "internalType": "address",
          "name": "from",
          "type": "address"
        },
        {
          "internalType": "address",
          "name": "to",
          "type": "address"
        },
        {
          "internalType": "uint256",
          "name": "tokenId",
          "type": "uint256"
        },
        {
          "internalType": "bytes",
          "name": "_data",
          "type": "bytes"
        }
      ],
      "name": "safeTransferFrom",
      "outputs": [],
      "stateMutability": "nonpayable",
      "type": "function"
    },
    {
      "inputs": [
        {
          "internalType": "address",
          "name": "operator",
          "type": "address"
        },
        {
          "internalType": "bool",
          "name": "approved",
          "type": "bool"
        }
      ],
      "name": "setApprovalForAll",
      "outputs": [],
      "stateMutability": "nonpayable",
      "type": "function"
    },
    {
      "inputs": [
        {
          "internalType": "bytes4",
          "name": "interfaceId",
          "type": "bytes4"
        }
      ],
      "name": "supportsInterface",
      "outputs": [
        {
          "internalType": "bool",
          "name": "",
          "type": "bool"
        }
      ],
      "stateMutability": "view",
      "type": "function"
    },
    {
      "inputs": [],
      "name": "symbol",
      "outputs": [
        {
          "internalType": "string",
          "name": "",
          "type": "string"
        }
      ],
      "stateMutability": "view",
      "type": "function"
    },
    {
      "inputs": [
        {
          "internalType": "uint256",
          "name": "index",
          "type": "uint256"
        }
      ],
      "name": "tokenByIndex",
      "outputs": [
        {
          "internalType": "uint256",
          "name": "",
          "type": "uint256"
        }
      ],
      "stateMutability": "view",
      "type": "function"
    },
    {
      "inputs": [
        {
          "internalType": "address",
          "name": "owner",
          "type": "address"
        },
        {
          "internalType": "uint256",
          "name": "index",
          "type": "uint256"
        }
      ],
      "name": "tokenOfOwnerByIndex",
      "outputs": [
        {
          "internalType": "uint256",
          "name": "",
          "type": "uint256"
        }
      ],
      "stateMutability": "view",
      "type": "function"
    },
    {
      "inputs": [
        {
          "internalType": "uint256",
          "name": "tokenId",
          "type": "uint256"
        }
      ],
      "name": "tokenURI",
      "outputs": [
        {
          "internalType": "string",
          "name": "",
          "type": "string"
        }
      ],
      "stateMutability": "view",
      "type": "function"
    },
    {
      "inputs": [],
      "name": "totalSupply",
      "outputs": [
        {
          "internalType": "uint256",
          "name": "",
          "type": "uint256"
        }
      ],
      "stateMutability": "view",
      "type": "function"
    },
    {
      "inputs": [
        {
          "internalType": "address",
          "name": "from",
          "type": "address"
        },
        {
          "internalType": "address",
          "name": "to",
          "type": "address"
        },
        {
          "internalType": "uint256",
          "name": "tokenId",
          "type": "uint256"
        }
      ],
      "name": "transferFrom",
      "outputs": [],
      "stateMutability": "nonpayable",
      "type": "function"
    }
  ],
  "bytecode": "0x60806040523480156200001157600080fd5b50604080518082018252601881527f47657420416c6c204c616e6473204f662041646472657373000000000000000060208083019182528351808501909452600584526447414c4f4160d81b908401528151919291620000749160009162000093565b5080516200008a90600190602084019062000093565b50505062000176565b828054620000a19062000139565b90600052602060002090601f016020900481019282620000c5576000855562000110565b82601f10620000e057805160ff191683800117855562000110565b8280016001018555821562000110579182015b8281111562000110578251825591602001919060010190620000f3565b506200011e92915062000122565b5090565b5b808211156200011e576000815560010162000123565b600181811c908216806200014e57607f821691505b602082108114156200017057634e487b7160e01b600052602260045260246000fd5b50919050565b61188c80620001866000396000f3fe608060405234801561001057600080fd5b506004361061010b5760003560e01c80634f6ccce7116100a257806395d89b411161007157806395d89b4114610231578063a22cb46514610239578063b88d4fde1461024c578063c87b56dd1461025f578063e985e9c51461027257600080fd5b80634f6ccce7146101d85780636352211e146101eb57806364a7ad5d146101fe57806370a082311461021e57600080fd5b806318160ddd116100de57806318160ddd1461018d57806323b872dd1461019f5780632f745c59146101b257806342842e0e146101c557600080fd5b806301ffc9a71461011057806306fdde0314610138578063081812fc1461014d578063095ea7b314610178575b600080fd5b61012361011e3660046114f8565b6102ae565b60405190151581526020015b60405180910390f35b6101406102d9565b60405161012f9190611640565b61016061015b366004611532565b61036b565b6040516001600160a01b03909116815260200161012f565b61018b6101863660046114ce565b610405565b005b6008545b60405190815260200161012f565b61018b6101ad36600461137a565b61051b565b6101916101c03660046114ce565b61054c565b61018b6101d336600461137a565b6105e2565b6101916101e6366004611532565b6105fd565b6101606101f9366004611532565b610690565b61021161020c366004611347565b610707565b60405161012f91906115fc565b61019161022c36600461132c565b610896565b61014061091d565b61018b610247366004611492565b61092c565b61018b61025a3660046113b6565b61093b565b61014061026d366004611532565b610973565b610123610280366004611347565b6001600160a01b03918216600090815260056020908152604080832093909416825291909152205460ff1690565b60006001600160e01b0319821663780e9d6360e01b14806102d357506102d382610a5b565b92915050565b6060600080546102e890611765565b80601f016020809104026020016040519081016040528092919081815260200182805461031490611765565b80156103615780601f1061033657610100808354040283529160200191610361565b820191906000526020600020905b81548152906001019060200180831161034457829003601f168201915b5050505050905090565b6000818152600260205260408120546001600160a01b03166103e95760405162461bcd60e51b815260206004820152602c60248201527f4552433732313a20617070726f76656420717565727920666f72206e6f6e657860448201526b34b9ba32b73a103a37b5b2b760a11b60648201526084015b60405180910390fd5b506000908152600460205260409020546001600160a01b031690565b600061041082610690565b9050806001600160a01b0316836001600160a01b0316141561047e5760405162461bcd60e51b815260206004820152602160248201527f4552433732313a20617070726f76616c20746f2063757272656e74206f776e656044820152603960f91b60648201526084016103e0565b336001600160a01b038216148061049a575061049a8133610280565b61050c5760405162461bcd60e51b815260206004820152603860248201527f4552433732313a20617070726f76652063616c6c6572206973206e6f74206f7760448201527f6e6572206e6f7220617070726f76656420666f7220616c6c000000000000000060648201526084016103e0565b6105168383610aab565b505050565b6105253382610b19565b6105415760405162461bcd60e51b81526004016103e0906116a5565b610516838383610c10565b600061055783610896565b82106105b95760405162461bcd60e51b815260206004820152602b60248201527f455243373231456e756d657261626c653a206f776e657220696e646578206f7560448201526a74206f6620626f756e647360a81b60648201526084016103e0565b506001600160a01b03919091166000908152600660209081526040808320938352929052205490565b6105168383836040518060200160405280600081525061093b565b600061060860085490565b821061066b5760405162461bcd60e51b815260206004820152602c60248201527f455243373231456e756d657261626c653a20676c6f62616c20696e646578206f60448201526b7574206f6620626f756e647360a01b60648201526084016103e0565b6008828154811061067e5761067e611811565b90600052602060002001549050919050565b6000818152600260205260408120546001600160a01b0316806102d35760405162461bcd60e51b815260206004820152602960248201527f4552433732313a206f776e657220717565727920666f72206e6f6e657869737460448201526832b73a103a37b5b2b760b91b60648201526084016103e0565b6040516370a0823160e01b81526001600160a01b038281166004830152606091600091839183918716906370a082319060240160206040518083038186803b15801561075257600080fd5b505afa158015610766573d6000803e3d6000fd5b505050506040513d601f19601f8201168201806040525081019061078a919061154b565b92508267ffffffffffffffff8111156107a5576107a5611827565b6040519080825280602002602001820160405280156107ce578160200160208202803683370190505b509150600090505b8281101561088d57604051632f745c5960e01b81526001600160a01b03868116600483015260248201839052871690632f745c599060440160206040518083038186803b15801561082657600080fd5b505afa15801561083a573d6000803e3d6000fd5b505050506040513d601f19601f8201168201806040525081019061085e919061154b565b82828151811061087057610870611811565b602090810291909101015280610885816117a0565b9150506107d6565b50949350505050565b60006001600160a01b0382166109015760405162461bcd60e51b815260206004820152602a60248201527f4552433732313a2062616c616e636520717565727920666f7220746865207a65604482015269726f206164647265737360b01b60648201526084016103e0565b506001600160a01b031660009081526003602052604090205490565b6060600180546102e890611765565b610937338383610dbb565b5050565b6109453383610b19565b6109615760405162461bcd60e51b81526004016103e0906116a5565b61096d84848484610e8a565b50505050565b6000818152600260205260409020546060906001600160a01b03166109f25760405162461bcd60e51b815260206004820152602f60248201527f4552433732314d657461646174613a2055524920717565727920666f72206e6f60448201526e3732bc34b9ba32b73a103a37b5b2b760891b60648201526084016103e0565b6000610a0960408051602081019091526000815290565b90506000815111610a295760405180602001604052806000815250610a54565b80610a3384610ebd565b604051602001610a44929190611590565b6040516020818303038152906040525b9392505050565b60006001600160e01b031982166380ac58cd60e01b1480610a8c57506001600160e01b03198216635b5e139f60e01b145b806102d357506301ffc9a760e01b6001600160e01b03198316146102d3565b600081815260046020526040902080546001600160a01b0319166001600160a01b0384169081179091558190610ae082610690565b6001600160a01b03167f8c5be1e5ebec7d5bd14f71427d1e84f3dd0314c0f7b2291e5b200ac8c7c3b92560405160405180910390a45050565b6000818152600260205260408120546001600160a01b0316610b925760405162461bcd60e51b815260206004820152602c60248201527f4552433732313a206f70657261746f7220717565727920666f72206e6f6e657860448201526b34b9ba32b73a103a37b5b2b760a11b60648201526084016103e0565b6000610b9d83610690565b9050806001600160a01b0316846001600160a01b03161480610bd85750836001600160a01b0316610bcd8461036b565b6001600160a01b0316145b80610c0857506001600160a01b0380821660009081526005602090815260408083209388168352929052205460ff165b949350505050565b826001600160a01b0316610c2382610690565b6001600160a01b031614610c8b5760405162461bcd60e51b815260206004820152602960248201527f4552433732313a207472616e73666572206f6620746f6b656e2074686174206960448201526839903737ba1037bbb760b91b60648201526084016103e0565b6001600160a01b038216610ced5760405162461bcd60e51b8152602060048201526024808201527f4552433732313a207472616e7366657220746f20746865207a65726f206164646044820152637265737360e01b60648201526084016103e0565b610cf8838383610fbb565b610d03600082610aab565b6001600160a01b0383166000908152600360205260408120805460019290610d2c908490611722565b90915550506001600160a01b0382166000908152600360205260408120805460019290610d5a9084906116f6565b909155505060008181526002602052604080822080546001600160a01b0319166001600160a01b0386811691821790925591518493918716917fddf252ad1be2c89b69c2b068fc378daa952ba7f163c4a11628f55a4df523b3ef91a4505050565b816001600160a01b0316836001600160a01b03161415610e1d5760405162461bcd60e51b815260206004820152601960248201527f4552433732313a20617070726f766520746f2063616c6c65720000000000000060448201526064016103e0565b6001600160a01b03838116600081815260056020908152604080832094871680845294825291829020805460ff191686151590811790915591519182527f17307eab39ab6107e8899845ad3d59bd9653f200f220920489ca2b5937696c31910160405180910390a3505050565b610e95848484610c10565b610ea184848484611073565b61096d5760405162461bcd60e51b81526004016103e090611653565b606081610ee15750506040805180820190915260018152600360fc1b602082015290565b8160005b8115610f0b5780610ef5816117a0565b9150610f049050600a8361170e565b9150610ee5565b60008167ffffffffffffffff811115610f2657610f26611827565b6040519080825280601f01601f191660200182016040528015610f50576020820181803683370190505b5090505b8415610c0857610f65600183611722565b9150610f72600a866117bb565b610f7d9060306116f6565b60f81b818381518110610f9257610f92611811565b60200101906001600160f81b031916908160001a905350610fb4600a8661170e565b9450610f54565b6001600160a01b0383166110165761101181600880546000838152600960205260408120829055600182018355919091527ff3f7a9fe364faab93b216da50a3214154f22a0a2b415b23a84c8169e8b636ee30155565b611039565b816001600160a01b0316836001600160a01b031614611039576110398382611180565b6001600160a01b038216611050576105168161121d565b826001600160a01b0316826001600160a01b0316146105165761051682826112cc565b60006001600160a01b0384163b1561117557604051630a85bd0160e11b81526001600160a01b0385169063150b7a02906110b79033908990889088906004016115bf565b602060405180830381600087803b1580156110d157600080fd5b505af1925050508015611101575060408051601f3d908101601f191682019092526110fe91810190611515565b60015b61115b573d80801561112f576040519150601f19603f3d011682016040523d82523d6000602084013e611134565b606091505b5080516111535760405162461bcd60e51b81526004016103e090611653565b805181602001fd5b6001600160e01b031916630a85bd0160e11b149050610c08565b506001949350505050565b6000600161118d84610896565b6111979190611722565b6000838152600760205260409020549091508082146111ea576001600160a01b03841660009081526006602090815260408083208584528252808320548484528184208190558352600790915290208190555b5060009182526007602090815260408084208490556001600160a01b039094168352600681528383209183525290812055565b60085460009061122f90600190611722565b6000838152600960205260408120546008805493945090928490811061125757611257611811565b90600052602060002001549050806008838154811061127857611278611811565b60009182526020808320909101929092558281526009909152604080822084905585825281205560088054806112b0576112b06117fb565b6001900381819060005260206000200160009055905550505050565b60006112d783610896565b6001600160a01b039093166000908152600660209081526040808320868452825280832085905593825260079052919091209190915550565b80356001600160a01b038116811461132757600080fd5b919050565b60006020828403121561133e57600080fd5b610a5482611310565b6000806040838503121561135a57600080fd5b61136383611310565b915061137160208401611310565b90509250929050565b60008060006060848603121561138f57600080fd5b61139884611310565b92506113a660208501611310565b9150604084013590509250925092565b600080600080608085870312156113cc57600080fd5b6113d585611310565b93506113e360208601611310565b925060408501359150606085013567ffffffffffffffff8082111561140757600080fd5b818701915087601f83011261141b57600080fd5b81358181111561142d5761142d611827565b604051601f8201601f19908116603f0116810190838211818310171561145557611455611827565b816040528281528a602084870101111561146e57600080fd5b82602086016020830137600060208483010152809550505050505092959194509250565b600080604083850312156114a557600080fd5b6114ae83611310565b9150602083013580151581146114c357600080fd5b809150509250929050565b600080604083850312156114e157600080fd5b6114ea83611310565b946020939093013593505050565b60006020828403121561150a57600080fd5b8135610a548161183d565b60006020828403121561152757600080fd5b8151610a548161183d565b60006020828403121561154457600080fd5b5035919050565b60006020828403121561155d57600080fd5b5051919050565b6000815180845261157c816020860160208601611739565b601f01601f19169290920160200192915050565b600083516115a2818460208801611739565b8351908301906115b6818360208801611739565b01949350505050565b6001600160a01b03858116825284166020820152604081018390526080606082018190526000906115f290830184611564565b9695505050505050565b6020808252825182820181905260009190848201906040850190845b8181101561163457835183529284019291840191600101611618565b50909695505050505050565b602081526000610a546020830184611564565b60208082526032908201527f4552433732313a207472616e7366657220746f206e6f6e20455243373231526560408201527131b2b4bb32b91034b6b83632b6b2b73a32b960711b606082015260800190565b60208082526031908201527f4552433732313a207472616e736665722063616c6c6572206973206e6f74206f6040820152701ddb995c881b9bdc88185c1c1c9bdd9959607a1b606082015260800190565b60008219821115611709576117096117cf565b500190565b60008261171d5761171d6117e5565b500490565b600082821015611734576117346117cf565b500390565b60005b8381101561175457818101518382015260200161173c565b8381111561096d5750506000910152565b600181811c9082168061177957607f821691505b6020821081141561179a57634e487b7160e01b600052602260045260246000fd5b50919050565b60006000198214156117b4576117b46117cf565b5060010190565b6000826117ca576117ca6117e5565b500690565b634e487b7160e01b600052601160045260246000fd5b634e487b7160e01b600052601260045260246000fd5b634e487b7160e01b600052603160045260246000fd5b634e487b7160e01b600052603260045260246000fd5b634e487b7160e01b600052604160045260246000fd5b6001600160e01b03198116811461185357600080fd5b5056fea2646970667358221220e2c239819d7b3cb9d1f4333826f15fdf711f05bfc6522e8fd6240b872d3beb9f64736f6c63430008070033",
  "linkReferences": {},
  "deployedLinkReferences": {}
}