{
  "_format": "hh-sol-artifact-1",
  "contractName": "GetAddressItems",
  "sourceName": "contracts/GetAddressItems.sol",
  "abi": [
    {
      "inputs": [
        {
          "internalType": "address",
          "name": "_itemVaultAddress",
          "type": "address"
        }
      ],
      "stateMutability": "nonpayable",
      "type": "constructor"
    },
    {
      "inputs": [],
      "name": "VAULT_ADMIN",
      "outputs": [
        {
          "internalType": "bytes32",
          "name": "",
          "type": "bytes32"
        }
      ],
      "stateMutability": "view",
      "type": "function"
    },
    {
      "inputs": [
        {
          "internalType": "address",
          "name": "_address",
          "type": "address"
        },
        {
          "internalType": "uint256",
          "name": "_lengthId",
          "type": "uint256"
        }
      ],
      "name": "getAllitem",
      "outputs": [
        {
          "internalType": "uint256[]",
          "name": "",
          "type": "uint256[]"
        }
      ],
      "stateMutability": "view",
      "type": "function"
    },
    {
      "inputs": [],
      "name": "vaultItem",
      "outputs": [
        {
          "internalType": "contract IItemVault",
          "name": "",
          "type": "address"
        }
      ],
      "stateMutability": "view",
      "type": "function"
    }
  ],
  "bytecode": "0x608060405234801561001057600080fd5b506040516103b63803806103b683398101604081905261002f91610054565b600080546001600160a01b0319166001600160a01b0392909216919091179055610084565b60006020828403121561006657600080fd5b81516001600160a01b038116811461007d57600080fd5b9392505050565b610323806100936000396000f3fe608060405234801561001057600080fd5b50600436106100415760003560e01c8063cb82437314610046578063f0d5c81114610080578063f4087714146100ab575b600080fd5b61006d7fb15e2bb6de8e562b452dcfd0ca719f799c9919f6645dee389052d6326e77eb6081565b6040519081526020015b60405180910390f35b600054610093906001600160a01b031681565b6040516001600160a01b039091168152602001610077565b6100be6100b93660046101e3565b6100cb565b6040516100779190610234565b606060006100da836001610278565b67ffffffffffffffff8111156100f2576100f26102d7565b60405190808252806020026020018201604052801561011b578160200160208202803683370190505b50905060015b8381116101db5760005460405163aac090ef60e01b81526001600160a01b038781166004830152602482018490529091169063aac090ef9060440160206040518083038186803b15801561017457600080fd5b505afa158015610188573d6000803e3d6000fd5b505050506040513d601f19601f820116820180604052508101906101ac919061021b565b8282815181106101be576101be6102c1565b6020908102919091010152806101d381610290565b915050610121565b509392505050565b600080604083850312156101f657600080fd5b82356001600160a01b038116811461020d57600080fd5b946020939093013593505050565b60006020828403121561022d57600080fd5b5051919050565b6020808252825182820181905260009190848201906040850190845b8181101561026c57835183529284019291840191600101610250565b50909695505050505050565b6000821982111561028b5761028b6102ab565b500190565b60006000198214156102a4576102a46102ab565b5060010190565b634e487b7160e01b600052601160045260246000fd5b634e487b7160e01b600052603260045260246000fd5b634e487b7160e01b600052604160045260246000fdfea264697066735822122059a20ef112be63fcc1ba6e0ad263ae1bfe37e465560b7a6adfde3a4f9048c46a64736f6c63430008070033",
  "linkReferences": {},
  "deployedLinkReferences": {}
}