{
  "_format": "hh-sol-artifact-1",
  "contractName": "InventoryVault",
  "sourceName": "contracts/InventoryVault.sol",
  "abi": [
    {
      "inputs": [
        {
          "internalType": "address",
          "name": "_tokenAddress",
          "type": "address"
        },
        {
          "internalType": "string",
          "name": "_uri",
          "type": "string"
        }
      ],
      "stateMutability": "nonpayable",
      "type": "constructor"
    },
    {
      "anonymous": false,
      "inputs": [
        {
          "indexed": true,
          "internalType": "address",
          "name": "account",
          "type": "address"
        },
        {
          "indexed": true,
          "internalType": "address",
          "name": "operator",
          "type": "address"
        },
        {
          "indexed": false,
          "internalType": "bool",
          "name": "approved",
          "type": "bool"
        }
      ],
      "name": "ApprovalForAll",
      "type": "event"
    },
    {
      "anonymous": false,
      "inputs": [
        {
          "indexed": true,
          "internalType": "address",
          "name": "userAddress",
          "type": "address"
        },
        {
          "indexed": false,
          "internalType": "uint256",
          "name": "itemId",
          "type": "uint256"
        },
        {
          "indexed": false,
          "internalType": "uint256",
          "name": "itemAmount",
          "type": "uint256"
        },
        {
          "indexed": false,
          "internalType": "uint256",
          "name": "nakaAmount",
          "type": "uint256"
        }
      ],
      "name": "BuyItem",
      "type": "event"
    },
    {
      "anonymous": false,
      "inputs": [
        {
          "indexed": true,
          "internalType": "address",
          "name": "userAddress",
          "type": "address"
        },
        {
          "indexed": false,
          "internalType": "uint256",
          "name": "nakaAmount",
          "type": "uint256"
        }
      ],
      "name": "DepositBalance",
      "type": "event"
    },
    {
      "anonymous": false,
      "inputs": [
        {
          "indexed": true,
          "internalType": "address",
          "name": "previousOwner",
          "type": "address"
        },
        {
          "indexed": true,
          "internalType": "address",
          "name": "newOwner",
          "type": "address"
        }
      ],
      "name": "OwnershipTransferred",
      "type": "event"
    },
    {
      "anonymous": false,
      "inputs": [
        {
          "indexed": true,
          "internalType": "address",
          "name": "operator",
          "type": "address"
        },
        {
          "indexed": true,
          "internalType": "address",
          "name": "from",
          "type": "address"
        },
        {
          "indexed": true,
          "internalType": "address",
          "name": "to",
          "type": "address"
        },
        {
          "indexed": false,
          "internalType": "uint256[]",
          "name": "ids",
          "type": "uint256[]"
        },
        {
          "indexed": false,
          "internalType": "uint256[]",
          "name": "values",
          "type": "uint256[]"
        }
      ],
      "name": "TransferBatch",
      "type": "event"
    },
    {
      "anonymous": false,
      "inputs": [
        {
          "indexed": true,
          "internalType": "address",
          "name": "operator",
          "type": "address"
        },
        {
          "indexed": true,
          "internalType": "address",
          "name": "from",
          "type": "address"
        },
        {
          "indexed": true,
          "internalType": "address",
          "name": "to",
          "type": "address"
        },
        {
          "indexed": false,
          "internalType": "uint256",
          "name": "id",
          "type": "uint256"
        },
        {
          "indexed": false,
          "internalType": "uint256",
          "name": "value",
          "type": "uint256"
        }
      ],
      "name": "TransferSingle",
      "type": "event"
    },
    {
      "anonymous": false,
      "inputs": [
        {
          "indexed": false,
          "internalType": "string",
          "name": "value",
          "type": "string"
        },
        {
          "indexed": true,
          "internalType": "uint256",
          "name": "id",
          "type": "uint256"
        }
      ],
      "name": "URI",
      "type": "event"
    },
    {
      "anonymous": false,
      "inputs": [
        {
          "indexed": true,
          "internalType": "address",
          "name": "userAddress",
          "type": "address"
        },
        {
          "indexed": false,
          "internalType": "uint256",
          "name": "nakaAmount",
          "type": "uint256"
        }
      ],
      "name": "WithdrawBalance",
      "type": "event"
    },
    {
      "inputs": [
        {
          "internalType": "address",
          "name": "account",
          "type": "address"
        },
        {
          "internalType": "uint256",
          "name": "id",
          "type": "uint256"
        }
      ],
      "name": "balanceOf",
      "outputs": [
        {
          "internalType": "uint256",
          "name": "",
          "type": "uint256"
        }
      ],
      "stateMutability": "view",
      "type": "function"
    },
    {
      "inputs": [
        {
          "internalType": "address[]",
          "name": "accounts",
          "type": "address[]"
        },
        {
          "internalType": "uint256[]",
          "name": "ids",
          "type": "uint256[]"
        }
      ],
      "name": "balanceOfBatch",
      "outputs": [
        {
          "internalType": "uint256[]",
          "name": "",
          "type": "uint256[]"
        }
      ],
      "stateMutability": "view",
      "type": "function"
    },
    {
      "inputs": [
        {
          "internalType": "uint256",
          "name": "_itemId",
          "type": "uint256"
        },
        {
          "internalType": "uint256",
          "name": "_itemAmount",
          "type": "uint256"
        },
        {
          "internalType": "uint256",
          "name": "_nakaAmount",
          "type": "uint256"
        }
      ],
      "name": "buyItems",
      "outputs": [],
      "stateMutability": "nonpayable",
      "type": "function"
    },
    {
      "inputs": [
        {
          "internalType": "uint256",
          "name": "_nakaAmount",
          "type": "uint256"
        }
      ],
      "name": "depositNaka",
      "outputs": [],
      "stateMutability": "nonpayable",
      "type": "function"
    },
    {
      "inputs": [
        {
          "internalType": "address",
          "name": "_userAddress",
          "type": "address"
        }
      ],
      "name": "getBalance",
      "outputs": [
        {
          "internalType": "uint256",
          "name": "",
          "type": "uint256"
        }
      ],
      "stateMutability": "view",
      "type": "function"
    },
    {
      "inputs": [
        {
          "internalType": "address",
          "name": "_userAddress",
          "type": "address"
        },
        {
          "internalType": "uint256",
          "name": "_itemId",
          "type": "uint256"
        }
      ],
      "name": "getItemAmountbyId",
      "outputs": [
        {
          "internalType": "uint256",
          "name": "",
          "type": "uint256"
        }
      ],
      "stateMutability": "view",
      "type": "function"
    },
    {
      "inputs": [
        {
          "internalType": "address",
          "name": "account",
          "type": "address"
        },
        {
          "internalType": "address",
          "name": "operator",
          "type": "address"
        }
      ],
      "name": "isApprovedForAll",
      "outputs": [
        {
          "internalType": "bool",
          "name": "",
          "type": "bool"
        }
      ],
      "stateMutability": "view",
      "type": "function"
    },
    {
      "inputs": [
        {
          "internalType": "address",
          "name": "",
          "type": "address"
        },
        {
          "internalType": "uint256",
          "name": "",
          "type": "uint256"
        }
      ],
      "name": "itemAmountbyAddress",
      "outputs": [
        {
          "internalType": "uint256",
          "name": "",
          "type": "uint256"
        }
      ],
      "stateMutability": "view",
      "type": "function"
    },
    {
      "inputs": [],
      "name": "owner",
      "outputs": [
        {
          "internalType": "address",
          "name": "",
          "type": "address"
        }
      ],
      "stateMutability": "view",
      "type": "function"
    },
    {
      "inputs": [],
      "name": "renounceOwnership",
      "outputs": [],
      "stateMutability": "nonpayable",
      "type": "function"
    },
    {
      "inputs": [
        {
          "internalType": "address",
          "name": "from",
          "type": "address"
        },
        {
          "internalType": "address",
          "name": "to",
          "type": "address"
        },
        {
          "internalType": "uint256[]",
          "name": "ids",
          "type": "uint256[]"
        },
        {
          "internalType": "uint256[]",
          "name": "amounts",
          "type": "uint256[]"
        },
        {
          "internalType": "bytes",
          "name": "data",
          "type": "bytes"
        }
      ],
      "name": "safeBatchTransferFrom",
      "outputs": [],
      "stateMutability": "nonpayable",
      "type": "function"
    },
    {
      "inputs": [
        {
          "internalType": "address",
          "name": "from",
          "type": "address"
        },
        {
          "internalType": "address",
          "name": "to",
          "type": "address"
        },
        {
          "internalType": "uint256",
          "name": "id",
          "type": "uint256"
        },
        {
          "internalType": "uint256",
          "name": "amount",
          "type": "uint256"
        },
        {
          "internalType": "bytes",
          "name": "data",
          "type": "bytes"
        }
      ],
      "name": "safeTransferFrom",
      "outputs": [],
      "stateMutability": "nonpayable",
      "type": "function"
    },
    {
      "inputs": [
        {
          "internalType": "address",
          "name": "operator",
          "type": "address"
        },
        {
          "internalType": "bool",
          "name": "approved",
          "type": "bool"
        }
      ],
      "name": "setApprovalForAll",
      "outputs": [],
      "stateMutability": "nonpayable",
      "type": "function"
    },
    {
      "inputs": [
        {
          "internalType": "bytes4",
          "name": "interfaceId",
          "type": "bytes4"
        }
      ],
      "name": "supportsInterface",
      "outputs": [
        {
          "internalType": "bool",
          "name": "",
          "type": "bool"
        }
      ],
      "stateMutability": "view",
      "type": "function"
    },
    {
      "inputs": [],
      "name": "tokenAddress",
      "outputs": [
        {
          "internalType": "address",
          "name": "",
          "type": "address"
        }
      ],
      "stateMutability": "view",
      "type": "function"
    },
    {
      "inputs": [
        {
          "internalType": "address",
          "name": "newOwner",
          "type": "address"
        }
      ],
      "name": "transferOwnership",
      "outputs": [],
      "stateMutability": "nonpayable",
      "type": "function"
    },
    {
      "inputs": [
        {
          "internalType": "uint256",
          "name": "",
          "type": "uint256"
        }
      ],
      "name": "uri",
      "outputs": [
        {
          "internalType": "string",
          "name": "",
          "type": "string"
        }
      ],
      "stateMutability": "view",
      "type": "function"
    },
    {
      "inputs": [],
      "name": "vaultAddress",
      "outputs": [
        {
          "internalType": "address",
          "name": "",
          "type": "address"
        }
      ],
      "stateMutability": "view",
      "type": "function"
    },
    {
      "inputs": [
        {
          "internalType": "uint256",
          "name": "_nakaAmount",
          "type": "uint256"
        }
      ],
      "name": "withdrawNaka",
      "outputs": [],
      "stateMutability": "nonpayable",
      "type": "function"
    }
  ],
  "bytecode": "0x60806040523480156200001157600080fd5b5060405162001d3338038062001d33833981016040819052620000349162000184565b80620000408162000073565b506200004c336200008c565b50600480546001600160a01b0319166001600160a01b0392909216919091179055620002d7565b805162000088906002906020840190620000de565b5050565b600380546001600160a01b038381166001600160a01b0319831681179093556040519116919082907f8be0079c531659141344cd1fd0a4f28419497f9722a3daafe3b4186f6b6457e090600090a35050565b828054620000ec9062000284565b90600052602060002090601f0160209004810192826200011057600085556200015b565b82601f106200012b57805160ff19168380011785556200015b565b828001600101855582156200015b579182015b828111156200015b5782518255916020019190600101906200013e565b50620001699291506200016d565b5090565b5b808211156200016957600081556001016200016e565b600080604083850312156200019857600080fd5b82516001600160a01b0381168114620001b057600080fd5b602084810151919350906001600160401b0380821115620001d057600080fd5b818601915086601f830112620001e557600080fd5b815181811115620001fa57620001fa620002c1565b604051601f8201601f19908116603f01168101908382118183101715620002255762000225620002c1565b8160405282815289868487010111156200023e57600080fd5b600093505b8284101562000262578484018601518185018701529285019262000243565b82841115620002745760008684830101525b8096505050505050509250929050565b600181811c908216806200029957607f821691505b60208210811415620002bb57634e487b7160e01b600052602260045260246000fd5b50919050565b634e487b7160e01b600052604160045260246000fd5b611a4c80620002e76000396000f3fe608060405234801561001057600080fd5b50600436106101205760003560e01c80638da5cb5b116100ad578063e985e9c511610071578063e985e9c5146102b4578063f242432a146102f0578063f2fde38b14610303578063f4ca97d714610316578063f8b2cb4f1461032957600080fd5b80638da5cb5b146102345780639d76ea5814610245578063a22cb46514610258578063a615bf571461026b578063aac090ef1461027e57600080fd5b80633bd304dd116100f45780633bd304dd146101a3578063430bf08a146101ce5780634e1273f4146101f9578063715018a6146102195780637787ae9a1461022157600080fd5b8062fdd58e1461012557806301ffc9a71461014b5780630e89341c1461016e5780632eb2c2d61461018e575b600080fd5b610138610133366004611447565b610352565b6040519081526020015b60405180910390f35b61015e61015936600461155f565b6103e9565b6040519015158152602001610142565b61018161017c366004611599565b61043b565b604051610142919061174a565b6101a161019c366004611301565b6104cf565b005b6101386101b1366004611447565b600660209081526000928352604080842090915290825290205481565b6005546101e1906001600160a01b031681565b6040516001600160a01b039091168152602001610142565b61020c610207366004611471565b610566565b6040516101429190611709565b6101a1610690565b6101a161022f366004611599565b6106f6565b6003546001600160a01b03166101e1565b6004546101e1906001600160a01b031681565b6101a1610266366004611410565b610808565b6101a16102793660046115b2565b6108df565b61013861028c366004611447565b6001600160a01b03919091166000908152600660209081526040808320938352929052205490565b61015e6102c23660046112ce565b6001600160a01b03918216600090815260016020908152604080832093909416825291909152205460ff1690565b6101a16102fe3660046113ab565b61097b565b6101a16103113660046112ac565b610a02565b6101a1610324366004611599565b610acd565b6101386103373660046112ac565b6001600160a01b031660009081526007602052604090205490565b60006001600160a01b0383166103c35760405162461bcd60e51b815260206004820152602b60248201527f455243313135353a2062616c616e636520717565727920666f7220746865207a60448201526a65726f206164647265737360a81b60648201526084015b60405180910390fd5b506000908152602081815260408083206001600160a01b03949094168352929052205490565b60006001600160e01b03198216636cdb3d1360e11b148061041a57506001600160e01b031982166303a24d0760e21b145b8061043557506301ffc9a760e01b6001600160e01b03198316145b92915050565b60606002805461044a90611887565b80601f016020809104026020016040519081016040528092919081815260200182805461047690611887565b80156104c35780601f10610498576101008083540402835291602001916104c3565b820191906000526020600020905b8154815290600101906020018083116104a657829003601f168201915b50505050509050919050565b6001600160a01b0385163314806104eb57506104eb85336102c2565b6105525760405162461bcd60e51b815260206004820152603260248201527f455243313135353a207472616e736665722063616c6c6572206973206e6f74206044820152711bdddb995c881b9bdc88185c1c1c9bdd995960721b60648201526084016103ba565b61055f8585858585610bd0565b5050505050565b606081518351146105cb5760405162461bcd60e51b815260206004820152602960248201527f455243313135353a206163636f756e747320616e6420696473206c656e677468604482015268040dad2e6dac2e8c6d60bb1b60648201526084016103ba565b6000835167ffffffffffffffff8111156105e7576105e7611936565b604051908082528060200260200182016040528015610610578160200160208202803683370190505b50905060005b84518110156106885761065b85828151811061063457610634611920565b602002602001015185838151811061064e5761064e611920565b6020026020010151610352565b82828151811061066d5761066d611920565b6020908102919091010152610681816118ef565b9050610616565b509392505050565b6003546001600160a01b031633146106ea5760405162461bcd60e51b815260206004820181905260248201527f4f776e61626c653a2063616c6c6572206973206e6f7420746865206f776e657260448201526064016103ba565b6106f46000610dad565b565b33600480546040516323b872dd60e01b81523392810192909252306024830152604482018490526001600160a01b03169081906323b872dd90606401602060405180830381600087803b15801561074c57600080fd5b505af1158015610760573d6000803e3d6000fd5b505050506040513d601f19601f820116820180604052508101906107849190611542565b5033600090815260076020526040812080548592906107a4908490611858565b909155505030600090815260076020526040812080548592906107c8908490611858565b909155505060405183815233907f5e02bd8ba903731f537e6734b44156bb79aa95593259849957d5adc380ceb641906020015b60405180910390a2505050565b336001600160a01b03831614156108735760405162461bcd60e51b815260206004820152602960248201527f455243313135353a2073657474696e6720617070726f76616c20737461747573604482015268103337b91039b2b63360b91b60648201526084016103ba565b3360008181526001602090815260408083206001600160a01b03871680855290835292819020805460ff191686151590811790915590519081529192917f17307eab39ab6107e8899845ad3d59bd9653f200f220920489ca2b5937696c31910160405180910390a35050565b33600081815260066020908152604080832087845290915281208054859290610909908490611858565b9091555050336000908152600760205260408120805484929061092d908490611870565b9091555050604080518581526020810185905290810183905233907f75b2e59e11f908cb424d07858db7152a4b973814354a5bfe043dda59966d9bed9060600160405180910390a250505050565b6001600160a01b038516331480610997575061099785336102c2565b6109f55760405162461bcd60e51b815260206004820152602960248201527f455243313135353a2063616c6c6572206973206e6f74206f776e6572206e6f7260448201526808185c1c1c9bdd995960ba1b60648201526084016103ba565b61055f8585858585610dff565b6003546001600160a01b03163314610a5c5760405162461bcd60e51b815260206004820181905260248201527f4f776e61626c653a2063616c6c6572206973206e6f7420746865206f776e657260448201526064016103ba565b6001600160a01b038116610ac15760405162461bcd60e51b815260206004820152602660248201527f4f776e61626c653a206e6577206f776e657220697320746865207a65726f206160448201526564647265737360d01b60648201526084016103ba565b610aca81610dad565b50565b336004805460405163a9059cbb60e01b81523392810192909252602482018490526001600160a01b031690819063a9059cbb90604401602060405180830381600087803b158015610b1d57600080fd5b505af1158015610b31573d6000803e3d6000fd5b505050506040513d601f19601f82011682018060405250810190610b559190611542565b503360009081526007602052604081208054859290610b75908490611870565b90915550503060009081526007602052604081208054859290610b99908490611870565b909155505060405183815233907f0875ab8e60d8ffe0781ba5e1d1adadeb6250bc1bee87d3094cc6ac4eb9f88512906020016107fb565b8151835114610c325760405162461bcd60e51b815260206004820152602860248201527f455243313135353a2069647320616e6420616d6f756e7473206c656e677468206044820152670dad2e6dac2e8c6d60c31b60648201526084016103ba565b6001600160a01b038416610c585760405162461bcd60e51b81526004016103ba906117a5565b3360005b8451811015610d3f576000858281518110610c7957610c79611920565b602002602001015190506000858381518110610c9757610c97611920565b602090810291909101810151600084815280835260408082206001600160a01b038e168352909352919091205490915081811015610ce75760405162461bcd60e51b81526004016103ba906117ea565b6000838152602081815260408083206001600160a01b038e8116855292528083208585039055908b16825281208054849290610d24908490611858565b9250508190555050505080610d38906118ef565b9050610c5c565b50846001600160a01b0316866001600160a01b0316826001600160a01b03167f4a39dc06d4c0dbc64b70af90fd698a233a518aa5d07e595d983b8c0526c8f7fb8787604051610d8f92919061171c565b60405180910390a4610da5818787878787610f25565b505050505050565b600380546001600160a01b038381166001600160a01b0319831681179093556040519116919082907f8be0079c531659141344cd1fd0a4f28419497f9722a3daafe3b4186f6b6457e090600090a35050565b6001600160a01b038416610e255760405162461bcd60e51b81526004016103ba906117a5565b33610e3e818787610e3588611090565b61055f88611090565b6000848152602081815260408083206001600160a01b038a16845290915290205483811015610e7f5760405162461bcd60e51b81526004016103ba906117ea565b6000858152602081815260408083206001600160a01b038b8116855292528083208785039055908816825281208054869290610ebc908490611858565b909155505060408051868152602081018690526001600160a01b03808916928a821692918616917fc3d58168c5ae7397731d063d5bbf3d657854427343f4c083240f7aacaa2d0f62910160405180910390a4610f1c8288888888886110db565b50505050505050565b6001600160a01b0384163b15610da55760405163bc197c8160e01b81526001600160a01b0385169063bc197c8190610f699089908990889088908890600401611666565b602060405180830381600087803b158015610f8357600080fd5b505af1925050508015610fb3575060408051601f3d908101601f19168201909252610fb09181019061157c565b60015b61106057610fbf61194c565b806308c379a01415610ff95750610fd4611968565b80610fdf5750610ffb565b8060405162461bcd60e51b81526004016103ba919061174a565b505b60405162461bcd60e51b815260206004820152603460248201527f455243313135353a207472616e7366657220746f206e6f6e20455243313135356044820152732932b1b2b4bb32b91034b6b83632b6b2b73a32b960611b60648201526084016103ba565b6001600160e01b0319811663bc197c8160e01b14610f1c5760405162461bcd60e51b81526004016103ba9061175d565b604080516001808252818301909252606091600091906020808301908036833701905050905082816000815181106110ca576110ca611920565b602090810291909101015292915050565b6001600160a01b0384163b15610da55760405163f23a6e6160e01b81526001600160a01b0385169063f23a6e619061111f90899089908890889088906004016116c4565b602060405180830381600087803b15801561113957600080fd5b505af1925050508015611169575060408051601f3d908101601f191682019092526111669181019061157c565b60015b61117557610fbf61194c565b6001600160e01b0319811663f23a6e6160e01b14610f1c5760405162461bcd60e51b81526004016103ba9061175d565b80356001600160a01b03811681146111bc57600080fd5b919050565b600082601f8301126111d257600080fd5b813560206111df82611834565b6040516111ec82826118c2565b8381528281019150858301600585901b8701840188101561120c57600080fd5b60005b8581101561122b5781358452928401929084019060010161120f565b5090979650505050505050565b600082601f83011261124957600080fd5b813567ffffffffffffffff81111561126357611263611936565b60405161127a601f8301601f1916602001826118c2565b81815284602083860101111561128f57600080fd5b816020850160208301376000918101602001919091529392505050565b6000602082840312156112be57600080fd5b6112c7826111a5565b9392505050565b600080604083850312156112e157600080fd5b6112ea836111a5565b91506112f8602084016111a5565b90509250929050565b600080600080600060a0868803121561131957600080fd5b611322866111a5565b9450611330602087016111a5565b9350604086013567ffffffffffffffff8082111561134d57600080fd5b61135989838a016111c1565b9450606088013591508082111561136f57600080fd5b61137b89838a016111c1565b9350608088013591508082111561139157600080fd5b5061139e88828901611238565b9150509295509295909350565b600080600080600060a086880312156113c357600080fd5b6113cc866111a5565b94506113da602087016111a5565b93506040860135925060608601359150608086013567ffffffffffffffff81111561140457600080fd5b61139e88828901611238565b6000806040838503121561142357600080fd5b61142c836111a5565b9150602083013561143c816119f2565b809150509250929050565b6000806040838503121561145a57600080fd5b611463836111a5565b946020939093013593505050565b6000806040838503121561148457600080fd5b823567ffffffffffffffff8082111561149c57600080fd5b818501915085601f8301126114b057600080fd5b813560206114bd82611834565b6040516114ca82826118c2565b8381528281019150858301600585901b870184018b10156114ea57600080fd5b600096505b8487101561151457611500816111a5565b8352600196909601959183019183016114ef565b509650508601359250508082111561152b57600080fd5b50611538858286016111c1565b9150509250929050565b60006020828403121561155457600080fd5b81516112c7816119f2565b60006020828403121561157157600080fd5b81356112c781611a00565b60006020828403121561158e57600080fd5b81516112c781611a00565b6000602082840312156115ab57600080fd5b5035919050565b6000806000606084860312156115c757600080fd5b505081359360208301359350604090920135919050565b600081518084526020808501945080840160005b8381101561160e578151875295820195908201906001016115f2565b509495945050505050565b6000815180845260005b8181101561163f57602081850181015186830182015201611623565b81811115611651576000602083870101525b50601f01601f19169290920160200192915050565b6001600160a01b0386811682528516602082015260a060408201819052600090611692908301866115de565b82810360608401526116a481866115de565b905082810360808401526116b88185611619565b98975050505050505050565b6001600160a01b03868116825285166020820152604081018490526060810183905260a0608082018190526000906116fe90830184611619565b979650505050505050565b6020815260006112c760208301846115de565b60408152600061172f60408301856115de565b828103602084015261174181856115de565b95945050505050565b6020815260006112c76020830184611619565b60208082526028908201527f455243313135353a204552433131353552656365697665722072656a656374656040820152676420746f6b656e7360c01b606082015260800190565b60208082526025908201527f455243313135353a207472616e7366657220746f20746865207a65726f206164604082015264647265737360d81b606082015260800190565b6020808252602a908201527f455243313135353a20696e73756666696369656e742062616c616e636520666f60408201526939103a3930b739b332b960b11b606082015260800190565b600067ffffffffffffffff82111561184e5761184e611936565b5060051b60200190565b6000821982111561186b5761186b61190a565b500190565b6000828210156118825761188261190a565b500390565b600181811c9082168061189b57607f821691505b602082108114156118bc57634e487b7160e01b600052602260045260246000fd5b50919050565b601f8201601f1916810167ffffffffffffffff811182821017156118e8576118e8611936565b6040525050565b60006000198214156119035761190361190a565b5060010190565b634e487b7160e01b600052601160045260246000fd5b634e487b7160e01b600052603260045260246000fd5b634e487b7160e01b600052604160045260246000fd5b600060033d11156119655760046000803e5060005160e01c5b90565b600060443d10156119765790565b6040516003193d81016004833e81513d67ffffffffffffffff81602484011181841117156119a657505050505090565b82850191508151818111156119be5750505050505090565b843d87010160208285010111156119d85750505050505090565b6119e7602082860101876118c2565b509095945050505050565b8015158114610aca57600080fd5b6001600160e01b031981168114610aca57600080fdfea26469706673582212208c10001efa6c8e78115b3819af100b87d6a5a14e069530020b4e1776de3fe7b164736f6c63430008070033",
  "linkReferences": {},
  "deployedLinkReferences": {}
}