{
  "_format": "hh-sol-artifact-1",
  "contractName": "ItemVault",
  "sourceName": "contracts/ItemVault.sol",
  "abi": [
    {
      "inputs": [],
      "stateMutability": "nonpayable",
      "type": "constructor"
    },
    {
      "anonymous": false,
      "inputs": [
        {
          "indexed": true,
          "internalType": "address",
          "name": "userAddress",
          "type": "address"
        },
        {
          "indexed": false,
          "internalType": "uint256",
          "name": "itemId",
          "type": "uint256"
        },
        {
          "indexed": false,
          "internalType": "uint256",
          "name": "itemAmount",
          "type": "uint256"
        }
      ],
      "name": "DecreaseItem",
      "type": "event"
    },
    {
      "anonymous": false,
      "inputs": [
        {
          "indexed": true,
          "internalType": "address",
          "name": "userAddress",
          "type": "address"
        },
        {
          "indexed": false,
          "internalType": "uint256",
          "name": "itemId",
          "type": "uint256"
        },
        {
          "indexed": false,
          "internalType": "uint256",
          "name": "itemAmount",
          "type": "uint256"
        }
      ],
      "name": "IncreaseItem",
      "type": "event"
    },
    {
      "anonymous": false,
      "inputs": [],
      "name": "ItemVaultPaused",
      "type": "event"
    },
    {
      "anonymous": false,
      "inputs": [],
      "name": "ItemVaultUnpaused",
      "type": "event"
    },
    {
      "anonymous": false,
      "inputs": [
        {
          "indexed": true,
          "internalType": "address",
          "name": "previousOwner",
          "type": "address"
        },
        {
          "indexed": true,
          "internalType": "address",
          "name": "newOwner",
          "type": "address"
        }
      ],
      "name": "OwnershipTransferred",
      "type": "event"
    },
    {
      "anonymous": false,
      "inputs": [
        {
          "indexed": true,
          "internalType": "bytes32",
          "name": "role",
          "type": "bytes32"
        },
        {
          "indexed": true,
          "internalType": "bytes32",
          "name": "previousAdminRole",
          "type": "bytes32"
        },
        {
          "indexed": true,
          "internalType": "bytes32",
          "name": "newAdminRole",
          "type": "bytes32"
        }
      ],
      "name": "RoleAdminChanged",
      "type": "event"
    },
    {
      "anonymous": false,
      "inputs": [
        {
          "indexed": true,
          "internalType": "bytes32",
          "name": "role",
          "type": "bytes32"
        },
        {
          "indexed": true,
          "internalType": "address",
          "name": "account",
          "type": "address"
        },
        {
          "indexed": true,
          "internalType": "address",
          "name": "sender",
          "type": "address"
        }
      ],
      "name": "RoleGranted",
      "type": "event"
    },
    {
      "anonymous": false,
      "inputs": [
        {
          "indexed": true,
          "internalType": "bytes32",
          "name": "role",
          "type": "bytes32"
        },
        {
          "indexed": true,
          "internalType": "address",
          "name": "account",
          "type": "address"
        },
        {
          "indexed": true,
          "internalType": "address",
          "name": "sender",
          "type": "address"
        }
      ],
      "name": "RoleRevoked",
      "type": "event"
    },
    {
      "anonymous": false,
      "inputs": [
        {
          "indexed": true,
          "internalType": "address",
          "name": "vaultAddress",
          "type": "address"
        }
      ],
      "name": "SetVaultBalanceAddress",
      "type": "event"
    },
    {
      "inputs": [],
      "name": "DEFAULT_ADMIN_ROLE",
      "outputs": [
        {
          "internalType": "bytes32",
          "name": "",
          "type": "bytes32"
        }
      ],
      "stateMutability": "view",
      "type": "function"
    },
    {
      "inputs": [],
      "name": "VAULT_ADMIN",
      "outputs": [
        {
          "internalType": "bytes32",
          "name": "",
          "type": "bytes32"
        }
      ],
      "stateMutability": "view",
      "type": "function"
    },
    {
      "inputs": [],
      "name": "_pausedItemVault",
      "outputs": [
        {
          "internalType": "bool",
          "name": "",
          "type": "bool"
        }
      ],
      "stateMutability": "view",
      "type": "function"
    },
    {
      "inputs": [
        {
          "internalType": "address",
          "name": "_userAddress",
          "type": "address"
        },
        {
          "internalType": "uint256",
          "name": "_itemId",
          "type": "uint256"
        },
        {
          "internalType": "uint256",
          "name": "_itemAmount",
          "type": "uint256"
        }
      ],
      "name": "decreaseItem",
      "outputs": [],
      "stateMutability": "nonpayable",
      "type": "function"
    },
    {
      "inputs": [
        {
          "internalType": "address",
          "name": "_userAddress",
          "type": "address"
        },
        {
          "internalType": "uint256",
          "name": "_itemId",
          "type": "uint256"
        }
      ],
      "name": "getItemAmountbyId",
      "outputs": [
        {
          "internalType": "uint256",
          "name": "",
          "type": "uint256"
        }
      ],
      "stateMutability": "view",
      "type": "function"
    },
    {
      "inputs": [
        {
          "internalType": "bytes32",
          "name": "role",
          "type": "bytes32"
        }
      ],
      "name": "getRoleAdmin",
      "outputs": [
        {
          "internalType": "bytes32",
          "name": "",
          "type": "bytes32"
        }
      ],
      "stateMutability": "view",
      "type": "function"
    },
    {
      "inputs": [
        {
          "internalType": "bytes32",
          "name": "role",
          "type": "bytes32"
        },
        {
          "internalType": "address",
          "name": "account",
          "type": "address"
        }
      ],
      "name": "grantRole",
      "outputs": [],
      "stateMutability": "nonpayable",
      "type": "function"
    },
    {
      "inputs": [
        {
          "internalType": "bytes32",
          "name": "role",
          "type": "bytes32"
        },
        {
          "internalType": "address",
          "name": "account",
          "type": "address"
        }
      ],
      "name": "hasRole",
      "outputs": [
        {
          "internalType": "bool",
          "name": "",
          "type": "bool"
        }
      ],
      "stateMutability": "view",
      "type": "function"
    },
    {
      "inputs": [
        {
          "internalType": "address",
          "name": "_userAddress",
          "type": "address"
        },
        {
          "internalType": "uint256",
          "name": "_itemId",
          "type": "uint256"
        },
        {
          "internalType": "uint256",
          "name": "_itemAmount",
          "type": "uint256"
        }
      ],
      "name": "increaseItem",
      "outputs": [],
      "stateMutability": "nonpayable",
      "type": "function"
    },
    {
      "inputs": [
        {
          "internalType": "address",
          "name": "",
          "type": "address"
        },
        {
          "internalType": "uint256",
          "name": "",
          "type": "uint256"
        }
      ],
      "name": "itemAmountbyAddress",
      "outputs": [
        {
          "internalType": "uint256",
          "name": "",
          "type": "uint256"
        }
      ],
      "stateMutability": "view",
      "type": "function"
    },
    {
      "inputs": [],
      "name": "owner",
      "outputs": [
        {
          "internalType": "address",
          "name": "",
          "type": "address"
        }
      ],
      "stateMutability": "view",
      "type": "function"
    },
    {
      "inputs": [],
      "name": "pauseItemVault",
      "outputs": [],
      "stateMutability": "nonpayable",
      "type": "function"
    },
    {
      "inputs": [],
      "name": "renounceOwnership",
      "outputs": [],
      "stateMutability": "nonpayable",
      "type": "function"
    },
    {
      "inputs": [
        {
          "internalType": "bytes32",
          "name": "role",
          "type": "bytes32"
        },
        {
          "internalType": "address",
          "name": "account",
          "type": "address"
        }
      ],
      "name": "renounceRole",
      "outputs": [],
      "stateMutability": "nonpayable",
      "type": "function"
    },
    {
      "inputs": [
        {
          "internalType": "bytes32",
          "name": "role",
          "type": "bytes32"
        },
        {
          "internalType": "address",
          "name": "account",
          "type": "address"
        }
      ],
      "name": "revokeRole",
      "outputs": [],
      "stateMutability": "nonpayable",
      "type": "function"
    },
    {
      "inputs": [
        {
          "internalType": "bytes4",
          "name": "interfaceId",
          "type": "bytes4"
        }
      ],
      "name": "supportsInterface",
      "outputs": [
        {
          "internalType": "bool",
          "name": "",
          "type": "bool"
        }
      ],
      "stateMutability": "view",
      "type": "function"
    },
    {
      "inputs": [
        {
          "internalType": "address",
          "name": "newOwner",
          "type": "address"
        }
      ],
      "name": "transferOwnership",
      "outputs": [],
      "stateMutability": "nonpayable",
      "type": "function"
    },
    {
      "inputs": [],
      "name": "unpauseItemVault",
      "outputs": [],
      "stateMutability": "nonpayable",
      "type": "function"
    }
  ],
  "bytecode": "0x608060405234801561001057600080fd5b5061001a3361002a565b61002560003361007a565b61010f565b600080546001600160a01b038381166001600160a01b0319831681178455604051919092169283917f8be0079c531659141344cd1fd0a4f28419497f9722a3daafe3b4186f6b6457e09190a35050565b6100848282610088565b5050565b60008281526001602090815260408083206001600160a01b038516845290915290205460ff166100845760008281526001602081815260408084206001600160a01b0386168086529252808420805460ff19169093179092559051339285917f2f8788117e7eff1d82e926ec794901d17c78024a50270940304540a733656f0d9190a45050565b610fec8061011e6000396000f3fe608060405234801561001057600080fd5b50600436106101165760003560e01c806343e78d04116100a2578063a217fddf11610071578063a217fddf14610241578063aac090ef14610249578063cb8243731461027f578063d547741f146102a6578063f2fde38b146102b957600080fd5b806343e78d04146101fe578063715018a61461020b5780638da5cb5b1461021357806391d148541461022e57600080fd5b80632f2ff15d116100e95780632f2ff15d14610187578063350c90d71461019a57806336568abe146101ad57806338f47b07146101c05780633bd304dd146101d357600080fd5b806301ffc9a71461011b5780631a77716114610143578063248a9ca31461014d5780632cdc443a1461017f575b600080fd5b61012e610129366004610d8b565b6102cc565b60405190151581526020015b60405180910390f35b61014b610303565b005b61017161015b366004610d46565b6000908152600160208190526040909120015490565b60405190815260200161013a565b61014b610391565b61014b610195366004610d5f565b610451565b61014b6101a8366004610d13565b61047d565b61014b6101bb366004610d5f565b61068c565b61014b6101ce366004610d13565b61070a565b6101716101e1366004610ce9565b600360209081526000928352604080842090915290825290205481565b60025461012e9060ff1681565b61014b610866565b6000546040516001600160a01b03909116815260200161013a565b61012e61023c366004610d5f565b61089c565b610171600081565b610171610257366004610ce9565b6001600160a01b03919091166000908152600360209081526040808320938352929052205490565b6101717fb15e2bb6de8e562b452dcfd0ca719f799c9919f6645dee389052d6326e77eb6081565b61014b6102b4366004610d5f565b6108c7565b61014b6102c7366004610cce565b6108ee565b60006001600160e01b03198216637965db0b60e01b14806102fd57506301ffc9a760e01b6001600160e01b03198316145b92915050565b6000546001600160a01b031633146103365760405162461bcd60e51b815260040161032d90610eaa565b60405180910390fd5b60025460ff16156103595760405162461bcd60e51b815260040161032d90610e5d565b6002805460ff191660011790556040517f87d9166d1d6ca676f1b73362e856175e59551fb9afcc5f676e60db85a3f7484f90600090a1565b6000546001600160a01b031633146103bb5760405162461bcd60e51b815260040161032d90610eaa565b60025460ff1661041c5760405162461bcd60e51b815260206004820152602660248201527f5b4974656d5661756c742e7768656e4974656d5661756c745061757365645d2060448201526514185d5cd95960d21b606482015260840161032d565b6002805460ff191690556040517f4617a557ec3812ca0b018b7ba6927d95f46f53f337cc93883425c6a609ac0d7790600090a1565b6000828152600160208190526040909120015461046e8133610989565b61047883836109ed565b505050565b60025460ff16156104a05760405162461bcd60e51b815260040161032d90610e5d565b7fb15e2bb6de8e562b452dcfd0ca719f799c9919f6645dee389052d6326e77eb606104cb8133610989565b6001600160a01b03841660009081526003602090815260408083208684529091529020548211156105735760405162461bcd60e51b815260206004820152604660248201527f5b4974656d5661756c742e64656372656173654974656d5d207769746864726160448201527f77206974656d2073686f756c64206265206c657373207468616e20757365722760648201526573206974656d60d01b608482015260a40161032d565b6001600160a01b03841660009081526003602090815260408083208684529091529020546105a18382610f16565b11156106095760405162461bcd60e51b815260206004820152603160248201527f5b4974656d5661756c742e64656372656173654974656d5d205573657220686160448201527073206974656d7320756e646572666c6f7760781b606482015260840161032d565b6001600160a01b03841660009081526003602090815260408083208684529091528120805484929061063c908490610f16565b909155505060408051848152602081018490526001600160a01b038616917fdb8cdce55c80da6e2ed8bbc64270aad5419ccef9383c9599f8259262780a84fb91015b60405180910390a250505050565b6001600160a01b03811633146106fc5760405162461bcd60e51b815260206004820152602f60248201527f416363657373436f6e74726f6c3a2063616e206f6e6c792072656e6f756e636560448201526e103937b632b9903337b91039b2b63360891b606482015260840161032d565b6107068282610a58565b5050565b60025460ff161561072d5760405162461bcd60e51b815260040161032d90610e5d565b7fb15e2bb6de8e562b452dcfd0ca719f799c9919f6645dee389052d6326e77eb606107588133610989565b6001600160a01b03841660009081526003602090815260408083208684529091529020546107868382610edf565b10156107ed5760405162461bcd60e51b815260206004820152603060248201527f5b4974656d5661756c742e696e6372656173654974656d5d205573657220686160448201526f73206974656d73206f766572666c6f7760801b606482015260840161032d565b6001600160a01b038416600090815260036020908152604080832086845290915281208054849290610820908490610edf565b909155505060408051848152602081018490526001600160a01b038616917f6c6cff54163f6b2cdb792a253f84ce6343edbe65535b0b72198ba2b7ba79d070910161067e565b6000546001600160a01b031633146108905760405162461bcd60e51b815260040161032d90610eaa565b61089a6000610abf565b565b60009182526001602090815260408084206001600160a01b0393909316845291905290205460ff1690565b600082815260016020819052604090912001546108e48133610989565b6104788383610a58565b6000546001600160a01b031633146109185760405162461bcd60e51b815260040161032d90610eaa565b6001600160a01b03811661097d5760405162461bcd60e51b815260206004820152602660248201527f4f776e61626c653a206e6577206f776e657220697320746865207a65726f206160448201526564647265737360d01b606482015260840161032d565b61098681610abf565b50565b610993828261089c565b610706576109ab816001600160a01b03166014610b0f565b6109b6836020610b0f565b6040516020016109c7929190610db5565b60408051601f198184030181529082905262461bcd60e51b825261032d91600401610e2a565b6109f7828261089c565b6107065760008281526001602081815260408084206001600160a01b0386168086529252808420805460ff19169093179092559051339285917f2f8788117e7eff1d82e926ec794901d17c78024a50270940304540a733656f0d9190a45050565b610a62828261089c565b156107065760008281526001602090815260408083206001600160a01b0385168085529252808320805460ff1916905551339285917ff6391f5c32d9c69d2a47ea670b442974b53935d1edc7fd64eb21e047a839171b9190a45050565b600080546001600160a01b038381166001600160a01b0319831681178455604051919092169283917f8be0079c531659141344cd1fd0a4f28419497f9722a3daafe3b4186f6b6457e09190a35050565b60606000610b1e836002610ef7565b610b29906002610edf565b67ffffffffffffffff811115610b4157610b41610fa0565b6040519080825280601f01601f191660200182016040528015610b6b576020820181803683370190505b509050600360fc1b81600081518110610b8657610b86610f8a565b60200101906001600160f81b031916908160001a905350600f60fb1b81600181518110610bb557610bb5610f8a565b60200101906001600160f81b031916908160001a9053506000610bd9846002610ef7565b610be4906001610edf565b90505b6001811115610c5c576f181899199a1a9b1b9c1cb0b131b232b360811b85600f1660108110610c1857610c18610f8a565b1a60f81b828281518110610c2e57610c2e610f8a565b60200101906001600160f81b031916908160001a90535060049490941c93610c5581610f5d565b9050610be7565b508315610cab5760405162461bcd60e51b815260206004820181905260248201527f537472696e67733a20686578206c656e67746820696e73756666696369656e74604482015260640161032d565b9392505050565b80356001600160a01b0381168114610cc957600080fd5b919050565b600060208284031215610ce057600080fd5b610cab82610cb2565b60008060408385031215610cfc57600080fd5b610d0583610cb2565b946020939093013593505050565b600080600060608486031215610d2857600080fd5b610d3184610cb2565b95602085013595506040909401359392505050565b600060208284031215610d5857600080fd5b5035919050565b60008060408385031215610d7257600080fd5b82359150610d8260208401610cb2565b90509250929050565b600060208284031215610d9d57600080fd5b81356001600160e01b031981168114610cab57600080fd5b7f416363657373436f6e74726f6c3a206163636f756e7420000000000000000000815260008351610ded816017850160208801610f2d565b7001034b99036b4b9b9b4b733903937b6329607d1b6017918401918201528351610e1e816028840160208801610f2d565b01602801949350505050565b6020815260008251806020840152610e49816040850160208701610f2d565b601f01601f19169190910160400192915050565b6020808252602d908201527f5b4974656d5661756c742e7768656e4974656d5661756c744e6f74506175736560408201526c191748139bdd0814185d5cd959609a1b606082015260800190565b6020808252818101527f4f776e61626c653a2063616c6c6572206973206e6f7420746865206f776e6572604082015260600190565b60008219821115610ef257610ef2610f74565b500190565b6000816000190483118215151615610f1157610f11610f74565b500290565b600082821015610f2857610f28610f74565b500390565b60005b83811015610f48578181015183820152602001610f30565b83811115610f57576000848401525b50505050565b600081610f6c57610f6c610f74565b506000190190565b634e487b7160e01b600052601160045260246000fd5b634e487b7160e01b600052603260045260246000fd5b634e487b7160e01b600052604160045260246000fdfea2646970667358221220c0ec137cf8ceba07deacfd40c4f3154da4d207bc884e58faa7dd08cb4ee5466864736f6c63430008070033",
  "linkReferences": {},
  "deployedLinkReferences": {}
}