{
  "_format": "hh-sol-artifact-1",
  "contractName": "P2PBinance",
  "sourceName": "contracts/P2P_Binance.sol",
  "abi": [
    {
      "inputs": [
        {
          "internalType": "address",
          "name": "_tokenAddress",
          "type": "address"
        },
        {
          "internalType": "uint256",
          "name": "_fee",
          "type": "uint256"
        }
      ],
      "stateMutability": "nonpayable",
      "type": "constructor"
    },
    {
      "anonymous": false,
      "inputs": [
        {
          "indexed": false,
          "internalType": "bytes32",
          "name": "orderBuyId",
          "type": "bytes32"
        },
        {
          "indexed": false,
          "internalType": "address",
          "name": "buyer",
          "type": "address"
        },
        {
          "indexed": false,
          "internalType": "address",
          "name": "seller",
          "type": "address"
        },
        {
          "indexed": false,
          "internalType": "uint256",
          "name": "amount",
          "type": "uint256"
        },
        {
          "indexed": false,
          "internalType": "uint256",
          "name": "busdPrice",
          "type": "uint256"
        },
        {
          "indexed": false,
          "internalType": "uint256",
          "name": "totalPriceInOrder",
          "type": "uint256"
        }
      ],
      "name": "ExecuteOrdersBuyNaka",
      "type": "event"
    },
    {
      "anonymous": false,
      "inputs": [
        {
          "indexed": true,
          "internalType": "address",
          "name": "previousOwner",
          "type": "address"
        },
        {
          "indexed": true,
          "internalType": "address",
          "name": "newOwner",
          "type": "address"
        }
      ],
      "name": "OwnershipTransferred",
      "type": "event"
    },
    {
      "anonymous": false,
      "inputs": [
        {
          "indexed": false,
          "internalType": "address",
          "name": "account",
          "type": "address"
        }
      ],
      "name": "Paused",
      "type": "event"
    },
    {
      "anonymous": false,
      "inputs": [
        {
          "indexed": true,
          "internalType": "bytes32",
          "name": "role",
          "type": "bytes32"
        },
        {
          "indexed": true,
          "internalType": "bytes32",
          "name": "previousAdminRole",
          "type": "bytes32"
        },
        {
          "indexed": true,
          "internalType": "bytes32",
          "name": "newAdminRole",
          "type": "bytes32"
        }
      ],
      "name": "RoleAdminChanged",
      "type": "event"
    },
    {
      "anonymous": false,
      "inputs": [
        {
          "indexed": true,
          "internalType": "bytes32",
          "name": "role",
          "type": "bytes32"
        },
        {
          "indexed": true,
          "internalType": "address",
          "name": "account",
          "type": "address"
        },
        {
          "indexed": true,
          "internalType": "address",
          "name": "sender",
          "type": "address"
        }
      ],
      "name": "RoleGranted",
      "type": "event"
    },
    {
      "anonymous": false,
      "inputs": [
        {
          "indexed": true,
          "internalType": "bytes32",
          "name": "role",
          "type": "bytes32"
        },
        {
          "indexed": true,
          "internalType": "address",
          "name": "account",
          "type": "address"
        },
        {
          "indexed": true,
          "internalType": "address",
          "name": "sender",
          "type": "address"
        }
      ],
      "name": "RoleRevoked",
      "type": "event"
    },
    {
      "anonymous": false,
      "inputs": [
        {
          "indexed": false,
          "internalType": "address",
          "name": "account",
          "type": "address"
        }
      ],
      "name": "Unpaused",
      "type": "event"
    },
    {
      "anonymous": false,
      "inputs": [
        {
          "indexed": false,
          "internalType": "bytes32",
          "name": "orderBuyId",
          "type": "bytes32"
        }
      ],
      "name": "cancelOrdersBuyNaka",
      "type": "event"
    },
    {
      "anonymous": false,
      "inputs": [
        {
          "indexed": false,
          "internalType": "bytes32",
          "name": "orderBuyId",
          "type": "bytes32"
        },
        {
          "indexed": false,
          "internalType": "address",
          "name": "buyer",
          "type": "address"
        },
        {
          "indexed": false,
          "internalType": "uint256",
          "name": "busdPrice",
          "type": "uint256"
        },
        {
          "indexed": false,
          "internalType": "uint256",
          "name": "amount",
          "type": "uint256"
        },
        {
          "indexed": false,
          "internalType": "uint256",
          "name": "totalPrice",
          "type": "uint256"
        },
        {
          "indexed": false,
          "internalType": "uint256",
          "name": "fee",
          "type": "uint256"
        }
      ],
      "name": "createOrdersBuyNaka",
      "type": "event"
    },
    {
      "anonymous": false,
      "inputs": [
        {
          "indexed": false,
          "internalType": "bytes32",
          "name": "orderBuyId",
          "type": "bytes32"
        },
        {
          "indexed": false,
          "internalType": "uint256",
          "name": "amount",
          "type": "uint256"
        },
        {
          "indexed": false,
          "internalType": "uint256",
          "name": "busdPrice",
          "type": "uint256"
        },
        {
          "indexed": false,
          "internalType": "uint256",
          "name": "totalPriceInOrder",
          "type": "uint256"
        }
      ],
      "name": "editOrdersBuy",
      "type": "event"
    },
    {
      "anonymous": false,
      "inputs": [
        {
          "indexed": false,
          "internalType": "bytes32",
          "name": "requestBuyNakaId",
          "type": "bytes32"
        },
        {
          "indexed": false,
          "internalType": "bytes32",
          "name": "polygonOrderSellId",
          "type": "bytes32"
        },
        {
          "indexed": false,
          "internalType": "address",
          "name": "seller",
          "type": "address"
        },
        {
          "indexed": false,
          "internalType": "address",
          "name": "buyer",
          "type": "address"
        },
        {
          "indexed": false,
          "internalType": "uint256",
          "name": "sellAmount",
          "type": "uint256"
        },
        {
          "indexed": false,
          "internalType": "uint256",
          "name": "nakaPrice",
          "type": "uint256"
        },
        {
          "indexed": false,
          "internalType": "uint256",
          "name": "totalBusdPrice",
          "type": "uint256"
        },
        {
          "indexed": false,
          "internalType": "uint256",
          "name": "buyAmount",
          "type": "uint256"
        }
      ],
      "name": "requestBuyNakas",
      "type": "event"
    },
    {
      "anonymous": false,
      "inputs": [
        {
          "indexed": false,
          "internalType": "bytes32",
          "name": "requestBuyID",
          "type": "bytes32"
        },
        {
          "indexed": false,
          "internalType": "uint256",
          "name": "buyAmount",
          "type": "uint256"
        }
      ],
      "name": "submitBuyNakas",
      "type": "event"
    },
    {
      "inputs": [],
      "name": "DEFAULT_ADMIN_ROLE",
      "outputs": [
        {
          "internalType": "bytes32",
          "name": "",
          "type": "bytes32"
        }
      ],
      "stateMutability": "view",
      "type": "function"
    },
    {
      "inputs": [
        {
          "internalType": "bytes32",
          "name": "_orderBuyId",
          "type": "bytes32"
        },
        {
          "internalType": "uint256",
          "name": "_amount",
          "type": "uint256"
        },
        {
          "internalType": "address",
          "name": "_seller",
          "type": "address"
        }
      ],
      "name": "ExecuteOrderBuyNaka",
      "outputs": [],
      "stateMutability": "nonpayable",
      "type": "function"
    },
    {
      "inputs": [
        {
          "internalType": "bytes32",
          "name": "",
          "type": "bytes32"
        }
      ],
      "name": "OrdersBuyNaka",
      "outputs": [
        {
          "internalType": "address",
          "name": "buyer",
          "type": "address"
        },
        {
          "internalType": "uint256",
          "name": "busdPrice",
          "type": "uint256"
        },
        {
          "internalType": "uint256",
          "name": "amount",
          "type": "uint256"
        },
        {
          "internalType": "uint256",
          "name": "totalPriceInOrder",
          "type": "uint256"
        },
        {
          "internalType": "bool",
          "name": "active",
          "type": "bool"
        }
      ],
      "stateMutability": "view",
      "type": "function"
    },
    {
      "inputs": [
        {
          "internalType": "bytes32",
          "name": "",
          "type": "bytes32"
        }
      ],
      "name": "RequestsBuyNaka",
      "outputs": [
        {
          "internalType": "bytes32",
          "name": "polygonOrderSellId",
          "type": "bytes32"
        },
        {
          "internalType": "address",
          "name": "buyer",
          "type": "address"
        },
        {
          "internalType": "address",
          "name": "seller",
          "type": "address"
        },
        {
          "internalType": "uint256",
          "name": "sellAmount",
          "type": "uint256"
        },
        {
          "internalType": "uint256",
          "name": "nakaPrice",
          "type": "uint256"
        },
        {
          "internalType": "uint256",
          "name": "busdPrice",
          "type": "uint256"
        },
        {
          "internalType": "uint256",
          "name": "buyAmount",
          "type": "uint256"
        }
      ],
      "stateMutability": "view",
      "type": "function"
    },
    {
      "inputs": [],
      "name": "WORKER_ROLE",
      "outputs": [
        {
          "internalType": "bytes32",
          "name": "",
          "type": "bytes32"
        }
      ],
      "stateMutability": "view",
      "type": "function"
    },
    {
      "inputs": [],
      "name": "accumulateFee",
      "outputs": [
        {
          "internalType": "uint256",
          "name": "",
          "type": "uint256"
        }
      ],
      "stateMutability": "view",
      "type": "function"
    },
    {
      "inputs": [
        {
          "internalType": "bytes32",
          "name": "_orderBuyId",
          "type": "bytes32"
        },
        {
          "internalType": "uint256",
          "name": "_amount",
          "type": "uint256"
        }
      ],
      "name": "calculateBusdPrice",
      "outputs": [
        {
          "internalType": "uint256",
          "name": "",
          "type": "uint256"
        }
      ],
      "stateMutability": "view",
      "type": "function"
    },
    {
      "inputs": [
        {
          "internalType": "uint256",
          "name": "_amount",
          "type": "uint256"
        }
      ],
      "name": "calculateProtocolFee",
      "outputs": [
        {
          "internalType": "uint256",
          "name": "",
          "type": "uint256"
        }
      ],
      "stateMutability": "view",
      "type": "function"
    },
    {
      "inputs": [
        {
          "internalType": "bytes32",
          "name": "_orderBuyId",
          "type": "bytes32"
        }
      ],
      "name": "cancelOrderBuyNaka",
      "outputs": [],
      "stateMutability": "nonpayable",
      "type": "function"
    },
    {
      "inputs": [
        {
          "internalType": "bytes32",
          "name": "_requestBuyNakaId",
          "type": "bytes32"
        }
      ],
      "name": "cancelSubmitBuyNaka",
      "outputs": [],
      "stateMutability": "nonpayable",
      "type": "function"
    },
    {
      "inputs": [
        {
          "internalType": "uint256",
          "name": "_busdPrice",
          "type": "uint256"
        },
        {
          "internalType": "uint256",
          "name": "_amount",
          "type": "uint256"
        }
      ],
      "name": "createOrderBuyNaka",
      "outputs": [],
      "stateMutability": "nonpayable",
      "type": "function"
    },
    {
      "inputs": [
        {
          "internalType": "bytes32",
          "name": "_orderBuyId",
          "type": "bytes32"
        },
        {
          "internalType": "uint256",
          "name": "_busdPrice",
          "type": "uint256"
        },
        {
          "internalType": "uint256",
          "name": "_amount",
          "type": "uint256"
        }
      ],
      "name": "editOrderBuy",
      "outputs": [],
      "stateMutability": "nonpayable",
      "type": "function"
    },
    {
      "inputs": [],
      "name": "fee",
      "outputs": [
        {
          "internalType": "uint256",
          "name": "",
          "type": "uint256"
        }
      ],
      "stateMutability": "view",
      "type": "function"
    },
    {
      "inputs": [
        {
          "internalType": "address",
          "name": "_contractAddress",
          "type": "address"
        }
      ],
      "name": "getAllOrders",
      "outputs": [
        {
          "internalType": "bytes32[]",
          "name": "",
          "type": "bytes32[]"
        }
      ],
      "stateMutability": "view",
      "type": "function"
    },
    {
      "inputs": [
        {
          "internalType": "address",
          "name": "_address",
          "type": "address"
        }
      ],
      "name": "getOrderIdByAddress",
      "outputs": [
        {
          "internalType": "bytes32[]",
          "name": "",
          "type": "bytes32[]"
        }
      ],
      "stateMutability": "view",
      "type": "function"
    },
    {
      "inputs": [
        {
          "internalType": "bytes32",
          "name": "role",
          "type": "bytes32"
        }
      ],
      "name": "getRoleAdmin",
      "outputs": [
        {
          "internalType": "bytes32",
          "name": "",
          "type": "bytes32"
        }
      ],
      "stateMutability": "view",
      "type": "function"
    },
    {
      "inputs": [
        {
          "internalType": "bytes32",
          "name": "_orderBuyId",
          "type": "bytes32"
        }
      ],
      "name": "getSeller",
      "outputs": [
        {
          "internalType": "address[]",
          "name": "",
          "type": "address[]"
        }
      ],
      "stateMutability": "view",
      "type": "function"
    },
    {
      "inputs": [
        {
          "internalType": "bytes32",
          "name": "role",
          "type": "bytes32"
        },
        {
          "internalType": "address",
          "name": "account",
          "type": "address"
        }
      ],
      "name": "grantRole",
      "outputs": [],
      "stateMutability": "nonpayable",
      "type": "function"
    },
    {
      "inputs": [
        {
          "internalType": "bytes32",
          "name": "role",
          "type": "bytes32"
        },
        {
          "internalType": "address",
          "name": "account",
          "type": "address"
        }
      ],
      "name": "hasRole",
      "outputs": [
        {
          "internalType": "bool",
          "name": "",
          "type": "bool"
        }
      ],
      "stateMutability": "view",
      "type": "function"
    },
    {
      "inputs": [
        {
          "internalType": "bytes32",
          "name": "_role",
          "type": "bytes32"
        },
        {
          "internalType": "address[]",
          "name": "_workerAddress",
          "type": "address[]"
        }
      ],
      "name": "multiGrandRole",
      "outputs": [],
      "stateMutability": "nonpayable",
      "type": "function"
    },
    {
      "inputs": [],
      "name": "owner",
      "outputs": [
        {
          "internalType": "address",
          "name": "",
          "type": "address"
        }
      ],
      "stateMutability": "view",
      "type": "function"
    },
    {
      "inputs": [],
      "name": "pause",
      "outputs": [],
      "stateMutability": "nonpayable",
      "type": "function"
    },
    {
      "inputs": [],
      "name": "paused",
      "outputs": [
        {
          "internalType": "bool",
          "name": "",
          "type": "bool"
        }
      ],
      "stateMutability": "view",
      "type": "function"
    },
    {
      "inputs": [],
      "name": "renounceOwnership",
      "outputs": [],
      "stateMutability": "nonpayable",
      "type": "function"
    },
    {
      "inputs": [
        {
          "internalType": "bytes32",
          "name": "role",
          "type": "bytes32"
        },
        {
          "internalType": "address",
          "name": "account",
          "type": "address"
        }
      ],
      "name": "renounceRole",
      "outputs": [],
      "stateMutability": "nonpayable",
      "type": "function"
    },
    {
      "inputs": [
        {
          "internalType": "bytes32",
          "name": "_polygonOrderSellId",
          "type": "bytes32"
        },
        {
          "internalType": "address",
          "name": "_seller",
          "type": "address"
        },
        {
          "internalType": "uint256",
          "name": "_nakaPrice",
          "type": "uint256"
        },
        {
          "internalType": "uint256",
          "name": "_sellAmount",
          "type": "uint256"
        },
        {
          "internalType": "uint256",
          "name": "_buyAmount",
          "type": "uint256"
        }
      ],
      "name": "requestBuyNaka",
      "outputs": [],
      "stateMutability": "nonpayable",
      "type": "function"
    },
    {
      "inputs": [
        {
          "internalType": "bytes32",
          "name": "role",
          "type": "bytes32"
        },
        {
          "internalType": "address",
          "name": "account",
          "type": "address"
        }
      ],
      "name": "revokeRole",
      "outputs": [],
      "stateMutability": "nonpayable",
      "type": "function"
    },
    {
      "inputs": [
        {
          "internalType": "uint256",
          "name": "_fee",
          "type": "uint256"
        }
      ],
      "name": "setFee",
      "outputs": [],
      "stateMutability": "nonpayable",
      "type": "function"
    },
    {
      "inputs": [
        {
          "internalType": "bytes32",
          "name": "_requestBuyNakaId",
          "type": "bytes32"
        }
      ],
      "name": "submitBuyNaka",
      "outputs": [],
      "stateMutability": "nonpayable",
      "type": "function"
    },
    {
      "inputs": [
        {
          "internalType": "bytes4",
          "name": "interfaceId",
          "type": "bytes4"
        }
      ],
      "name": "supportsInterface",
      "outputs": [
        {
          "internalType": "bool",
          "name": "",
          "type": "bool"
        }
      ],
      "stateMutability": "view",
      "type": "function"
    },
    {
      "inputs": [],
      "name": "tokenAddress",
      "outputs": [
        {
          "internalType": "address",
          "name": "",
          "type": "address"
        }
      ],
      "stateMutability": "view",
      "type": "function"
    },
    {
      "inputs": [
        {
          "internalType": "address",
          "name": "newOwner",
          "type": "address"
        }
      ],
      "name": "transferOwnership",
      "outputs": [],
      "stateMutability": "nonpayable",
      "type": "function"
    },
    {
      "inputs": [],
      "name": "unpause",
      "outputs": [],
      "stateMutability": "nonpayable",
      "type": "function"
    },
    {
      "inputs": [
        {
          "internalType": "uint256",
          "name": "_amount",
          "type": "uint256"
        }
      ],
      "name": "withdrawFee",
      "outputs": [],
      "stateMutability": "nonpayable",
      "type": "function"
    }
  ],
  "bytecode": "0x60806040523480156200001157600080fd5b5060405162002b4438038062002b44833981016040819052620000349162000165565b6200003f336200007d565b6001600255600380546001600160a81b0319166101006001600160a01b03851602179055600481905562000075600033620000cd565b5050620001a1565b600080546001600160a01b038381166001600160a01b0319831681178455604051919092169283917f8be0079c531659141344cd1fd0a4f28419497f9722a3daafe3b4186f6b6457e09190a35050565b620000d98282620000dd565b5050565b60008281526001602090815260408083206001600160a01b038516845290915290205460ff16620000d95760008281526001602081815260408084206001600160a01b0386168086529252808420805460ff19169093179092559051339285917f2f8788117e7eff1d82e926ec794901d17c78024a50270940304540a733656f0d9190a45050565b600080604083850312156200017957600080fd5b82516001600160a01b03811681146200019157600080fd5b6020939093015192949293505050565b61299380620001b16000396000f3fe608060405234801561001057600080fd5b50600436106102055760003560e01c80638456cb591161011a578063ac3d37d6116100ad578063d547741f1161007c578063d547741f1461054c578063d79642f41461055f578063ddca3f4314610572578063e90865d71461057b578063f2fde38b1461058e57600080fd5b8063ac3d37d614610495578063b5fec1ff146104a8578063be357616146104bb578063ce525ad5146104ce57600080fd5b80639c7c270c116100e95780639c7c270c1461044f5780639ca6a0ca146104625780639d76ea5814610475578063a217fddf1461048d57600080fd5b80638456cb59146103fc5780638a72d295146104045780638da5cb5b1461041757806391d148541461043c57600080fd5b80633c4e1b4b1161019d578063634252dc1161016c578063634252dc1461038c57806364a8ce51146103a157806369fe0e2d146103c1578063715018a6146103d45780637e44e504146103dc57600080fd5b80633c4e1b4b146102ce5780633f4ba83a146102e157806351a1a73a146102e95780635c975abb1461038157600080fd5b8063248a9ca3116101d9578063248a9ca3146102715780632939b51e146102955780632f2ff15d146102a857806336568abe146102bb57600080fd5b806207a6e71461020a57806301ffc9a71461021f578063082c6ccf146102475780631155d0421461025a575b600080fd5b61021d61021836600461245a565b6105a1565b005b61023261022d36600461252b565b6105e9565b60405190151581526020015b60405180910390f35b61021d610255366004612555565b610620565b61026360055481565b60405190815260200161023e565b61026361027f366004612555565b6000908152600160208190526040909120015490565b61021d6102a336600461256e565b61079e565b61021d6102b636600461259a565b610a47565b61021d6102c936600461259a565b610a73565b61021d6102dc3660046125c6565b610af1565b61021d610ddc565b6103406102f7366004612555565b600860205260009081526040902080546001820154600283015460038401546004850154600586015460069096015494956001600160a01b039485169594909316939192909187565b604080519788526001600160a01b03968716602089015294909516938601939093526060850191909152608084015260a083015260c082015260e00161023e565b60035460ff16610232565b61026360008051602061293e83398151915281565b6103b46103af3660046125fb565b610e59565b60405161023e9190612616565b61021d6103cf366004612555565b610ec5565b61021d610f07565b6103ef6103ea366004612555565b610f3b565b60405161023e919061265a565b61021d610fa6565b61021d610412366004612555565b610ffb565b6000546001600160a01b03165b6040516001600160a01b03909116815260200161023e565b61023261044a36600461259a565b611137565b61026361045d366004612555565b611162565b61021d610470366004612555565b61117f565b6003546104249061010090046001600160a01b031681565b610263600081565b61021d6104a336600461269b565b611352565b6103b46104b63660046125fb565b6114e3565b61021d6104c9366004612555565b61154d565b6105186104dc366004612555565b600760205260009081526040902080546001820154600283015460038401546004909401546001600160a01b0390931693919290919060ff1685565b604080516001600160a01b03909616865260208601949094529284019190915260608301521515608082015260a00161023e565b61021d61055a36600461259a565b611687565b61026361056d3660046126e1565b6116ae565b61026360045481565b61021d6105893660046126e1565b6116eb565b61021d61059c3660046125fb565b6118a1565b805160005b818110156105e3576105d1848483815181106105c4576105c4612703565b6020026020010151610a47565b806105db8161272f565b9150506105a6565b50505050565b60006001600160e01b03198216637965db0b60e01b148061061a57506301ffc9a760e01b6001600160e01b03198316145b92915050565b60035460ff161561064c5760405162461bcd60e51b815260040161064390612748565b60405180910390fd5b60008051602061293e833981519152610665813361193c565b60008290036106d25760405162461bcd60e51b815260206004820152603360248201527f5b50325042696e616e63652e7375626d69744275794e616b615d20526571756560448201527273744275794e616b614964206973205a65726f60681b6064820152608401610643565b60008281526008602052604090206006810154600354600283015460058401546001600160a01b036101009093048316926107119284929116906119a0565b60008581526008602090815260408083208381556001810180546001600160a01b031990811690915560028201805490911690556003810184905560048101849055600581018490556006019290925581518781529081018490527f0ce931c39b9fc1f04348dc5ad2e8c0761da7fe92fe72366614d3ebe41ccdb6b0910160405180910390a15050505050565b6000838152600760205260409020600481015460ff166108165760405162461bcd60e51b815260206004820152602d60248201527f5b50325042696e616e63652e65646974416d6f756e744f6465724275795d204f60448201526c7264657220696e61637469766560981b6064820152608401610643565b80546001600160a01b0316331461087b5760405162461bcd60e51b815260206004820152602360248201527f5b50325042696e616e63652e656469744f726465724275795d204e6f742062756044820152623cb2b960e91b6064820152608401610643565b6000838316116108fd5760405162461bcd60e51b815260206004820152604160248201527f5b50325042696e616e63652e656469744f726465724275795d2042757364507260448201527f69636520616e6420416d6f7574206d757374206265206d6f7265207468616e206064820152600360fc1b608482015260a401610643565b60035461010090046001600160a01b03166000670de0b6b3a76400006109238587612772565b61092d9190612789565b90506000670de0b6b3a76400008460020154856001015461094e9190612772565b6109589190612789565b90508082106109a457600061096d82846127ab565b90506109846001600160a01b038516333084611a03565b8085600301600082825461099891906127be565b909155506109e1915050565b60006109b083836127ab565b90506109c66001600160a01b03851633836119a0565b808560030160008282546109da91906127ab565b9091555050505b60028401859055600184018690556003840154604080518981526020810188905290810188905260608101919091527fdadcfddfb0738ce275231accf42295fe73c5e804f57cc764b20b9b9a048548c9906080015b60405180910390a150505050505050565b60008281526001602081905260409091200154610a64813361193c565b610a6e8383611a3b565b505050565b6001600160a01b0381163314610ae35760405162461bcd60e51b815260206004820152602f60248201527f416363657373436f6e74726f6c3a2063616e206f6e6c792072656e6f756e636560448201526e103937b632b9903337b91039b2b63360891b6064820152608401610643565b610aed8282611aa6565b5050565b60035460ff1615610b145760405162461bcd60e51b815260040161064390612748565b60008051602061293e833981519152610b2d813361193c565b6000848152600760205260409020600481015460ff16610ba75760405162461bcd60e51b815260206004820152602f60248201527f5b50325042696e616e63652e457865637574654f726465724275794e616b615d60448201526e204f7264657220696e61637469766560881b6064820152608401610643565b8381600201541015610c355760405162461bcd60e51b815260206004820152604b60248201527f5b50325042696e616e63652e457865637574654f726465724275794e616b615d60448201527f2043616e277420627579206d6f7265207468616e206f726465722072656d616960648201526a1b9a5b99c8185b5bdd5b9d60aa1b608482015260a401610643565b6000670de0b6b3a7640000858360010154610c509190612772565b610c5a9190612789565b82546002840180549293506001600160a01b0390911691879190600090610c829084906127ab565b9250508190555081836003016000828254610c9d91906127ab565b909155505060035461010090046001600160a01b0316610cbe8187856119a0565b8360020154600003610d375760048401805460ff191690558354610cec9089906001600160a01b0316611b0d565b610cf588611c60565b600088815260076020526040812080546001600160a01b031916815560018101829055600281018290556003810191909155600401805460ff19169055610d6f565b60008881526006602090815260408220805460018101825590835291200180546001600160a01b0319166001600160a01b0388161790555b6003840154604080518a81526001600160a01b038581166020830152891681830152606081018a90526080810186905260a0810192909252517f05e0338398afaedf2ece2b1240d3500da4bfe2a25770e8709d7edf89f11ca5b49181900360c00190a15050505050505050565b6000546001600160a01b03163314610e065760405162461bcd60e51b8152600401610643906127d1565b60035460ff16610e4f5760405162461bcd60e51b815260206004820152601460248201527314185d5cd8589b194e881b9bdd081c185d5cd95960621b6044820152606401610643565b610e57611d7a565b565b6001600160a01b038116600090815260096020908152604091829020805483518184028101840190945280845260609392830182828015610eb957602002820191906000526020600020905b815481526020019060010190808311610ea5575b50505050509050919050565b60035460ff1615610ee85760405162461bcd60e51b815260040161064390612748565b60008051602061293e833981519152610f01813361193c565b50600455565b6000546001600160a01b03163314610f315760405162461bcd60e51b8152600401610643906127d1565b610e576000611e0d565b600081815260066020908152604091829020805483518184028101840190945280845260609392830182828015610eb957602002820191906000526020600020905b81546001600160a01b03168152600190910190602001808311610f7d5750505050509050919050565b6000546001600160a01b03163314610fd05760405162461bcd60e51b8152600401610643906127d1565b60035460ff1615610ff35760405162461bcd60e51b815260040161064390612748565b610e57611e5d565b60035460ff161561101e5760405162461bcd60e51b815260040161064390612748565b60008051602061293e833981519152611037813361193c565b60008290036110ae5760405162461bcd60e51b815260206004820152603960248201527f5b50325042696e616e63652e63616e63656c5375626d69744275794e616b615d60448201527f20526571756573744275794e616b614964206973205a65726f000000000000006064820152608401610643565b6000828152600860205260409020600354600182015460058301546001600160a01b036101009093048316926110e89284929116906119a0565b50505060009081526008602052604081208181556001810180546001600160a01b0319908116909155600282018054909116905560038101829055600481018290556005810182905560060155565b60009182526001602090815260408084206001600160a01b0393909316845291905290205460ff1690565b6000612710826004546111759190612772565b61061a9190612789565b6000818152600760205260409020600481015460ff166111f95760405162461bcd60e51b815260206004820152602f60248201527f5b50325042696e616e63652e63616e63656c4f726465724275794e616b615d2060448201526e27b93232b91034b730b1ba34bb329760891b6064820152608401610643565b80546001600160a01b031633146112665760405162461bcd60e51b815260206004820152602b60248201527f5b50325042696e616e63652e63616e63656c4f726465724275794e616b615d2060448201526a102737ba10313abcb2b91760a91b6064820152608401610643565b6000670de0b6b3a7640000826002015483600101546112859190612772565b61128f9190612789565b60035483549192506001600160a01b036101009091048116916112b591839116846119a0565b60048301805460ff191690556112cb8433611b0d565b6112d484611c60565b60008481526007602052604080822080546001600160a01b0319168155600181018390556002810183905560038101929092556004909101805460ff19169055517f14ea8f86248cbf67b7f0ba4f10f0690058b8b925cadc52cb59568985faa761d3906113449086815260200190565b60405180910390a150505050565b60035460ff16156113755760405162461bcd60e51b815260040161064390612748565b6000670de0b6b3a764000061138a8386612772565b6113949190612789565b60035490915061010090046001600160a01b03166113b481333085611a03565b604080514260208201529081018890526bffffffffffffffffffffffff19606088811b82168184015233901b1660748201526088810185905260a8810186905260c8810184905260009060e80160408051808303601f1901815282825280516020918201206000818152600883528390208c81556002810180546001600160a01b03199081166001600160a01b038f1690811790925560018301805433921682179055600383018c9055600483018d9055600583018a9055600683018b90558387529386018e90529385019390935260608401919091526080830188905260a0830189905260c0830186905260e083018790529250907f3df29034787f881c5d51f40cbac74dbb11eaad20314cb2684bfc26a1751a2988906101000160405180910390a1505050505050505050565b6001600160a01b0381166000908152600a6020908152604091829020805483518184028101840190945280845260609392830182828015610eb95760200282019190600052602060002090815481526020019060010190808311610ea55750505050509050919050565b60035460ff16156115705760405162461bcd60e51b815260040161064390612748565b60008051602061293e833981519152611589813361193c565b6005546000036115f55760405162461bcd60e51b815260206004820152603160248201527f5b50325042696e616e63652e77697468647261774665655d20416363756d756c604482015270030ba32a332b29034b9903430bb3290181607d1b6064820152608401610643565b8160055410156116615760405162461bcd60e51b815260206004820152603160248201527f5b50325042696e616e63652e77697468647261774665655d20416363756d756c6044820152700c2e8ca8ccaca40dcdee840cadcdeeaced607b1b6064820152608401610643565b60035461010090046001600160a01b031661167d8133856119a0565b5050600060055550565b600082815260016020819052604090912001546116a4813361193c565b610a6e8383611aa6565b600082815260076020526040812060018101548290670de0b6b3a7640000906116d8908690612772565b6116e29190612789565b95945050505050565b60035460ff161561170e5760405162461bcd60e51b815260040161064390612748565b6000670de0b6b3a76400006117238385612772565b61172d9190612789565b905060006004548261173f91906127be565b90506000600360019054906101000a90046001600160a01b031690506004546005600082825461176f91906127be565b9091555061178a90506001600160a01b038216333085611a03565b604080514260208201526bffffffffffffffffffffffff193360601b16918101919091526054810186905260009060740160408051601f19818403018152828252805160209182012060008181526007835283812080546001600160a01b03191633908117825560018083018e9055600283018d9055600383018c90556004808401805460ff191683179055828552600987528785208054808401825590865287862001869055308552600a875287852080549283018155855293869020018490559154838752938601919091529284018a9052606084018990526080840188905260a08401919091529250907fb4d81f404122774fdd62aeb9563e9fd8f78c1bb9bdebb65eae6201b48ab1de019060c001610a36565b6000546001600160a01b031633146118cb5760405162461bcd60e51b8152600401610643906127d1565b6001600160a01b0381166119305760405162461bcd60e51b815260206004820152602660248201527f4f776e61626c653a206e6577206f776e657220697320746865207a65726f206160448201526564647265737360d01b6064820152608401610643565b61193981611e0d565b50565b6119468282611137565b610aed5761195e816001600160a01b03166014611eb5565b611969836020611eb5565b60405160200161197a92919061282a565b60408051601f198184030181529082905262461bcd60e51b82526106439160040161289f565b6040516001600160a01b038316602482015260448101829052610a6e90849063a9059cbb60e01b906064015b60408051601f198184030181529190526020810180516001600160e01b03166001600160e01b031990931692909217909152612058565b6040516001600160a01b03808516602483015283166044820152606481018290526105e39085906323b872dd60e01b906084016119cc565b611a458282611137565b610aed5760008281526001602081815260408084206001600160a01b0386168086529252808420805460ff19169093179092559051339285917f2f8788117e7eff1d82e926ec794901d17c78024a50270940304540a733656f0d9190a45050565b611ab08282611137565b15610aed5760008281526001602090815260408083206001600160a01b0385168085529252808320805460ff1916905551339285917ff6391f5c32d9c69d2a47ea670b442974b53935d1edc7fd64eb21e047a839171b9190a45050565b6000611b19838361212a565b9050805b6001600160a01b038316600090815260096020526040902054611b42906001906127ab565b811015611bdb576001600160a01b0383166000908152600960205260409020611b6c8260016127be565b81548110611b7c57611b7c612703565b906000526020600020015460096000856001600160a01b03166001600160a01b031681526020019081526020016000208281548110611bbd57611bbd612703565b60009182526020909120015580611bd38161272f565b915050611b1d565b506001600160a01b03821660009081526009602052604090208054611c02906001906127ab565b81548110611c1257611c12612703565b600091825260208083209091018290556001600160a01b03841682526009905260409020805480611c4557611c456128d2565b60019003818190600052602060002001600090559055505050565b6000611c6c82306121ed565b9050805b306000908152600a6020526040902054611c8c906001906127ab565b811015611d0857306000908152600a60205260409020611cad8260016127be565b81548110611cbd57611cbd612703565b6000918252602080832090910154308352600a9091526040909120805483908110611cea57611cea612703565b60009182526020909120015580611d008161272f565b915050611c70565b50306000908152600a602052604090208054611d26906001906127ab565b81548110611d3657611d36612703565b60009182526020808320909101829055308252600a905260409020805480611d6057611d606128d2565b600190038181906000526020600020016000905590555050565b60035460ff16611dc35760405162461bcd60e51b815260206004820152601460248201527314185d5cd8589b194e881b9bdd081c185d5cd95960621b6044820152606401610643565b6003805460ff191690557f5db9ee0a495bf2e6ff9c91a7834c1ba4fdd244a5e8aa4e537bd38aeae4b073aa335b6040516001600160a01b03909116815260200160405180910390a1565b600080546001600160a01b038381166001600160a01b0319831681178455604051919092169283917f8be0079c531659141344cd1fd0a4f28419497f9722a3daafe3b4186f6b6457e09190a35050565b60035460ff1615611e805760405162461bcd60e51b815260040161064390612748565b6003805460ff191660011790557f62e78cea01bee320cd4e420270b5ea74000d11b0c9f74754ebdbfc544b05a258611df03390565b60606000611ec4836002612772565b611ecf9060026127be565b67ffffffffffffffff811115611ee757611ee7612428565b6040519080825280601f01601f191660200182016040528015611f11576020820181803683370190505b509050600360fc1b81600081518110611f2c57611f2c612703565b60200101906001600160f81b031916908160001a905350600f60fb1b81600181518110611f5b57611f5b612703565b60200101906001600160f81b031916908160001a9053506000611f7f846002612772565b611f8a9060016127be565b90505b6001811115612002576f181899199a1a9b1b9c1cb0b131b232b360811b85600f1660108110611fbe57611fbe612703565b1a60f81b828281518110611fd457611fd4612703565b60200101906001600160f81b031916908160001a90535060049490941c93611ffb816128e8565b9050611f8d565b5083156120515760405162461bcd60e51b815260206004820181905260248201527f537472696e67733a20686578206c656e67746820696e73756666696369656e746044820152606401610643565b9392505050565b60006120ad826040518060400160405280602081526020017f5361666545524332303a206c6f772d6c6576656c2063616c6c206661696c6564815250856001600160a01b03166122b09092919063ffffffff16565b805190915015610a6e57808060200190518101906120cb91906128ff565b610a6e5760405162461bcd60e51b815260206004820152602a60248201527f5361666545524332303a204552433230206f7065726174696f6e20646964206e6044820152691bdd081cdd58d8d9595960b21b6064820152608401610643565b6000805b6001600160a01b0383166000908152600960205260409020548110156121a4576001600160a01b038316600090815260096020526040902080548591908390811061217b5761217b612703565b90600052602060002001540361219257905061061a565b8061219c8161272f565b91505061212e565b5060405162461bcd60e51b815260206004820152601d60248201527f4572726f722066696e64496e6465784f726465726279416464726573730000006044820152606401610643565b6000805b6001600160a01b0383166000908152600a6020526040902054811015612267576001600160a01b0383166000908152600a6020526040902080548591908390811061223e5761223e612703565b90600052602060002001540361225557905061061a565b8061225f8161272f565b9150506121f1565b5060405162461bcd60e51b815260206004820152601760248201527f4572726f722066696e64496e646578416c6c4f726465720000000000000000006044820152606401610643565b60606122bf84846000856122c7565b949350505050565b6060824710156123285760405162461bcd60e51b815260206004820152602660248201527f416464726573733a20696e73756666696369656e742062616c616e636520666f6044820152651c8818d85b1b60d21b6064820152608401610643565b843b6123765760405162461bcd60e51b815260206004820152601d60248201527f416464726573733a2063616c6c20746f206e6f6e2d636f6e74726163740000006044820152606401610643565b600080866001600160a01b031685876040516123929190612921565b60006040518083038185875af1925050503d80600081146123cf576040519150601f19603f3d011682016040523d82523d6000602084013e6123d4565b606091505b50915091506123e48282866123ef565b979650505050505050565b606083156123fe575081612051565b82511561240e5782518084602001fd5b8160405162461bcd60e51b8152600401610643919061289f565b634e487b7160e01b600052604160045260246000fd5b80356001600160a01b038116811461245557600080fd5b919050565b6000806040838503121561246d57600080fd5b8235915060208084013567ffffffffffffffff8082111561248d57600080fd5b818601915086601f8301126124a157600080fd5b8135818111156124b3576124b3612428565b8060051b604051601f19603f830116810181811085821117156124d8576124d8612428565b6040529182528482019250838101850191898311156124f657600080fd5b938501935b8285101561251b5761250c8561243e565b845293850193928501926124fb565b8096505050505050509250929050565b60006020828403121561253d57600080fd5b81356001600160e01b03198116811461205157600080fd5b60006020828403121561256757600080fd5b5035919050565b60008060006060848603121561258357600080fd5b505081359360208301359350604090920135919050565b600080604083850312156125ad57600080fd5b823591506125bd6020840161243e565b90509250929050565b6000806000606084860312156125db57600080fd5b83359250602084013591506125f26040850161243e565b90509250925092565b60006020828403121561260d57600080fd5b6120518261243e565b6020808252825182820181905260009190848201906040850190845b8181101561264e57835183529284019291840191600101612632565b50909695505050505050565b6020808252825182820181905260009190848201906040850190845b8181101561264e5783516001600160a01b031683529284019291840191600101612676565b600080600080600060a086880312156126b357600080fd5b853594506126c36020870161243e565b94979496505050506040830135926060810135926080909101359150565b600080604083850312156126f457600080fd5b50508035926020909101359150565b634e487b7160e01b600052603260045260246000fd5b634e487b7160e01b600052601160045260246000fd5b60006001820161274157612741612719565b5060010190565b60208082526010908201526f14185d5cd8589b194e881c185d5cd95960821b604082015260600190565b808202811582820484141761061a5761061a612719565b6000826127a657634e487b7160e01b600052601260045260246000fd5b500490565b8181038181111561061a5761061a612719565b8082018082111561061a5761061a612719565b6020808252818101527f4f776e61626c653a2063616c6c6572206973206e6f7420746865206f776e6572604082015260600190565b60005b83811015612821578181015183820152602001612809565b50506000910152565b7f416363657373436f6e74726f6c3a206163636f756e7420000000000000000000815260008351612862816017850160208801612806565b7001034b99036b4b9b9b4b733903937b6329607d1b6017918401918201528351612893816028840160208801612806565b01602801949350505050565b60208152600082518060208401526128be816040850160208701612806565b601f01601f19169190910160400192915050565b634e487b7160e01b600052603160045260246000fd5b6000816128f7576128f7612719565b506000190190565b60006020828403121561291157600080fd5b8151801515811461205157600080fd5b60008251612933818460208701612806565b919091019291505056fef1b411d6abb365480ac902cc153c45e9ded5847a2265ce6d01945d253edb6bc7a2646970667358221220f93f194da85a703a189ddb4a9d4d5bd04fa55bab371193dca4f2d1b4504c8f6d64736f6c63430008110033",
  "linkReferences": {},
  "deployedLinkReferences": {}
}