{
  "_format": "hh-sol-artifact-1",
  "contractName": "P2PBinance",
  "sourceName": "contracts/P2P_Binance.sol",
  "abi": [
    {
      "inputs": [
        {
          "internalType": "address",
          "name": "_tokenAddress",
          "type": "address"
        },
        {
          "internalType": "uint16",
          "name": "_fee",
          "type": "uint16"
        }
      ],
      "stateMutability": "nonpayable",
      "type": "constructor"
    },
    {
      "anonymous": false,
      "inputs": [
        {
          "indexed": false,
          "internalType": "bytes32",
          "name": "orderBuyId",
          "type": "bytes32"
        },
        {
          "indexed": false,
          "internalType": "address",
          "name": "buyer",
          "type": "address"
        },
        {
          "indexed": false,
          "internalType": "address",
          "name": "seller",
          "type": "address"
        },
        {
          "indexed": false,
          "internalType": "uint256",
          "name": "amount",
          "type": "uint256"
        },
        {
          "indexed": false,
          "internalType": "uint256",
          "name": "busdPrice",
          "type": "uint256"
        },
        {
          "indexed": false,
          "internalType": "uint256",
          "name": "totalPriceInOrder",
          "type": "uint256"
        }
      ],
      "name": "ExecuteOrdersBuyNaka",
      "type": "event"
    },
    {
      "anonymous": false,
      "inputs": [
        {
          "indexed": true,
          "internalType": "address",
          "name": "previousOwner",
          "type": "address"
        },
        {
          "indexed": true,
          "internalType": "address",
          "name": "newOwner",
          "type": "address"
        }
      ],
      "name": "OwnershipTransferred",
      "type": "event"
    },
    {
      "anonymous": false,
      "inputs": [
        {
          "indexed": false,
          "internalType": "address",
          "name": "account",
          "type": "address"
        }
      ],
      "name": "Paused",
      "type": "event"
    },
    {
      "anonymous": false,
      "inputs": [
        {
          "indexed": true,
          "internalType": "bytes32",
          "name": "role",
          "type": "bytes32"
        },
        {
          "indexed": true,
          "internalType": "bytes32",
          "name": "previousAdminRole",
          "type": "bytes32"
        },
        {
          "indexed": true,
          "internalType": "bytes32",
          "name": "newAdminRole",
          "type": "bytes32"
        }
      ],
      "name": "RoleAdminChanged",
      "type": "event"
    },
    {
      "anonymous": false,
      "inputs": [
        {
          "indexed": true,
          "internalType": "bytes32",
          "name": "role",
          "type": "bytes32"
        },
        {
          "indexed": true,
          "internalType": "address",
          "name": "account",
          "type": "address"
        },
        {
          "indexed": true,
          "internalType": "address",
          "name": "sender",
          "type": "address"
        }
      ],
      "name": "RoleGranted",
      "type": "event"
    },
    {
      "anonymous": false,
      "inputs": [
        {
          "indexed": true,
          "internalType": "bytes32",
          "name": "role",
          "type": "bytes32"
        },
        {
          "indexed": true,
          "internalType": "address",
          "name": "account",
          "type": "address"
        },
        {
          "indexed": true,
          "internalType": "address",
          "name": "sender",
          "type": "address"
        }
      ],
      "name": "RoleRevoked",
      "type": "event"
    },
    {
      "anonymous": false,
      "inputs": [
        {
          "indexed": false,
          "internalType": "address",
          "name": "account",
          "type": "address"
        }
      ],
      "name": "Unpaused",
      "type": "event"
    },
    {
      "anonymous": false,
      "inputs": [
        {
          "indexed": false,
          "internalType": "bytes32",
          "name": "orderBuyId",
          "type": "bytes32"
        }
      ],
      "name": "cancelOrdersBuyNaka",
      "type": "event"
    },
    {
      "anonymous": false,
      "inputs": [
        {
          "indexed": false,
          "internalType": "bytes32",
          "name": "orderBuyId",
          "type": "bytes32"
        },
        {
          "indexed": false,
          "internalType": "address",
          "name": "buyer",
          "type": "address"
        },
        {
          "indexed": false,
          "internalType": "uint256",
          "name": "busdPrice",
          "type": "uint256"
        },
        {
          "indexed": false,
          "internalType": "uint256",
          "name": "amount",
          "type": "uint256"
        },
        {
          "indexed": false,
          "internalType": "uint256",
          "name": "totalPrice",
          "type": "uint256"
        },
        {
          "indexed": false,
          "internalType": "uint256",
          "name": "free",
          "type": "uint256"
        }
      ],
      "name": "createOrdersBuyNaka",
      "type": "event"
    },
    {
      "anonymous": false,
      "inputs": [
        {
          "indexed": false,
          "internalType": "bytes32",
          "name": "orderBuyId",
          "type": "bytes32"
        },
        {
          "indexed": false,
          "internalType": "uint256",
          "name": "amount",
          "type": "uint256"
        },
        {
          "indexed": false,
          "internalType": "uint256",
          "name": "busdPrice",
          "type": "uint256"
        },
        {
          "indexed": false,
          "internalType": "uint256",
          "name": "totalPriceInOrder",
          "type": "uint256"
        },
        {
          "indexed": false,
          "internalType": "uint256",
          "name": "free",
          "type": "uint256"
        }
      ],
      "name": "editOrdersBuy",
      "type": "event"
    },
    {
      "anonymous": false,
      "inputs": [
        {
          "indexed": false,
          "internalType": "bytes32",
          "name": "requestBuyNakaId",
          "type": "bytes32"
        },
        {
          "indexed": false,
          "internalType": "bytes32",
          "name": "polygonOrderSellId",
          "type": "bytes32"
        },
        {
          "indexed": false,
          "internalType": "address",
          "name": "seller",
          "type": "address"
        },
        {
          "indexed": false,
          "internalType": "address",
          "name": "buyer",
          "type": "address"
        },
        {
          "indexed": false,
          "internalType": "uint256",
          "name": "sellAmount",
          "type": "uint256"
        },
        {
          "indexed": false,
          "internalType": "uint256",
          "name": "nakaPrice",
          "type": "uint256"
        },
        {
          "indexed": false,
          "internalType": "uint256",
          "name": "totalBusdPrice",
          "type": "uint256"
        },
        {
          "indexed": false,
          "internalType": "uint256",
          "name": "buyAmount",
          "type": "uint256"
        }
      ],
      "name": "requestBuyNakas",
      "type": "event"
    },
    {
      "anonymous": false,
      "inputs": [
        {
          "indexed": false,
          "internalType": "bytes32",
          "name": "requestBuyID",
          "type": "bytes32"
        },
        {
          "indexed": false,
          "internalType": "uint256",
          "name": "buyAmount",
          "type": "uint256"
        }
      ],
      "name": "submitBuyNakas",
      "type": "event"
    },
    {
      "inputs": [],
      "name": "DEFAULT_ADMIN_ROLE",
      "outputs": [
        {
          "internalType": "bytes32",
          "name": "",
          "type": "bytes32"
        }
      ],
      "stateMutability": "view",
      "type": "function"
    },
    {
      "inputs": [
        {
          "internalType": "bytes32",
          "name": "_orderBuyId",
          "type": "bytes32"
        },
        {
          "internalType": "uint256",
          "name": "_amount",
          "type": "uint256"
        },
        {
          "internalType": "address",
          "name": "_seller",
          "type": "address"
        }
      ],
      "name": "ExecuteOrderBuyNaka",
      "outputs": [],
      "stateMutability": "nonpayable",
      "type": "function"
    },
    {
      "inputs": [
        {
          "internalType": "bytes32",
          "name": "",
          "type": "bytes32"
        }
      ],
      "name": "OrdersBuyNaka",
      "outputs": [
        {
          "internalType": "address",
          "name": "buyer",
          "type": "address"
        },
        {
          "internalType": "uint256",
          "name": "busdPrice",
          "type": "uint256"
        },
        {
          "internalType": "uint256",
          "name": "amount",
          "type": "uint256"
        },
        {
          "internalType": "uint256",
          "name": "totalPriceInOrder",
          "type": "uint256"
        },
        {
          "internalType": "bool",
          "name": "active",
          "type": "bool"
        }
      ],
      "stateMutability": "view",
      "type": "function"
    },
    {
      "inputs": [
        {
          "internalType": "bytes32",
          "name": "",
          "type": "bytes32"
        }
      ],
      "name": "RequestsBuyNaka",
      "outputs": [
        {
          "internalType": "bytes32",
          "name": "polygonOrderSellId",
          "type": "bytes32"
        },
        {
          "internalType": "address",
          "name": "buyer",
          "type": "address"
        },
        {
          "internalType": "address",
          "name": "seller",
          "type": "address"
        },
        {
          "internalType": "uint256",
          "name": "sellAmount",
          "type": "uint256"
        },
        {
          "internalType": "uint256",
          "name": "nakaPrice",
          "type": "uint256"
        },
        {
          "internalType": "uint256",
          "name": "busdPrice",
          "type": "uint256"
        },
        {
          "internalType": "uint256",
          "name": "buyAmount",
          "type": "uint256"
        }
      ],
      "stateMutability": "view",
      "type": "function"
    },
    {
      "inputs": [],
      "name": "WORKER_ROLE",
      "outputs": [
        {
          "internalType": "bytes32",
          "name": "",
          "type": "bytes32"
        }
      ],
      "stateMutability": "view",
      "type": "function"
    },
    {
      "inputs": [],
      "name": "accumulateFee",
      "outputs": [
        {
          "internalType": "uint256",
          "name": "",
          "type": "uint256"
        }
      ],
      "stateMutability": "view",
      "type": "function"
    },
    {
      "inputs": [],
      "name": "accumulateOrdersPool",
      "outputs": [
        {
          "internalType": "uint256",
          "name": "",
          "type": "uint256"
        }
      ],
      "stateMutability": "view",
      "type": "function"
    },
    {
      "inputs": [
        {
          "internalType": "bytes32",
          "name": "_orderBuyId",
          "type": "bytes32"
        },
        {
          "internalType": "uint256",
          "name": "_amount",
          "type": "uint256"
        }
      ],
      "name": "calculateBusdPrice",
      "outputs": [
        {
          "internalType": "uint256",
          "name": "",
          "type": "uint256"
        }
      ],
      "stateMutability": "view",
      "type": "function"
    },
    {
      "inputs": [
        {
          "internalType": "uint256",
          "name": "_amount",
          "type": "uint256"
        }
      ],
      "name": "calculateProtocolFee",
      "outputs": [
        {
          "internalType": "uint256",
          "name": "",
          "type": "uint256"
        }
      ],
      "stateMutability": "view",
      "type": "function"
    },
    {
      "inputs": [
        {
          "internalType": "bytes32",
          "name": "_orderBuyId",
          "type": "bytes32"
        }
      ],
      "name": "cancelOrderBuyNaka",
      "outputs": [],
      "stateMutability": "nonpayable",
      "type": "function"
    },
    {
      "inputs": [
        {
          "internalType": "bytes32",
          "name": "_requestBuyNakaId",
          "type": "bytes32"
        }
      ],
      "name": "cancelSubmitBuyNaka",
      "outputs": [],
      "stateMutability": "nonpayable",
      "type": "function"
    },
    {
      "inputs": [
        {
          "internalType": "uint256",
          "name": "_busdPrice",
          "type": "uint256"
        },
        {
          "internalType": "uint256",
          "name": "_amount",
          "type": "uint256"
        }
      ],
      "name": "createOrderBuyNaka",
      "outputs": [],
      "stateMutability": "nonpayable",
      "type": "function"
    },
    {
      "inputs": [
        {
          "internalType": "bytes32",
          "name": "_orderBuyId",
          "type": "bytes32"
        },
        {
          "internalType": "uint256",
          "name": "_busdPrice",
          "type": "uint256"
        },
        {
          "internalType": "uint256",
          "name": "_amount",
          "type": "uint256"
        }
      ],
      "name": "editOrderBuy",
      "outputs": [],
      "stateMutability": "nonpayable",
      "type": "function"
    },
    {
      "inputs": [],
      "name": "fee",
      "outputs": [
        {
          "internalType": "uint16",
          "name": "",
          "type": "uint16"
        }
      ],
      "stateMutability": "view",
      "type": "function"
    },
    {
      "inputs": [
        {
          "internalType": "address",
          "name": "_contractAddress",
          "type": "address"
        }
      ],
      "name": "getAllOrders",
      "outputs": [
        {
          "internalType": "bytes32[]",
          "name": "",
          "type": "bytes32[]"
        }
      ],
      "stateMutability": "view",
      "type": "function"
    },
    {
      "inputs": [
        {
          "internalType": "address",
          "name": "_address",
          "type": "address"
        }
      ],
      "name": "getOrderIdByAddress",
      "outputs": [
        {
          "internalType": "bytes32[]",
          "name": "",
          "type": "bytes32[]"
        }
      ],
      "stateMutability": "view",
      "type": "function"
    },
    {
      "inputs": [
        {
          "internalType": "bytes32",
          "name": "role",
          "type": "bytes32"
        }
      ],
      "name": "getRoleAdmin",
      "outputs": [
        {
          "internalType": "bytes32",
          "name": "",
          "type": "bytes32"
        }
      ],
      "stateMutability": "view",
      "type": "function"
    },
    {
      "inputs": [
        {
          "internalType": "bytes32",
          "name": "_orderBuyId",
          "type": "bytes32"
        }
      ],
      "name": "getSeller",
      "outputs": [
        {
          "internalType": "address[]",
          "name": "",
          "type": "address[]"
        }
      ],
      "stateMutability": "view",
      "type": "function"
    },
    {
      "inputs": [
        {
          "internalType": "bytes32",
          "name": "role",
          "type": "bytes32"
        },
        {
          "internalType": "address",
          "name": "account",
          "type": "address"
        }
      ],
      "name": "grantRole",
      "outputs": [],
      "stateMutability": "nonpayable",
      "type": "function"
    },
    {
      "inputs": [
        {
          "internalType": "bytes32",
          "name": "role",
          "type": "bytes32"
        },
        {
          "internalType": "address",
          "name": "account",
          "type": "address"
        }
      ],
      "name": "hasRole",
      "outputs": [
        {
          "internalType": "bool",
          "name": "",
          "type": "bool"
        }
      ],
      "stateMutability": "view",
      "type": "function"
    },
    {
      "inputs": [
        {
          "internalType": "bytes32",
          "name": "_role",
          "type": "bytes32"
        },
        {
          "internalType": "address[]",
          "name": "_workerAddress",
          "type": "address[]"
        }
      ],
      "name": "multiGrandRole",
      "outputs": [],
      "stateMutability": "nonpayable",
      "type": "function"
    },
    {
      "inputs": [],
      "name": "owner",
      "outputs": [
        {
          "internalType": "address",
          "name": "",
          "type": "address"
        }
      ],
      "stateMutability": "view",
      "type": "function"
    },
    {
      "inputs": [],
      "name": "pause",
      "outputs": [],
      "stateMutability": "nonpayable",
      "type": "function"
    },
    {
      "inputs": [],
      "name": "paused",
      "outputs": [
        {
          "internalType": "bool",
          "name": "",
          "type": "bool"
        }
      ],
      "stateMutability": "view",
      "type": "function"
    },
    {
      "inputs": [],
      "name": "renounceOwnership",
      "outputs": [],
      "stateMutability": "nonpayable",
      "type": "function"
    },
    {
      "inputs": [
        {
          "internalType": "bytes32",
          "name": "role",
          "type": "bytes32"
        },
        {
          "internalType": "address",
          "name": "account",
          "type": "address"
        }
      ],
      "name": "renounceRole",
      "outputs": [],
      "stateMutability": "nonpayable",
      "type": "function"
    },
    {
      "inputs": [
        {
          "internalType": "bytes32",
          "name": "_polygonOrderSellId",
          "type": "bytes32"
        },
        {
          "internalType": "address",
          "name": "_seller",
          "type": "address"
        },
        {
          "internalType": "uint256",
          "name": "_nakaPrice",
          "type": "uint256"
        },
        {
          "internalType": "uint256",
          "name": "_sellAmount",
          "type": "uint256"
        },
        {
          "internalType": "uint256",
          "name": "_buyAmount",
          "type": "uint256"
        }
      ],
      "name": "requestBuyNaka",
      "outputs": [],
      "stateMutability": "nonpayable",
      "type": "function"
    },
    {
      "inputs": [
        {
          "internalType": "bytes32",
          "name": "role",
          "type": "bytes32"
        },
        {
          "internalType": "address",
          "name": "account",
          "type": "address"
        }
      ],
      "name": "revokeRole",
      "outputs": [],
      "stateMutability": "nonpayable",
      "type": "function"
    },
    {
      "inputs": [
        {
          "internalType": "uint16",
          "name": "_fee",
          "type": "uint16"
        }
      ],
      "name": "setFee",
      "outputs": [],
      "stateMutability": "nonpayable",
      "type": "function"
    },
    {
      "inputs": [
        {
          "internalType": "bytes32",
          "name": "_requestBuyNakaId",
          "type": "bytes32"
        }
      ],
      "name": "submitBuyNaka",
      "outputs": [],
      "stateMutability": "nonpayable",
      "type": "function"
    },
    {
      "inputs": [
        {
          "internalType": "bytes4",
          "name": "interfaceId",
          "type": "bytes4"
        }
      ],
      "name": "supportsInterface",
      "outputs": [
        {
          "internalType": "bool",
          "name": "",
          "type": "bool"
        }
      ],
      "stateMutability": "view",
      "type": "function"
    },
    {
      "inputs": [],
      "name": "tokenAddress",
      "outputs": [
        {
          "internalType": "address",
          "name": "",
          "type": "address"
        }
      ],
      "stateMutability": "view",
      "type": "function"
    },
    {
      "inputs": [
        {
          "internalType": "address",
          "name": "newOwner",
          "type": "address"
        }
      ],
      "name": "transferOwnership",
      "outputs": [],
      "stateMutability": "nonpayable",
      "type": "function"
    },
    {
      "inputs": [],
      "name": "unpause",
      "outputs": [],
      "stateMutability": "nonpayable",
      "type": "function"
    },
    {
      "inputs": [],
      "name": "withdrawFee",
      "outputs": [],
      "stateMutability": "nonpayable",
      "type": "function"
    }
  ],
  "bytecode": "0x60806040523480156200001157600080fd5b5060405162002ab838038062002ab8833981016040819052620000349162000174565b6200003f336200008c565b6001600255600380546001600160b81b0319166101006001600160a01b0385160261ffff60a81b191617600160a81b61ffff84160217905562000084600033620000dc565b5050620001c4565b600080546001600160a01b038381166001600160a01b0319831681178455604051919092169283917f8be0079c531659141344cd1fd0a4f28419497f9722a3daafe3b4186f6b6457e09190a35050565b620000e88282620000ec565b5050565b60008281526001602090815260408083206001600160a01b038516845290915290205460ff16620000e85760008281526001602081815260408084206001600160a01b0386168086529252808420805460ff19169093179092559051339285917f2f8788117e7eff1d82e926ec794901d17c78024a50270940304540a733656f0d9190a45050565b600080604083850312156200018857600080fd5b82516001600160a01b0381168114620001a057600080fd5b602084015190925061ffff81168114620001b957600080fd5b809150509250929050565b6128e480620001d46000396000f3fe608060405234801561001057600080fd5b50600436106102105760003560e01c80638456cb5911610125578063ac3d37d6116100ad578063d79642f41161007c578063d79642f414610560578063ddca3f4314610573578063e90865d71461059b578063e941fa78146105ae578063f2fde38b146105b657600080fd5b8063ac3d37d6146104a9578063b5fec1ff146104bc578063ce525ad5146104cf578063d547741f1461054d57600080fd5b806391d14854116100f457806391d14854146104505780639c7c270c146104635780639ca6a0ca146104765780639d76ea5814610489578063a217fddf146104a157600080fd5b80638456cb59146103fd5780638a72d295146104055780638da5cb5b146104185780638e0055531461043d57600080fd5b80633c4e1b4b116101a85780635c975abb116101775780635c975abb14610395578063634252dc146103a057806364a8ce51146103b5578063715018a6146103d55780637e44e504146103dd57600080fd5b80633c4e1b4b146102d95780633f4ba83a146102ec57806351a1a73a146102f45780635213a1421461038c57600080fd5b8063248a9ca3116101e4578063248a9ca31461027c5780632939b51e146102a05780632f2ff15d146102b357806336568abe146102c657600080fd5b806207a6e71461021557806301ffc9a71461022a578063082c6ccf146102525780631155d04214610265575b600080fd5b61022861022336600461237f565b6105c9565b005b61023d610238366004612450565b610611565b60405190151581526020015b60405180910390f35b61022861026036600461247a565b610648565b61026e60045481565b604051908152602001610249565b61026e61028a36600461247a565b6000908152600160208190526040909120015490565b6102286102ae366004612493565b610759565b6102286102c13660046124bf565b610a66565b6102286102d43660046124bf565b610a92565b6102286102e73660046124eb565b610b10565b610228610e0a565b61034b61030236600461247a565b600860205260009081526040902080546001820154600283015460038401546004850154600586015460069096015494956001600160a01b039485169594909316939192909187565b604080519788526001600160a01b03968716602089015294909516938601939093526060850191909152608084015260a083015260c082015260e001610249565b61026e60055481565b60035460ff1661023d565b61026e60008051602061288f83398151915281565b6103c86103c3366004612520565b610e87565b604051610249919061253b565b610228610ef3565b6103f06103eb36600461247a565b610f27565b604051610249919061257f565b610228610f92565b61022861041336600461247a565b610fe7565b6000546001600160a01b03165b6040516001600160a01b039091168152602001610249565b61022861044b3660046125c0565b6110ac565b61023d61045e3660046124bf565b61111b565b61026e61047136600461247a565b611146565b61022861048436600461247a565b611170565b6003546104259061010090046001600160a01b031681565b61026e600081565b6102286104b73660046125e4565b611343565b6103c86104ca366004612520565b6114d4565b6105196104dd36600461247a565b600760205260009081526040902080546001820154600283015460038401546004909401546001600160a01b0390931693919290919060ff1685565b604080516001600160a01b03909616865260208601949094529284019190915260608301521515608082015260a001610249565b61022861055b3660046124bf565b61153e565b61026e61056e36600461262a565b611565565b60035461058890600160a81b900461ffff1681565b60405161ffff9091168152602001610249565b6102286105a936600461262a565b6115a2565b610228611777565b6102286105c4366004612520565b6117c6565b805160005b8181101561060b576105f9848483815181106105ec576105ec61264c565b6020026020010151610a66565b8061060381612678565b9150506105ce565b50505050565b60006001600160e01b03198216637965db0b60e01b148061064257506301ffc9a760e01b6001600160e01b03198316145b92915050565b60035460ff16156106745760405162461bcd60e51b815260040161066b90612691565b60405180910390fd5b60008051602061288f83398151915261068d8133611861565b60008281526008602052604090206006810154600354600283015460058401546001600160a01b036101009093048316926106cc9284929116906118c5565b60008581526008602090815260408083208381556001810180546001600160a01b031990811690915560028201805490911690556003810184905560048101849055600581018490556006019290925581518781529081018490527f0ce931c39b9fc1f04348dc5ad2e8c0761da7fe92fe72366614d3ebe41ccdb6b0910160405180910390a15050505050565b6000838152600760205260409020600481015460ff166107d15760405162461bcd60e51b815260206004820152602d60248201527f5b50325042696e616e63652e65646974416d6f756e744f6465724275795d204f60448201526c7264657220696e61637469766560981b606482015260840161066b565b80546001600160a01b031633146108365760405162461bcd60e51b815260206004820152602360248201527f5b50325042696e616e63652e656469744f726465724275795d204e6f742062756044820152623cb2b960e91b606482015260840161066b565b6000838316116108b85760405162461bcd60e51b815260206004820152604160248201527f5b50325042696e616e63652e656469744f726465724275795d2042757364507260448201527f69636520616e6420416d6f7574206d757374206265206d6f7265207468616e206064820152600360fc1b608482015260a40161066b565b60035461010090046001600160a01b03166000670de0b6b3a76400006108de85876126bb565b6108e891906126da565b90506000670de0b6b3a76400008460020154856001015461090991906126bb565b61091391906126da565b905060008183111561099d5761092c61047183856126fc565b905060008161093b84866126fc565b610945919061270f565b905061095c6001600160a01b038616333084611928565b816004600082825461096e919061270f565b9091555061097e905083856126fc565b866003016000828254610991919061270f565b909155506109f8915050565b818310156109f45760006109b184846126fc565b90506109c76001600160a01b03861633836118c5565b6109d184846126fc565b8660030160008282546109e491906126fc565b90915550600092506109f8915050565b5060005b60028501869055600185018790556003850154604080518a8152602081018990529081018990526060810191909152608081018290527fced67335d120e4475820fccc104b6c94b5d0aedc013633620766f6bb3e213fde9060a0015b60405180910390a15050505050505050565b60008281526001602081905260409091200154610a838133611861565b610a8d8383611960565b505050565b6001600160a01b0381163314610b025760405162461bcd60e51b815260206004820152602f60248201527f416363657373436f6e74726f6c3a2063616e206f6e6c792072656e6f756e636560448201526e103937b632b9903337b91039b2b63360891b606482015260840161066b565b610b0c82826119cb565b5050565b60035460ff1615610b335760405162461bcd60e51b815260040161066b90612691565b60008051602061288f833981519152610b4c8133611861565b6000848152600760205260409020600481015460ff16610bc65760405162461bcd60e51b815260206004820152602f60248201527f5b50325042696e616e63652e457865637574654f726465724275794e616b615d60448201526e204f7264657220696e61637469766560881b606482015260840161066b565b8381600201541015610c545760405162461bcd60e51b815260206004820152604b60248201527f5b50325042696e616e63652e457865637574654f726465724275794e616b615d60448201527f2043616e277420627579206d6f7265207468616e206f726465722072656d616960648201526a1b9a5b99c8185b5bdd5b9d60aa1b608482015260a40161066b565b6000670de0b6b3a7640000858360010154610c6f91906126bb565b610c7991906126da565b82546002840180549293506001600160a01b0390911691879190600090610ca19084906126fc565b9250508190555081836003016000828254610cbc91906126fc565b909155505060035461010090046001600160a01b0316610cdd8187856118c5565b8360020154600003610d565760048401805460ff191690558354610d0b9089906001600160a01b0316611a32565b610d1488611b85565b600088815260076020526040812080546001600160a01b031916815560018101829055600281018290556003810191909155600401805460ff19169055610d8e565b60008881526006602090815260408220805460018101825590835291200180546001600160a01b0319166001600160a01b0388161790555b8660056000828254610da091906126fc565b90915550506003840154604080518a81526001600160a01b038086166020830152891691810191909152606081018990526080810185905260a08101919091527f05e0338398afaedf2ece2b1240d3500da4bfe2a25770e8709d7edf89f11ca5b49060c001610a54565b6000546001600160a01b03163314610e345760405162461bcd60e51b815260040161066b90612722565b60035460ff16610e7d5760405162461bcd60e51b815260206004820152601460248201527314185d5cd8589b194e881b9bdd081c185d5cd95960621b604482015260640161066b565b610e85611c9f565b565b6001600160a01b038116600090815260096020908152604091829020805483518184028101840190945280845260609392830182828015610ee757602002820191906000526020600020905b815481526020019060010190808311610ed3575b50505050509050919050565b6000546001600160a01b03163314610f1d5760405162461bcd60e51b815260040161066b90612722565b610e856000611d32565b600081815260066020908152604091829020805483518184028101840190945280845260609392830182828015610ee757602002820191906000526020600020905b81546001600160a01b03168152600190910190602001808311610f695750505050509050919050565b6000546001600160a01b03163314610fbc5760405162461bcd60e51b815260040161066b90612722565b60035460ff1615610fdf5760405162461bcd60e51b815260040161066b90612691565b610e85611d82565b60035460ff161561100a5760405162461bcd60e51b815260040161066b90612691565b60008051602061288f8339815191526110238133611861565b6000828152600860205260409020600354600182015460058301546001600160a01b0361010090930483169261105d9284929116906118c5565b50505060009081526008602052604081208181556001810180546001600160a01b0319908116909155600282018054909116905560038101829055600481018290556005810182905560060155565b6000546001600160a01b031633146110d65760405162461bcd60e51b815260040161066b90612722565b60035460ff16156110f95760405162461bcd60e51b815260040161066b90612691565b6003805461ffff909216600160a81b0261ffff60a81b19909216919091179055565b60009182526001602090815260408084206001600160a01b0393909316845291905290205460ff1690565b60035460009061271090611166908490600160a81b900461ffff166126bb565b61064291906126da565b6000818152600760205260409020600481015460ff166111ea5760405162461bcd60e51b815260206004820152602f60248201527f5b50325042696e616e63652e63616e63656c4f726465724275794e616b615d2060448201526e27b93232b91034b730b1ba34bb329760891b606482015260840161066b565b80546001600160a01b031633146112575760405162461bcd60e51b815260206004820152602b60248201527f5b50325042696e616e63652e63616e63656c4f726465724275794e616b615d2060448201526a102737ba10313abcb2b91760a91b606482015260840161066b565b6000670de0b6b3a76400008260020154836001015461127691906126bb565b61128091906126da565b60035483549192506001600160a01b036101009091048116916112a691839116846118c5565b60048301805460ff191690556112bc8433611a32565b6112c584611b85565b60008481526007602052604080822080546001600160a01b0319168155600181018390556002810183905560038101929092556004909101805460ff19169055517f14ea8f86248cbf67b7f0ba4f10f0690058b8b925cadc52cb59568985faa761d3906113359086815260200190565b60405180910390a150505050565b60035460ff16156113665760405162461bcd60e51b815260040161066b90612691565b6000670de0b6b3a764000061137b83866126bb565b61138591906126da565b60035490915061010090046001600160a01b03166113a581333085611928565b604080514260208201529081018890526bffffffffffffffffffffffff19606088811b82168184015233901b1660748201526088810185905260a8810186905260c8810184905260009060e80160408051808303601f1901815282825280516020918201206000818152600883528390208c81556002810180546001600160a01b03199081166001600160a01b038f1690811790925560018301805433921682179055600383018c9055600483018d9055600583018a9055600683018b90558387529386018e90529385019390935260608401919091526080830188905260a0830189905260c0830186905260e083018790529250907f3df29034787f881c5d51f40cbac74dbb11eaad20314cb2684bfc26a1751a2988906101000160405180910390a1505050505050505050565b6001600160a01b0381166000908152600a6020908152604091829020805483518184028101840190945280845260609392830182828015610ee75760200282019190600052602060002090815481526020019060010190808311610ed35750505050509050919050565b6000828152600160208190526040909120015461155b8133611861565b610a8d83836119cb565b600082815260076020526040812060018101548290670de0b6b3a76400009061158f9086906126bb565b61159991906126da565b95945050505050565b60035460ff16156115c55760405162461bcd60e51b815260040161066b90612691565b6000670de0b6b3a76400006115da83856126bb565b6115e491906126da565b905060006115f182611146565b905060006115ff838361270f565b90506000600360019054906101000a90046001600160a01b03169050826004600082825461162d919061270f565b9091555061164890506001600160a01b038216333085611928565b604080514260208201526bffffffffffffffffffffffff193360601b16918101919091526054810187905260009060740160408051601f19818403018152918152815160209283012060008181526007845282812080546001600160a01b03191633908117825560018083018e9055600283018d9055600383018c905560048301805460ff191682179055908352600986528483208054808301825590845286842001849055308352600a8652938220805494850181558252938120909201819055600580549194508992909161172090849061270f565b909155505060408051838152336020820152908101899052606081018890526080810187905260a081018690527fb4d81f404122774fdd62aeb9563e9fd8f78c1bb9bdebb65eae6201b48ab1de019060c001610a54565b6000546001600160a01b031633146117a15760405162461bcd60e51b815260040161066b90612722565b60048054600090915560035461010090046001600160a01b0316610b0c8133846118c5565b6000546001600160a01b031633146117f05760405162461bcd60e51b815260040161066b90612722565b6001600160a01b0381166118555760405162461bcd60e51b815260206004820152602660248201527f4f776e61626c653a206e6577206f776e657220697320746865207a65726f206160448201526564647265737360d01b606482015260840161066b565b61185e81611d32565b50565b61186b828261111b565b610b0c57611883816001600160a01b03166014611dda565b61188e836020611dda565b60405160200161189f92919061277b565b60408051601f198184030181529082905262461bcd60e51b825261066b916004016127f0565b6040516001600160a01b038316602482015260448101829052610a8d90849063a9059cbb60e01b906064015b60408051601f198184030181529190526020810180516001600160e01b03166001600160e01b031990931692909217909152611f7d565b6040516001600160a01b038085166024830152831660448201526064810182905261060b9085906323b872dd60e01b906084016118f1565b61196a828261111b565b610b0c5760008281526001602081815260408084206001600160a01b0386168086529252808420805460ff19169093179092559051339285917f2f8788117e7eff1d82e926ec794901d17c78024a50270940304540a733656f0d9190a45050565b6119d5828261111b565b15610b0c5760008281526001602090815260408083206001600160a01b0385168085529252808320805460ff1916905551339285917ff6391f5c32d9c69d2a47ea670b442974b53935d1edc7fd64eb21e047a839171b9190a45050565b6000611a3e838361204f565b9050805b6001600160a01b038316600090815260096020526040902054611a67906001906126fc565b811015611b00576001600160a01b0383166000908152600960205260409020611a9182600161270f565b81548110611aa157611aa161264c565b906000526020600020015460096000856001600160a01b03166001600160a01b031681526020019081526020016000208281548110611ae257611ae261264c565b60009182526020909120015580611af881612678565b915050611a42565b506001600160a01b03821660009081526009602052604090208054611b27906001906126fc565b81548110611b3757611b3761264c565b600091825260208083209091018290556001600160a01b03841682526009905260409020805480611b6a57611b6a612823565b60019003818190600052602060002001600090559055505050565b6000611b918230612112565b9050805b306000908152600a6020526040902054611bb1906001906126fc565b811015611c2d57306000908152600a60205260409020611bd282600161270f565b81548110611be257611be261264c565b6000918252602080832090910154308352600a9091526040909120805483908110611c0f57611c0f61264c565b60009182526020909120015580611c2581612678565b915050611b95565b50306000908152600a602052604090208054611c4b906001906126fc565b81548110611c5b57611c5b61264c565b60009182526020808320909101829055308252600a905260409020805480611c8557611c85612823565b600190038181906000526020600020016000905590555050565b60035460ff16611ce85760405162461bcd60e51b815260206004820152601460248201527314185d5cd8589b194e881b9bdd081c185d5cd95960621b604482015260640161066b565b6003805460ff191690557f5db9ee0a495bf2e6ff9c91a7834c1ba4fdd244a5e8aa4e537bd38aeae4b073aa335b6040516001600160a01b03909116815260200160405180910390a1565b600080546001600160a01b038381166001600160a01b0319831681178455604051919092169283917f8be0079c531659141344cd1fd0a4f28419497f9722a3daafe3b4186f6b6457e09190a35050565b60035460ff1615611da55760405162461bcd60e51b815260040161066b90612691565b6003805460ff191660011790557f62e78cea01bee320cd4e420270b5ea74000d11b0c9f74754ebdbfc544b05a258611d153390565b60606000611de98360026126bb565b611df490600261270f565b67ffffffffffffffff811115611e0c57611e0c61234d565b6040519080825280601f01601f191660200182016040528015611e36576020820181803683370190505b509050600360fc1b81600081518110611e5157611e5161264c565b60200101906001600160f81b031916908160001a905350600f60fb1b81600181518110611e8057611e8061264c565b60200101906001600160f81b031916908160001a9053506000611ea48460026126bb565b611eaf90600161270f565b90505b6001811115611f27576f181899199a1a9b1b9c1cb0b131b232b360811b85600f1660108110611ee357611ee361264c565b1a60f81b828281518110611ef957611ef961264c565b60200101906001600160f81b031916908160001a90535060049490941c93611f2081612839565b9050611eb2565b508315611f765760405162461bcd60e51b815260206004820181905260248201527f537472696e67733a20686578206c656e67746820696e73756666696369656e74604482015260640161066b565b9392505050565b6000611fd2826040518060400160405280602081526020017f5361666545524332303a206c6f772d6c6576656c2063616c6c206661696c6564815250856001600160a01b03166121d59092919063ffffffff16565b805190915015610a8d5780806020019051810190611ff09190612850565b610a8d5760405162461bcd60e51b815260206004820152602a60248201527f5361666545524332303a204552433230206f7065726174696f6e20646964206e6044820152691bdd081cdd58d8d9595960b21b606482015260840161066b565b6000805b6001600160a01b0383166000908152600960205260409020548110156120c9576001600160a01b03831660009081526009602052604090208054859190839081106120a0576120a061264c565b9060005260206000200154036120b7579050610642565b806120c181612678565b915050612053565b5060405162461bcd60e51b815260206004820152601d60248201527f4572726f722066696e64496e6465784f72646572627941646472657373000000604482015260640161066b565b6000805b6001600160a01b0383166000908152600a602052604090205481101561218c576001600160a01b0383166000908152600a602052604090208054859190839081106121635761216361264c565b90600052602060002001540361217a579050610642565b8061218481612678565b915050612116565b5060405162461bcd60e51b815260206004820152601760248201527f4572726f722066696e64496e646578416c6c4f72646572000000000000000000604482015260640161066b565b60606121e484846000856121ec565b949350505050565b60608247101561224d5760405162461bcd60e51b815260206004820152602660248201527f416464726573733a20696e73756666696369656e742062616c616e636520666f6044820152651c8818d85b1b60d21b606482015260840161066b565b843b61229b5760405162461bcd60e51b815260206004820152601d60248201527f416464726573733a2063616c6c20746f206e6f6e2d636f6e7472616374000000604482015260640161066b565b600080866001600160a01b031685876040516122b79190612872565b60006040518083038185875af1925050503d80600081146122f4576040519150601f19603f3d011682016040523d82523d6000602084013e6122f9565b606091505b5091509150612309828286612314565b979650505050505050565b60608315612323575081611f76565b8251156123335782518084602001fd5b8160405162461bcd60e51b815260040161066b91906127f0565b634e487b7160e01b600052604160045260246000fd5b80356001600160a01b038116811461237a57600080fd5b919050565b6000806040838503121561239257600080fd5b8235915060208084013567ffffffffffffffff808211156123b257600080fd5b818601915086601f8301126123c657600080fd5b8135818111156123d8576123d861234d565b8060051b604051601f19603f830116810181811085821117156123fd576123fd61234d565b60405291825284820192508381018501918983111561241b57600080fd5b938501935b828510156124405761243185612363565b84529385019392850192612420565b8096505050505050509250929050565b60006020828403121561246257600080fd5b81356001600160e01b031981168114611f7657600080fd5b60006020828403121561248c57600080fd5b5035919050565b6000806000606084860312156124a857600080fd5b505081359360208301359350604090920135919050565b600080604083850312156124d257600080fd5b823591506124e260208401612363565b90509250929050565b60008060006060848603121561250057600080fd5b833592506020840135915061251760408501612363565b90509250925092565b60006020828403121561253257600080fd5b611f7682612363565b6020808252825182820181905260009190848201906040850190845b8181101561257357835183529284019291840191600101612557565b50909695505050505050565b6020808252825182820181905260009190848201906040850190845b818110156125735783516001600160a01b03168352928401929184019160010161259b565b6000602082840312156125d257600080fd5b813561ffff81168114611f7657600080fd5b600080600080600060a086880312156125fc57600080fd5b8535945061260c60208701612363565b94979496505050506040830135926060810135926080909101359150565b6000806040838503121561263d57600080fd5b50508035926020909101359150565b634e487b7160e01b600052603260045260246000fd5b634e487b7160e01b600052601160045260246000fd5b60006001820161268a5761268a612662565b5060010190565b60208082526010908201526f14185d5cd8589b194e881c185d5cd95960821b604082015260600190565b60008160001904831182151516156126d5576126d5612662565b500290565b6000826126f757634e487b7160e01b600052601260045260246000fd5b500490565b8181038181111561064257610642612662565b8082018082111561064257610642612662565b6020808252818101527f4f776e61626c653a2063616c6c6572206973206e6f7420746865206f776e6572604082015260600190565b60005b8381101561277257818101518382015260200161275a565b50506000910152565b7f416363657373436f6e74726f6c3a206163636f756e74200000000000000000008152600083516127b3816017850160208801612757565b7001034b99036b4b9b9b4b733903937b6329607d1b60179184019182015283516127e4816028840160208801612757565b01602801949350505050565b602081526000825180602084015261280f816040850160208701612757565b601f01601f19169190910160400192915050565b634e487b7160e01b600052603160045260246000fd5b60008161284857612848612662565b506000190190565b60006020828403121561286257600080fd5b81518015158114611f7657600080fd5b60008251612884818460208701612757565b919091019291505056fef1b411d6abb365480ac902cc153c45e9ded5847a2265ce6d01945d253edb6bc7a26469706673582212204aec6054204b2fda11ef51ee4a4dc1ba22dbbba83c0c800b5eb9f6e081ba458464736f6c63430008100033",
  "linkReferences": {},
  "deployedLinkReferences": {}
}