{
  "_format": "hh-sol-artifact-1",
  "contractName": "P2PPolygon",
  "sourceName": "contracts/P2P_Polygon.sol",
  "abi": [
    {
      "inputs": [
        {
          "internalType": "address",
          "name": "_tokenAddress",
          "type": "address"
        },
        {
          "internalType": "uint256",
          "name": "_fee",
          "type": "uint256"
        }
      ],
      "stateMutability": "nonpayable",
      "type": "constructor"
    },
    {
      "anonymous": false,
      "inputs": [
        {
          "indexed": false,
          "internalType": "bytes32",
          "name": "orderSellId",
          "type": "bytes32"
        },
        {
          "indexed": false,
          "internalType": "address",
          "name": "buyer",
          "type": "address"
        },
        {
          "indexed": false,
          "internalType": "address",
          "name": "seller",
          "type": "address"
        },
        {
          "indexed": false,
          "internalType": "uint256",
          "name": "amount",
          "type": "uint256"
        },
        {
          "indexed": false,
          "internalType": "uint256",
          "name": "busdPrice",
          "type": "uint256"
        }
      ],
      "name": "ExecuteOrdersSellNaka",
      "type": "event"
    },
    {
      "anonymous": false,
      "inputs": [
        {
          "indexed": true,
          "internalType": "address",
          "name": "previousOwner",
          "type": "address"
        },
        {
          "indexed": true,
          "internalType": "address",
          "name": "newOwner",
          "type": "address"
        }
      ],
      "name": "OwnershipTransferred",
      "type": "event"
    },
    {
      "anonymous": false,
      "inputs": [
        {
          "indexed": false,
          "internalType": "address",
          "name": "account",
          "type": "address"
        }
      ],
      "name": "Paused",
      "type": "event"
    },
    {
      "anonymous": false,
      "inputs": [
        {
          "indexed": true,
          "internalType": "bytes32",
          "name": "role",
          "type": "bytes32"
        },
        {
          "indexed": true,
          "internalType": "bytes32",
          "name": "previousAdminRole",
          "type": "bytes32"
        },
        {
          "indexed": true,
          "internalType": "bytes32",
          "name": "newAdminRole",
          "type": "bytes32"
        }
      ],
      "name": "RoleAdminChanged",
      "type": "event"
    },
    {
      "anonymous": false,
      "inputs": [
        {
          "indexed": true,
          "internalType": "bytes32",
          "name": "role",
          "type": "bytes32"
        },
        {
          "indexed": true,
          "internalType": "address",
          "name": "account",
          "type": "address"
        },
        {
          "indexed": true,
          "internalType": "address",
          "name": "sender",
          "type": "address"
        }
      ],
      "name": "RoleGranted",
      "type": "event"
    },
    {
      "anonymous": false,
      "inputs": [
        {
          "indexed": true,
          "internalType": "bytes32",
          "name": "role",
          "type": "bytes32"
        },
        {
          "indexed": true,
          "internalType": "address",
          "name": "account",
          "type": "address"
        },
        {
          "indexed": true,
          "internalType": "address",
          "name": "sender",
          "type": "address"
        }
      ],
      "name": "RoleRevoked",
      "type": "event"
    },
    {
      "anonymous": false,
      "inputs": [
        {
          "indexed": false,
          "internalType": "address",
          "name": "account",
          "type": "address"
        }
      ],
      "name": "Unpaused",
      "type": "event"
    },
    {
      "anonymous": false,
      "inputs": [
        {
          "indexed": false,
          "internalType": "bytes32",
          "name": "orderSellId",
          "type": "bytes32"
        }
      ],
      "name": "cancelOrdersSellNaka",
      "type": "event"
    },
    {
      "anonymous": false,
      "inputs": [
        {
          "indexed": false,
          "internalType": "bytes32",
          "name": "orderSellId",
          "type": "bytes32"
        },
        {
          "indexed": false,
          "internalType": "address",
          "name": "seller",
          "type": "address"
        },
        {
          "indexed": false,
          "internalType": "uint256",
          "name": "nakaPrice",
          "type": "uint256"
        },
        {
          "indexed": false,
          "internalType": "uint256",
          "name": "amount",
          "type": "uint256"
        },
        {
          "indexed": false,
          "internalType": "uint256",
          "name": "fee",
          "type": "uint256"
        }
      ],
      "name": "createOrdersSellNaka",
      "type": "event"
    },
    {
      "anonymous": false,
      "inputs": [
        {
          "indexed": false,
          "internalType": "bytes32",
          "name": "orderSellId",
          "type": "bytes32"
        },
        {
          "indexed": false,
          "internalType": "uint256",
          "name": "nakaPrice",
          "type": "uint256"
        },
        {
          "indexed": false,
          "internalType": "uint256",
          "name": "amount",
          "type": "uint256"
        }
      ],
      "name": "editOrdersSell",
      "type": "event"
    },
    {
      "anonymous": false,
      "inputs": [
        {
          "indexed": false,
          "internalType": "bytes32",
          "name": "requestSellNakaId",
          "type": "bytes32"
        },
        {
          "indexed": false,
          "internalType": "bytes32",
          "name": "binanceOrderBuyId",
          "type": "bytes32"
        },
        {
          "indexed": false,
          "internalType": "address",
          "name": "buyer",
          "type": "address"
        },
        {
          "indexed": false,
          "internalType": "address",
          "name": "seller",
          "type": "address"
        },
        {
          "indexed": false,
          "internalType": "uint256",
          "name": "buyAmount",
          "type": "uint256"
        },
        {
          "indexed": false,
          "internalType": "uint256",
          "name": "busdPrice",
          "type": "uint256"
        },
        {
          "indexed": false,
          "internalType": "uint256",
          "name": "sellAmount",
          "type": "uint256"
        }
      ],
      "name": "requestSellNakas",
      "type": "event"
    },
    {
      "anonymous": false,
      "inputs": [
        {
          "indexed": false,
          "internalType": "bytes32",
          "name": "requestSellID",
          "type": "bytes32"
        },
        {
          "indexed": false,
          "internalType": "uint256",
          "name": "sellAmount",
          "type": "uint256"
        }
      ],
      "name": "submitSellNakas",
      "type": "event"
    },
    {
      "inputs": [],
      "name": "DEFAULT_ADMIN_ROLE",
      "outputs": [
        {
          "internalType": "bytes32",
          "name": "",
          "type": "bytes32"
        }
      ],
      "stateMutability": "view",
      "type": "function"
    },
    {
      "inputs": [
        {
          "internalType": "bytes32",
          "name": "_orderSellId",
          "type": "bytes32"
        },
        {
          "internalType": "uint256",
          "name": "_amount",
          "type": "uint256"
        },
        {
          "internalType": "address",
          "name": "_buyer",
          "type": "address"
        }
      ],
      "name": "ExecuteOrderSellNaka",
      "outputs": [],
      "stateMutability": "nonpayable",
      "type": "function"
    },
    {
      "inputs": [
        {
          "internalType": "bytes32",
          "name": "",
          "type": "bytes32"
        }
      ],
      "name": "OrdersSellNaka",
      "outputs": [
        {
          "internalType": "address",
          "name": "seller",
          "type": "address"
        },
        {
          "internalType": "uint256",
          "name": "nakaPrice",
          "type": "uint256"
        },
        {
          "internalType": "uint256",
          "name": "amount",
          "type": "uint256"
        },
        {
          "internalType": "bool",
          "name": "active",
          "type": "bool"
        }
      ],
      "stateMutability": "view",
      "type": "function"
    },
    {
      "inputs": [
        {
          "internalType": "bytes32",
          "name": "",
          "type": "bytes32"
        }
      ],
      "name": "RequestsSellNaka",
      "outputs": [
        {
          "internalType": "bytes32",
          "name": "binanceOrderBuyId",
          "type": "bytes32"
        },
        {
          "internalType": "address",
          "name": "buyer",
          "type": "address"
        },
        {
          "internalType": "address",
          "name": "seller",
          "type": "address"
        },
        {
          "internalType": "uint256",
          "name": "buyAmount",
          "type": "uint256"
        },
        {
          "internalType": "uint256",
          "name": "busdPrice",
          "type": "uint256"
        },
        {
          "internalType": "uint256",
          "name": "sellAmount",
          "type": "uint256"
        }
      ],
      "stateMutability": "view",
      "type": "function"
    },
    {
      "inputs": [],
      "name": "WORKER_ROLE",
      "outputs": [
        {
          "internalType": "bytes32",
          "name": "",
          "type": "bytes32"
        }
      ],
      "stateMutability": "view",
      "type": "function"
    },
    {
      "inputs": [],
      "name": "accumulateFee",
      "outputs": [
        {
          "internalType": "uint256",
          "name": "",
          "type": "uint256"
        }
      ],
      "stateMutability": "view",
      "type": "function"
    },
    {
      "inputs": [
        {
          "internalType": "bytes32",
          "name": "_orderSellId",
          "type": "bytes32"
        },
        {
          "internalType": "uint256",
          "name": "_amount",
          "type": "uint256"
        }
      ],
      "name": "calculateBusdPrice",
      "outputs": [
        {
          "internalType": "uint256",
          "name": "",
          "type": "uint256"
        }
      ],
      "stateMutability": "view",
      "type": "function"
    },
    {
      "inputs": [
        {
          "internalType": "bytes32",
          "name": "_orderSellId",
          "type": "bytes32"
        }
      ],
      "name": "cancelOrderSellNaka",
      "outputs": [],
      "stateMutability": "nonpayable",
      "type": "function"
    },
    {
      "inputs": [
        {
          "internalType": "bytes32",
          "name": "_requestSellNakaId",
          "type": "bytes32"
        }
      ],
      "name": "cancelSubmitSellNaka",
      "outputs": [],
      "stateMutability": "nonpayable",
      "type": "function"
    },
    {
      "inputs": [
        {
          "internalType": "uint256",
          "name": "_nakaPrice",
          "type": "uint256"
        },
        {
          "internalType": "uint256",
          "name": "_amount",
          "type": "uint256"
        }
      ],
      "name": "createOrderSellNaka",
      "outputs": [],
      "stateMutability": "nonpayable",
      "type": "function"
    },
    {
      "inputs": [
        {
          "internalType": "bytes32",
          "name": "_orderSellId",
          "type": "bytes32"
        },
        {
          "internalType": "uint256",
          "name": "_nakaPrice",
          "type": "uint256"
        },
        {
          "internalType": "uint256",
          "name": "_amount",
          "type": "uint256"
        }
      ],
      "name": "editOrderSell",
      "outputs": [],
      "stateMutability": "nonpayable",
      "type": "function"
    },
    {
      "inputs": [],
      "name": "fee",
      "outputs": [
        {
          "internalType": "uint256",
          "name": "",
          "type": "uint256"
        }
      ],
      "stateMutability": "view",
      "type": "function"
    },
    {
      "inputs": [
        {
          "internalType": "address",
          "name": "_contractAddress",
          "type": "address"
        }
      ],
      "name": "getAllOrders",
      "outputs": [
        {
          "internalType": "bytes32[]",
          "name": "",
          "type": "bytes32[]"
        }
      ],
      "stateMutability": "view",
      "type": "function"
    },
    {
      "inputs": [
        {
          "internalType": "bytes32",
          "name": "_orderSellId",
          "type": "bytes32"
        }
      ],
      "name": "getBuyer",
      "outputs": [
        {
          "internalType": "address[]",
          "name": "",
          "type": "address[]"
        }
      ],
      "stateMutability": "view",
      "type": "function"
    },
    {
      "inputs": [
        {
          "internalType": "address",
          "name": "_address",
          "type": "address"
        }
      ],
      "name": "getOrderIdByAddress",
      "outputs": [
        {
          "internalType": "bytes32[]",
          "name": "",
          "type": "bytes32[]"
        }
      ],
      "stateMutability": "view",
      "type": "function"
    },
    {
      "inputs": [
        {
          "internalType": "bytes32",
          "name": "role",
          "type": "bytes32"
        }
      ],
      "name": "getRoleAdmin",
      "outputs": [
        {
          "internalType": "bytes32",
          "name": "",
          "type": "bytes32"
        }
      ],
      "stateMutability": "view",
      "type": "function"
    },
    {
      "inputs": [
        {
          "internalType": "bytes32",
          "name": "role",
          "type": "bytes32"
        },
        {
          "internalType": "address",
          "name": "account",
          "type": "address"
        }
      ],
      "name": "grantRole",
      "outputs": [],
      "stateMutability": "nonpayable",
      "type": "function"
    },
    {
      "inputs": [
        {
          "internalType": "bytes32",
          "name": "role",
          "type": "bytes32"
        },
        {
          "internalType": "address",
          "name": "account",
          "type": "address"
        }
      ],
      "name": "hasRole",
      "outputs": [
        {
          "internalType": "bool",
          "name": "",
          "type": "bool"
        }
      ],
      "stateMutability": "view",
      "type": "function"
    },
    {
      "inputs": [
        {
          "internalType": "bytes32",
          "name": "_role",
          "type": "bytes32"
        },
        {
          "internalType": "address[]",
          "name": "_workerAddress",
          "type": "address[]"
        }
      ],
      "name": "multiGrandRole",
      "outputs": [],
      "stateMutability": "nonpayable",
      "type": "function"
    },
    {
      "inputs": [],
      "name": "owner",
      "outputs": [
        {
          "internalType": "address",
          "name": "",
          "type": "address"
        }
      ],
      "stateMutability": "view",
      "type": "function"
    },
    {
      "inputs": [],
      "name": "pause",
      "outputs": [],
      "stateMutability": "nonpayable",
      "type": "function"
    },
    {
      "inputs": [],
      "name": "paused",
      "outputs": [
        {
          "internalType": "bool",
          "name": "",
          "type": "bool"
        }
      ],
      "stateMutability": "view",
      "type": "function"
    },
    {
      "inputs": [],
      "name": "renounceOwnership",
      "outputs": [],
      "stateMutability": "nonpayable",
      "type": "function"
    },
    {
      "inputs": [
        {
          "internalType": "bytes32",
          "name": "role",
          "type": "bytes32"
        },
        {
          "internalType": "address",
          "name": "account",
          "type": "address"
        }
      ],
      "name": "renounceRole",
      "outputs": [],
      "stateMutability": "nonpayable",
      "type": "function"
    },
    {
      "inputs": [
        {
          "internalType": "bytes32",
          "name": "_binanceOrderBuyId",
          "type": "bytes32"
        },
        {
          "internalType": "address",
          "name": "_buyer",
          "type": "address"
        },
        {
          "internalType": "uint256",
          "name": "_busdPrice",
          "type": "uint256"
        },
        {
          "internalType": "uint256",
          "name": "_buyAmount",
          "type": "uint256"
        },
        {
          "internalType": "uint256",
          "name": "_sellAmount",
          "type": "uint256"
        }
      ],
      "name": "requestSellNaka",
      "outputs": [],
      "stateMutability": "nonpayable",
      "type": "function"
    },
    {
      "inputs": [
        {
          "internalType": "bytes32",
          "name": "role",
          "type": "bytes32"
        },
        {
          "internalType": "address",
          "name": "account",
          "type": "address"
        }
      ],
      "name": "revokeRole",
      "outputs": [],
      "stateMutability": "nonpayable",
      "type": "function"
    },
    {
      "inputs": [
        {
          "internalType": "uint256",
          "name": "_fee",
          "type": "uint256"
        }
      ],
      "name": "setFee",
      "outputs": [],
      "stateMutability": "nonpayable",
      "type": "function"
    },
    {
      "inputs": [
        {
          "internalType": "bytes32",
          "name": "_requestSellNakaId",
          "type": "bytes32"
        }
      ],
      "name": "submitSellNaka",
      "outputs": [],
      "stateMutability": "nonpayable",
      "type": "function"
    },
    {
      "inputs": [
        {
          "internalType": "bytes4",
          "name": "interfaceId",
          "type": "bytes4"
        }
      ],
      "name": "supportsInterface",
      "outputs": [
        {
          "internalType": "bool",
          "name": "",
          "type": "bool"
        }
      ],
      "stateMutability": "view",
      "type": "function"
    },
    {
      "inputs": [],
      "name": "tokenAddress",
      "outputs": [
        {
          "internalType": "address",
          "name": "",
          "type": "address"
        }
      ],
      "stateMutability": "view",
      "type": "function"
    },
    {
      "inputs": [
        {
          "internalType": "address",
          "name": "newOwner",
          "type": "address"
        }
      ],
      "name": "transferOwnership",
      "outputs": [],
      "stateMutability": "nonpayable",
      "type": "function"
    },
    {
      "inputs": [],
      "name": "unpause",
      "outputs": [],
      "stateMutability": "nonpayable",
      "type": "function"
    },
    {
      "inputs": [
        {
          "internalType": "uint256",
          "name": "_amount",
          "type": "uint256"
        }
      ],
      "name": "withdrawFee",
      "outputs": [],
      "stateMutability": "nonpayable",
      "type": "function"
    }
  ],
  "bytecode": "0x60806040523480156200001157600080fd5b5060405162002a1438038062002a14833981016040819052620000349162000165565b6200003f336200007d565b6001600255600380546001600160a81b0319166101006001600160a01b03851602179055600481905562000075600033620000cd565b5050620001a1565b600080546001600160a01b038381166001600160a01b0319831681178455604051919092169283917f8be0079c531659141344cd1fd0a4f28419497f9722a3daafe3b4186f6b6457e09190a35050565b620000d98282620000dd565b5050565b60008281526001602090815260408083206001600160a01b038516845290915290205460ff16620000d95760008281526001602081815260408084206001600160a01b0386168086529252808420805460ff19169093179092559051339285917f2f8788117e7eff1d82e926ec794901d17c78024a50270940304540a733656f0d9190a45050565b600080604083850312156200017957600080fd5b82516001600160a01b03811681146200019157600080fd5b6020939093015192949293505050565b61286380620001b16000396000f3fe608060405234801561001057600080fd5b50600436106101fa5760003560e01c80638456cb591161011a578063be357616116100ad578063d79642f41161007c578063d79642f41461050f578063ddca3f4314610522578063ec55806b1461052b578063f2fde38b1461053e578063f35e6f931461055157600080fd5b8063be35761614610468578063ca8f27811461047b578063d547741f146104e9578063d5f35bfb146104fc57600080fd5b806391d14854116100e957806391d14854146104225780639d76ea5814610435578063a217fddf1461044d578063b5fec1ff1461045557600080fd5b80638456cb591461034c57806387cc5a1c146103545780638da5cb5b146103745780638e57a2c01461039957600080fd5b80633f4ba83a1161019257806369fe0e2d1161016157806369fe0e2d1461030b578063715018a61461031e5780637b82b99c1461032657806381b021a51461033957600080fd5b80633f4ba83a146102c35780635c975abb146102cb578063634252dc146102d657806364a8ce51146102eb57600080fd5b8063248a9ca3116101ce578063248a9ca3146102665780632b38b4581461028a5780632f2ff15d1461029d57806336568abe146102b057600080fd5b806207a6e7146101ff57806301ffc9a7146102145780630feb811f1461023c5780631155d0421461024f575b600080fd5b61021261020d36600461232a565b610564565b005b6102276102223660046123fb565b6105ac565b60405190151581526020015b60405180910390f35b61021261024a366004612425565b6105e3565b61025860055481565b604051908152602001610233565b61025861027436600461245a565b6000908152600160208190526040909120015490565b61021261029836600461245a565b6108b0565b6102126102ab366004612473565b610a1b565b6102126102be366004612473565b610a47565b610212610ac5565b60035460ff16610227565b61025860008051602061280e83398151915281565b6102fe6102f936600461249f565b610b42565b60405161023391906124ba565b61021261031936600461245a565b610bae565b610212610bf0565b6102126103343660046124fe565b610c24565b610212610347366004612544565b610d76565b610212610f97565b61036761036236600461245a565b610fec565b6040516102339190612570565b6000546001600160a01b03165b6040516001600160a01b039091168152602001610233565b6103e96103a736600461245a565b60086020526000908152604090208054600182015460028301546003840154600485015460059095015493946001600160a01b03938416949290931692909186565b604080519687526001600160a01b03958616602088015293909416928501929092526060840152608083015260a082015260c001610233565b610227610430366004612473565b611057565b6003546103819061010090046001600160a01b031681565b610258600081565b6102fe61046336600461249f565b611082565b61021261047636600461245a565b6110ec565b6104bd61048936600461245a565b60076020526000908152604090208054600182015460028301546003909301546001600160a01b0390921692909160ff1684565b604080516001600160a01b03909516855260208501939093529183015215156060820152608001610233565b6102126104f7366004612473565b611226565b61021261050a3660046125b1565b61124d565b61025861051d3660046125b1565b611457565b61025860045481565b61021261053936600461245a565b611494565b61021261054c36600461249f565b61163c565b61021261055f36600461245a565b6116d7565b805160005b818110156105a65761059484848381518110610587576105876125d3565b6020026020010151610a1b565b8061059e816125ff565b915050610569565b50505050565b60006001600160e01b03198216637965db0b60e01b14806105dd57506301ffc9a760e01b6001600160e01b03198316145b92915050565b60035460ff161561060f5760405162461bcd60e51b815260040161060690612618565b60405180910390fd5b60008051602061280e833981519152610628813361180c565b6000848152600760205260409020600381015460ff166106a35760405162461bcd60e51b815260206004820152603060248201527f5b503250706f6c79676f6e2e457865637574654f7264657253656c6c4e616b6160448201526f5d204f7264657220696e61637469766560801b6064820152608401610606565b83816002015410156107325760405162461bcd60e51b815260206004820152604c60248201527f5b503250706f6c79676f6e2e457865637574654f7264657253656c6c4e616b6160448201527f5d2043616e277420627579206d6f7265207468616e206f726465722072656d6160648201526b1a5b9a5b99c8185b5bdd5b9d60a21b608482015260a401610606565b6000670de0b6b3a764000085836001015461074d9190612642565b6107579190612659565b82546002840180549293506001600160a01b039091169187919060009061077f90849061267b565b909155505060035461010090046001600160a01b03166107a0818789611870565b83600201546000036108125760038401805460ff1916905583546107ce9089906001600160a01b03166118d3565b6107d788611a26565b600088815260076020526040812080546001600160a01b0319168155600181018290556002810191909155600301805460ff1916905561084a565b60008881526006602090815260408220805460018101825590835291200180546001600160a01b0319166001600160a01b0388161790555b604080518981526001600160a01b03808916602083015284169181019190915260608101889052608081018490527f9a48fe1ca319805bbd9c2b6dc33fb2aa330803a749124791b444c67d9ecc37849060a0015b60405180910390a15050505050505050565b60035460ff16156108d35760405162461bcd60e51b815260040161060690612618565b60008051602061280e8339815191526108ec813361180c565b600082900361095b5760405162461bcd60e51b815260206004820152603560248201527f5b503250706f6c79676f6e2e7375626d697453656c6c4e616b615d205265717560448201527465737453656c6c4e616b614964206973205a65726f60581b6064820152608401610606565b6000828152600860205260409020600581015460035460018301546001600160a01b036101009092048216916109949183911684611870565b60008581526008602090815260408083208381556001810180546001600160a01b0319908116909155600282018054909116905560038101849055600481018490556005019290925581518781529081018490527feda86b2f723306b55f673708b9b1fd7d1d5efe991662e85b2ae60066c9c7576591015b60405180910390a15050505050565b60008281526001602081905260409091200154610a38813361180c565b610a428383611b40565b505050565b6001600160a01b0381163314610ab75760405162461bcd60e51b815260206004820152602f60248201527f416363657373436f6e74726f6c3a2063616e206f6e6c792072656e6f756e636560448201526e103937b632b9903337b91039b2b63360891b6064820152608401610606565b610ac18282611bab565b5050565b6000546001600160a01b03163314610aef5760405162461bcd60e51b81526004016106069061268e565b60035460ff16610b385760405162461bcd60e51b815260206004820152601460248201527314185d5cd8589b194e881b9bdd081c185d5cd95960621b6044820152606401610606565b610b40611c12565b565b6001600160a01b038116600090815260096020908152604091829020805483518184028101840190945280845260609392830182828015610ba257602002820191906000526020600020905b815481526020019060010190808311610b8e575b50505050509050919050565b60035460ff1615610bd15760405162461bcd60e51b815260040161060690612618565b60008051602061280e833981519152610bea813361180c565b50600455565b6000546001600160a01b03163314610c1a5760405162461bcd60e51b81526004016106069061268e565b610b406000611ca5565b60035460ff1615610c475760405162461bcd60e51b815260040161060690612618565b60035461010090046001600160a01b0316610c6481333085611cf5565b604080514260208201529081018790526bffffffffffffffffffffffff19606087811b82168184015233901b1660748201526088810184905260a8810185905260c8810183905260009060e80160408051808303601f1901815282825280516020918201206000818152600883528390208b81556001810180546001600160a01b03199081166001600160a01b038e1690811790925560028301805433921682179055600383018b9055600483018c9055600583018a90558387529386018d90529385019390935260608401919091526080830187905260a0830188905260c083018690529250907f17844c41891f7e0303a5f85f89ce5bc395675c0a1fce4e2efcc0e87b53860e769060e00161089e565b6000838152600760205260409020600381015460ff16610dea5760405162461bcd60e51b815260206004820152602960248201527f5b503250706f6c79676f6e2e656469744f7264657253656c6c5d204f7264657260448201526820696e61637469766560b81b6064820152608401610606565b80546001600160a01b03163314610e515760405162461bcd60e51b815260206004820152602560248201527f5b503250706f6c79676f6e2e656469744f7264657253656c6c5d204e6f74207360448201526432b63632b960d91b6064820152608401610606565b600083831611610ed45760405162461bcd60e51b815260206004820152604260248201527f5b503250706f6c79676f6e2e656469744f7264657253656c6c5d204e616b615060448201527f7269636520616e6420416d6f7574206d757374206265206d6f7265207468616e606482015261020360f41b608482015260a401610606565b60035460028201546101009091046001600160a01b0316908310610f21576000826002015484610f04919061267b565b9050610f1b6001600160a01b038316333084611cf5565b50610f4b565b6000838360020154610f33919061267b565b9050610f496001600160a01b0383163383611870565b505b600282018390556001820184905560408051868152602081018690529081018490527ff91974ee1cad62271eeefe81d22f3a2b62f2719ac378be012fec57fe7c6d666990606001610a0c565b6000546001600160a01b03163314610fc15760405162461bcd60e51b81526004016106069061268e565b60035460ff1615610fe45760405162461bcd60e51b815260040161060690612618565b610b40611d2d565b600081815260066020908152604091829020805483518184028101840190945280845260609392830182828015610ba257602002820191906000526020600020905b81546001600160a01b0316815260019091019060200180831161102e5750505050509050919050565b60009182526001602090815260408084206001600160a01b0393909316845291905290205460ff1690565b6001600160a01b0381166000908152600a6020908152604091829020805483518184028101840190945280845260609392830182828015610ba25760200282019190600052602060002090815481526020019060010190808311610b8e5750505050509050919050565b60035460ff161561110f5760405162461bcd60e51b815260040161060690612618565b60008051602061280e833981519152611128813361180c565b6005546000036111945760405162461bcd60e51b815260206004820152603160248201527f5b503250706f6c79676f6e2e77697468647261774665655d20416363756d756c604482015270030ba32a332b29034b9903430bb3290181607d1b6064820152608401610606565b8160055410156112005760405162461bcd60e51b815260206004820152603160248201527f5b503250706f6c79676f6e2e77697468647261774665655d20416363756d756c6044820152700c2e8ca8ccaca40dcdee840cadcdeeaced607b1b6064820152608401610606565b60035461010090046001600160a01b031661121c813385611870565b5050600060055550565b60008281526001602081905260409091200154611243813361180c565b610a428383611bab565b60035460ff16156112705760405162461bcd60e51b815260040161060690612618565b6000828216116112f95760405162461bcd60e51b815260206004820152604860248201527f5b503250706f6c79676f6e2e6372656174654f7264657253656c6c4e616b615d60448201527f204e616b61507269636520616e6420416d6f7574206d757374206265206d6f72606482015267065207468616e20360c41b608482015260a401610606565b60006004548261130991906126c3565b90506004546005600082825461131f91906126c3565b909155505060035461010090046001600160a01b031661134181333085611cf5565b604080514260208201526bffffffffffffffffffffffff193360601b16918101919091526054810185905260009060740160408051601f19818403018152828252805160209182012060008181526007835283812080546001600160a01b03191633908117825560018083018d9055600283018c905560038301805460ff191682179055818452600986528684208054808301825590855286852001859055308452600a865286842080549182018155845292859020909201839055600454838752938601919091529284018990526060840188905260808401919091529250907f1246988d3cc144803a7e7ec9c80e5f10397811186e45fcbf971968813b357ff49060a00160405180910390a1505050505050565b600082815260076020526040812060018101548290670de0b6b3a764000090611481908690612642565b61148b9190612659565b95945050505050565b6000818152600760205260409020600381015460ff1661150f5760405162461bcd60e51b815260206004820152603060248201527f5b503250706f6c79676f6e2e63616e63656c4f7264657253656c6c4e616b615d60448201526f1027b93232b91034b730b1ba34bb329760811b6064820152608401610606565b80546001600160a01b0316331461157e5760405162461bcd60e51b815260206004820152602d60248201527f5b503250706f6c79676f6e2e63616e63656c4f7264657253656c6c4e616b615d60448201526c10102737ba1039b2b63632b91760991b6064820152608401610606565b600354815460028301546001600160a01b036101009093048316926115a7928492911690611870565b60038201805460ff191690556115bd83336118d3565b6115c683611a26565b60008381526007602052604080822080546001600160a01b03191681556001810183905560028101929092556003909101805460ff19169055517f9922661b058d490ac15c454b47c9493944b4357676c0e0f94be31f143150b95b9061162f9085815260200190565b60405180910390a1505050565b6000546001600160a01b031633146116665760405162461bcd60e51b81526004016106069061268e565b6001600160a01b0381166116cb5760405162461bcd60e51b815260206004820152602660248201527f4f776e61626c653a206e6577206f776e657220697320746865207a65726f206160448201526564647265737360d01b6064820152608401610606565b6116d481611ca5565b50565b60035460ff16156116fa5760405162461bcd60e51b815260040161060690612618565b60008051602061280e833981519152611713813361180c565b600082900361178a5760405162461bcd60e51b815260206004820152603b60248201527f5b503250706f6c79676f6e2e63616e63656c5375626d697453656c6c4e616b6160448201527f5d205265717565737453656c6c4e616b614964206973205a65726f00000000006064820152608401610606565b6000828152600860205260409020600354600282015460058301546001600160a01b036101009093048316926117c4928492911690611870565b50505060009081526008602052604081208181556001810180546001600160a01b03199081169091556002820180549091169055600381018290556004810182905560050155565b6118168282611057565b610ac15761182e816001600160a01b03166014611d85565b611839836020611d85565b60405160200161184a9291906126fa565b60408051601f198184030181529082905262461bcd60e51b82526106069160040161276f565b6040516001600160a01b038316602482015260448101829052610a4290849063a9059cbb60e01b906064015b60408051601f198184030181529190526020810180516001600160e01b03166001600160e01b031990931692909217909152611f28565b60006118df8383611ffa565b9050805b6001600160a01b0383166000908152600960205260409020546119089060019061267b565b8110156119a1576001600160a01b03831660009081526009602052604090206119328260016126c3565b81548110611942576119426125d3565b906000526020600020015460096000856001600160a01b03166001600160a01b031681526020019081526020016000208281548110611983576119836125d3565b60009182526020909120015580611999816125ff565b9150506118e3565b506001600160a01b038216600090815260096020526040902080546119c89060019061267b565b815481106119d8576119d86125d3565b600091825260208083209091018290556001600160a01b03841682526009905260409020805480611a0b57611a0b6127a2565b60019003818190600052602060002001600090559055505050565b6000611a3282306120bd565b9050805b306000908152600a6020526040902054611a529060019061267b565b811015611ace57306000908152600a60205260409020611a738260016126c3565b81548110611a8357611a836125d3565b6000918252602080832090910154308352600a9091526040909120805483908110611ab057611ab06125d3565b60009182526020909120015580611ac6816125ff565b915050611a36565b50306000908152600a602052604090208054611aec9060019061267b565b81548110611afc57611afc6125d3565b60009182526020808320909101829055308252600a905260409020805480611b2657611b266127a2565b600190038181906000526020600020016000905590555050565b611b4a8282611057565b610ac15760008281526001602081815260408084206001600160a01b0386168086529252808420805460ff19169093179092559051339285917f2f8788117e7eff1d82e926ec794901d17c78024a50270940304540a733656f0d9190a45050565b611bb58282611057565b15610ac15760008281526001602090815260408083206001600160a01b0385168085529252808320805460ff1916905551339285917ff6391f5c32d9c69d2a47ea670b442974b53935d1edc7fd64eb21e047a839171b9190a45050565b60035460ff16611c5b5760405162461bcd60e51b815260206004820152601460248201527314185d5cd8589b194e881b9bdd081c185d5cd95960621b6044820152606401610606565b6003805460ff191690557f5db9ee0a495bf2e6ff9c91a7834c1ba4fdd244a5e8aa4e537bd38aeae4b073aa335b6040516001600160a01b03909116815260200160405180910390a1565b600080546001600160a01b038381166001600160a01b0319831681178455604051919092169283917f8be0079c531659141344cd1fd0a4f28419497f9722a3daafe3b4186f6b6457e09190a35050565b6040516001600160a01b03808516602483015283166044820152606481018290526105a69085906323b872dd60e01b9060840161189c565b60035460ff1615611d505760405162461bcd60e51b815260040161060690612618565b6003805460ff191660011790557f62e78cea01bee320cd4e420270b5ea74000d11b0c9f74754ebdbfc544b05a258611c883390565b60606000611d94836002612642565b611d9f9060026126c3565b67ffffffffffffffff811115611db757611db76122f8565b6040519080825280601f01601f191660200182016040528015611de1576020820181803683370190505b509050600360fc1b81600081518110611dfc57611dfc6125d3565b60200101906001600160f81b031916908160001a905350600f60fb1b81600181518110611e2b57611e2b6125d3565b60200101906001600160f81b031916908160001a9053506000611e4f846002612642565b611e5a9060016126c3565b90505b6001811115611ed2576f181899199a1a9b1b9c1cb0b131b232b360811b85600f1660108110611e8e57611e8e6125d3565b1a60f81b828281518110611ea457611ea46125d3565b60200101906001600160f81b031916908160001a90535060049490941c93611ecb816127b8565b9050611e5d565b508315611f215760405162461bcd60e51b815260206004820181905260248201527f537472696e67733a20686578206c656e67746820696e73756666696369656e746044820152606401610606565b9392505050565b6000611f7d826040518060400160405280602081526020017f5361666545524332303a206c6f772d6c6576656c2063616c6c206661696c6564815250856001600160a01b03166121809092919063ffffffff16565b805190915015610a425780806020019051810190611f9b91906127cf565b610a425760405162461bcd60e51b815260206004820152602a60248201527f5361666545524332303a204552433230206f7065726174696f6e20646964206e6044820152691bdd081cdd58d8d9595960b21b6064820152608401610606565b6000805b6001600160a01b038316600090815260096020526040902054811015612074576001600160a01b038316600090815260096020526040902080548591908390811061204b5761204b6125d3565b9060005260206000200154036120625790506105dd565b8061206c816125ff565b915050611ffe565b5060405162461bcd60e51b815260206004820152601d60248201527f4572726f722066696e64496e6465784f726465726279416464726573730000006044820152606401610606565b6000805b6001600160a01b0383166000908152600a6020526040902054811015612137576001600160a01b0383166000908152600a6020526040902080548591908390811061210e5761210e6125d3565b9060005260206000200154036121255790506105dd565b8061212f816125ff565b9150506120c1565b5060405162461bcd60e51b815260206004820152601760248201527f4572726f722066696e64496e646578416c6c4f726465720000000000000000006044820152606401610606565b606061218f8484600085612197565b949350505050565b6060824710156121f85760405162461bcd60e51b815260206004820152602660248201527f416464726573733a20696e73756666696369656e742062616c616e636520666f6044820152651c8818d85b1b60d21b6064820152608401610606565b843b6122465760405162461bcd60e51b815260206004820152601d60248201527f416464726573733a2063616c6c20746f206e6f6e2d636f6e74726163740000006044820152606401610606565b600080866001600160a01b0316858760405161226291906127f1565b60006040518083038185875af1925050503d806000811461229f576040519150601f19603f3d011682016040523d82523d6000602084013e6122a4565b606091505b50915091506122b48282866122bf565b979650505050505050565b606083156122ce575081611f21565b8251156122de5782518084602001fd5b8160405162461bcd60e51b8152600401610606919061276f565b634e487b7160e01b600052604160045260246000fd5b80356001600160a01b038116811461232557600080fd5b919050565b6000806040838503121561233d57600080fd5b8235915060208084013567ffffffffffffffff8082111561235d57600080fd5b818601915086601f83011261237157600080fd5b813581811115612383576123836122f8565b8060051b604051601f19603f830116810181811085821117156123a8576123a86122f8565b6040529182528482019250838101850191898311156123c657600080fd5b938501935b828510156123eb576123dc8561230e565b845293850193928501926123cb565b8096505050505050509250929050565b60006020828403121561240d57600080fd5b81356001600160e01b031981168114611f2157600080fd5b60008060006060848603121561243a57600080fd5b83359250602084013591506124516040850161230e565b90509250925092565b60006020828403121561246c57600080fd5b5035919050565b6000806040838503121561248657600080fd5b823591506124966020840161230e565b90509250929050565b6000602082840312156124b157600080fd5b611f218261230e565b6020808252825182820181905260009190848201906040850190845b818110156124f2578351835292840192918401916001016124d6565b50909695505050505050565b600080600080600060a0868803121561251657600080fd5b853594506125266020870161230e565b94979496505050506040830135926060810135926080909101359150565b60008060006060848603121561255957600080fd5b505081359360208301359350604090920135919050565b6020808252825182820181905260009190848201906040850190845b818110156124f25783516001600160a01b03168352928401929184019160010161258c565b600080604083850312156125c457600080fd5b50508035926020909101359150565b634e487b7160e01b600052603260045260246000fd5b634e487b7160e01b600052601160045260246000fd5b600060018201612611576126116125e9565b5060010190565b60208082526010908201526f14185d5cd8589b194e881c185d5cd95960821b604082015260600190565b80820281158282048414176105dd576105dd6125e9565b60008261267657634e487b7160e01b600052601260045260246000fd5b500490565b818103818111156105dd576105dd6125e9565b6020808252818101527f4f776e61626c653a2063616c6c6572206973206e6f7420746865206f776e6572604082015260600190565b808201808211156105dd576105dd6125e9565b60005b838110156126f15781810151838201526020016126d9565b50506000910152565b7f416363657373436f6e74726f6c3a206163636f756e74200000000000000000008152600083516127328160178501602088016126d6565b7001034b99036b4b9b9b4b733903937b6329607d1b60179184019182015283516127638160288401602088016126d6565b01602801949350505050565b602081526000825180602084015261278e8160408501602087016126d6565b601f01601f19169190910160400192915050565b634e487b7160e01b600052603160045260246000fd5b6000816127c7576127c76125e9565b506000190190565b6000602082840312156127e157600080fd5b81518015158114611f2157600080fd5b600082516128038184602087016126d6565b919091019291505056fef1b411d6abb365480ac902cc153c45e9ded5847a2265ce6d01945d253edb6bc7a2646970667358221220d2b19fe5d3fa6b0a1139a3c38f321bf5c31ec4ecd2a558773ef2acbab4dd6c6664736f6c63430008110033",
  "linkReferences": {},
  "deployedLinkReferences": {}
}