{
  "_format": "hh-sol-artifact-1",
  "contractName": "Shop",
  "sourceName": "contracts/Shop.sol",
  "abi": [
    {
      "inputs": [
        {
          "internalType": "address",
          "name": "_vaultBalanceAddress",
          "type": "address"
        },
        {
          "internalType": "address",
          "name": "_vaultItemAddress",
          "type": "address"
        }
      ],
      "stateMutability": "nonpayable",
      "type": "constructor"
    },
    {
      "anonymous": false,
      "inputs": [
        {
          "indexed": true,
          "internalType": "address",
          "name": "userAddress",
          "type": "address"
        },
        {
          "indexed": false,
          "internalType": "uint256",
          "name": "itemId",
          "type": "uint256"
        },
        {
          "indexed": false,
          "internalType": "uint256",
          "name": "itemAmount",
          "type": "uint256"
        },
        {
          "indexed": false,
          "internalType": "uint256",
          "name": "nakaAmount",
          "type": "uint256"
        }
      ],
      "name": "BuyItem",
      "type": "event"
    },
    {
      "anonymous": false,
      "inputs": [
        {
          "indexed": true,
          "internalType": "address",
          "name": "previousOwner",
          "type": "address"
        },
        {
          "indexed": true,
          "internalType": "address",
          "name": "newOwner",
          "type": "address"
        }
      ],
      "name": "OwnershipTransferred",
      "type": "event"
    },
    {
      "anonymous": false,
      "inputs": [
        {
          "indexed": true,
          "internalType": "bytes32",
          "name": "role",
          "type": "bytes32"
        },
        {
          "indexed": true,
          "internalType": "bytes32",
          "name": "previousAdminRole",
          "type": "bytes32"
        },
        {
          "indexed": true,
          "internalType": "bytes32",
          "name": "newAdminRole",
          "type": "bytes32"
        }
      ],
      "name": "RoleAdminChanged",
      "type": "event"
    },
    {
      "anonymous": false,
      "inputs": [
        {
          "indexed": true,
          "internalType": "bytes32",
          "name": "role",
          "type": "bytes32"
        },
        {
          "indexed": true,
          "internalType": "address",
          "name": "account",
          "type": "address"
        },
        {
          "indexed": true,
          "internalType": "address",
          "name": "sender",
          "type": "address"
        }
      ],
      "name": "RoleGranted",
      "type": "event"
    },
    {
      "anonymous": false,
      "inputs": [
        {
          "indexed": true,
          "internalType": "bytes32",
          "name": "role",
          "type": "bytes32"
        },
        {
          "indexed": true,
          "internalType": "address",
          "name": "account",
          "type": "address"
        },
        {
          "indexed": true,
          "internalType": "address",
          "name": "sender",
          "type": "address"
        }
      ],
      "name": "RoleRevoked",
      "type": "event"
    },
    {
      "anonymous": false,
      "inputs": [
        {
          "indexed": true,
          "internalType": "address",
          "name": "vaultAddress",
          "type": "address"
        }
      ],
      "name": "SetVaultBalanceAddress",
      "type": "event"
    },
    {
      "anonymous": false,
      "inputs": [
        {
          "indexed": true,
          "internalType": "address",
          "name": "vaultAddress",
          "type": "address"
        }
      ],
      "name": "SetVaultItemAddress",
      "type": "event"
    },
    {
      "anonymous": false,
      "inputs": [],
      "name": "ShopPaused",
      "type": "event"
    },
    {
      "anonymous": false,
      "inputs": [],
      "name": "ShopUnpaused",
      "type": "event"
    },
    {
      "inputs": [],
      "name": "DEFAULT_ADMIN_ROLE",
      "outputs": [
        {
          "internalType": "bytes32",
          "name": "",
          "type": "bytes32"
        }
      ],
      "stateMutability": "view",
      "type": "function"
    },
    {
      "inputs": [],
      "name": "VAULT_ADMIN",
      "outputs": [
        {
          "internalType": "bytes32",
          "name": "",
          "type": "bytes32"
        }
      ],
      "stateMutability": "view",
      "type": "function"
    },
    {
      "inputs": [
        {
          "internalType": "address",
          "name": "_userAddress",
          "type": "address"
        },
        {
          "internalType": "uint256",
          "name": "_itemId",
          "type": "uint256"
        },
        {
          "internalType": "uint256",
          "name": "_itemAmount",
          "type": "uint256"
        },
        {
          "internalType": "uint256",
          "name": "_nakaAmount",
          "type": "uint256"
        }
      ],
      "name": "buyItems",
      "outputs": [],
      "stateMutability": "nonpayable",
      "type": "function"
    },
    {
      "inputs": [
        {
          "internalType": "bytes32",
          "name": "role",
          "type": "bytes32"
        }
      ],
      "name": "getRoleAdmin",
      "outputs": [
        {
          "internalType": "bytes32",
          "name": "",
          "type": "bytes32"
        }
      ],
      "stateMutability": "view",
      "type": "function"
    },
    {
      "inputs": [
        {
          "internalType": "bytes32",
          "name": "role",
          "type": "bytes32"
        },
        {
          "internalType": "address",
          "name": "account",
          "type": "address"
        }
      ],
      "name": "grantRole",
      "outputs": [],
      "stateMutability": "nonpayable",
      "type": "function"
    },
    {
      "inputs": [
        {
          "internalType": "bytes32",
          "name": "role",
          "type": "bytes32"
        },
        {
          "internalType": "address",
          "name": "account",
          "type": "address"
        }
      ],
      "name": "hasRole",
      "outputs": [
        {
          "internalType": "bool",
          "name": "",
          "type": "bool"
        }
      ],
      "stateMutability": "view",
      "type": "function"
    },
    {
      "inputs": [],
      "name": "owner",
      "outputs": [
        {
          "internalType": "address",
          "name": "",
          "type": "address"
        }
      ],
      "stateMutability": "view",
      "type": "function"
    },
    {
      "inputs": [],
      "name": "pauseShop",
      "outputs": [],
      "stateMutability": "nonpayable",
      "type": "function"
    },
    {
      "inputs": [],
      "name": "renounceOwnership",
      "outputs": [],
      "stateMutability": "nonpayable",
      "type": "function"
    },
    {
      "inputs": [
        {
          "internalType": "bytes32",
          "name": "role",
          "type": "bytes32"
        },
        {
          "internalType": "address",
          "name": "account",
          "type": "address"
        }
      ],
      "name": "renounceRole",
      "outputs": [],
      "stateMutability": "nonpayable",
      "type": "function"
    },
    {
      "inputs": [
        {
          "internalType": "bytes32",
          "name": "role",
          "type": "bytes32"
        },
        {
          "internalType": "address",
          "name": "account",
          "type": "address"
        }
      ],
      "name": "revokeRole",
      "outputs": [],
      "stateMutability": "nonpayable",
      "type": "function"
    },
    {
      "inputs": [
        {
          "internalType": "bytes4",
          "name": "interfaceId",
          "type": "bytes4"
        }
      ],
      "name": "supportsInterface",
      "outputs": [
        {
          "internalType": "bool",
          "name": "",
          "type": "bool"
        }
      ],
      "stateMutability": "view",
      "type": "function"
    },
    {
      "inputs": [
        {
          "internalType": "address",
          "name": "newOwner",
          "type": "address"
        }
      ],
      "name": "transferOwnership",
      "outputs": [],
      "stateMutability": "nonpayable",
      "type": "function"
    },
    {
      "inputs": [],
      "name": "unpauseShop",
      "outputs": [],
      "stateMutability": "nonpayable",
      "type": "function"
    },
    {
      "inputs": [],
      "name": "vaultBalance",
      "outputs": [
        {
          "internalType": "contract IBalanceVault",
          "name": "",
          "type": "address"
        }
      ],
      "stateMutability": "view",
      "type": "function"
    },
    {
      "inputs": [],
      "name": "vaultItem",
      "outputs": [
        {
          "internalType": "contract IItemVault",
          "name": "",
          "type": "address"
        }
      ],
      "stateMutability": "view",
      "type": "function"
    }
  ],
  "bytecode": "0x608060405234801561001057600080fd5b5060405162000fd238038062000fd2833981016040819052610031916101e0565b61003a336100df565b6001600255600380546001600160a01b0319166001600160a01b0384169081179091556040517f3c0d327af1b7b726d2d117d1e3ba848c453ec18fb65e2291fcfc990feac5a4fa90600090a2600480546001600160a01b0319166001600160a01b0383169081179091556040517fdbcb3f2f826be362c0228d61ce58103fffe97b4cf0b5facf0c73c1e60f31398890600090a26100d860003361012f565b5050610213565b600080546001600160a01b038381166001600160a01b0319831681178455604051919092169283917f8be0079c531659141344cd1fd0a4f28419497f9722a3daafe3b4186f6b6457e09190a35050565b610139828261013d565b5050565b60008281526001602090815260408083206001600160a01b038516845290915290205460ff166101395760008281526001602081815260408084206001600160a01b0386168086529252808420805460ff19169093179092559051339285917f2f8788117e7eff1d82e926ec794901d17c78024a50270940304540a733656f0d9190a45050565b80516001600160a01b03811681146101db57600080fd5b919050565b600080604083850312156101f357600080fd5b6101fc836101c4565b915061020a602084016101c4565b90509250929050565b610daf80620002236000396000f3fe608060405234801561001057600080fd5b50600436106101005760003560e01c806391d1485411610097578063d547741f11610066578063d547741f14610228578063eec863761461023b578063f0d5c81114610243578063f2fde38b1461025657600080fd5b806391d14854146101d357806393cebb23146101e6578063a217fddf146101f9578063cb8243731461020157600080fd5b806336568abe116100d357806336568abe1461019f578063425345a4146101b2578063715018a6146101ba5780638da5cb5b146101c257600080fd5b806301ffc9a7146101055780630bf6cc081461012d578063248a9ca3146101585780632f2ff15d1461018a575b600080fd5b610118610113366004610b6f565b610269565b60405190151581526020015b60405180910390f35b600354610140906001600160a01b031681565b6040516001600160a01b039091168152602001610124565b61017c610166366004610b2a565b6000908152600160208190526040909120015490565b604051908152602001610124565b61019d610198366004610b43565b6102a0565b005b61019d6101ad366004610b43565b6102cc565b61019d61034f565b61019d6103e1565b6000546001600160a01b0316610140565b6101186101e1366004610b43565b610417565b61019d6101f4366004610af1565b610442565b61017c600081565b61017c7fb15e2bb6de8e562b452dcfd0ca719f799c9919f6645dee389052d6326e77eb6081565b61019d610236366004610b43565b610614565b61019d61063b565b600454610140906001600160a01b031681565b61019d610264366004610ad6565b6106f6565b60006001600160e01b03198216637965db0b60e01b148061029a57506301ffc9a760e01b6001600160e01b03198316145b92915050565b600082815260016020819052604090912001546102bd8133610791565b6102c783836107f5565b505050565b6001600160a01b03811633146103415760405162461bcd60e51b815260206004820152602f60248201527f416363657373436f6e74726f6c3a2063616e206f6e6c792072656e6f756e636560448201526e103937b632b9903337b91039b2b63360891b60648201526084015b60405180910390fd5b61034b8282610860565b5050565b6000546001600160a01b031633146103795760405162461bcd60e51b815260040161033890610c84565b600454600160a01b900460ff16156103a35760405162461bcd60e51b815260040161033890610c41565b6004805460ff60a01b1916600160a01b1790556040517f80a6381a987bbba719d69a82c7c2516d0b2079be3bbec665ccb19be032b216a990600090a1565b6000546001600160a01b0316331461040b5760405162461bcd60e51b815260040161033890610c84565b61041560006108c7565b565b60009182526001602090815260408084206001600160a01b0393909316845291905290205460ff1690565b600454600160a01b900460ff161561046c5760405162461bcd60e51b815260040161033890610c41565b6002805414156104be5760405162461bcd60e51b815260206004820152601f60248201527f5265656e7472616e637947756172643a207265656e7472616e742063616c6c006044820152606401610338565b600280557fb15e2bb6de8e562b452dcfd0ca719f799c9919f6645dee389052d6326e77eb606104ed8133610791565b600354604051600162fa96b760e01b031981526001600160a01b038781166004830152602482018590529091169063ff05694990604401600060405180830381600087803b15801561053e57600080fd5b505af1158015610552573d6000803e3d6000fd5b5050600480546040516338f47b0760e01b81526001600160a01b038a8116938201939093526024810189905260448101889052911692506338f47b079150606401600060405180830381600087803b1580156105ad57600080fd5b505af11580156105c1573d6000803e3d6000fd5b505060408051878152602081018790529081018590523392507f75b2e59e11f908cb424d07858db7152a4b973814354a5bfe043dda59966d9bed915060600160405180910390a250506001600255505050565b600082815260016020819052604090912001546106318133610791565b6102c78383610860565b6000546001600160a01b031633146106655760405162461bcd60e51b815260040161033890610c84565b600454600160a01b900460ff166106be5760405162461bcd60e51b815260206004820152601c60248201527f5b53686f702e7768656e53686f705061757365645d20506175736564000000006044820152606401610338565b6004805460ff60a01b191690556040517f850a848e38c7cf8ebef00f7e9a2e73013a78da90a8186f89b23d016ecafc43ef90600090a1565b6000546001600160a01b031633146107205760405162461bcd60e51b815260040161033890610c84565b6001600160a01b0381166107855760405162461bcd60e51b815260206004820152602660248201527f4f776e61626c653a206e6577206f776e657220697320746865207a65726f206160448201526564647265737360d01b6064820152608401610338565b61078e816108c7565b50565b61079b8282610417565b61034b576107b3816001600160a01b03166014610917565b6107be836020610917565b6040516020016107cf929190610b99565b60408051601f198184030181529082905262461bcd60e51b825261033891600401610c0e565b6107ff8282610417565b61034b5760008281526001602081815260408084206001600160a01b0386168086529252808420805460ff19169093179092559051339285917f2f8788117e7eff1d82e926ec794901d17c78024a50270940304540a733656f0d9190a45050565b61086a8282610417565b1561034b5760008281526001602090815260408083206001600160a01b0385168085529252808320805460ff1916905551339285917ff6391f5c32d9c69d2a47ea670b442974b53935d1edc7fd64eb21e047a839171b9190a45050565b600080546001600160a01b038381166001600160a01b0319831681178455604051919092169283917f8be0079c531659141344cd1fd0a4f28419497f9722a3daafe3b4186f6b6457e09190a35050565b60606000610926836002610cd1565b610931906002610cb9565b67ffffffffffffffff81111561094957610949610d63565b6040519080825280601f01601f191660200182016040528015610973576020820181803683370190505b509050600360fc1b8160008151811061098e5761098e610d4d565b60200101906001600160f81b031916908160001a905350600f60fb1b816001815181106109bd576109bd610d4d565b60200101906001600160f81b031916908160001a90535060006109e1846002610cd1565b6109ec906001610cb9565b90505b6001811115610a64576f181899199a1a9b1b9c1cb0b131b232b360811b85600f1660108110610a2057610a20610d4d565b1a60f81b828281518110610a3657610a36610d4d565b60200101906001600160f81b031916908160001a90535060049490941c93610a5d81610d20565b90506109ef565b508315610ab35760405162461bcd60e51b815260206004820181905260248201527f537472696e67733a20686578206c656e67746820696e73756666696369656e746044820152606401610338565b9392505050565b80356001600160a01b0381168114610ad157600080fd5b919050565b600060208284031215610ae857600080fd5b610ab382610aba565b60008060008060808587031215610b0757600080fd5b610b1085610aba565b966020860135965060408601359560600135945092505050565b600060208284031215610b3c57600080fd5b5035919050565b60008060408385031215610b5657600080fd5b82359150610b6660208401610aba565b90509250929050565b600060208284031215610b8157600080fd5b81356001600160e01b031981168114610ab357600080fd5b7f416363657373436f6e74726f6c3a206163636f756e7420000000000000000000815260008351610bd1816017850160208801610cf0565b7001034b99036b4b9b9b4b733903937b6329607d1b6017918401918201528351610c02816028840160208801610cf0565b01602801949350505050565b6020815260008251806020840152610c2d816040850160208701610cf0565b601f01601f19169190910160400192915050565b60208082526023908201527f5b53686f702e7768656e53686f704e6f745061757365645d204e6f74205061756040820152621cd95960ea1b606082015260800190565b6020808252818101527f4f776e61626c653a2063616c6c6572206973206e6f7420746865206f776e6572604082015260600190565b60008219821115610ccc57610ccc610d37565b500190565b6000816000190483118215151615610ceb57610ceb610d37565b500290565b60005b83811015610d0b578181015183820152602001610cf3565b83811115610d1a576000848401525b50505050565b600081610d2f57610d2f610d37565b506000190190565b634e487b7160e01b600052601160045260246000fd5b634e487b7160e01b600052603260045260246000fd5b634e487b7160e01b600052604160045260246000fdfea2646970667358221220b92960509f4eda1eae484dea1136f06fcad0265f6c3b139e5bac3f21d33fc10664736f6c63430008070033",
  "linkReferences": {},
  "deployedLinkReferences": {}
}