{
  "_format": "hh-sol-artifact-1",
  "contractName": "Staking",
  "sourceName": "contracts/Staking.sol",
  "abi": [
    {
      "inputs": [
        {
          "internalType": "address",
          "name": "_nakaTokenAddress",
          "type": "address"
        },
        {
          "internalType": "uint256",
          "name": "_startStakeTime",
          "type": "uint256"
        },
        {
          "internalType": "uint256",
          "name": "_endStakeTime",
          "type": "uint256"
        },
        {
          "internalType": "uint256",
          "name": "_userStakeLimit",
          "type": "uint256"
        },
        {
          "internalType": "uint256",
          "name": "_poolStakeLimit",
          "type": "uint256"
        },
        {
          "internalType": "uint256",
          "name": "_percentage",
          "type": "uint256"
        }
      ],
      "stateMutability": "nonpayable",
      "type": "constructor"
    },
    {
      "anonymous": false,
      "inputs": [
        {
          "indexed": true,
          "internalType": "address",
          "name": "userAddress",
          "type": "address"
        },
        {
          "indexed": false,
          "internalType": "uint256",
          "name": "nakaAmount",
          "type": "uint256"
        }
      ],
      "name": "NakaStaked",
      "type": "event"
    },
    {
      "anonymous": false,
      "inputs": [
        {
          "indexed": true,
          "internalType": "address",
          "name": "previousOwner",
          "type": "address"
        },
        {
          "indexed": true,
          "internalType": "address",
          "name": "newOwner",
          "type": "address"
        }
      ],
      "name": "OwnershipTransferred",
      "type": "event"
    },
    {
      "anonymous": false,
      "inputs": [
        {
          "indexed": false,
          "internalType": "address",
          "name": "account",
          "type": "address"
        }
      ],
      "name": "Paused",
      "type": "event"
    },
    {
      "anonymous": false,
      "inputs": [
        {
          "indexed": false,
          "internalType": "uint256",
          "name": "nakaAmount",
          "type": "uint256"
        }
      ],
      "name": "PoolRewardAdded",
      "type": "event"
    },
    {
      "anonymous": false,
      "inputs": [
        {
          "indexed": false,
          "internalType": "uint256",
          "name": "nakaAmount",
          "type": "uint256"
        }
      ],
      "name": "PoolRewardReduced",
      "type": "event"
    },
    {
      "anonymous": false,
      "inputs": [
        {
          "indexed": true,
          "internalType": "address",
          "name": "userAddress",
          "type": "address"
        },
        {
          "indexed": false,
          "internalType": "uint256",
          "name": "nakaAmount",
          "type": "uint256"
        }
      ],
      "name": "RewardClaimed",
      "type": "event"
    },
    {
      "anonymous": false,
      "inputs": [],
      "name": "StakingPaused",
      "type": "event"
    },
    {
      "anonymous": false,
      "inputs": [],
      "name": "StakingUnpaused",
      "type": "event"
    },
    {
      "anonymous": false,
      "inputs": [
        {
          "indexed": false,
          "internalType": "address",
          "name": "account",
          "type": "address"
        }
      ],
      "name": "Unpaused",
      "type": "event"
    },
    {
      "anonymous": false,
      "inputs": [
        {
          "indexed": true,
          "internalType": "address",
          "name": "userAddress",
          "type": "address"
        },
        {
          "indexed": false,
          "internalType": "uint256",
          "name": "nakaAmount",
          "type": "uint256"
        }
      ],
      "name": "WithdrawnNaka",
      "type": "event"
    },
    {
      "stateMutability": "payable",
      "type": "fallback"
    },
    {
      "inputs": [
        {
          "internalType": "uint256",
          "name": "_nakaAmount",
          "type": "uint256"
        }
      ],
      "name": "addPoolReward",
      "outputs": [],
      "stateMutability": "nonpayable",
      "type": "function"
    },
    {
      "inputs": [
        {
          "internalType": "uint256",
          "name": "_nakaAmount",
          "type": "uint256"
        }
      ],
      "name": "claimReward",
      "outputs": [],
      "stateMutability": "nonpayable",
      "type": "function"
    },
    {
      "inputs": [],
      "name": "distributedReward",
      "outputs": [
        {
          "internalType": "uint256",
          "name": "",
          "type": "uint256"
        }
      ],
      "stateMutability": "view",
      "type": "function"
    },
    {
      "inputs": [],
      "name": "duration",
      "outputs": [
        {
          "internalType": "uint256",
          "name": "",
          "type": "uint256"
        }
      ],
      "stateMutability": "view",
      "type": "function"
    },
    {
      "inputs": [],
      "name": "endStakeTime",
      "outputs": [
        {
          "internalType": "uint256",
          "name": "",
          "type": "uint256"
        }
      ],
      "stateMutability": "view",
      "type": "function"
    },
    {
      "inputs": [
        {
          "internalType": "address",
          "name": "_userAddress",
          "type": "address"
        }
      ],
      "name": "getUserClaimedAmount",
      "outputs": [
        {
          "internalType": "uint256",
          "name": "",
          "type": "uint256"
        }
      ],
      "stateMutability": "view",
      "type": "function"
    },
    {
      "inputs": [
        {
          "internalType": "address",
          "name": "_userAddress",
          "type": "address"
        }
      ],
      "name": "getUserStakeAmount",
      "outputs": [
        {
          "internalType": "uint256",
          "name": "",
          "type": "uint256"
        }
      ],
      "stateMutability": "view",
      "type": "function"
    },
    {
      "inputs": [
        {
          "internalType": "address",
          "name": "_userAddress",
          "type": "address"
        }
      ],
      "name": "getUserUnclaimAmount",
      "outputs": [
        {
          "internalType": "uint256",
          "name": "",
          "type": "uint256"
        }
      ],
      "stateMutability": "view",
      "type": "function"
    },
    {
      "inputs": [],
      "name": "nakaTokenAddress",
      "outputs": [
        {
          "internalType": "address",
          "name": "",
          "type": "address"
        }
      ],
      "stateMutability": "view",
      "type": "function"
    },
    {
      "inputs": [],
      "name": "owner",
      "outputs": [
        {
          "internalType": "address",
          "name": "",
          "type": "address"
        }
      ],
      "stateMutability": "view",
      "type": "function"
    },
    {
      "inputs": [],
      "name": "pause",
      "outputs": [],
      "stateMutability": "nonpayable",
      "type": "function"
    },
    {
      "inputs": [],
      "name": "paused",
      "outputs": [
        {
          "internalType": "bool",
          "name": "",
          "type": "bool"
        }
      ],
      "stateMutability": "view",
      "type": "function"
    },
    {
      "inputs": [],
      "name": "percentage",
      "outputs": [
        {
          "internalType": "uint256",
          "name": "",
          "type": "uint256"
        }
      ],
      "stateMutability": "view",
      "type": "function"
    },
    {
      "inputs": [],
      "name": "poolReward",
      "outputs": [
        {
          "internalType": "uint256",
          "name": "",
          "type": "uint256"
        }
      ],
      "stateMutability": "view",
      "type": "function"
    },
    {
      "inputs": [],
      "name": "poolStakeLimit",
      "outputs": [
        {
          "internalType": "uint256",
          "name": "",
          "type": "uint256"
        }
      ],
      "stateMutability": "view",
      "type": "function"
    },
    {
      "inputs": [],
      "name": "poolStakeTotal",
      "outputs": [
        {
          "internalType": "uint256",
          "name": "",
          "type": "uint256"
        }
      ],
      "stateMutability": "view",
      "type": "function"
    },
    {
      "inputs": [],
      "name": "renounceOwnership",
      "outputs": [],
      "stateMutability": "nonpayable",
      "type": "function"
    },
    {
      "inputs": [
        {
          "internalType": "uint256",
          "name": "_nakaAmount",
          "type": "uint256"
        }
      ],
      "name": "stakeNaka",
      "outputs": [],
      "stateMutability": "nonpayable",
      "type": "function"
    },
    {
      "inputs": [],
      "name": "startStakeTime",
      "outputs": [
        {
          "internalType": "uint256",
          "name": "",
          "type": "uint256"
        }
      ],
      "stateMutability": "view",
      "type": "function"
    },
    {
      "inputs": [
        {
          "internalType": "address",
          "name": "newOwner",
          "type": "address"
        }
      ],
      "name": "transferOwnership",
      "outputs": [],
      "stateMutability": "nonpayable",
      "type": "function"
    },
    {
      "inputs": [],
      "name": "unpause",
      "outputs": [],
      "stateMutability": "nonpayable",
      "type": "function"
    },
    {
      "inputs": [
        {
          "internalType": "address",
          "name": "",
          "type": "address"
        }
      ],
      "name": "userInfo",
      "outputs": [
        {
          "internalType": "uint256",
          "name": "stakeAmount",
          "type": "uint256"
        },
        {
          "internalType": "uint256",
          "name": "claimedAmount",
          "type": "uint256"
        }
      ],
      "stateMutability": "view",
      "type": "function"
    },
    {
      "inputs": [],
      "name": "userStakeLimit",
      "outputs": [
        {
          "internalType": "uint256",
          "name": "",
          "type": "uint256"
        }
      ],
      "stateMutability": "view",
      "type": "function"
    },
    {
      "inputs": [],
      "name": "withdrawExceedPoolReward",
      "outputs": [],
      "stateMutability": "nonpayable",
      "type": "function"
    },
    {
      "inputs": [],
      "name": "withdrawNaka",
      "outputs": [],
      "stateMutability": "nonpayable",
      "type": "function"
    },
    {
      "stateMutability": "payable",
      "type": "receive"
    }
  ],
  "bytecode": "0x608060405234801561001057600080fd5b5060405161184638038061184683398101604081905261002f916100cc565b6100383361007c565b60018055600280546001600160a01b03909716610100026001600160a81b031990971696909617909555600493909355600591909155600655600755600a5561012b565b600080546001600160a01b038381166001600160a01b0319831681178455604051919092169283917f8be0079c531659141344cd1fd0a4f28419497f9722a3daafe3b4186f6b6457e09190a35050565b60008060008060008060c087890312156100e557600080fd5b86516001600160a01b03811681146100fc57600080fd5b6020880151604089015160608a015160808b015160a0909b0151939c929b509099909850965090945092505050565b61170c8061013a6000396000f3fe60806040526004361061016a5760003560e01c80638456cb59116100d1578063ad2e8c9b1161008a578063c78ad77f11610064578063c78ad77f146104d2578063e20bdc67146104e8578063f2fde38b146104fe578063fef10b951461051e576101c7565b8063ad2e8c9b14610487578063ae169a501461049c578063b0d079c8146104bc576101c7565b80638456cb59146103cf5780638da5cb5b146103e45780638e96ad4f14610402578063971bdecd1461043b5780639edf8c841461045b578063a58f03aa14610471576101c7565b8063629689161161012357806362968916146102f1578063715018a61461031157806371aec5151461032657806371d8d2fe1461033c5780637612f53c1461037957806380d4848d146103af576101c7565b806311df24fb1461021b57806313061a7e146102445780631959a0021461025b5780633f4ba83a146102a457806356ca06b3146102b95780635c975abb146102ce576101c7565b366101c75760405162461bcd60e51b815260206004820152602260248201527f5b5374616b696e675d2052657665727420726563656976652066756e6374696f604482015261371760f11b60648201526084015b60405180910390fd5b60405162461bcd60e51b815260206004820152602360248201527f5b5374616b696e675d205265766572742066616c6c6261636b2066756e63746960448201526237b71760e91b60648201526084016101be565b34801561022757600080fd5b5061023160085481565b6040519081526020015b60405180910390f35b34801561025057600080fd5b50610259610534565b005b34801561026757600080fd5b5061028f610276366004611449565b6003602052600090815260409020805460019091015482565b6040805192835260208301919091520161023b565b3480156102b057600080fd5b506102596106d1565b3480156102c557600080fd5b5061025961072e565b3480156102da57600080fd5b5060025460ff16604051901515815260200161023b565b3480156102fd57600080fd5b5061023161030c366004611449565b610825565b34801561031d57600080fd5b50610259610930565b34801561033257600080fd5b5061023160045481565b34801561034857600080fd5b506002546103619061010090046001600160a01b031681565b6040516001600160a01b03909116815260200161023b565b34801561038557600080fd5b50610231610394366004611449565b6001600160a01b031660009081526003602052604090205490565b3480156103bb57600080fd5b506102596103ca366004611494565b610966565b3480156103db57600080fd5b50610259610be7565b3480156103f057600080fd5b506000546001600160a01b0316610361565b34801561040e57600080fd5b5061023161041d366004611449565b6001600160a01b031660009081526003602052604090206001015490565b34801561044757600080fd5b50610259610456366004611494565b610c44565b34801561046757600080fd5b50610231600b5481565b34801561047d57600080fd5b5061023160055481565b34801561049357600080fd5b50610231610cd2565b3480156104a857600080fd5b506102596104b7366004611494565b610d41565b3480156104c857600080fd5b5061023160075481565b3480156104de57600080fd5b50610231600a5481565b3480156104f457600080fd5b5061023160065481565b34801561050a57600080fd5b50610259610519366004611449565b610ec7565b34801561052a57600080fd5b5061023160095481565b6005544210156105a55760405162461bcd60e51b815260206004820152603660248201527f5b5374616b696e672e61667465725374616b65456e6465645d205374616b696e60448201527519c81c195c9a5bd9081b9bdd081e595d08195b99195960521b60648201526084016101be565b600260015414156105c85760405162461bcd60e51b81526004016101be90611574565b600260015560006105d833610825565b905080156106645760405162461bcd60e51b815260206004820152604d60248201527f5b5374616b696e672e77697468647261774e616b615d20756e636c61696d206160448201527f6d6f756e742073686f756c64206265207a65726f206265666f7265207573657260648201526c2063616e20776974686472617760981b608482015260a4016101be565b3360008181526003602052604081208181556001018190556106869190610f62565b336000818152600360209081526040918290205491519182527f493740f9c3d071241491123651666920d1e8f26fca11475330ca678e2ed89249910160405180910390a25060018055565b6000546001600160a01b031633146106fb5760405162461bcd60e51b81526004016101be9061153f565b610703611022565b6040517fa75958c26fdcd449db08b7c754dcddd7a15b023665ee9dbd2ef62d8e1befaa4a90600090a1565b6000546001600160a01b031633146107585760405162461bcd60e51b81526004016101be9061153f565b60045442101561077a5760405162461bcd60e51b81526004016101be906115ab565b6000610784610cd2565b9050600061016d606483600a5460085461079e9190611634565b6107a89190611634565b6107b29190611620565b6107bc9190611620565b6009546107c99190611653565b905080600960008282546107dd9190611653565b909155506107ed90503382610f62565b6040518181527f32d16c5207153044a7c868d7b721327f1858b1a7ed55aa1ccf41c71d4f008446906020015b60405180910390a15050565b6001600160a01b0381166000908152600360209081526040808320815180830190925280548252600101549181019190915281610860610cd2565b90506000620151806108728142611696565b61087c9042611653565b6108869190611620565b90506000620151808060045461089c9190611696565b6004546108a99190611653565b6108b39190611620565b90506000836108c28385611653565b116108d6576108d18284611653565b6108d8565b835b9050600061016d606483600a5489600001516108f49190611634565b6108fe9190611634565b6109089190611620565b6109129190611620565b90508560200151816109249190611653565b98975050505050505050565b6000546001600160a01b0316331461095a5760405162461bcd60e51b81526004016101be9061153f565b61096460006110b5565b565b60045442106109d35760405162461bcd60e51b815260206004820152603360248201527f5b5374616b696e672e6265666f72655374616b65537461727465645d205374616044820152721ada5b99c81c195c9a5bd9081cdd185c9d1959606a1b60648201526084016101be565b60025460ff16156109f65760405162461bcd60e51b81526004016101be90611515565b60026001541415610a195760405162461bcd60e51b81526004016101be90611574565b600260015560065433600090815260036020526040902054610a3b9083611608565b1115610abd5760405162461bcd60e51b815260206004820152604560248201527f5b5374616b696e672e7374616b654e616b615d20746f74616c207374616b652060448201527f616d6f756e742073686f756c64206265206c657373207468616e2075736572206064820152641b1a5b5a5d60da1b608482015260a4016101be565b600754600854610acd9083611608565b1115610b4f5760405162461bcd60e51b815260206004820152604560248201527f5b5374616b696e672e7374616b654e616b615d20746f74616c207374616b652060448201527f616d6f756e742073686f756c64206265206c657373207468616e20706f6f6c206064820152641b1a5b5a5d60da1b608482015260a4016101be565b60025461010090046001600160a01b0316610b6c81333085611105565b3360009081526003602052604081208054849290610b8b908490611608565b925050819055508160086000828254610ba49190611608565b909155505060405182815233907f6fe46bb50339d26311b4ed81fd49ba5c04e4c27b0c5a212f65f4d3a5d0c76cf0906020015b60405180910390a2505060018055565b6000546001600160a01b03163314610c115760405162461bcd60e51b81526004016101be9061153f565b610c19611170565b6040517f26d1807b479eaba249c1214b82e4b65bbb0cc73ee8a17901324b1ef1b5904e4990600090a1565b6000546001600160a01b03163314610c6e5760405162461bcd60e51b81526004016101be9061153f565b60025461010090046001600160a01b0316610c8b81333085611105565b8160096000828254610c9d9190611608565b90915550506040518281527f343a996c42574d90e4ace8418fab63dd38adc037aeb70c2618efc5aba7523c0290602001610819565b6000806201518080600454610ce79190611696565b600454610cf49190611653565b610cfe9190611620565b905060006201518080600554610d149190611696565b600554610d219190611653565b610d2b9190611620565b90506000610d398383611653565b949350505050565b600454421015610d635760405162461bcd60e51b81526004016101be906115ab565b60026001541415610d865760405162461bcd60e51b81526004016101be90611574565b6002600155610d9760025460ff1690565b15610db45760405162461bcd60e51b81526004016101be90611515565b6000610dbf33610825565b905080821115610e4a5760405162461bcd60e51b815260206004820152604a60248201527f5b5374616b696e672e636c61696d5265776172645d20636c61696d20616d6f7560448201527f6e742073686f756c64206265206c657373207468616e207573657220756e636c606482015269185a5b48185b5bdd5b9d60b21b608482015260a4016101be565b3360009081526003602052604081206001018054849290610e6c908490611608565b9250508190555081600b6000828254610e859190611608565b90915550610e9590503383610f62565b60405182815233907f106f923f993c2149d49b4255ff723acafa1f2d94393f561d3eda32ae348f724190602001610bd7565b6000546001600160a01b03163314610ef15760405162461bcd60e51b81526004016101be9061153f565b6001600160a01b038116610f565760405162461bcd60e51b815260206004820152602660248201527f4f776e61626c653a206e6577206f776e657220697320746865207a65726f206160448201526564647265737360d01b60648201526084016101be565b610f5f816110b5565b50565b6002546040516370a0823160e01b81523060048201526101009091046001600160a01b03169060009082906370a082319060240160206040518083038186803b158015610fae57600080fd5b505afa158015610fc2573d6000803e3d6000fd5b505050506040513d601f19601f82011682018060405250810190610fe691906114ad565b9050808310611008576110036001600160a01b03831685836111c8565b61101c565b61101c6001600160a01b03831685856111c8565b50505050565b60025460ff1661106b5760405162461bcd60e51b815260206004820152601460248201527314185d5cd8589b194e881b9bdd081c185d5cd95960621b60448201526064016101be565b6002805460ff191690557f5db9ee0a495bf2e6ff9c91a7834c1ba4fdd244a5e8aa4e537bd38aeae4b073aa335b6040516001600160a01b03909116815260200160405180910390a1565b600080546001600160a01b038381166001600160a01b0319831681178455604051919092169283917f8be0079c531659141344cd1fd0a4f28419497f9722a3daafe3b4186f6b6457e09190a35050565b6040516001600160a01b038085166024830152831660448201526064810182905261101c9085906323b872dd60e01b906084015b60408051601f198184030181529190526020810180516001600160e01b03166001600160e01b0319909316929092179091526111fd565b60025460ff16156111935760405162461bcd60e51b81526004016101be90611515565b6002805460ff191660011790557f62e78cea01bee320cd4e420270b5ea74000d11b0c9f74754ebdbfc544b05a2586110983390565b6040516001600160a01b0383166024820152604481018290526111f890849063a9059cbb60e01b90606401611139565b505050565b6000611252826040518060400160405280602081526020017f5361666545524332303a206c6f772d6c6576656c2063616c6c206661696c6564815250856001600160a01b03166112cf9092919063ffffffff16565b8051909150156111f857808060200190518101906112709190611472565b6111f85760405162461bcd60e51b815260206004820152602a60248201527f5361666545524332303a204552433230206f7065726174696f6e20646964206e6044820152691bdd081cdd58d8d9595960b21b60648201526084016101be565b60606112de84846000856112e8565b90505b9392505050565b6060824710156113495760405162461bcd60e51b815260206004820152602660248201527f416464726573733a20696e73756666696369656e742062616c616e636520666f6044820152651c8818d85b1b60d21b60648201526084016101be565b843b6113975760405162461bcd60e51b815260206004820152601d60248201527f416464726573733a2063616c6c20746f206e6f6e2d636f6e747261637400000060448201526064016101be565b600080866001600160a01b031685876040516113b391906114c6565b60006040518083038185875af1925050503d80600081146113f0576040519150601f19603f3d011682016040523d82523d6000602084013e6113f5565b606091505b5091509150611405828286611410565b979650505050505050565b6060831561141f5750816112e1565b82511561142f5782518084602001fd5b8160405162461bcd60e51b81526004016101be91906114e2565b60006020828403121561145b57600080fd5b81356001600160a01b03811681146112e157600080fd5b60006020828403121561148457600080fd5b815180151581146112e157600080fd5b6000602082840312156114a657600080fd5b5035919050565b6000602082840312156114bf57600080fd5b5051919050565b600082516114d881846020870161166a565b9190910192915050565b602081526000825180602084015261150181604085016020870161166a565b601f01601f19169190910160400192915050565b60208082526010908201526f14185d5cd8589b194e881c185d5cd95960821b604082015260600190565b6020808252818101527f4f776e61626c653a2063616c6c6572206973206e6f7420746865206f776e6572604082015260600190565b6020808252601f908201527f5265656e7472616e637947756172643a207265656e7472616e742063616c6c00604082015260600190565b6020808252603a908201527f5b5374616b696e672e61667465725374616b65537461727465645d205374616b60408201527f696e6720706572696f64206e6f74207965742073746172746564000000000000606082015260800190565b6000821982111561161b5761161b6116aa565b500190565b60008261162f5761162f6116c0565b500490565b600081600019048311821515161561164e5761164e6116aa565b500290565b600082821015611665576116656116aa565b500390565b60005b8381101561168557818101518382015260200161166d565b8381111561101c5750506000910152565b6000826116a5576116a56116c0565b500690565b634e487b7160e01b600052601160045260246000fd5b634e487b7160e01b600052601260045260246000fdfea2646970667358221220754701142a73b43988ec93f51f914881f14de167a4cda8fa08df3f401726b05864736f6c63430008070033",
  "linkReferences": {},
  "deployedLinkReferences": {}
}