{
  "_format": "hh-sol-artifact-1",
  "contractName": "UserGameItems",
  "sourceName": "contracts/UserGameItems.sol",
  "abi": [
    {
      "inputs": [
        {
          "internalType": "address",
          "name": "_vaultItemAddress",
          "type": "address"
        },
        {
          "internalType": "address",
          "name": "_adminAccount",
          "type": "address"
        },
        {
          "internalType": "string",
          "name": "_name",
          "type": "string"
        },
        {
          "internalType": "string",
          "name": "_symbol",
          "type": "string"
        },
        {
          "internalType": "string",
          "name": "_uri",
          "type": "string"
        }
      ],
      "stateMutability": "nonpayable",
      "type": "constructor"
    },
    {
      "anonymous": false,
      "inputs": [
        {
          "indexed": true,
          "internalType": "address",
          "name": "account",
          "type": "address"
        },
        {
          "indexed": true,
          "internalType": "address",
          "name": "operator",
          "type": "address"
        },
        {
          "indexed": false,
          "internalType": "bool",
          "name": "approved",
          "type": "bool"
        }
      ],
      "name": "ApprovalForAll",
      "type": "event"
    },
    {
      "anonymous": false,
      "inputs": [
        {
          "indexed": true,
          "internalType": "address",
          "name": "previousOwner",
          "type": "address"
        },
        {
          "indexed": true,
          "internalType": "address",
          "name": "newOwner",
          "type": "address"
        }
      ],
      "name": "OwnershipTransferred",
      "type": "event"
    },
    {
      "anonymous": false,
      "inputs": [
        {
          "indexed": true,
          "internalType": "address",
          "name": "vaultAddress",
          "type": "address"
        }
      ],
      "name": "SetVaultItemAddress",
      "type": "event"
    },
    {
      "anonymous": false,
      "inputs": [
        {
          "indexed": true,
          "internalType": "address",
          "name": "operator",
          "type": "address"
        },
        {
          "indexed": true,
          "internalType": "address",
          "name": "from",
          "type": "address"
        },
        {
          "indexed": true,
          "internalType": "address",
          "name": "to",
          "type": "address"
        },
        {
          "indexed": false,
          "internalType": "uint256[]",
          "name": "ids",
          "type": "uint256[]"
        },
        {
          "indexed": false,
          "internalType": "uint256[]",
          "name": "values",
          "type": "uint256[]"
        }
      ],
      "name": "TransferBatch",
      "type": "event"
    },
    {
      "anonymous": false,
      "inputs": [
        {
          "indexed": true,
          "internalType": "address",
          "name": "operator",
          "type": "address"
        },
        {
          "indexed": true,
          "internalType": "address",
          "name": "from",
          "type": "address"
        },
        {
          "indexed": true,
          "internalType": "address",
          "name": "to",
          "type": "address"
        },
        {
          "indexed": false,
          "internalType": "uint256",
          "name": "id",
          "type": "uint256"
        },
        {
          "indexed": false,
          "internalType": "uint256",
          "name": "value",
          "type": "uint256"
        }
      ],
      "name": "TransferSingle",
      "type": "event"
    },
    {
      "anonymous": false,
      "inputs": [
        {
          "indexed": false,
          "internalType": "string",
          "name": "value",
          "type": "string"
        },
        {
          "indexed": true,
          "internalType": "uint256",
          "name": "id",
          "type": "uint256"
        }
      ],
      "name": "URI",
      "type": "event"
    },
    {
      "inputs": [
        {
          "internalType": "address",
          "name": "account",
          "type": "address"
        },
        {
          "internalType": "uint256",
          "name": "id",
          "type": "uint256"
        }
      ],
      "name": "balanceOf",
      "outputs": [
        {
          "internalType": "uint256",
          "name": "",
          "type": "uint256"
        }
      ],
      "stateMutability": "view",
      "type": "function"
    },
    {
      "inputs": [
        {
          "internalType": "address[]",
          "name": "accounts",
          "type": "address[]"
        },
        {
          "internalType": "uint256[]",
          "name": "ids",
          "type": "uint256[]"
        }
      ],
      "name": "balanceOfBatch",
      "outputs": [
        {
          "internalType": "uint256[]",
          "name": "",
          "type": "uint256[]"
        }
      ],
      "stateMutability": "view",
      "type": "function"
    },
    {
      "inputs": [
        {
          "internalType": "address",
          "name": "_userAddress",
          "type": "address"
        },
        {
          "internalType": "uint256[]",
          "name": "_itemIds",
          "type": "uint256[]"
        },
        {
          "internalType": "uint256[]",
          "name": "_itemAmounts",
          "type": "uint256[]"
        }
      ],
      "name": "burnBatchFromUserWallet",
      "outputs": [],
      "stateMutability": "nonpayable",
      "type": "function"
    },
    {
      "inputs": [
        {
          "internalType": "address",
          "name": "_userAddress",
          "type": "address"
        },
        {
          "internalType": "uint256",
          "name": "_itemId",
          "type": "uint256"
        },
        {
          "internalType": "uint256",
          "name": "_itemAmount",
          "type": "uint256"
        }
      ],
      "name": "burnFromUserWallet",
      "outputs": [],
      "stateMutability": "nonpayable",
      "type": "function"
    },
    {
      "inputs": [
        {
          "internalType": "address",
          "name": "_newAccount",
          "type": "address"
        }
      ],
      "name": "changeAdminAccount",
      "outputs": [
        {
          "internalType": "address",
          "name": "",
          "type": "address"
        }
      ],
      "stateMutability": "nonpayable",
      "type": "function"
    },
    {
      "inputs": [
        {
          "internalType": "uint256",
          "name": "_id",
          "type": "uint256"
        }
      ],
      "name": "checkTotalSupply",
      "outputs": [
        {
          "internalType": "uint256",
          "name": "",
          "type": "uint256"
        }
      ],
      "stateMutability": "view",
      "type": "function"
    },
    {
      "inputs": [
        {
          "internalType": "uint256",
          "name": "_initialSupply",
          "type": "uint256"
        },
        {
          "internalType": "bytes",
          "name": "_data",
          "type": "bytes"
        }
      ],
      "name": "create",
      "outputs": [
        {
          "internalType": "uint256",
          "name": "",
          "type": "uint256"
        }
      ],
      "stateMutability": "nonpayable",
      "type": "function"
    },
    {
      "inputs": [
        {
          "internalType": "uint256",
          "name": "",
          "type": "uint256"
        }
      ],
      "name": "creators",
      "outputs": [
        {
          "internalType": "address",
          "name": "",
          "type": "address"
        }
      ],
      "stateMutability": "view",
      "type": "function"
    },
    {
      "inputs": [
        {
          "internalType": "address",
          "name": "account",
          "type": "address"
        },
        {
          "internalType": "address",
          "name": "operator",
          "type": "address"
        }
      ],
      "name": "isApprovedForAll",
      "outputs": [
        {
          "internalType": "bool",
          "name": "",
          "type": "bool"
        }
      ],
      "stateMutability": "view",
      "type": "function"
    },
    {
      "inputs": [
        {
          "internalType": "address",
          "name": "_userAddress",
          "type": "address"
        },
        {
          "internalType": "uint256[]",
          "name": "_itemIds",
          "type": "uint256[]"
        },
        {
          "internalType": "uint256[]",
          "name": "_itemAmounts",
          "type": "uint256[]"
        },
        {
          "internalType": "bytes",
          "name": "_data",
          "type": "bytes"
        }
      ],
      "name": "mintBatchToUserWallet",
      "outputs": [],
      "stateMutability": "nonpayable",
      "type": "function"
    },
    {
      "inputs": [
        {
          "internalType": "address",
          "name": "_userAddress",
          "type": "address"
        },
        {
          "internalType": "uint256",
          "name": "_itemId",
          "type": "uint256"
        },
        {
          "internalType": "uint256",
          "name": "_itemAmount",
          "type": "uint256"
        },
        {
          "internalType": "bytes",
          "name": "_data",
          "type": "bytes"
        }
      ],
      "name": "mintToUserWallet",
      "outputs": [],
      "stateMutability": "nonpayable",
      "type": "function"
    },
    {
      "inputs": [],
      "name": "name",
      "outputs": [
        {
          "internalType": "string",
          "name": "",
          "type": "string"
        }
      ],
      "stateMutability": "view",
      "type": "function"
    },
    {
      "inputs": [],
      "name": "owner",
      "outputs": [
        {
          "internalType": "address",
          "name": "",
          "type": "address"
        }
      ],
      "stateMutability": "view",
      "type": "function"
    },
    {
      "inputs": [],
      "name": "renounceOwnership",
      "outputs": [],
      "stateMutability": "nonpayable",
      "type": "function"
    },
    {
      "inputs": [
        {
          "internalType": "address",
          "name": "from",
          "type": "address"
        },
        {
          "internalType": "address",
          "name": "to",
          "type": "address"
        },
        {
          "internalType": "uint256[]",
          "name": "ids",
          "type": "uint256[]"
        },
        {
          "internalType": "uint256[]",
          "name": "amounts",
          "type": "uint256[]"
        },
        {
          "internalType": "bytes",
          "name": "data",
          "type": "bytes"
        }
      ],
      "name": "safeBatchTransferFrom",
      "outputs": [],
      "stateMutability": "nonpayable",
      "type": "function"
    },
    {
      "inputs": [
        {
          "internalType": "address",
          "name": "from",
          "type": "address"
        },
        {
          "internalType": "address",
          "name": "to",
          "type": "address"
        },
        {
          "internalType": "uint256",
          "name": "id",
          "type": "uint256"
        },
        {
          "internalType": "uint256",
          "name": "amount",
          "type": "uint256"
        },
        {
          "internalType": "bytes",
          "name": "data",
          "type": "bytes"
        }
      ],
      "name": "safeTransferFrom",
      "outputs": [],
      "stateMutability": "nonpayable",
      "type": "function"
    },
    {
      "inputs": [
        {
          "internalType": "address",
          "name": "operator",
          "type": "address"
        },
        {
          "internalType": "bool",
          "name": "approved",
          "type": "bool"
        }
      ],
      "name": "setApprovalForAll",
      "outputs": [],
      "stateMutability": "nonpayable",
      "type": "function"
    },
    {
      "inputs": [
        {
          "internalType": "string",
          "name": "_uri",
          "type": "string"
        }
      ],
      "name": "setURI",
      "outputs": [],
      "stateMutability": "nonpayable",
      "type": "function"
    },
    {
      "inputs": [
        {
          "internalType": "bytes4",
          "name": "interfaceId",
          "type": "bytes4"
        }
      ],
      "name": "supportsInterface",
      "outputs": [
        {
          "internalType": "bool",
          "name": "",
          "type": "bool"
        }
      ],
      "stateMutability": "view",
      "type": "function"
    },
    {
      "inputs": [],
      "name": "symbol",
      "outputs": [
        {
          "internalType": "string",
          "name": "",
          "type": "string"
        }
      ],
      "stateMutability": "view",
      "type": "function"
    },
    {
      "inputs": [],
      "name": "tokenId",
      "outputs": [
        {
          "internalType": "uint256",
          "name": "",
          "type": "uint256"
        }
      ],
      "stateMutability": "view",
      "type": "function"
    },
    {
      "inputs": [
        {
          "internalType": "address",
          "name": "newOwner",
          "type": "address"
        }
      ],
      "name": "transferOwnership",
      "outputs": [],
      "stateMutability": "nonpayable",
      "type": "function"
    },
    {
      "inputs": [
        {
          "internalType": "uint256",
          "name": "",
          "type": "uint256"
        }
      ],
      "name": "uri",
      "outputs": [
        {
          "internalType": "string",
          "name": "",
          "type": "string"
        }
      ],
      "stateMutability": "view",
      "type": "function"
    },
    {
      "inputs": [],
      "name": "vaultItem",
      "outputs": [
        {
          "internalType": "contract IItemVault",
          "name": "",
          "type": "address"
        }
      ],
      "stateMutability": "view",
      "type": "function"
    }
  ],
  "bytecode": "0x60806040523480156200001157600080fd5b5060405162002c8538038062002c858339810160408190526200003491620002c4565b806200004081620000df565b506200004c33620000f8565b8251620000619060089060208601906200014a565b508151620000779060099060208501906200014a565b50600580546001600160a01b038087166001600160a01b0319928316179092556001600a556004805492881692909116821790556040517fdbcb3f2f826be362c0228d61ce58103fffe97b4cf0b5facf0c73c1e60f31398890600090a25050505050620003cf565b8051620000f49060029060208401906200014a565b5050565b600380546001600160a01b038381166001600160a01b0319831681179093556040519116919082907f8be0079c531659141344cd1fd0a4f28419497f9722a3daafe3b4186f6b6457e090600090a35050565b82805462000158906200037c565b90600052602060002090601f0160209004810192826200017c5760008555620001c7565b82601f106200019757805160ff1916838001178555620001c7565b82800160010185558215620001c7579182015b82811115620001c7578251825591602001919060010190620001aa565b50620001d5929150620001d9565b5090565b5b80821115620001d55760008155600101620001da565b80516001600160a01b03811681146200020857600080fd5b919050565b600082601f8301126200021f57600080fd5b81516001600160401b03808211156200023c576200023c620003b9565b604051601f8301601f19908116603f01168101908282118183101715620002675762000267620003b9565b816040528381526020925086838588010111156200028457600080fd5b600091505b83821015620002a8578582018301518183018401529082019062000289565b83821115620002ba5760008385830101525b9695505050505050565b600080600080600060a08688031215620002dd57600080fd5b620002e886620001f0565b9450620002f860208701620001f0565b60408701519094506001600160401b03808211156200031657600080fd5b6200032489838a016200020d565b945060608801519150808211156200033b57600080fd5b6200034989838a016200020d565b935060808801519150808211156200036057600080fd5b506200036f888289016200020d565b9150509295509295909350565b600181811c908216806200039157607f821691505b60208210811415620003b357634e487b7160e01b600052602260045260246000fd5b50919050565b634e487b7160e01b600052604160045260246000fd5b6128a680620003df6000396000f3fe608060405234801561001057600080fd5b50600436106101575760003560e01c8063715018a6116100c3578063cd53d08e1161007c578063cd53d08e146102e9578063e985e9c514610312578063f0d5c8111461034e578063f242432a14610361578063f2fde38b14610374578063fd7230d61461038757600080fd5b8063715018a614610282578063850181461461028a5780638da5cb5b146102aa57806395d89b41146102bb578063a22cb465146102c3578063ac183f54146102d657600080fd5b806317d70f7c1161011557806317d70f7c146101f55780632eb2c2d6146101fe57806338b4c05314610211578063395119ed146102245780634e1273f4146102375780636fedf9c01461025757600080fd5b8062fdd58e1461015c57806301ffc9a71461018257806302fe5305146101a5578063042c927f146101ba57806306fdde03146101cd5780630e89341c146101e2575b600080fd5b61016f61016a366004612014565b61039a565b6040519081526020015b60405180910390f35b610195610190366004612195565b610431565b6040519015158152602001610179565b6101b86101b33660046121cf565b610483565b005b6101b86101c836600461203e565b6104b9565b6101d561069d565b6040516101799190612401565b6101d56101f036600461221f565b61072b565b61016f600a5481565b6101b861020c366004611dc0565b6107bf565b6101b861021f366004612071565b610856565b6101b8610232366004611ecd565b610960565b61024a6102453660046120c5565b610b76565b60405161017991906123c0565b61026a610265366004611d72565b610c9f565b6040516001600160a01b039091168152602001610179565b6101b8610cf1565b61016f61029836600461221f565b60009081526007602052604090205490565b6003546001600160a01b031661026a565b6101d5610d27565b6101b86102d1366004611fd8565b610d34565b6101b86102e4366004611f40565b610e0b565b61026a6102f736600461221f565b6006602052600090815260409020546001600160a01b031681565b610195610320366004611d8d565b6001600160a01b03918216600090815260016020908152604080832093909416825291909152205460ff1690565b60045461026a906001600160a01b031681565b6101b861036f366004611e69565b610feb565b6101b8610382366004611d72565b611072565b61016f610395366004612238565b61110a565b60006001600160a01b03831661040b5760405162461bcd60e51b815260206004820152602b60248201527f455243313135353a2062616c616e636520717565727920666f7220746865207a60448201526a65726f206164647265737360a81b60648201526084015b60405180910390fd5b506000908152602081815260408083206001600160a01b03949094168352929052205490565b60006001600160e01b03198216636cdb3d1360e11b148061046257506001600160e01b031982166303a24d0760e21b145b8061047d57506301ffc9a760e01b6001600160e01b03198316145b92915050565b6003546001600160a01b031633146104ad5760405162461bcd60e51b8152600401610402906125e1565b6104b68161118c565b50565b826001600160a01b0381163314806104d657506104d68133610320565b6104f25760405162461bcd60e51b81526004016104029061245c565b6000826104ff868661039a565b61050991906126da565b10156105765760405162461bcd60e51b815260206004820152603660248201527f5b5573657247616d654974656d732e6275726e5d2043616e2774206275726e2060448201527506974656d20746f206265206c657373207468616e20360541b6064820152608401610402565b6000838152600760205260408120546105909084906126da565b10156106045760405162461bcd60e51b815260206004820152603d60248201527f5b5573657247616d654974656d732e6275726e5d2043616e2774206275726e2060448201527f746f74616c537570706c7920746f206265206c657373207468616e20300000006064820152608401610402565b600480546040516338f47b0760e01b81526001600160a01b03909116916338f47b0791610637918891889188910161239f565b600060405180830381600087803b15801561065157600080fd5b505af1158015610665573d6000803e3d6000fd5b505050506106748484846111a3565b600083815260076020526040812080548492906106929084906126da565b909155505050505050565b600880546106aa906126f1565b80601f01602080910402602001604051908101604052809291908181526020018280546106d6906126f1565b80156107235780601f106106f857610100808354040283529160200191610723565b820191906000526020600020905b81548152906001019060200180831161070657829003601f168201915b505050505081565b60606002805461073a906126f1565b80601f0160208091040260200160405190810160405280929190818152602001828054610766906126f1565b80156107b35780601f10610788576101008083540402835291602001916107b3565b820191906000526020600020905b81548152906001019060200180831161079657829003601f168201915b50505050509050919050565b6001600160a01b0385163314806107db57506107db8533610320565b6108425760405162461bcd60e51b815260206004820152603260248201527f455243313135353a207472616e736665722063616c6c6572206973206e6f74206044820152711bdddb995c881b9bdc88185c1c1c9bdd995960721b6064820152608401610402565b61084f85858585856112a5565b5050505050565b610860848461039a565b8261086b868661039a565b61087591906126c2565b10156108d15760405162461bcd60e51b815260206004820152602560248201527f5b5573657247616d654974656d732e6d696e745d2042616c616e6365206f766560448201526472666c6f7760d81b6064820152608401610402565b6004805460405163350c90d760e01b81526001600160a01b039091169163350c90d791610904918891889188910161239f565b600060405180830381600087803b15801561091e57600080fd5b505af1158015610932573d6000803e3d6000fd5b5050505061094284848484611441565b600083815260076020526040812080548492906106929084906126c2565b826001600160a01b03811633148061097d575061097d8133610320565b6109995760405162461bcd60e51b81526004016104029061245c565b6109a4848484611511565b60005b835181101561084f5760008382815181106109c4576109c4612789565b6020026020010151600760008785815181106109e2576109e2612789565b6020026020010151815260200190815260200160002054610a0391906126da565b1015610a6e5760405162461bcd60e51b815260206004820152603460248201527f5b6275726e42617463685d2043616e2774206275726e20746f74616c5375707060448201527306c7920746f206265206c657373207468616e20360641b6064820152608401610402565b60045484516001600160a01b03909116906338f47b07908790879085908110610a9957610a99612789565b6020026020010151868581518110610ab357610ab3612789565b60200260200101516040518463ffffffff1660e01b8152600401610ad99392919061239f565b600060405180830381600087803b158015610af357600080fd5b505af1158015610b07573d6000803e3d6000fd5b50505050828181518110610b1d57610b1d612789565b602002602001015160076000868481518110610b3b57610b3b612789565b602002602001015181526020019081526020016000206000828254610b6091906126da565b90915550610b6f905081612758565b90506109a7565b60608151835114610bdb5760405162461bcd60e51b815260206004820152602960248201527f455243313135353a206163636f756e747320616e6420696473206c656e677468604482015268040dad2e6dac2e8c6d60bb1b6064820152608401610402565b600083516001600160401b03811115610bf657610bf661279f565b604051908082528060200260200182016040528015610c1f578160200160208202803683370190505b50905060005b8451811015610c9757610c6a858281518110610c4357610c43612789565b6020026020010151858381518110610c5d57610c5d612789565b602002602001015161039a565b828281518110610c7c57610c7c612789565b6020908102919091010152610c9081612758565b9050610c25565b509392505050565b6003546000906001600160a01b03163314610ccc5760405162461bcd60e51b8152600401610402906125e1565b50600580546001600160a01b0319166001600160a01b0383169081179091555b919050565b6003546001600160a01b03163314610d1b5760405162461bcd60e51b8152600401610402906125e1565b610d25600061168d565b565b600980546106aa906126f1565b336001600160a01b0383161415610d9f5760405162461bcd60e51b815260206004820152602960248201527f455243313135353a2073657474696e6720617070726f76616c20737461747573604482015268103337b91039b2b63360b91b6064820152608401610402565b3360008181526001602090815260408083206001600160a01b03871680855290835292819020805460ff191686151590811790915590519081529192917f17307eab39ab6107e8899845ad3d59bd9653f200f220920489ca2b5937696c31910160405180910390a35050565b60005b8351811015610eca57336001600160a01b031660066000868481518110610e3757610e37612789565b6020908102919091018101518252810191909152604001600020546001600160a01b031614610eba5760405162461bcd60e51b815260206004820152602960248201527f5573657247616d654974656d732e736f6c3a2043616c6c6572206973206e6f746044820152682063726561746f727360b81b6064820152608401610402565b610ec381612758565b9050610e0e565b50610ed7848484846116df565b60005b835181101561084f5760045484516001600160a01b039091169063350c90d7908790879085908110610f0e57610f0e612789565b6020026020010151868581518110610f2857610f28612789565b60200260200101516040518463ffffffff1660e01b8152600401610f4e9392919061239f565b600060405180830381600087803b158015610f6857600080fd5b505af1158015610f7c573d6000803e3d6000fd5b50505050828181518110610f9257610f92612789565b602002602001015160076000868481518110610fb057610fb0612789565b602002602001015181526020019081526020016000206000828254610fd591906126c2565b90915550610fe4905081612758565b9050610eda565b6001600160a01b03851633148061100757506110078533610320565b6110655760405162461bcd60e51b815260206004820152602960248201527f455243313135353a2063616c6c6572206973206e6f74206f776e6572206e6f7260448201526808185c1c1c9bdd995960ba1b6064820152608401610402565b61084f858585858561182a565b6003546001600160a01b0316331461109c5760405162461bcd60e51b8152600401610402906125e1565b6001600160a01b0381166111015760405162461bcd60e51b815260206004820152602660248201527f4f776e61626c653a206e6577206f776e657220697320746865207a65726f206160448201526564647265737360d01b6064820152608401610402565b6104b68161168d565b6003546000906001600160a01b031633146111375760405162461bcd60e51b8152600401610402906125e1565b600a5461114633828686611441565b60008181526007602090815260408083208790556006909152812080546001600160a01b03191633179055600a80549161117f83612758565b9091555090949350505050565b805161119f906002906020840190611bc7565b5050565b6001600160a01b0383166111c95760405162461bcd60e51b815260040161040290612554565b336111f9818560006111da87611947565b6111e387611947565b5050604080516020810190915260009052505050565b6000838152602081815260408083206001600160a01b03881684529091529020548281101561123a5760405162461bcd60e51b8152600401610402906124cb565b6000848152602081815260408083206001600160a01b03898116808652918452828520888703905582518981529384018890529092908616917fc3d58168c5ae7397731d063d5bbf3d657854427343f4c083240f7aacaa2d0f62910160405180910390a45050505050565b81518351146112c65760405162461bcd60e51b815260040161040290612616565b6001600160a01b0384166112ec5760405162461bcd60e51b81526004016104029061250f565b3360005b84518110156113d357600085828151811061130d5761130d612789565b60200260200101519050600085838151811061132b5761132b612789565b602090810291909101810151600084815280835260408082206001600160a01b038e16835290935291909120549091508181101561137b5760405162461bcd60e51b815260040161040290612597565b6000838152602081815260408083206001600160a01b038e8116855292528083208585039055908b168252812080548492906113b89084906126c2565b92505081905550505050806113cc90612758565b90506112f0565b50846001600160a01b0316866001600160a01b0316826001600160a01b03167f4a39dc06d4c0dbc64b70af90fd698a233a518aa5d07e595d983b8c0526c8f7fb87876040516114239291906123d3565b60405180910390a4611439818787878787611992565b505050505050565b6001600160a01b0384166114675760405162461bcd60e51b81526004016104029061265e565b336114818160008761147888611947565b61084f88611947565b6000848152602081815260408083206001600160a01b0389168452909152812080548592906114b19084906126c2565b909155505060408051858152602081018590526001600160a01b0380881692600092918516917fc3d58168c5ae7397731d063d5bbf3d657854427343f4c083240f7aacaa2d0f62910160405180910390a461084f81600087878787611afd565b6001600160a01b0383166115375760405162461bcd60e51b815260040161040290612554565b80518251146115585760405162461bcd60e51b815260040161040290612616565b604080516020810190915260009081905233905b835181101561162e57600084828151811061158957611589612789565b6020026020010151905060008483815181106115a7576115a7612789565b602090810291909101810151600084815280835260408082206001600160a01b038c1683529093529190912054909150818110156115f75760405162461bcd60e51b8152600401610402906124cb565b6000928352602083815260408085206001600160a01b038b168652909152909220910390558061162681612758565b91505061156c565b5060006001600160a01b0316846001600160a01b0316826001600160a01b03167f4a39dc06d4c0dbc64b70af90fd698a233a518aa5d07e595d983b8c0526c8f7fb868660405161167f9291906123d3565b60405180910390a450505050565b600380546001600160a01b038381166001600160a01b0319831681179093556040519116919082907f8be0079c531659141344cd1fd0a4f28419497f9722a3daafe3b4186f6b6457e090600090a35050565b6001600160a01b0384166117055760405162461bcd60e51b81526004016104029061265e565b81518351146117265760405162461bcd60e51b815260040161040290612616565b3360005b84518110156117c25783818151811061174557611745612789565b602002602001015160008087848151811061176257611762612789565b602002602001015181526020019081526020016000206000886001600160a01b03166001600160a01b0316815260200190815260200160002060008282546117aa91906126c2565b909155508190506117ba81612758565b91505061172a565b50846001600160a01b031660006001600160a01b0316826001600160a01b03167f4a39dc06d4c0dbc64b70af90fd698a233a518aa5d07e595d983b8c0526c8f7fb87876040516118139291906123d3565b60405180910390a461084f81600087878787611992565b6001600160a01b0384166118505760405162461bcd60e51b81526004016104029061250f565b3361186081878761147888611947565b6000848152602081815260408083206001600160a01b038a168452909152902054838110156118a15760405162461bcd60e51b815260040161040290612597565b6000858152602081815260408083206001600160a01b038b81168552925280832087850390559088168252812080548692906118de9084906126c2565b909155505060408051868152602081018690526001600160a01b03808916928a821692918616917fc3d58168c5ae7397731d063d5bbf3d657854427343f4c083240f7aacaa2d0f62910160405180910390a461193e828888888888611afd565b50505050505050565b6040805160018082528183019092526060916000919060208083019080368337019050509050828160008151811061198157611981612789565b602090810291909101015292915050565b6001600160a01b0384163b156114395760405163bc197c8160e01b81526001600160a01b0385169063bc197c81906119d690899089908890889088906004016122fc565b602060405180830381600087803b1580156119f057600080fd5b505af1925050508015611a20575060408051601f3d908101601f19168201909252611a1d918101906121b2565b60015b611acd57611a2c6127b5565b806308c379a01415611a665750611a416127d1565b80611a4c5750611a68565b8060405162461bcd60e51b81526004016104029190612401565b505b60405162461bcd60e51b815260206004820152603460248201527f455243313135353a207472616e7366657220746f206e6f6e20455243313135356044820152732932b1b2b4bb32b91034b6b83632b6b2b73a32b960611b6064820152608401610402565b6001600160e01b0319811663bc197c8160e01b1461193e5760405162461bcd60e51b815260040161040290612414565b6001600160a01b0384163b156114395760405163f23a6e6160e01b81526001600160a01b0385169063f23a6e6190611b41908990899088908890889060040161235a565b602060405180830381600087803b158015611b5b57600080fd5b505af1925050508015611b8b575060408051601f3d908101601f19168201909252611b88918101906121b2565b60015b611b9757611a2c6127b5565b6001600160e01b0319811663f23a6e6160e01b1461193e5760405162461bcd60e51b815260040161040290612414565b828054611bd3906126f1565b90600052602060002090601f016020900481019282611bf55760008555611c3b565b82601f10611c0e57805160ff1916838001178555611c3b565b82800160010185558215611c3b579182015b82811115611c3b578251825591602001919060010190611c20565b50611c47929150611c4b565b5090565b5b80821115611c475760008155600101611c4c565b60006001600160401b03831115611c7957611c7961279f565b604051611c90601f8501601f19166020018261272c565b809150838152848484011115611ca557600080fd5b83836020830137600060208583010152509392505050565b80356001600160a01b0381168114610cec57600080fd5b600082601f830112611ce557600080fd5b81356020611cf28261269f565b604051611cff828261272c565b8381528281019150858301600585901b87018401881015611d1f57600080fd5b60005b85811015611d3e57813584529284019290840190600101611d22565b5090979650505050505050565b600082601f830112611d5c57600080fd5b611d6b83833560208501611c60565b9392505050565b600060208284031215611d8457600080fd5b611d6b82611cbd565b60008060408385031215611da057600080fd5b611da983611cbd565b9150611db760208401611cbd565b90509250929050565b600080600080600060a08688031215611dd857600080fd5b611de186611cbd565b9450611def60208701611cbd565b935060408601356001600160401b0380821115611e0b57600080fd5b611e1789838a01611cd4565b94506060880135915080821115611e2d57600080fd5b611e3989838a01611cd4565b93506080880135915080821115611e4f57600080fd5b50611e5c88828901611d4b565b9150509295509295909350565b600080600080600060a08688031215611e8157600080fd5b611e8a86611cbd565b9450611e9860208701611cbd565b9350604086013592506060860135915060808601356001600160401b03811115611ec157600080fd5b611e5c88828901611d4b565b600080600060608486031215611ee257600080fd5b611eeb84611cbd565b925060208401356001600160401b0380821115611f0757600080fd5b611f1387838801611cd4565b93506040860135915080821115611f2957600080fd5b50611f3686828701611cd4565b9150509250925092565b60008060008060808587031215611f5657600080fd5b611f5f85611cbd565b935060208501356001600160401b0380821115611f7b57600080fd5b611f8788838901611cd4565b94506040870135915080821115611f9d57600080fd5b611fa988838901611cd4565b93506060870135915080821115611fbf57600080fd5b50611fcc87828801611d4b565b91505092959194509250565b60008060408385031215611feb57600080fd5b611ff483611cbd565b91506020830135801515811461200957600080fd5b809150509250929050565b6000806040838503121561202757600080fd5b61203083611cbd565b946020939093013593505050565b60008060006060848603121561205357600080fd5b61205c84611cbd565b95602085013595506040909401359392505050565b6000806000806080858703121561208757600080fd5b61209085611cbd565b9350602085013592506040850135915060608501356001600160401b038111156120b957600080fd5b611fcc87828801611d4b565b600080604083850312156120d857600080fd5b82356001600160401b03808211156120ef57600080fd5b818501915085601f83011261210357600080fd5b813560206121108261269f565b60405161211d828261272c565b8381528281019150858301600585901b870184018b101561213d57600080fd5b600096505b848710156121675761215381611cbd565b835260019690960195918301918301612142565b509650508601359250508082111561217e57600080fd5b5061218b85828601611cd4565b9150509250929050565b6000602082840312156121a757600080fd5b8135611d6b8161285a565b6000602082840312156121c457600080fd5b8151611d6b8161285a565b6000602082840312156121e157600080fd5b81356001600160401b038111156121f757600080fd5b8201601f8101841361220857600080fd5b61221784823560208401611c60565b949350505050565b60006020828403121561223157600080fd5b5035919050565b6000806040838503121561224b57600080fd5b8235915060208301356001600160401b0381111561226857600080fd5b61218b85828601611d4b565b600081518084526020808501945080840160005b838110156122a457815187529582019590820190600101612288565b509495945050505050565b6000815180845260005b818110156122d5576020818501810151868301820152016122b9565b818111156122e7576000602083870101525b50601f01601f19169290920160200192915050565b6001600160a01b0386811682528516602082015260a06040820181905260009061232890830186612274565b828103606084015261233a8186612274565b9050828103608084015261234e81856122af565b98975050505050505050565b6001600160a01b03868116825285166020820152604081018490526060810183905260a060808201819052600090612394908301846122af565b979650505050505050565b6001600160a01b039390931683526020830191909152604082015260600190565b602081526000611d6b6020830184612274565b6040815260006123e66040830185612274565b82810360208401526123f88185612274565b95945050505050565b602081526000611d6b60208301846122af565b60208082526028908201527f455243313135353a204552433131353552656365697665722072656a656374656040820152676420746f6b656e7360c01b606082015260800190565b60208082526049908201527f5b5573657247616d654974656d732e636865636b42616c616e6365416e64416c60408201527f6c6f77616e63655d2043616c6c6572206973206e6f74206f776e6572206e6f7260608201526808185c1c1c9bdd995960ba1b608082015260a00190565b60208082526024908201527f455243313135353a206275726e20616d6f756e7420657863656564732062616c604082015263616e636560e01b606082015260800190565b60208082526025908201527f455243313135353a207472616e7366657220746f20746865207a65726f206164604082015264647265737360d81b606082015260800190565b60208082526023908201527f455243313135353a206275726e2066726f6d20746865207a65726f206164647260408201526265737360e81b606082015260800190565b6020808252602a908201527f455243313135353a20696e73756666696369656e742062616c616e636520666f60408201526939103a3930b739b332b960b11b606082015260800190565b6020808252818101527f4f776e61626c653a2063616c6c6572206973206e6f7420746865206f776e6572604082015260600190565b60208082526028908201527f455243313135353a2069647320616e6420616d6f756e7473206c656e677468206040820152670dad2e6dac2e8c6d60c31b606082015260800190565b60208082526021908201527f455243313135353a206d696e7420746f20746865207a65726f206164647265736040820152607360f81b606082015260800190565b60006001600160401b038211156126b8576126b861279f565b5060051b60200190565b600082198211156126d5576126d5612773565b500190565b6000828210156126ec576126ec612773565b500390565b600181811c9082168061270557607f821691505b6020821081141561272657634e487b7160e01b600052602260045260246000fd5b50919050565b601f8201601f191681016001600160401b03811182821017156127515761275161279f565b6040525050565b600060001982141561276c5761276c612773565b5060010190565b634e487b7160e01b600052601160045260246000fd5b634e487b7160e01b600052603260045260246000fd5b634e487b7160e01b600052604160045260246000fd5b600060033d11156127ce5760046000803e5060005160e01c5b90565b600060443d10156127df5790565b6040516003193d81016004833e81513d6001600160401b03816024840111818411171561280e57505050505090565b82850191508151818111156128265750505050505090565b843d87010160208285010111156128405750505050505090565b61284f6020828601018761272c565b509095945050505050565b6001600160e01b0319811681146104b657600080fdfea26469706673582212208c55cad5a56ae90af586f05d254b8c6ed301dc104c8fca3de8589a0fb37343d164736f6c63430008070033",
  "linkReferences": {},
  "deployedLinkReferences": {}
}